:020000021000EC
:10200000C00A002051310100212B0300212B0300C5
:10201000EB360300212B0300212B0300212B0300AF
:10202000212B0300212B0300212B0300212B030074
:10203000212B0300F4EB0300FF380300212B0300E6
:10204000212B0300212B0300212B0300212B030054
:10205000212B0300212B0300212B0300212B030044
:10206000212B0300212B0300212B0300212B030034
:10207000D97B0100212B0300212B0300E92B010058
:10208000F1290300212B0300212B0300212B030046
:10209000212B03008D380100212B0300212B03008D
:1020A000212B0300212B0300212B0300212B0300F4
:1020B000212B030005060300212B0300C1100300A0
:1020C00067D6030063D60300B108030073D603008C
:1020D0006BD60300951003006FD6030001110300B7
:1020E000B5E7020079E9020071110300212B03001A
:1020F000212B0300212B0300212B0300212B0300A4
:10210000212B0300212B0300212B0300212B030093
:10211000212B0300212B0300212B0300212B030083
:10212000212B0300212B0300212B0300212B030073
:10213000212B0300212B0300212B0300212B030063
:1021400082B030BF074BD3F8F030DB0704D5002353
:102150000193019B052B01DD02B07047019B013308
:10216000F6E700BF00ED00E0F0B5114A114C124E49
:1021700000F00105E3695F0713D40DB9334213D1B1
:1021800003EA00078F4207D10B4A1A40002A0CBF0E
:1021900000206FF00100F0BD013AEBD16FF00200BA
:1021A000F9E74FF0FF30F6E76FF00100F3E700BF0B
:1021B0008096980000000350020001000B4B70B5A0
:1021C000D96911F480310DD101244FF48072084E89
:1021D000084DF46020462C641A61FFF7C5FF346493
:1021E000EC6070BD6FF00100FBE700BF0000035022
:1021F00000100350002003504FF4003238B50F4B4D
:102200000F4C9A6641F671330122E569E3630D4B89
:102210000021DA60022360612120236105F480350A
:10222000FFF7A2FF10B92120FFF79EFF0122064B06
:10223000DA600DB10023E36338BD00BF00900050A9
:1022400000000350001003500020035070B5134CE1
:102250006061E3695B071ED40E4656F8043B8D1897
:10226000A361AE420BD10423002121202361FFF79B
:102270007BFF58B9BDE870402120FFF775BF0821EA
:102280000846FFF771FF10B10423236170BD56F8B3
:10229000043BA361E5E74FF0FF30F7E70000035090
:1022A0002DE9F84315464FF40032184B89469A66DB
:1022B00041F6713203F51C33DF69DA630122064609
:1022C00003F58053DFF84C8007F48037DA6055B9A6
:1022D000284601220E4BDA601FB10022A3F50053FD
:1022E000DA63BDE8F88306F5005404EA0804A41B89
:1022F000AC4228BF2C46494622463046FFF7A6FF8F
:102300000028E6D12644A1442D1BE0E700900050B0
:082310000020035000E0FFFF74
:10231800002370B5404C05468AB0E36318B10088C5
:1023280023600DF01BFC3D482AF01AFC3C4E3D4B47
:10233800304633603C4B736025F0CDFF00213046BA
:1023480017F0C0FF32A3D3E90023A062C4E9062333
:1023580025F0CCFFD4E9062319431043C4E906014C
:10236800CDE900014FF0FF334FF0FF32A06A2AF0A9
:102378007FFC02224FF0FF31A06A2AF07EFC012088
:102388000DF0F2F84FF4007300222849A06A2AF0F1
:10239800C6FCB0F5007F38D100239422CDE907337D
:1023A80009933C23CDE9033205939623A06A03A938
:1023B800069318F06FF835B3287C0DF089FD0546B3
:1023C800F0B9A06A2AF08BFD0DF030FD0DF0AEF8E3
:1023D80020B14FF48070002109F0E2FA0DF0B6F850
:1023E80020B14FF40060002109F0DAFA26F003F872
:1023F800012017F0BDFF0E4A0E49A06A25F069FFBB
:1024080028460AB070BDFF20D7E70725F8E700BFC8
:102418000DD5015520000000300B0020690345EC64
:10242800FC1D0020F5F301000C1E0020FC1B002001
:1024380083820300C38203000348044B834202D013
:10244800034B03B118477047F02A0020F02A0020F8
:1024580000000000064B0749C91A891048BF01311E
:10246800491003D0044B0BB101481847704700BF0F
:10247800F02A0020F02A00200000000010B5064CC9
:10248800237843B9FFF7D8FF044B13B10448AFF3DF
:1024980000800123237010BDCE250020000000001D
:1024A800B432040008B5054B1BB105490548AFF324
:1024B8000080BDE80840FFF7CDBF00BF0000000066
:1024C800980D0020B4320400A3F5803A704700BF8D
:1024D800174B002B08BF134B9D46FFF7F5FF002154
:1024E8008B460F461348144A121A2BF07DF90E4BEF
:1024F800002B00D098470D4B002B00D098470020A8
:10250800002104000D000D48002802D00C48AFF34C
:1025180000801FF0D3F92000290020F007FA1FF0EF
:1025280037F800BF000008000000000000000000AD
:10253800C00A0020C00A0020F02600200000000089
:1025480000000000F0B50646494BADF5037D02AC2E
:1025580003F11005224618685968083303C2AB42D4
:102568001446F7D1ED22002106A82BF03DF9414B86
:1025780042AF3B6000231A1D0133DBB2D2B2FC2B01
:10258800BB54F8D110F03EFC3B4C0546F0B13B493A
:10259800206820F040FE3A49206820F03CFE20F0F8
:1025A8006EFA20F06DFA374B374A00933749BF234C
:1025B800206820F030FE364A3649206820F02BFE8D
:1025C8002A463549206820F026FEFEE70F2002A99A
:1025D80010F008FC054640B120F051FA20F050FAFE
:1025E8002A462E49206820F016FE3946042010F0AD
:1025F800F9FB054620F043FA20F042FA2A4627491B
:10260800206820F008FE43A9FC2010F0EBFB0546EB
:1026180020F035FA20F034FA2A462049206820F0C4
:10262800FAFD304610F042FB0546F0B11349206828
:1026380020F0F1FD1249206820F0EDFD20F01FFA8E
:1026480020F01EFA0F4B104A00931049D723206838
:1026580020F0E1FD0E4A0F49206820F0DCFD2A46F3
:102668000F49206820F0D7FDFEE70DF5037DF0BD8A
:1026780048E70300FFFFD308680E0020F7E70300D0
:1026880070E6030031E9030075E603007EE6030007
:102698008AE603009DE60300B5E60300E5E60300CD
:1026A8001CE703000023A02273B5114600930546DA
:1026B80010F0C4FA3D4C0646F0B13D49206820F0C0
:1026C800AAFD3C49206820F0A6FD20F0D8F920F0AA
:1026D800D7F9394B394A00933949EC23206820F05F
:1026E8009AFD384A3849206820F095FD3246374926
:1026F800206820F090FDFEE72846FFF723FF04221C
:102708000121284610F0BCFA0646F0B12849206895
:1027180020F081FD2749206820F07DFD20F0AFF9E9
:1027280020F0AEF9244B254A00932549F32320686D
:1027380020F071FD234A2449206820F06CFD3246C0
:102748002349206820F067FDFEE702460146284637
:1027580010F0D2FA0546F0B11549206820F05BFD6B
:102768001449206820F057FD20F089F920F088F9F5
:10277800114B124A00931249FB23206820F04BFDAD
:10278800104A1149206820F046FD2A461149206860
:1027980020F041FDFEE720F072F920F071F90E49B2
:1027A800206802B0BDE8704020F035BD680E0020FA
:1027B800F7E7030070E6030018E9030075E6030075
:1027C8007EE603008AE603009DE6030058E703005F
:1027D80086E70300B2E70300DBE7030070B5036890
:1027E8008D4A23F47F4323F00703934205468CB0B8
:1027F80005D08A4A934200F0BF800CB070BD20F02B
:102808003EF920F03DF96B89854C01932B89854968
:102818000093EB88AA88206820F0FDFC0DF11F01C9
:1028280008A810F0C1FA0546F0B17F49206820F0E9
:10283800F2FC7E49206820F0EEFC20F020F920F020
:102848001FF97B4B7B4A00937B494D23206820F07E
:10285800E2FC7A4A7A49206820F0DDFC2A46794968
:10286800206820F0D8FCFEE720F009F920F008F9EC
:102878009DF820309DF81F0004939DF8213072497F
:1028880003939DF82230714A02939DF82330002863
:1028980018BF0A4601939DF824306D4900932068BB
:1028A8009DF8253020F0B7FCBDF8243029465BBAE6
:1028B800ADF828309DF8233008228DF82A30FF2300
:1028C8008DF82B30FE238DF82C309DF82230122005
:1028D8008DF82D30BDF820305BBAADF82E300AAB3C
:1028E80010F034FA0546F0B14F49206820F093FC07
:1028F8004E49206820F08FFC20F0C1F820F0C0F885
:102908004B4B4C4A00934C496623206820F083FCCB
:102918004A4A4B49206820F07EFC2A464D492068E7
:1029280020F079FCFEE74C4E304610F06FF9054672
:10293800F0B13D49206820F06EFC3C49206820F049
:102948006AFC20F09CF820F09BF8394B394A009338
:1029580039496C23206820F05EFC384A38492068E1
:1029680020F059FC2A463D49206820F054FCFEE737
:102978003078FFF797FE40E7374D0221287810F0AE
:10298800A7F90446F8B1264D2749286820F043FCEA
:102998002649286820F03FFC20F071F820F070F8F4
:1029A800234B244A009324497D23286820F033FCD4
:1029B800224A2349286820F02EFC22462849286804
:1029C80020F029FCFEE702460321287810F094F94C
:1029D800054600283FF411AF114C1349206820F038
:1029E8001AFC1249206820F016FC20F048F820F064
:1029F80047F80F4B0F4A00930F498423206820F0B3
:102A08000AFC0E4A0E49206820F005FC2A461549A2
:102A1800206820F000FCFEE7A0000100A0000601ED
:102A2800680E002015E80300F7E7030070E60300CE
:102A380044E9030075E603007EE603008AE6030026
:102A48009DE603003CE80300F9E7030007E80300FC
:102A580069E803009EE80300C62A0020C5E80300D1
:102A6800F3E80300B2E7030008B501F0A5FE01286A
:102A78000ED10F4B04205A6E4FF480230D49520398
:102A880058BF0D4A4B6601F51041086258BF53669E
:102A980003F0F8F920F012FB03F0BCF903F0D2FCC4
:102AA80000F022FC00F028FFBDE8084004F0E4B87C
:102AB800008000500090005000A0005030B5224D1A
:102AC80095B00DAC0FCD0FC495E80700032384E83B
:102AD80007008DF84D3029231C4A1D49CDE90223F2
:102AE8001C4B0E22CDE904134FF4807300210DF125
:102AF800260006932AF078FE4FF4A020164B07A96B
:102B0800CDE907030F238DF8243010238DF82530E5
:102B1800124B0DAA0A9320230B9301238DF8313011
:102B28000F4B1048009302AB03F0CAFB04469DF814
:102B380032304FF4E130002B0CBF032100211FF08D
:102B4800DCFF204615B030BD1CEB0300000006502A
:102B5800000500060008000724000650CF250020C5
:102B6800B00D0020040E0020831E012B10B512D8D2
:102B7800012922D8114B04221B6905210020C3F327
:102B8800401301F067FC0E4B1B681868A8B1BDE83C
:102B98001040436A18478B1E012B0CD801280CD80B
:102BA800BDE810400022054B05211B691046C3F300
:102BB800401301F04FBC0129E5D910BD00C00350F6
:102BC800C828002008B50449044804F029F9BDE8DC
:102BD8000840FFF773BF00BFCC280020280E002054
:102BE800014820F0B3BC00BF040E0020014B1A6A54
:102BF80018681047040E0020184B37B583422AD1B5
:102C0800174B1B783BB3C8B210F08EF8054610B3CB
:102C1800144C1549206820F0FEFA1449206820F069
:102C2800FAFA1FF02CFF1FF02BFF114B114A0093EB
:102C380011498523206820F0EEFA10492B46104AE6
:102C4800206820F0E8FA284600F014F90D492068B9
:102C580020F0E1FAFEE703B030BD00BF300E0020DF
:102C6800EF250020680E0020F7E7030070E6030058
:102C7800BBEB030038EB03007EE6030095EB030093
:102C880092EB0300AAEB030030B500250368584A0D
:102C980023F47F4323F0070385B09342044602954B
:102CA800ADF80C507ED002F5802293420ED0A2F1EE
:102CB8008272934240F09A804E4B1B78002B00F0B2
:102CC800958005B0BDE8304020F004BEB0F805306E
:102CD800152B40F08B80FF2304A91A4611E9030045
:102CE8001FF0C6FE012814BF41F2FC15414B05F048
:102CF800FC0208BF18701521207910F03DF8054630
:102D080010B33D4C3D49206820F085FA3C492068C5
:102D180020F081FA1FF0B3FE1FF0B2FE394B3A4A99
:102D280000933A495923206820F075FA38492B4610
:102D3800384A206820F06FFA284600F09BF8364998
:102D4800206820F068FAFEE7344900902379344A75
:102D58000968344800F0EAF80546002846D0264CB1
:102D68002649206820F057FA2549206820F053FAB0
:102D78001FF085FE1FF084FE224B234A009323494F
:102D88006223206820F047FA21492B46214A20680F
:102D980020F041FA284600F06DF81F49206820F01D
:102DA8003AFAFEE7B0F80530B7EE047A07EE903A43
:102DB800F8EE677AB0F8073067EE877A013307EEE6
:102DC800103AB8EEC77A67EE877AB1EE047A67EE02
:102DD800877AFAFE677AFCEEE77A17EE903AB3F54F
:102DE8007A7F38BF4FF47A730C4A136005B030BD50
:102DF800A0000602EF250020680E0020F7E7030078
:102E080070E60300CAEB030038EB03007EE603001C
:102E180095EB030092EB0300AAEB0300D4280020F3
:102E2800012C0100300E0020012208B5074B1A7052
:102E38000022074B1A700422064B1A701F22064BF9
:102E48001A7003F09DF8054B186008BDC92A0020C8
:102E5800F0250020C82A0020C72A0020680E00207C
:102E6800024B0349186820F0D6B900BF680E00204D
:102E7800EAEB030070B50C4C0C490646206820F0BC
:102E8800CAF903F07DF80546206803F06DF830466E
:102E9800FFF7E6FF284603F067F820680449BDE815
:102EA800704020F0B8B900BF680E0020ECEB0300BA
:102EB800EEEB030038B505461FF049FE00230B4A28
:102EC80014685CB1AC4206D1A96A6BB199621FF073
:102ED80044FE012007E02346A46AF2E7002DF3D060
:102EE8001FF03BFE204638BD1160F0E76C0E002055
:102EF80010B50446B0B104F0FDFB2046FFF7DAFF39
:102F080010B194F82C300BB9002010BD064C236882
:102F1800002BF9D01FF01BFE2368013B23601FF034
:102F28001CFEF1E72220F0E7700E00202DE9F043A7
:102F380085B00546914698460E469DF8307009B909
:102F4800002F5CD12846FFF7D3FF0446002836D16E
:102F580085F82C00686304F0DBFC864233D904F062
:102F680077FC2146844640F2E7304FF47A7200231A
:102F7800E6FB0C011EF07CF94FF0FF3200231EF037
:102F880077F92B46E88611462846CDE900441D4AC4
:102F980020F028FC044690B9C5E9089885F82D70FA
:102FA8002E631FF0D4FD184A136833B31A469B6A80
:102FB800002BFBD195620023AB621FF0CEFD2046AB
:102FC80005B0BDE8F08347B12B4631462846CDE928
:102FD80000440C4A04F060FCDCE7304603A904F026
:102FE8003DFC04460028EAD12B462846CDE9007767
:102FF800044A039920F0D2FBCCE71560DBE72124D3
:10300800DDE700BF153001006C0E002091F82C3070
:1030180013B50C4683B98B8ECA8E93420ED243B930
:10302800CDE9003320460B46124A4FF0FF3120F01D
:1030380099FBA38E0133A38602B010BD52B191F85B
:103048002D3093B101230093D1E908232046096B61
:10305800FFF76CFF012384F82C30074B1A68013204
:103068001EBF1A6801321A60E6E7084604F042FB00
:10307800F0E700BF15300100700E00202DE9F04187
:10308800154E336833B34FF00008144F1FF05FFD3F
:1030980005463C6824B92846BDE8F0411FF05DBDEF
:1030A80094F82C30A3B1336884F82C8013B13368BA
:1030B800013B336094F82D3013B92046FFF7FAFE30
:1030C80028461FF04AFDD4E9083120469847DDE735
:1030D800A46ADFE7BDE8F081700E00206C0E0020C6
:1030E800034B1B68002B14BF04200120704700BF4E
:1030F800700E0020024B1868B0FA80F04009704743
:10310800700E002007B508201FF031FD02238DF84E
:103118000030054B684601931FF0B3FC082003B04C
:103128005DF804EB1FF02EBD006A18100348044A2E
:103138000449121A92101FF0F0BC00BF4021010090
:1031480018230100F026002008B500F02FF8FFF73B
:10315800EDFF124B12498B4212D30020114B12493A
:103168008B4218D3FFF7B4F9186850F82240586812
:1031780040F82240013298688242F5D30C33EAE7DE
:103188000022F8E71C6844F8220001325C68A24279
:10319800F8D30833E4E70022F8E700BFBC320400A4
:1031A800C8320400C8320400C83204004FF4004199
:1031B800134B144A70B59A60D3F88820124D42F424
:1031C8007002C3F88820114A05F5005491664FF043
:1031D800FF3222664FF6DF7262660222C3F8D02001
:1031E800BFF34F8FBFF36F8F4FF44036032002F0C9
:1031F80099FE0320E66002F087FE2E6170BD00BFD5
:1032080000ED00E000200100008000440090005024
:10321800014B1868704700BFDC280020084B1B6F63
:1032280003F00703022B04D0032B05D0012B05D094
:10323800FEE7044B18687047034BFBE703487047E9
:1032480000800050DC280020E4280020002D3101F7
:1032580008B5FFF7E3FF054B1B6FC3F303330133D7
:10326800B0FBF3F0024B186008BD00BF00800050AF
:10327800D82800200048704700B4C404014B1868DF
:10328800704700BFE4280020054B1860054B1B6FF2
:1032980003F00703032B01D1FFF7DABF704700BF24
:1032A800E42800200080005000487047002D3101BC
:1032B800014B1868704700BFE028002000239B6A74
:1032C800B3F5903F03D21968064A914203D0002310
:1032D800037083607047012202709A689B6942609C
:1032E800F7E700BF07B0CD5E00239B6A10B5B3F5C2
:1032F800903F11D219680A4A91420DD1094C22789F
:1033080012F0FD0F01D0002010BDDB69984700289E
:10331800FAD101232370F6E74FF48170F4E700BF78
:1033280007B0CD5EF12500204FF00053014A1A6026
:1033380002F0C6BD02020FF0034B5868C0F3080044
:10334800003818BF0120704700ED00E013B50024D5
:10335800294801941FF0BEFE0123042203212046C0
:1033680001F078F820461FF051FD0122234B05207B
:10337800C3F8442401A91FF0A3FE002839D1204B2B
:10338800D3F8F02042F00102C3F8F020D3F8FC2073
:1033980042F08072C3F8FC201A4AA3F55D431A6014
:1033A800019B194A03F5D52303F2FC43B3FBF2F35F
:1033B800164A013B13610223C2F8F0304FF48073C0
:1033C800C2F804334FF06043114AC3F8B02F114AD2
:1033D800C3F8802ED3F8002E42F48072C3F8002E72
:1033E800FF2283F82020D3F8002E22F48072C3F83D
:1033F800002E02B010BD00BFD0EC030000D0035077
:1034080000ED00E0FF030040F8590D00000004E063
:1034180055CEACC5090001004FF06043D3F8802EAB
:1034280030B5D20715D501240B4D8440D5F8FC20C2
:1034380042F08072C5F8FC20D3F8002E2243C3F86E
:10344800002E53F82020002AF0D003F82010002086
:1034580030BD1120FCE700BF00ED00E02DE9F04F82
:103468009A46564B85B01B7806460F461546DDF83A
:103478003C909DF844B0DDF85080002B00F0978018
:10348800072A00F296800E9B002B00F09280B9F17B
:10349800000F00F08E80129BB3F5006F00F3898057
:1034A800012803D1109B002B00F08380444B03EBD1
:1034B80005131B7B002B7ED0424C1022002168464E
:1034C8002AF092F904EB45141022A7BB394620468E
:1034D8002AF08AF943F210036380BBF1000F03D18D
:1034E800E37843F00303E370364A0E9B02EB451C76
:1034F800CCE90193129B6901581E9DF84C30C0F32A
:103508000A0003F003039B0643EA001E53582E48A3
:10351800012E00EA03004EEA0003CDF800A0535044
:1035280017D0B8F1000F2ED19CF8023068F30413BD
:103538008CF8023027E0002120462AF055F94FF494
:1035480044736380BBF1000FCED1E37843F03003BE
:10355800C9E713230CF1100ECCF80C309CE80F00CF
:103568008EE80F006FF00301DCF81C20109B61F35C
:103578009F02012FCCF81C20CCF8143003D1CCF8D2
:103588001890CCF8043000270D4A290102EB0513E6
:1035980042F80180159A28465A60694622469F607B
:1035A8005E7300F0EBFF384605B0BDE8F08F0748C2
:1035B800FAE70748F8E70748F6E700BFF2250020D2
:1035C800740F0020740E00200F80FFF3028000F0BB
:1035D800018000F0078000F038B5124B05461B78D3
:1035E800DBB1E0B11FF0B3FA0F4A00231146147B98
:1035F80054B92B6001251A0101EB03131D738C507C
:103608001FF0ABFA204638BD0133082B02F1100237
:10361800EDD11FF0A2FA0548F5E70548F3E705489C
:10362800F1E700BFF2250020740F0020048000F0AD
:10363800028000F0018000F038B51FF088FA0023FE
:1036480005460B4A147B6CB90133082B02F11002B2
:10365800F8D100F03FFF074B28461C701FF07DFA99
:10366800204603E028461FF078FA034838BD00BF1B
:10367800740F0020F2250020058000F00D4B10B5D6
:103688001B78044693B1072812D81FF060FA0A4B3A
:1036980003EB04131A7B2AB100241C731FF05DFA94
:1036A800204610BD1FF059FA0448FAE70448F8E725
:1036B8000448F6E7F2250020740F0020068000F089
:1036C800028000F0018000F0154B13B51868002344
:1036D80001908DF804301FF03AFA124B1C7824B18F
:1036E8001FF03BFA104802B010BD01221A701FF0FB
:1036F80034FA0E4B01A81C731C7783F82C4083F80E
:103708003C4083F84C4083F85C4083F86C4083F875
:103718007C4008238DF8073000F000FF2046E2E7E0
:1037280044EC0300F2250020038000F0740F002011
:103738000A4A08B512785AB107280BD8084A02EB8A
:1037480000131B7B43B1002100F0DAFE002008BD06
:103758000448FCE70448FAE70448F8E7F2250020A3
:10376800740F0020028000F0018000F0078000F054
:103778000A4A08B512785AB107280BD8084A02EB4A
:1037880000131B7B43B1012100F0BAFE002008BDE5
:103798000448FCE70448FAE70448F8E7F225002063
:1037A800740F0020028000F0018000F0078000F014
:1037B8000A4A08B5127852B107280AD8084A02EB13
:1037C80000131B7B3BB100F025FF002008BD054816
:1037D800FCE70548FAE70548F8E700BFF2250020AE
:1037E800740F0020028000F0018000F0078000F0D4
:1037F8000D4B1B7893B1072812D889B10B4B03EBFB
:1038080000131B7B73B10A4B1A6D012383401342CB
:1038180014BF0123002300200B7070470548704730
:103828000548704705487047F2250020740F0020AE
:1038380000000450028000F0018000F0078000F0D2
:103848000B4A10B512780C4662B107280CD859B14A
:10385800084A02EB00131B7B43B100F0EDFE207019
:10386800002010BD0448FCE70448FAE70448F8E7DC
:10387800F2250020740F0020028000F0018000F083
:10388800078000F0184B2DE9F0411F6D5B6D1F405C
:1038980000D5FEE701260025144CDFF85880374292
:1038A80018D02368C8F85060A3B1A1682846013130
:1038B8006268A1609847637B012B0BD150B90C4B10
:1038C80003EB45131A7B60F341021A731A7F60F306
:1038D80041021A770135082D4FEA460604F1100413
:1038E800DDD1BDE8F08100BF00000450740F002056
:1038F800740E002000200450024B1968024B18680F
:1039080016F0ECB8E82800200829002070B59400CB
:10391800224605460E462AF09BFE431C0AD058B99B
:1039280022463146284629F035FF0028034808BFBB
:10393800002070BD0248FCE70248FAE710E000F0FA
:1039480021E000F024E000F010B504462AF084FEDF
:10395800431C10D088B900F037FF234620F003003D
:103968002044984201D1002010BD53F8042B0132A5
:10397800F7D00348F8E70348F6E70348F4E700BF41
:103988000EE000F021E000F024E000F008B51FF0A0
:10399800D7F8014B186008BDE4160020014B1868E1
:1039A8001FF0D2B8E4160020044BD3F88420D206C6
:1039B800FBD4D3F88400C0F3811070470040005056
:1039C80038B5104B0546D3F820310C4603F00303F5
:1039D800022B0BD0032B0DD0012B0FD1FFF718FCB6
:1039E800052305B1286004B1236038BDFFF746FC04
:1039F8000323F6E7FFF758FC0223F2E70123002030
:103A0800EFE700BF0080005073B50D4600210E4B54
:103A18000191D3F88041064604F00304012C09D033
:103A2800022C0CD00C460EB1019B336005B12C6002
:103A380002B070BD01A8FFF7C3FF0F24F3E7FFF73B
:103A480033FC0190EFE700BF0080005038B5184BF9
:103A58000546D3F824010C4600F00700062823D8B1
:103A6800DFE800F0040A121A1E0E1600012305B141
:103A7800286004B1236038BDFFF7CAFB0523F6E7C9
:103A8800FFF7C6FB0623F2E7FFF7F8FB0323EEE791
:103A9800FFF7F4FB0423EAE7FFF706FC0223E6E757
:103AA8001FF046F80723E2E700231846DFE700BFC8
:103AB8000080005038B5104B0546D3F840310C460D
:103AC80003F00303022B0BD0032B0DD0012B0FD1D6
:103AD8001FF030F8092305B1286004B1236038BD10
:103AE800FFF7E6FB0823F6E71FF027F80B23F2E7BA
:103AF80001230020EFE700BF0080005038B5144BC9
:103B08000546D3F800020C4600F0070004281BD82D
:103B1800DFE800F003090D111500012305B1286045
:103B280004B1236038BD1FF005F80923F6E7FFF755
:103B3800BFFB0823F2E71FF000F80B23EEE7FFF7BF
:103B480087FB0E23800AE9E700231846E6E700BF53
:103B58000080005038B5104B0546D3F840320C466B
:103B680003F00303022B0BD0032B0DD0012B0FD135
:103B78001EF0E0FF092305B1286004B1236038BDB9
:103B8800FFF796FB0823F6E71EF0D7FF0B23F2E7B3
:103B980000231846EFE700BF0080005038B5104BEF
:103BA8000546D3F860310C4603F00303022B0BD013
:103BB800032B0DD0012B0FD11EF0BCFF092305B13B
:103BC800286004B1236038BDFFF772FB0823F6E7CD
:103BD8001EF0B3FF0B23F2E701230020EFE700BF3D
:103BE8000080005010B40D4C0B46D4F8204204F06D
:103BF8000304012C0AD0022C0CD008B1002101606A
:103C08000BB100221A605DF8044B70475DF8044B55
:103C1800FFF7D6BE5DF8044BFFF74CBF008000509D
:103C280038B50C4605461EF08BFF054B9A6A544082
:103C38002C4054409C62BDE838401EF085BF00BF50
:103C480000C00050B0F5207F1FD009D8B0F5007F24
:103C580015D003D868B1B0F5C07F0AD000200CE0B9
:103C6800B0F5607FFAD10B4BD3F88000C0F3011098
:103C780003E0084B186FC0F3033001307047054B61
:103C8800D3F89000C0F30460F7E7024B186FC0F355
:103C98008020F2E7008000504FF400320E4B0146BE
:103CA80010B500209A66FFF7CDFF484341F6713200
:103CB8000A490B4B884294BF00200120DC69DA6373
:103CC8009A6822F4401242EA00529A60E20344BF22
:103CD8000022DA6310BD00BF00900050005A620253
:103CE80000000350420910B50FD0012A0FD00A4B2B
:103CF8000A4C022A18BF234600F01F0049B103F5F9
:103D08008053012282401A6010BD1346F4E7044B29
:103D1800F2E703F50053F4E7688000506082005032
:103D28006480005008B580201EF08FFF034B984236
:103D38009EBF4FF48032024B1A6708BD005A6202D8
:103D480000A000501FB50023B0F5807F019377D005
:103D580028D8382800F094800BD82438092810D89F
:103D680009280ED8DFE800F0676767670D0D620D58
:103D7800377D52285FD008D83D283BD03E2800F038
:103D88008480019805B05DF804FB8028F9D1414B87
:103D98001B6F03F00703013B032BF2D8DFE803F0A6
:103DA80044413F6CB0F5D06F5BD019D8B0F5A06F27
:103DB80066D00AD8B0F5806F3DD0B0F5906FE0D1ED
:103DC800002001A9FFF742FEDBE7B0F5B06F2DD068
:103DD800B0F5C06FD5D1002001A9FFF76BFED0E781
:103DE800B0F5006FECD00AD8B0F5E06F4DD0B0F563
:103DF800F06FC6D1002001A9FFF7D0FEC1E7B0F5EA
:103E0800086FBED1234BD3F8003103F00303022B14
:103E18002CD0032B2ED0012B30D1FFF72FFA032300
:103E280000E005230193ACE70223FBE7002001A98A
:103E3800FFF7EAFDA5E7002001A9FFF7C1FDA0E70C
:103E480002934FF0E0231B695B0705D5FFF700FAE3
:103E58000C230393039BE5E703A902A8FFF72AFEB7
:103E6800F8E7002001A9FFF749FE8AE7FFF720FAE3
:103E78000823D7E71EF05CFE0723D3E70123D1E729
:103E8800002001A9FFF7AEFE7BE7002001A9FFF79C
:103E980061FE76E70080005008B5FFF753FF082859
:103EA80011D00938012802D94FF6FF7008BD4FF428
:103EB8000012064B5A6603F5D8335B6ADB07F3D565
:103EC8004FF4FA70F2E7024B1888EFE700900050C1
:103ED800B42A002008B5FFF735FF03280ABF024BB4
:103EE8004FF6FF70188808BDB22A0020F8B50446BE
:103EF8008020FFF727FF032800F087804FF4002277
:103F0800424B02215A6645F60E03414AC2F88030F8
:103F1800404B9962012103F580539962936DD9034F
:103F2800FCD4D4E900131B0543EA0163E17B94F850
:103F380020500B43217BE77E43EA0143617B6D01FF
:103F480043EA0133A17B43EA811313619169D4E900
:103F580004031B0643EA806301F000410B43A17E82
:103F680094F823000B43217E43EA0143617E43EA30
:103F780001239361136AE66923F00D0394F8221074
:103F880043EA8703002E2DD11362966A94F82130F4
:103F980045EA031326F033052B4343F001039362EC
:103FA8001D4D1B4B9A6D35EA0202FBD10222194DB9
:103FB800AA621A659A6D5200FCD41A69A56822F49F
:103FC800700242EA05521A614FF00042114B9A61A1
:103FD80019B9022203F580539A6278B901220F4B6E
:103FE8009A620BE0334343F008031362936A23F0A9
:103FF800330303432B4343EA4103936294F8243089
:104008001BB1034B064AC3F88020F8BD009000504E
:1040180000C0005000D000500300014000E00050F4
:10402800F1A7FFFF1E4BFF2870B59E6A35D89A6D21
:1040380012F4803F18BF01211A4A18BF9162022169
:1040480091629B6DDC0303D5154A936D9907FCD5E6
:104058000222144B124D1A65AC6D14F08044FBD14A
:10406800114AAB6992F9002023F47F03024423F438
:104078007F4382F3080243EA002343EA0243AB6129
:1040880031460220FFF7CCFDAB6DDB0303D531468B
:104098000120FFF7C5FD204670BD2124FBE700BFC6
:1040A80000C0005000D00050F3250020014B93F9C8
:1040B80000007047F325002001221548154B816A3E
:1040C8009A62826D02F00302032AFAD102229A62EE
:1040D8001A650F4A936D5B00FCD40F48936D30EA64
:1040E8000303FBD101220B4B1A65A3F580539A6D8C
:1040F8009007FCD49A6D9207FCD50222054B1A65ED
:10410800034A936D9B07FCD50320FFF789BD00BFC9
:1041180000C0005000D0005003000100014B18807F
:10412800704700BFB22A0020B0F5207F10B50C46BA
:1041380042D008D8B0F5007F33D003D888B1B0F5A5
:10414800C07F0ED010BDB0F5607FFBD11F4A4C1E5A
:10415800D2F8803023F0300343EA0413C2F88030E9
:10416800F0E71EF06AFD1EF034FE4FF48031184B64
:10417800164A1967136F013C23F4704343EA04336A
:104188001367FFF765F80446FFF70EFCC0F102015C
:1041980020461EF018FE00F01DF8BDE81040FFF79D
:1041A800C1BD0A4A4C1ED2F8903023F0F85343EAB6
:1041B8000463C2F89030C5E7044A4C1E136F23F419
:1041C800806343EA84231367BCE700BF0080005084
:1041D8000090005008B54FF4C0701EF036FDBDE8E1
:1041E80008400449884294BF012102214FF42070FD
:1041F800FFF79ABF80F0FA0210B5224B70B94FF45E
:104208000031214A1860516602F598325268012A35
:1042180003D11E4AD2F800211A6010BD1B68002B7A
:10422800FBD01B4A5268012AF7D0184A8020C2F8EE
:104238000031FFF787FD05281FD14FF4C070FFF745
:1042480001FD0128044604D102214FF4C070FFF794
:104258006BFF07220F4B1A610122A3F580535A60A6
:104268000B4A1369DB07FCD5012CD6D12146BDE8E2
:1042780010404FF4C070FFF757BF0122064B5A6039
:10428800CBE700BFE81600200090005000800050E7
:1042980000C0015000E0015000D00150044A4178AC
:1042A800536F23F4407343EA01235367704700BFF9
:1042B8000040005010B5044610B10020FFF79CFFE5
:1042C800124A136943F00403136102F0E5FF1EF07C
:1042D80085FD0F4B5B6E5B0142BF0E4B0E4AC3F868
:1042E80020241EF02DFC2AF0BBF91EF02DFC1EF038
:1042F80076FD02F0F9FF1CB9BDE81040FEF7A8BF33
:104308000120BDE81040FFF777BF00BF00ED00E0D7
:104318000080005000E003500000FF0F10B5044675
:1043280010B10020FFF768FF104A136943F0040337
:1043380013610F4B5B6E5B0142BF0E4B0E4AC3F815
:10434800202402F0A9FF1EF0FBFB2AF089F91EF0D9
:10435800FBFB02F0C9FF1CB9BDE81040FEF778BFAF
:104368000120BDE81040FFF747BF00BF00ED00E0A7
:104378000080005000E003500000FF0F034A01795D
:10438800D36E23F030030B43D366704700400050D0
:10439800F8B504461C4BD3F88420D106FBD4D3F8D7
:1043A8008430C3F381139C422CD0FEF737FF012CD5
:1043B800064602D121461EF006FD1EF0C1FB4FF055
:1043C8000072124B07465A6620461EF00FFD4FF446
:1043D80080630D4D621E93402B676B6E9A0103D468
:1043E800D5F884309B060AD538461EF0ADFB022C62
:1043F80008D13046BDE8F84000211EF0E4BCD5F8ED
:104408008430EAE7F8BD00BF00400050006000506B
:1044180010B50C4608B9FEF701FF074B21461B787B
:104428003BB1064B984204D80120BDE81040FFF785
:10443800AFBF0220F9E700BFF4250020005A62024E
:104448000278034B012100201A70FFF7E1BF00BF7B
:10445800F4250020F8B504460D461F4616464AB115
:1044680001238B403021184A01FB0022F7B141F2A9
:104478001001535004EB4403072D4FF00F014FEA8E
:10448800031316D8A80006FA00F281400F48184412
:104498001EF0ADFC4EB9012330210B4AAB4001FBA5
:1044A800042277B141F210015350F8BD42F21001D5
:1044B800DFE7A5F10800800006FA00F28140044811
:1044C800E5E742F21001EFE700C0035004C00350D3
:1044D8000CC0035010B5152001F004FD0024FF2284
:1044E800064B21465C6520209A625C60FFF7FAFB68
:1044F8002146BDE810402120FFF7F4BB000004501E
:10450800044A054B002908BF1346012282401A605D
:10451800704700BF401004504020045010B50121DE
:1045280004462020FFF7DEFB01212120FFF7DAFBFC
:104538000122114B15205A60227812069A60617880
:10454800A27842EA01429A61FF229A6200229A63A3
:104558001A644FF000425A654FF0FF3203F50053DA
:104568001A6501F0DFFC1520E17801F0E9FCBDE8EF
:104578001040152001F0C8BC00000450F8B5012512
:10458800C3B2DFF88CC0D1F800E09D408F7ACB7AB7
:104598000C46097BCCF850500CF5005C4CF820E038
:1045A8004FF0300E184E1B050EFB006094F80DC03E
:1045B80043EA074343EA415322F00302C0F860C0CC
:1045C800C36502671EF0C3FA104B5D65237A13B109
:1045D800336C2B433364637A13B1B36B2B43B363EC
:1045E8002279A37943EA0243094A93616179E3791D
:1045F80043EA014305498B61034B55639D64BDE85C
:10460800F8401EF0AABA00BF000004500010045081
:104618000020045010B50124C0B284401EF097FA5F
:10462800044B5A6D22EA04025A659C62BDE81040A8
:104638001EF093BA0000045010B50124C0B28440A3
:104648001EF085FA074BDA6A224208D15B6B9C435D
:104658000CBF012400241EF080FA204610BD00245F
:10466800F9E700BF000004504FF40032054B9A668A
:1046780041F6713203F51C33DA63012203F5005366
:10468800DA6070470090005041F671320121064B04
:10469800DA6303F50052D1600022DA634FF4003286
:1046A800A3F518339A66704700000350CB784A7810
:1046B80010B55B010C7843EA82030A79234343EA85
:1046C80002130C22424302F1B0421363012C02BFD1
:1046D8008A78024B43F8202010BD00BFE8800350C1
:1046E80008B54FF0B0435A686AB958B15B680BB166
:1046F8001EF08DFB01210D4B59601EF088FB4FF019
:10470800B043D96008BD5B680BB11EF080FB002880
:10471800F0D11EF07CFB4FF0B0430222DA601EF0AD
:1047280076FB0122024B5A60ECE700BF00100058EC
:10473800002000584FF0B0414B6810B50BB11EF087
:1047480066FB01220B4BC4785A608378934043EA96
:10475800840344782343047943EA0413447943EAFD
:10476800C4038B60044B5A600378C3F10203CB6027
:1047780010BD00BF00200058001000584FF48032D0
:10478800064B5A6603F5E6235B69C3F3851282700C
:1047980003F03F021B0B42700370704700900050FB
:1047A800014B03205B6870470080E00F014B986C59
:1047B800D96C70470080E00F024B1868C0F30740BF
:1047C800704700BF0080E00F0120034B9B680A334D
:1047D80003F01F03984070470080E00F70B505464E
:1047E80016461C4621B94FF420701EF02EFA0146D9
:1047F800402C1BD003D8DCB1202C1BD070BD602C02
:10480800FCD1042303FB06F2530803EB4113B3FB6B
:10481800F2F3094A203B02EAC303AA6822F06002C5
:10482800AA60AA681443AC60EB61E7E70623E9E7EE
:104838001023E7E70823E5E7F8FF7F00012200F5EA
:1048480080535A6040F6AA6341F20502436100238F
:104858000B498360C365C26000F500520361C36100
:10486800C364916407498365884203D103650023C3
:10487800436502E004498842F8D001235360704739
:10488800FFFF010000C005500000065070B50D463E
:10489800FFF7D4FF012300F580567360AB7C044614
:1048A8001BB1836843F080438360EB7C5BB1354A7E
:1048B8002B7D944245D1A2F51032C2F88C31E36DBC
:1048C80043F08003E3652A8A6B7B20461343EA8919
:1048D8001343E3602B7BD5E90112FFF77FFF6B7D64
:1048E8001BB1A36843F48033A360AB7D1BB1A368FD
:1048F80043F40043A360EB7D2A7E1B07120502F4F4
:10490800E00203F0E0431343A365697E1D4A8B1E52
:10491800012B1D4B1FD894421BD002F580429442B4
:104928000CBF01224FF0FF3203EB4213022041F289
:104938001C620329985020D10423F3652B78636106
:1049480070BD124A944204BFA2F52032C2F89C31CD
:10495800B5E70022E8E794420DD00C4A94420CBF18
:1049680001224FF0FF3203EB4213022042F21C6295
:1049780001299850DFE70022F5E7042204F50053E7
:10498800DA65DBE700C0055000C0035000000650A0
:1049980038B50446054D28F0A6F90FCC0FC594E8A4
:1049A800030085E80300002038BD00BFEC16002096
:1049B80047F6FF739A42F0B56FD002296FD8394B8A
:1049C8005B5C012B6BD8384DDF0005EBC30415F891
:1049D8003330A178012B13D10025E078401AA84282
:1049E80002D80844C0B2F0BD431B6668A0EB53036D
:1049F80036F913609642D4BF1D4603F1FF30EEE747
:104A080060680028EFD0B0F90040944204DBB0F9A8
:104A180002409442B8BF144683883D44FF2B19BF17
:104A2800C8224FF0280CB0F90620B0F908C0A2EB54
:104A380004030CBF0126002693FBFCF333446E7875
:104A48001BB29E4201DD002B01DA731E1BB24FF42C
:104A58007A7C01339BB2071D5D1E2DB24FEAC50E4D
:104A680000EBC505EA88AD689E4214FB025222EAB3
:104A7800E27202F15C02B2FBFCF204DD37F833505B
:104A880001339542E8D200EB0E039888904228BF84
:104A98001046884238BF0846A4E7FF20A3E7002055
:104AA800A1E700BF69EC0300EC1600200229F0B56D
:104AB80055D82C4B585C012851D82B4C04EBC0011D
:104AC80014F830004B6801280FD1C8788C789042D0
:104AD80094BFC4EB0001C4EB0201001BCAB28242BE
:104AE800C8BF002233F91200F0BD002B37D08878F8
:104AF800904202D3B3F90200F6E7CC78B3F900008C
:104B08009442F1D94C789988013CA1F1FF06714291
:104B180003F10405E4B2714103F10C07CEB2B442CB
:104B280016D805EBC1014FF47A756A43B1F9024012
:104B38004968521A04EBD47102EB610292FBF4F259
:104B48009042D1DBB3F902009042CDDC10B2CBE742
:104B580037F831C04E1C9445E3D33146DEE70348AD
:104B6800C2E700BF69EC0300EC1600200080FFFFDD
:104B780008B50448FFF70CFFBDE80840012028F0FD
:104B8800B6B800BFA4F3030000487047B62A002057
:104B98007FB50222084B0949CDE901234FF0007384
:104BA800CDE90313052301A94FF0FF30059328F041
:104BB800D2F807B05DF804FB006A18000002040090
:104BC80006289ABF014B185C002070476CEC030064
:104BD80030B5154B87B00293144B0390049346F6F7
:104BE80011030D46059300F077F91428044616D1F1
:104BF80068461EF0BDF94FF0A843032202A95A6384
:104C080019601D619A63DA6B9207FCD1142C02D1EA
:104C180068461EF0BBF900F093F9044601E000284D
:104C2800E9D0204607B030BD04170020040000205A
:104C38002DE9F04FB1B005468C469E46E8466F4ECA
:104C4800DDF8EC90409C06F1100A47463068716820
:104C5800083603C75645B846F7D13E9B03EB020812
:104C6800C8F1000A0AF00F0AB9F1000F00F09D80A0
:104C7800C9F1000707F00F070121DDF8FCB044F087
:104C88000050C4F11006CDF810B00591069030021E
:104C980000F4F85040F021000790B9F1000F40F0FF
:104CA8008680CDF820D047F00050002D00F0848099
:104CB800099121210A9041EA07210B9142F0005005
:104CC800CDF830C03D9B08A94FEA0A2C0D910E90F3
:104CD8004CF041000F901093002A75D13E9B119122
:104CE80043F0005312933C9B1390149310AB15930D
:104CF800434B444A169340F611031793424B002145
:104D0800002D08BF1346189314AB19933F4B10227C
:104D18001A9311231B931CAB184628F065FD01223A
:104D28001D92002246F0804603461E96239205B93E
:104D3800EB46102CCDF880B024AE4BD1012322468F
:104D4800002130462193229428F04EFD20AB00210B
:104D580025938F4218BF334647F0804226923A9AED
:104D68002CA828922993B2FA82F35B0949EA837343
:104D780010222B912A9328F037FDB9F1000F00D0AB
:104D880028AED04448F080432CA918A82D962E931D
:104D9800FFF71EFF30B92DB90346A34225D10028DD
:104DA80018BF2C2031B0BDE8F08F102764E7CDF88C
:104DB80020E049F0005078E7002C3FF479AF04A9CF
:104DC800099101210A9076E73E9B0CAA1192412095
:104DD800129388E71022002130462193229428F06C
:104DE80003FD002CB2D10123B1E703F1C0026A44EC
:104DF80012F8C02C01331043CFE700BF73EC030057
:104E08001000002088EC03008CEC03000400002054
:104E1800F0B5C0299FB0DDE9244557D0B1F5807FB2
:104E280004D0802948D029201FB0F0BD01265CB1EC
:104E380040F23447029410240396049421240197E5
:104E48000594069502AC0AE040F214470294102437
:104E58000396049421240594012401970695079448
:104E680001251024089409950A9221220B950C9487
:104E78000D92174A0AAD0E92164A0F95109242F6F5
:104E880011021192129313951494159201AA169275
:104E9800D3B112AB1793042318931123199316ABAC
:104EA8001A901B9340F61103C9081C911AA806A969
:104EB8001D93FFF78DFEB7E7012614B94FF48267FB
:104EC800C4E74FF48667B5E70EABE3E70F20ABE71F
:104ED80084EC03001000001038B5164B5A6E42F0EF
:104EE80004025A66D3F8802242F00102C3F88022F5
:104EF800114B5B68C3F3080343B14FF0A842D36B6F
:104F080013F0430FFBD11424204638BD4FF0A843BB
:104F1800DC6B14F04304FBD1084D2B681BB904214A
:104F2800284603F0F9FB2B68013343F000432B605C
:104F3800EAE700BF0080005000ED00E00417002001
:104F4800014B00205B68704700ED00E04FF4005211
:104F5800034B00209A660322C3F86022704700BF03
:104F6800009000504FF40052034B00209A66032231
:104F7800C3F86022704700BF00A00050012300F072
:104F88001F02A0F506200949A0F55060400993408A
:104F980051F820201A4341F82020054951F82020D3
:104FA80022EA030241F82020704700BF1C170020A6
:104FB800081700200121A0F506230E4AA3F5506327
:104FC8005B0900F01F00814052F82300014342F8BA
:104FD80023100949D1E90030034488680344C868AC
:104FE800096903445B1802BFC2E90033C2E902330E
:104FF80013617047081700201C1700202DE9F04F97
:10500800A9B003921D4604460822339ECDE9040147
:10501800414021FA02F34B40980702F1080218BFF9
:105028009B00202A1C44F4D18123B4FBF3F303EB47
:10503800C313E41A734B04F506241B7804F5506473
:10504800002B3ED1FEF758FC074620B16FF09100C7
:1050580029B0BDE8F08F0146402208A828F0C4FB1B
:105068004022394618A828F0BFFBDFF8B481DFF8E2
:10507800B491C3460BF10F0ACDF800A0102208A97D
:105088005B46D9F8000027F0AAFB0022014608F188
:10509800100808AF914246D1CDF800A05B46102217
:1050A800D9F8000018A927F0A3FB4FF0000A83469F
:1050B80018AFD34541D1544B9845DAD10122514B11
:1050C8001A704FF0810A4FF00008DFF85CB1A4F5C0
:1050D8000627A7F550635B095BF8232004F01F013E
:1050E800CA40D2073DD4494A52F82330CB40DB07A7
:1050F8002AD5B8F1000F08BFA0468123A7F6FF47BD
:10510800B7FBF3F303EBC313FF1A07F50624BAF151
:10511800010A04F55064DAD1039BBBB1B8F1000F62
:1051280014D0444619E057F8040BCDE90612FFF7EE
:1051380025FF079A06990132ACE757F8040BFFF7E9
:1051480039FF0AF1010AB4E7039B13B96FF08B002A
:105158007EE7B8F1000F18BF4446349B00201C605E
:1051680076E7329B13B10023329A13600EB1002305
:1051780033601023DFF8AC9000932A4600232146C1
:10518800D9F8000014F01CFE60BB32992A68204B45
:10519800C9B99A4206D02146D9F8000014F0A8FEF1
:1051A8000028D3D1D5E90223DDE90410834208BFE2
:1051B8008A42A2D1039B002BCFD06B68012BCCD1A4
:1051C8006FF0840044E7102032999A420860E2D1D7
:1051D800002EE7D033462146D9F8000018AA14F06B
:1051E80043FE48B10B4B9842D5D00B4B9842D2D0D6
:1051F8000A4B9842D6D029E7329A336812689B1A2C
:105208003360CFE7F525002000710800081700205B
:10521800105D175EFFDF00F011E000F0FEDF00F028
:10522800006D0800082900201C1700202DE9F04F08
:1052380087B08246894698461646DDF840B02AB1BE
:10524800002B4FD040F26C739A424ED8BBF1010F3D
:105258004ED8002406F110073946012005941EF0A7
:105268002AFA0546002846D021463A4628F0BCFAD4
:1052780005ABCDE9014300942B460122504649462F
:10528800FFF7BCFE044680B110F18C0F08BF6FF029
:105298008D043A460021284628F0A6FA28461EF032
:1052A800ECF9204607B0BDE8F08F144BC5E902A918
:1052B8002B60C5F804B02EB13246414605F1100006
:1052C80028F09DFA059E0E483B462A46314600685E
:1052D80014F0DEFC18B93046FFF750FED9E76FF03E
:1052E8009104D6E76FF08604DBE76FF09104D8E706
:1052F8006FF08504D5E76FF08C04D2E7105D175E78
:10530800082900202DE9F0438DB08146DDE91478A5
:105318000E4615461C469BB1B8F1000F05D16FF03B
:10532800860630460DB0BDE8F083002FF7D0B7F100
:10533800005FF4D3C3F1005303F500439F42EED856
:105348001022002108A828F04FFA002207AB029388
:1053580005AB019306AB31460093484608ABCDE94F
:105368000522FFF74BFE06460028DAD1059BA4B1BB
:10537800AB4215D853EA0504D1D1069B0B48C8F8AF
:10538800004000943A46079900682B4414F018FD31
:10539800002818BF6FF09106C3E7AB42EDD2BEE715
:1053A8005B1B9C4228BF1C46E7E700BF082900207A
:1053B80030B58DB00C4605461022002108A828F00B
:1053C80013FA002207AB029305AB019306AB214603
:1053D8000093284608ABCDE90522FFF70FFE0446E7
:1053E800D8B9099B012B1BD0079D104B294618687B
:1053F80014F07EFDB8B90122A5F506230C49A3F5E2
:1054080050635B0905F01F00824051F823004240B9
:10541800284641F82320FFF7CDFD20460DB030BDCA
:105428006FF08404F9E76FF09104F6E7082900208B
:105438001C1700202DE9F04F89B007460E4602F0F0
:1054480069FCC00709D4042401201EF025FE80B39E
:10545800013CF9D16FF0920028E0102200210DEBF9
:10546800020028F0C1F904A802F0B6FC049B002B46
:10547800E9D0059B002BE6D0069B002BE3D0079BC9
:10548800002BE0D00025DFF8808008F10409B54240
:1054980019D34FF48A7402F037FC00F00E03062B80
:1054A8002DD1C30501D502F061FC002009B0BDE88B
:1054B800F08F02F029FC10F00E03FAD0022BF8D07E
:1054C8004105DFD5C4E702F019FCA6EB050A840004
:1054D800544528BF544699E8030000238DE803008B
:1054E800CDE9054307EB050BCDF810B0029404AAEB
:1054F800D8F8003007CA1EF0C8FC2544C7E724FACC
:1055080003F3DA07A6D5C6E798EC03002DE9F043C4
:105518008BB01746DDE91545DDE913269C46DDE924
:105528001738894621B96FF086000BB0BDE8F083C3
:10553800002FF8D00EB9002CF5D1129909B9002A1C
:10554800F1D10DB9002BEED1B8F1000FEBD0244A00
:10555800944541D10288B2F5105F3DD14288B7EB3E
:10556800D20FE0D322F04001802902D0B2F5807F2B
:10557800D9D16CB3AE421CD23219954219D29C4291
:10558800D1D831462246284628F014F92E4614F080
:105598000F03C8D1CDE90197CDE90336CDE905431D
:1055A800CDE907540993FFF7D1FC38B16FF09200A9
:1055B800BBE79C42EBD96FF08900B6E707AA04A9BC
:1055C80001A802F0CDFC0546FFF7CCFC0543EDD160
:1055D8000020C8F80040A8E76FF08500A5E700BFE5
:1055E800004440042DE9F04FA9B0834617469A4677
:1055F8000E46DDF8C890DDF8D88029B96FF086032B
:10560800184629B0BDE8F08F002AF7D0B9F1000F8D
:10561800F4D0349B002BF1D0B8F1000FEED0002469
:10562800424B0CAD93E8070085E807003C22214671
:1056380019A8189428F0D8F83388728803F4E04041
:10564800B0F5804FDAD03A4E3A480BEA060646F0F3
:105658001066864263D1B2F5807F60D147F212129C
:1056680093425CD10620344ABAF11F0FD3680E94D6
:105678000B931369126800FB03F3CDE90C23BDD922
:10568800339B402BBAD9359B1F2B4BD909F101020B
:1056980020261292402299F800300F97042B18AF59
:1056A800CDE91324CDE91572109611941794A5D15C
:1056B800FFF74CFC03460028A2D10B9B15AACDE9A5
:1056C800086305AB07CA83E8070002AB12AA07CA3A
:1056D80083E80700DDE910018DE803000F9B95E8DA
:1056E800070002F017FD0546FFF73CFC55EA0003EA
:1056F80084D13D46349A20AE2C4603CCB442106087
:105708005160254602F10802F6D100221146B9542B
:105718000132402AFBD12022C8F8002070E76FF040
:1057280085036DE76FF089036AE700BFA8ED030002
:105738000000FFF600000209BCED0300F0B50E46BC
:105748001D468BB0002853D0002951D0002A4FD0D5
:10575800002B4DD0048804F44F43B3F5824F03D097
:105768006FF085000BB0F0BDE3B224F0FF04B4F590
:10577800E24FB0F802C0F3D1122B01D0172BEFD1B2
:105788000CF10701B2EBD10F4FEAD10733D31D4A11
:1057980004ACBCF5807F07CA84E80700E0D1122B6F
:1057A80007D1194B1A691B681344CDE90432002349
:1057B80006930023CDE907670993FFF7C7FB002885
:1057C800D0D1124A02AB92E8030083E803000AAB87
:1057D80013E903008DE80300079B94E807001EF017
:1057E800D9FA0446FFF7BEFB204307D12F60B9E77B
:1057F8006FF08600B6E76FF08900B3E76FF09200AC
:10580800B0E700BFA8ED0300BCED030090EC030077
:105818002DE9F0438FB01D46DDE916C600285CD09F
:1058280000295AD0002A58D0002B56D0BCF1000FBE
:1058380053D0002E51D0038803F44F44B4F5824F5F
:1058480051D1DCB223F0FF03B3F5824F40884AD030
:10585800122C01D0172C46D1C31DB2EBD30F4FEA3F
:10586800D3083AD34FEA4802571C674538D8B0F5F1
:10587800807F38D1122C18BF4FF000094FF0000379
:1058880008BF1C4CCDE9081805F1010114BF4C46AE
:10589800D4F80C90CDE90B120A930D93FFF756FB41
:1058A800C0B9CDE9058902AB08AA07CA83E8070091
:1058B8000EAB13E903008DE803000B9B94E8070087
:1058C8001EF087FA0446FFF74DFB20430ED1042350
:1058D8002B7037600FB0BDE8F0836FF08600F9E7F2
:1058E8006FF08900F6E76FF08500F3E76FF092003C
:1058F800F0E700BFBCED03002DE9F04389B00E4688
:1059080015461F46DDF8488020B96FF0860009B0BB
:10591800BDE8F0830029F8D0002AF6D0B8F1000FCE
:10592800F3D0038803F44F42B2F5824F02D06FF0F0
:105938008500ECE7DAB2122A01D0172AF7D123F052
:10594800FF03B3F5E24F41D14488C8F8004044B999
:10595800EB00B3F5807FC8F80030E8D1122A0DD1EA
:1059680008E0E31DB5EBD30FCFD1B4F5807FDED1CE
:10597800122A29D1354B1C681B691C44002319467F
:1059880070192C4414F801CD10F8012D1143B2EB15
:105998000C020CBF4FF0FF3C4FF0000C86420CEAA3
:1059A800030343EA0203EDD10029AED0002BACDAA1
:1059B800109B9D4246D82A463146384627F01FFF9D
:1059C800119B00201D60A2E70024D7E73378042B41
:1059D8009BD16B1EDB005B08B3F5807FC8F80030F5
:1059E800A5D1122A06F1010318BF4FF000094FF0A4
:1059F800400205934FF000030ABF144C4C46D4F8FC
:105A08000C90CDE90623FFF7A1FA00287FF47FAFB9
:105A1800CDF80C90D8F800300733DB08029308ABB8
:105A280013E903008DE80300059B94E807001EF0C6
:105A38007DFA0446FFF796FA00287FF468AF002C39
:105A4800B6D062E76FF0890061E700BFBCED0300E4
:105A58000388B3F5105F0ED14388DB08103B102B89
:105A68000CD8084A22FA03F313F0010F14BF0020E0
:105A78006FF0860070476FF0850070476FF0860002
:105A8800704700BF010101002DE9F04F8FB01546A6
:105A9800DDE918A91E46DDF868801C9F09B300B32C
:105AA800B8F1000F1DD0E7B1BAF1000F02D1B9F17A
:105AB800000F16D1274B26F47E129A42B0F802B096
:105AC80044D1FFF7C5FF0446A8BBB5EBDB0F4FEA8F
:105AD800DB0306D316F47C1FC6F3054504D0102D4E
:105AE80003D96FF0860426E010251B9A95422AD820
:105AF800CDE9011300231022CDE905930DF1280902
:105B0800CDE9033ACDE90823CDF81C90FFF71EFA3A
:105B1800044680B907AA04A901A802F035FA064686
:105B2800FFF720FA044656B958B92A46494640466E
:105B380027F065FE3D6020460FB0BDE8F08F6FF09E
:105B480092040025F6E76FF08904F4E76FF0850406
:105B5800F1E700BF0002C0032DE9F041069F0C46A3
:105B68001646054610B309B302B9FBB96288B3EB10
:105B7800D20F4FEAD20819D34C220021284627F029
:105B880033FE0D4B27F47E129A4212D12046FFF7BE
:105B98005FFF044638B942463146281D27F02FFEDC
:105BA800C5F824802F602046BDE8F0816FF0860498
:105BB800F9E76FF08504F6E70002C0032DE9F0412C
:105BC8000E4614460546002840D000293ED092B122
:105BD8000368214823F47E1383423AD1AF6BF7B1AF
:105BE800C7F1100807F128004245284406D2274487
:105BF80027F005FEAF630020BDE8F081424627F09C
:105C0800FEFD1022103C3C19AA63F4D0284605F189
:105C180028011DF016FA0028EED14644A863102C7E
:105C28000CD9671E27F00F073A46314628461DF063
:105C380008FA0028E0D1E41BDDD03E442246314674
:105C480005F1280027F0DBFDAC63D4E76FF0860090
:105C5800D2E76FF08800CFE70002C0032DE9F043D8
:105C680088461F4605468BB070B169B163B10368B9
:105C7800234923F47E1088423ED113F47C1FC3F3DA
:105C8800054604D0102E03D96FF086042AE01026AA
:105C980096422BD8FFF75AF9044618BBAB6B05F1AF
:105CA8002802CDE901236B6A2A1DCDE904231023BC
:105CB800CDE9083007AB1A460390069005F13C0978
:105CC80001A904A8CDF81C9002F082F90546FFF757
:105CD80049F904466DB928B932464946404627F085
:105CE8008EFD3E6020460BB0BDE8F0836FF089045E
:105CF800F8E76FF09204F5E76FF08504F2E700BF6C
:105D08000002C00370B505460C461CF020FF072DA5
:105D1800064607D8BB23EB40DB0737D40023238094
:105D280021243DE0083DEBB2142BF7D8142DF5D80B
:105D380001A353F825F000BFB35D0100B95D010070
:105D4800255D0100255D0100BF5D0100C95D010001
:105D5800255D0100CF5D0100CF5D0100255D0100DB
:105D6800D75D0100255D0100CF5D0100255D0100C3
:105D7800255D0100255D0100255D0100255D01000F
:105D8800255D0100255D0100CF5D01008020FEF743
:105D9800A1F84FF6FF73984220800CBF0E24002410
:105DA80030461CF0DAFE204670BD4FF48060EEE706
:105DB8004FF49060EBE74FF4C060FEF76DF8E8E74A
:105DC8004FF4F060F9E7002323800F24E8E74FF44D
:105DD800E060F2E7B8B1036813F4E07F03F03F0036
:105DE800C3F382120AD0012A0DD1084B41B103F541
:105DF8008053012282401A6000207047044BF5E767
:105E080003F50053F5E70E20704700BF6880005087
:105E18006480005030B58BB06C46174D0FCD0FC461
:105E28000FCD0FC495E8030084E80300134BD3F8A3
:105E38004C2112031CD5A3F5FE431C884FF6FF73B3
:105E48009C4208BF8C248DF81940FEF72FF9204496
:105E580080F308008DF818000948FDF715FA684620
:105E6800FEF744F83220FEF759F900200BB030BD98
:105E7800D3F85041E4B2E6E7A4EC03000080E00F59
:105E880000F049026FF00403502110B50A480B4C8A
:105E980013F0800F03F1010206D12344402A83F84E
:105EA80000131346F4D110BD03F00F03043B034461
:105EB80019761346ECE700BF00ED00E000E100E0D2
:105EC800BFF34F8F0549064BCA6802F4E0621343DB
:105ED800CB60BFF34F8F00BFFDE700BF00ED00E0D0
:105EE8000400FA0500280CDB01220649430900F0EA
:105EF8001F008240203341F82320BFF34F8FBFF3A8
:105F08006F8F704700E100E0002807DB012341099B
:105F1800034A00F01F00834042F82130704700BF59
:105F280000E100E0002808DB01224309034900F0F2
:105F38001F008240603341F82320704700E100E0F1
:105F48000028ACBF00F16040064B4FEA0111C9B20E
:105F5800ABBF00F5614000F00F0080F80013195442
:105F6800704700BF14ED00E010B504461CF0E8FDD2
:105F7800024B1C601CF0E8FD002010BD301700200B
:105F880010B51CF0DDFD034B1C681CF0DDFD204640
:105F980010BD00BF30170020034B022218680023F1
:105FA800806819461BF006BB102A002030B514463D
:105FB800054687B010461DF078F9636902468342AA
:105FC8003CBFD4E903315B181B1A7BB10F49049419
:105FD80003910021CDE90131012300932846D4E93A
:105FE80000131CF0DBFD002007B030BD01226276F3
:105FF80094F82D20002AF6D084F835301321E3696F
:10600800204698472046636A9847ECE7B55F010049
:106018002DE9F04788B004460F46164698461CF00E
:1060280096FD8146002E7AD0237E03F0FF02002BD6
:1060380000F0A28020461DF038F96569A84205D114
:10604800637ED4E9033213445D1B01E0F9D9451B93
:10605800B54228BF35461CF07AFD94F82D308246AB
:10606800002B6DD12A463846616927F0C8FB636961
:106078002E462B44636121E0037803F0FD011129CA
:106088005BD1216B814205D1A3F111014B424B41F8
:1060980084F83430013E6369216B01328B4203F18D
:1060A800010308BF2363636195426069E4D1D4E9C1
:1060B8000323216B1344994200D122630025D4E9BC
:1060C800032361691344994208BF6261207A6576A7
:1060D800FDF72EFB20461DF0E8F86369834232D1B4
:1060E800257694F82D30E568656103B1256320466F
:1060F800636A9847214B049403930023029323690E
:106108002A4601930123009363682168207A1CF0D2
:1061180045FD207AFDF72CFB50461CF01EFD484635
:10612800C8F800601CF019FDD8F80030002B0CBF2F
:106138001B20002008B0BDE8F08707F8013BAAE75C
:106148002E460022B0E70123207A23760DF11E01A6
:10615800FDF776FB9DF81E30002BDAD00DF11F01FC
:10616800207AFDF745FB9DF81F100029D1D1224662
:10617800207AFFF71BFFCCE71646D0E7B55F010092
:106188002DE9F0410C461546064686B0402200210E
:1061980020461F4627F028FB95E8030000232A69BC
:1061A8002376EB6884E80300C4E904232A7DE360CE
:1061B80084F82C20AA7D2363012384F8343084F8E2
:1061C80035300C9B84F82D2023620D9BE7616362B8
:1061D8000E9BA3622B7A84F836306B7A84F83730BA
:1061E8002D4B346073602D4BB3602D4B33612D4BB9
:1061F80073612D4BF360FDF767FA38B12B4B98426A
:1062080004D01024204606B0BDE8F081002104F136
:106218000800FDF7E1F907460028F2D14FF0010820
:10622800234B3362234B84F83C80B361224BF361E8
:106238009DF8403084F8390084F83B309DF83C30B4
:10624800204684F83A30697D84F838801DF06AF871
:1062580095F90900FFF766FE95F90900FFF754FE66
:10626800164B0494CDE902732369CDE90083636872
:10627800E2682168207A1CF091FC04460028C0D10D
:1062880095F90800FFF74EFE95F90800FFF73CFE68
:106298003046FFF769FEB5E77D330300196001005A
:1062A800A1320300A7320300D3320300038000F0B9
:1062B8007B3203002D330300AD320300B55F0100CC
:1062C8002DE9F04101271C46584B86B00293584BE4
:1062D8000C9D0193574B904600930A46CDE90377EE
:1062E8002946554BFFF74CFF0646002840F096809C
:1062F800236839462B6463683A206B64637A85F8AF
:106308004930237A85F84830E37A85F84B30A37A08
:1063180085F84A30637B85F84D30237B85F84C300F
:10632800E37B85F84F30A37B85F84E30FDF7DAFC28
:106338003B460422617A207AFEF78CF83B4602221B
:10634800E17AA07AFEF786F839466068FDF7CAFC5C
:1063580088F8006041462068FEF798FA1422637CAA
:106368005B0103F1A04303F57033C3F81C26617A7F
:10637800227A42EA0142C3F83426E17AA27A42EA52
:106388000142C3F82C2685F8506098F81930032B81
:106398004AD8DFE803F03447021C022385F850305E
:1063A80000230422E17BA07BFEF754F8022741F288
:1063B8001C61627C214B03EB42104750E07BA17BC0
:1063C800B13241EA004103EB4213996017E001271B
:1063D80085F8503002220023617B207BFEF73AF8D3
:1063E800637B227B617C42EA0342154B49015A5088
:1063F8000422236803F58053DA65002FD0D1237A6D
:106408002A6C85F84830637A052185F84930D36CC1
:10641800206843F00403D3641CF001FD304606B045
:10642800BDE8F0810027D3E72326F7E7AB34030064
:106438009F340300373503002B35030000C0035099
:1064480024D6035073B50024684600F0E9F90C4BD4
:1064580000981C600B4B0C4D1C600C4E0C4B3060B4
:1064680018602C601DF037F92046019B3268083B04
:10647800DB0853802B6801332B6002B070BD00BF6E
:1064880038170020341700203C170020441700203C
:10649800401700202DE9F04F0026154689B04A1C08
:1064A8000C4614BF89464FF0080998460796002BFA
:1064B80000F0DB801E60002800F0D980C71D1CF0AA
:1064C80046FB27F0070B07AB2146039000932A46AB
:1064D8003346584600F0AEF9079C064604B130B979
:1064E80003981CF03AFB192009B0BDE8F08FDFF8DB
:1064F8009CA16288DAF80010D300C0EBC20201390F
:10650800272A0493CAF8001040F28280002D5AD13D
:1065180083450BF1080551D0494620461DF067F820
:1065280081460790079A02EB050B58461DF0D3F8F1
:106538000799C5F3CF054A88ABF80450521BABF84E
:106548000220CA88002A3BD0551BADB201EBC2021B
:10655800ABF8065095808A884849A9F80420BBF80A
:106568000420FF08A9F806200A68A9F802709442D6
:1065780008BFC1F800B042490A68944201D1C1F885
:1065880000B099F8002042F0010289F80020DAF8FA
:1065980000200132CAF800203A4A039813683344AD
:1065A8001360394A11688B4288BF13601CF0D5FA12
:1065B80009F108030020C8F8003095E7A146B1E7C3
:1065C800ABF80620C7E704EB0209484605921DF020
:1065D80082F8079C059AF108E088A9F80210D1080A
:1065E800A9F8041088B1049BC3EBC0013144C1F37E
:1065F800CF0104EBC000A9F806108180083AD20840
:106608006280B9F80420E280BBE7A9F80600F5E744
:10661800012D2ED104F10802B2FBF9F109FB112278
:106628004AB3494620461CF0E2FF814699F800200B
:10663800DAF8003042F00102104F114D89F80020BD
:1066480083B13B689C4204D14946002000F03EF9E2
:1066580038602B689C429FD14946012000F036F9EA
:10666800286099E73B602B6096E722203CE72120D1
:106678003AE78345D5D1A146D8E700BF44170020A3
:106688004017002038170020341700203C1700203E
:106698002DE9F3410446684600F0C2F8002C00F0EA
:1066A800B4801CF054FA14F808CC1CF0010F02D086
:1066B80034F8061C29B91CF050FA012002B0BDE8D4
:1066C800F081534D34F8047CD5F800E04A1C0EF1F3
:1066D8000103A4F1080692B22B60002F37D0A6EB75
:1066E800C70393F800800CF0020C18F0010F20D1BA
:1066F800BCF1000F20D15A88023111448AB2C5F882
:1067080000E034F802CCBCF1000F22D114F8085C88
:10671800511E6FF3000504F8085C002589B224F8BF
:10672800065C5980197865F3000119700021D98039
:1067380030E0BCF1000F0AD014F8081C17446FF3BE
:10674800410104F8081C0021BAB29980D9E7334600
:10675800D7E706EBCC0EDDE900710F44BE45D5D274
:1067680016F83C60714616F001072BD014F8085C47
:106778006FF3000504F8085C002524F8065C541E35
:106788005C801C7865F300041C70CC1AC4F3CF0439
:10679800DC808C801F4C216819B1994201D8498846
:1067A80001B923601C4C216819B1994201D3498869
:1067B80001B9236019490B689B1A0B601CF0CDF9CD
:1067C80000207BE7BEF80260AEF802700136324462
:1067D800BEF8066092B2B6B10EEBC6012E68013E55
:1067E8002E6014F8085C6FF3000504F8085C0025B7
:1067F80024F8065C541E5C801C7865F300041C7049
:106808000029C2D192E73146E8E7222056E700BFC7
:106818003C1700204417002040170020381700209C
:106828000249034A0160521A42607047F02A002068
:1068380000800020F0B506460020059F4C1C08BFCC
:1068480008213860BAB91F480568002D38D0B5F856
:1068580002E0DB0003EBCE0EC1F1000C2878C00784
:106868000BD52ABBE888B0B105EBC005B5F802E046
:1068780003EBCE0EF2E71448E6E7B645F1D35AB972
:1068880005F10804B4FBF1F001FB1044A0190CB1A8
:106898007045E7D83D60F0BD08290FD06C880134F9
:1068A80005EBC404A01B00EA0C00201A8645F1D2AF
:1068B800A8880028EFD0A5EBC005D7E73046E9E760
:1068C8002846E8E7441700204017002013B504467F
:1068D800084621B96846FFF7A3FF6CB9009803780A
:1068E800DA0707D55CB9C3889BB100EBC30003780E
:1068F800DB07F8D402B010BD164B1868EFE7012C7F
:1069080007D183882BB1A0EBC3000378D907F8D44B
:10691800F0E76846FFF784FF002300980278D20763
:106928000CD4002CE6D0C388002BE3D000EBC302C4
:1069380010F83330DB0706D503461046C28822B16B
:1069480000EBC200EAE71046EDE7002BE6D0184658
:10695800D0E700BF40170020BFF35F8F074B5A6A8C
:1069680022F480325A62D3F8942022F00102C3F84C
:106978009420BFF34F8FBFF36F8F704700ED00E097
:1069880038B5FFF7E9FF274A2748D2F8C030274D26
:1069980023F0FF0343F0A003C2F8C030244B04687F
:1069A8009D4204F101011DD1224BC2F89840C2F862
:1069B8009C3003F5FF437E33C2F8A0300160BFF37B
:1069C8005F8F0522174BC3F894205A6A42F480322D
:1069D8005A62BFF34F8FBFF36F8FBFF34F8FBFF371
:1069E8006F8F38BD23F01F03203BB3F1005F09D33D
:1069F800C2F898400F4C43F00103C2F89C40C2F81B
:106A0800A03001600C4B0168064A23F01F0343F0D5
:106A18000303C2F89810C2F89C30084B0131C2F841
:106A2800A030CBE700ED00E048170020C828002080
:106A3800F026002003000020E7280020E17F002046
:106A48002DE9F0410D461146DFF8E080D8F8004006
:106A5800B4F5807F34BF00271A27FFF77DFF1F2971
:106A68002ED90021C2061CBF20F01F0020302E4E58
:106A7800EB0618BF25F01F05CBB29C4235D8D6F8D7
:106A8800C03020F01F0023F47F4343F48073C6F81E
:106A9800C03040F003041CF05AF8D8F8003025F054
:106AA8001F0141F00301C6F89830C6F89C40C6F8AB
:106AB800A0101CF052F8D8F800300133C8F80030A4
:106AC800BFF35F8F0522184BC3F894205A6A42F42B
:106AD80080325A62BFF34F8FBFF36F8FBFF34F8F70
:106AE800BFF36F8F3846BDE8F081C6F89830D6F806
:106AF8009C30D6F8A02023F01F03984222F01F02F2
:106B080001D195420BD0904201D89D4209D2D6F8C6
:106B18009830013123F0FF03C6F89830ACE700271E
:106B2800CEE72827CCE700BF00ED00E0481700209B
:106B3800BFF34F8F0549064BCA6802F4E06213435E
:106B4800CB60BFF34F8F00BFFDE700BF00ED00E053
:106B58000400FA05054B1A782AB95B78002B0CBF9C
:106B68000320022070470120704700BF0026002044
:106B78000329F8B598BF124B05460E468CBF002472
:106B88005C5C032805D8DFE800F002080B0E44F02F
:106B980002040C4B1F684FB9F8BD44F00804F8E72D
:106BA80044F02004F5E744F08004F2E77B681A68B3
:106BB800144203D0314628465B6898473F68EAE7A5
:106BC800E0EC03007817002038B5104D2B78ABB1F6
:106BD8000F4C23781BB100F0C5FB00232370002065
:106BE8001CF08FFD0B4C50B100F00EFC002301216E
:106BF80020782B70FFF7BCFF0123237038BD0122DA
:106C0800054B1A702278054B1A70F7E7FB25002010
:106C1800F925002002260020FC250020FD25002063
:106C280010B51BF08DFF064B04461B781BB1BDE861
:106C380010401BF089BFFFF7C7FF2046F7E700BFEA
:106C4800F8250020094A137830B101331370084B36
:106C58001B78012B03D87047013B13707047054B15
:106C68001B780BB9FFF7B0BF704700BF00260020A4
:106C780002260020FC25002070B51BF061FF174E8E
:106C8800054617481CF026FA3378D3B900F0F8FC0B
:106C9800044620B128461BF057FF204670BD114816
:106CA8001BF05EFF00F0BAFF0F4B1C6000F0D0FD38
:106CB8000E4B0F4A1860536F43F0010353671CF0E3
:106CC80027FD00F02FFA1CF01EFD0A4B0024186067
:106CD8000123284633701BF037FFDEE70326002028
:106CE800D0EC0300781700204C1700207417002000
:106CF80000400050501700202DE9F843284A013879
:106D0800135C39B1274F013339781354012904D85A
:106D1800BDE8F883013B1354FAE7FFF71BFF01288E
:106D2800044635D81BF00CFFDFF88480054698F838
:106D3800003013B31C4E33781BB9012232701B4A42
:106D48001370DFF8709099F8003023B100F00AFB57
:106D5800002389F8003028461BF0F6FE01201CF0BD
:106D6800D0FC1BF0EDFE337805461BB100F04CFB60
:106D780000233370002388F8003028461BF0E4FE17
:106D88003878A042C4D02146FFF7F2FE3C70BFE736
:106D98000329F5D10228F3D11CF0B9FCF0E700BFB4
:106DA8000026002002260020F8250020FC250020CF
:106DB800FB250020F925002010B504461BF0C0FE75
:106DC800002C0CBFFF210121064A13780B44DBB2CB
:106DD8001370B3FA83F3BDE81040034A5B091370DC
:106DE8001BF0B2BEFF250020FE25002038B51BF0A1
:106DF800A7FE094B05461B78012B04D81BF0A4FEFF
:106E08000024204638BD054B1C6800F047FB0444AD
:106E180028461BF099FEF4E7022600204C170020B4
:106E280038B5416004461BF08BFE054621460448F0
:106E38001BF099FE2846BDE838401BF085BE00BF10
:106E480078170020054B1B685843054B00F5742044
:106E580000F23F20B0FBF3F0704700BF741700202A
:106E680040420F002DE9F04F85B0EFF3108772B65E
:106E7800AFF300801BF0BEFD00286FD07F4EDFF817
:106E88002882337823B10020FFF7DCFE002333701B
:106E9800FFF760FE0446002867D0841EE4B2012C88
:106EA8006AD9FFF757FE01280546754CDFF8FC91B3
:106EB80000F28C802078854240F0C480207800F071
:106EC800D7FA99F8003013B16E4B1B782370AFF3E3
:106ED800008007B962B6EFF3108772B66A4B1A786A
:106EE80052B100221A70674B20781B78984203D160
:106EF80001212170FFF73CFE644800F0FBFB1BF00A
:106F080088FD05460028BCD1614BDFF890811870D8
:106F180098F80030ABB189F80000DFF8889199F84B
:106F280000301BB100F01EFA89F8005000201CF058
:106F3800E8FB002800F0998000F066FA002388F842
:106F48000030337823B10020FFF77CFE0023337034
:106F580000212078FFF70CFE00232370AFF3008098
:106F680007B962B605B0BDE8F08F3378002B98D02A
:106F7800FFF768FE347094E7002003A900F008FCCE
:106F8800044600288DD1D8F80030039A9A4205D8D3
:106F98000120FFF757FE0123337082E73D4B1D6840
:106FA80000F07CFA039B05449D42F1D200F08EFA72
:106FB8008200039942F0020292B2CDE900422346D0
:106FC800354A491B31481CF0AEFB6AE7334BDFF802
:106FD800C0A01B7803F0FF0B2BBB00F047F920780B
:106FE80085422FD19AF800307BB92C4D2B78002B95
:106FF8007FF464AF2A4B1B7823B900F0ADF9012266
:10700800284B1A7001232B7058E7022DEDD18AF80E
:1070180000B014E02378022B24D100238AF8003032
:1070280025F0A6FF1EE0207885420BD19AF80030A3
:10703800002BDAD0022DD8D100238AF8003025F0B1
:1070480097FFD2E70023DFF848A08AF8003099F8C4
:10705800003013B92946FFF78BFD9AF800302570E8
:10706800002BD7D1012DC0D828E7012000F000FA65
:1070780007B962B6EFF3108772B657E7FA25002012
:1070880002260020FD250020F625002054170020A8
:10709800FE2500204C170020296C0100FB2500204C
:1070A800FF250020F925002050170020FC2500208E
:1070B80010B51BF045FD0022054B1C781A701BF01B
:1070C80043FD00F0E7FCE4B22043C0B210BD00BFAE
:1070D800F725002073B5114E0446337883420FD04C
:1070E8004FF400730E4DADF8043058B101A8FDF708
:1070F800D5F84020FFF7A6FE2B68181A28603470D0
:1071080002B070BD8DF8050001A8FDF7C7F8402052
:10711800FFF798FE2B681844F0E700BFCA2A002042
:10712800B017002073B5002401A88DF80440FDF7BE
:1071380087F92046FFF7CEFF404A4149136F41487F
:1071480003F007030B60D2F800113F4D01F0030173
:1071580001604FF400203D49032B48664FF400308E
:10716800486601F598318969C1F3400129705DD0FD
:10717800D2F8203103F00303981E43424341D2F86A
:107188002421334C02F00702022A08BF43F001030E
:107198004FF4C8702370FFF755FE00222D4B2E497F
:1071A80018602E4E0B680132D2B20A2A46F8040B38
:1071B800F9D1034400EBC00003440B602B78284D41
:1071C80063B323781D4A3BB9D2F8003103F00303B7
:1071D800591E4B424B412370D2F8003103F0030390
:1071E800022B25D0032B26D0012B17D1FCF746F80C
:1071F800024698B11B4B1C4EDC6800231946C4F3A9
:107208000B04013404EB84040138E4FB06011AF092
:107218002FF8FFF717FE2B6803442B601F20FFF79A
:1072280011FE2B6803442B6002B070BD0123A6E752
:10723800FCF73EF8DCE71BF07BFCD9E70080005048
:10724800B4170020B817002007260020009000502F
:10725800082600207C1700208017002084170020B3
:10726800B017002000C0015040420F00074A0849EB
:10727800D2F8203103F003030B60D2F82431054A19
:1072880003F0070313601BF0ABBD00BF0080005084
:10729800C0170020BC17002008B5104B1A78C2B1DF
:1072A80000221A700E4B1A6F22F0070242F00102F8
:1072B8001A67D3F8202142F00302C3F82021D3F83B
:1072C800242122F0070242F00302C3F82421FBF72D
:1072D800BFFF0122034B5A6708BD00BF06260020E6
:1072E8000080005000E000500122154B10B55A678D
:1072F800144B154C1B7813B302201CF0B9FAF0B1EB
:1073080000F076FAD8B1A36DD90302D5E36D9A07D8
:1073180015D40D4B9B6DDB0711D401220B4B1A7052
:107328001CF085FABDE81040094B0A4A1860136F33
:1073380023F0070343F003031367FBF789BF10BD6E
:1073480000D000500826002000C00050052600206C
:10735800AC170020008000500122014B1A707047C2
:1073680006260020F8B51F4B1B78002B39D01E4C81
:107378002378B3B91D4B9A6DD10302D5DA6D920704
:107388002FD49B6DDB072CD41CF051FA184B194AEB
:107398001860136F23F0070343F003031367FBF729
:1073A80057FF1CF044FA124B134D1B68134EC01ABA
:1073B8002B78134F56F8232046F82300111A3A6801
:1073C8001048521A0A213A600932B2FBF1F201332D
:1073D800DBB20260B3FBF1F201FB12332B70002326
:1073E8002370F8BD082600200526002000C00050A4
:1073F800AC170020008000500426002084170020CD
:10740800801700207C17002008B51BF0ECFC124BFD
:1074180012491A6F096822F007020A431A671049CD
:10742800D3F82021096822F003020A43C3F8202177
:107438000C49D3F82421096822F007020A43C3F84B
:107448002421094B1B7813B10122084B9A62BDE82D
:107458000840FBF7FDBE00BF00800050B4170020B5
:10746800C0170020BC1700200826002000E00050AC
:1074780002280AD003280BD001280CD1064A136928
:1074880023F00403136130BF70470020FCF712BFDC
:107498000020FCF743BF704700ED00E0054B18786B
:1074A80018B1054B186800EBD000044B1B68184452
:1074B800704700BF082600207C170020B017002066
:1074C8000122014B1A70704708260020014B1878DA
:1074D800704700BF0826002038B51CF0B6F9002513
:1074E800084B094C1A682368C31A2AB123B1516999
:1074F800994203D3C91A5161206038BD55615B1A9E
:107508009268F2E7CC170020C8170020C38870B52E
:1075180004460D463BB9FFF769FC8542064602D290
:107528001CF0E3F835460E4965610B688BB90C60B1
:10753800A3600DE0AD1A9A68184665616AB11346F2
:107548005A69AA42F6D930B18460521BA3605A61C5
:1075580070BD0020F4E70C60F7E79C60A260F7E7D5
:10756800CC17002038B5134D2B685B6993B1124ACC
:10757800022014681C441CF06FF9204600F0D6FA6B
:1075880000230E492A680B70D088800709D501238B
:107598000B7038BD02201CF05FF9022000F010FBD0
:1075A800EEE79268002AF4D050690344012BEBD926
:1075B800EFE700BFCC170020C81700200A260020DC
:1075C80070B516469DF81420C0E903360271049A76
:1075D800BDF818300260002204460D468260C38060
:1075E800EEB91CF032F92844A0619DB12E461BF07B
:1075F800A7FA0546FFF770FF31462046FFF786FFDA
:10760800104B1B68A34201D1FFF7ACFF28461BF0C3
:107618009BFA02E0E36865617BB9002070BD1CF04D
:1076280014F93044A061002DE0D1E3686561002BB6
:10763800DDD0204621689847D9E720462168984739
:10764800EBE700BFCC17002000220C490B687BB188
:1076580083420AD183687AB1936083681BB15A69FF
:1076680041690A445A61002070471A469B68EEE750
:107678000028EFD0022070470B60EEE7CC170020FF
:1076880070B51BF064FA144E05463478FCB9134BF8
:107698001C60134B1C60134B1C8000F007FA012080
:1076A8001CF0DAF800F0AEFA0F4B0246186020B969
:1076B80028461BF052FA232070BD234640F2E731DA
:1076C8000A4819F0D5FD0A4B186001233370284683
:1076D8001BF043FA0020EFE70B260020CC17002010
:1076E800C81700207C250020D017002018FCFFFFB9
:1076F800C417002070B5044640B31BF021FA144E9D
:107708000546FFF7E9FE3068A04209D02046FFF79A
:107718009BFF0446B0B128461BF016FA204670BD00
:10772800FFF792FF04460028F5D133683BB90220E1
:1077380000F02EFA28461BF007FA0024EEE7FFF7C0
:1077480011FFF7E73368002BF4D1F0E72224E5E7CF
:10775800CC17002038B50C460546A8B1A1B10023C6
:107768000B701BF0F4F90121084B1B6833B91BF0AF
:10777800F4F9002038BD9D4204D121702278002AF6
:10778800F9D0F4E79B68F1E72220F3E7CC17002053
:10779800F8B506460F461BF0DAF900250446124BE9
:1077A8001B6823B920461BF0D8F91B2011E05A6941
:1077B8001544DA88B2420DD11CF047F80B4E3368F5
:1077C800C01AA8420AD3002320463B601BF0C5F923
:1077D8000020F8BDFF2EEFD09B68E2E71CF035F8DB
:1077E80033682B441B1AEFE7CC170020C81700207A
:1077F80008B5084B1B7803F0FF004BB11CF017F8D5
:10780800054B1B689B69C01A02288CBF0020012009
:1078180008BD00BF0A260020CC17002070B51BF059
:1078280096F906461CF011F8084B04461D880120FD
:10783800ADB21CF01DF818B11CF007F8044601356C
:1078480030461BF08AF92046294670BD7C25002069
:10785800014B1868704700BFD0170020F8B50C4BD3
:1078680005461B680E4683420FD3002440F2E730DA
:107878002146084B4FF47A721F680023E5FB070185
:1078880019F0F6FC30602046F8BD2120FCE700BF67
:10789800C4170020D0170020F0B51F46002387B07A
:1078A8000C46164605468DF8133050B30DF11301FA
:1078B800FFF750FF9DF813302BBB204605A9FFF7B3
:1078C800CDFFE0B9114BE8831B6828465C434FF4B1
:1078D8007A73B4FBF3F203FB1244191B89B2994281
:1078E80008BF0021BDF83430A983059A02939DF89A
:1078F80030301146CDE900733346FFF761FE07B01B
:10790800F0BD2220FBE70220F9E700BFD0170020D6
:10791800014B1868704700BFC41700200F4B10B503
:107928001A689AB14FF47A71531E1342A0FB0101F1
:107938000ED1B2FA82F2C2F11F04531CD243E040C6
:1079480001FA03F3184321FA02F20243104610BD6C
:10795800002319F08DFC0246F8E700BFD01700207D
:10796800C2072DE9F04704460BD5474A138801336F
:107978009BB21380FFF7B0FD444B1B680BB1FFF7B8
:10798800F1FDA3077ED51BF0E2F84FF0000905468C
:107998004E46FFF7A1FDC8463C4F3C680CB16369F1
:1079A8008BB100223A4B012E1A7003D119F0020F45
:1079B80018BF1E70002C61D0FFF7D4FD2846BDE823
:1079C800F0471BF0CAB823465A693AB91A7921799F
:1079D800914288BF1C469B68002BF5D128461BF0B6
:1079E800BCF82569DDB11BF030FFA269A0EB0209E4
:1079F8004FEAE9734D4578EB030311DA2369134421
:107A0800A361E368B4F80690013613B120462168F3
:107A180098471BF09CF80546FFF75EFDBDE7A946B1
:107A28001BF095F882462046FFF70EFE50461BF0E5
:107A380094F82369002BE4D0A38BB5EB090533B187
:107A4800E28B13449BB2B3F57A7F0FD2E3831BF02A
:107A58007EF8814629462046FFF758FDA36922692A
:107A680048461344A3611BF078F8CAE7A3F57A7374
:107A7800E383A369013D013BA361E8E7022000F02D
:107A880087F89BE7BDE8F0877C250020CC1700200D
:107A98000926002010B51BF05AF8034B1C781BF080
:107AA8005CF8E4B2204610BD092600201FB500246A
:107AB8001B4B18689A880290D3F806009B7A0090AE
:107AC8001848ADF80C208DF804301BF003FB02A811
