S0280000626C7565746F6F74685F706177725F746865726D6F6D657465725F73656E736F722E733337D9
S214000000C00A0020311700006F2102006F21020095
S214000010E93602006F2102006F2102006F21020004
S2140000206F2102006F2102006F2102006F21020083
S2140000306F2102006F210200E91E02006F210200FC
S2140000406F2102006F2102006F2102006F21020063
S2140000506F2102006F210200612302006F2102005F
S2140000606F2102006F2102006F2102006F21020043
S214000070F56C00006F2102006F2102005D11000088
S214000080A31F02006F2102006F2102006F210200F1
S2140000906F210200951E00006F2102006F210200F2
S2140000A06F2102008D200000692000006F210200F1
S2140000B06F210200BDF701006F2102000502020059
S2140000C075D4020071D40200F5F9010081D4020053
S2140000D079D40200DD0102007DD402004502020050
S2140000E0D1DB010095DD0100B50202006F210200A0
S2140000F06F2102006F2102006F2102006F210200B3
S2140001006F2102006F2102006F2102006F210200A2
S2140001106F2102006F2102006F2102006F21020092
S2140001206F2102006F2102006F2102006F21020082
S2140001306F2102006F2102006F2102006F21020072
S214000140013800D0FCE77047002370B5404C0546E8
S2140001508AB0E36318B1008823600EF039FE3D488C
S2140001602CF0EAFC3C4E3D4B304633603C4B736013
S21400017028F083FA0021304619F0F8FC32A3D3E9C0
S2140001800023A062C4E9062328F082FAD4E90623F5
S21400019019431043C4E90601CDE900014FF0FF33CF
S2140001A04FF0FF32A06A2CF042FD02224FF0FF31E2
S2140001B0A06A2CF041FD01200EF046FB4FF40073C0
S2140001C000222849A06A2CF08AFDB0F5007F38D1BD
S2140001D000239422CDE9073309933C23CDE903326B
S2140001E005939623A06A03A9069319F0DDFD35B39F
S2140001F0287C0EF0A5FF0546F0B9A06A2CF04DFE4F
S2140002000EF04CFF0EF002FB20B14FF48070002180
S2140002100BF01EFA0EF00AFB20B14FF4006000212E
S2140002200BF016FA28F0A3FA012019F0F3FC0E4A98
S2140002300E49A06A28F01FFA28460AB070BDFF20B3
S214000240D7E70725F8E700BF0DD5015520000000C9
S214000250880F0020690345EC38240020CDE6000016
S21400026048240020382200201F8602005F860200F5
S2140002700348044B834202D0034B03B11847704730
S214000280140F0020140F002000000000064B074942
S214000290C91A891048BF0131491003D0044B0BB16D
S2140002A001481847704700BF140F0020140F0020A5
S2140002B00000000010B5064C237843B9FFF7D8FFBE
S2140002C0044B13B10448AFF300800123237010BD24
S2140002D0FC2B002000000000503D030008B5054B35
S2140002E01BB105490548AFF30080BDE80840FFF79D
S2140002F0CDBF00BF00000000E8110020503D030005
S214000300A3F5803A704700BF174B002B08BF134B6E
S2140003109D46FFF7F5FF00218B460F461348144A0B
S214000320121A2DF0BDF90E4B002B00D098470D4B3E
S214000330002B00D098470020002104000D000D4837
S214000340002802D00C48AFF3008020F04BFC2000C1
S214000350290021F0BDFD20F0C9F900BF000008000B
S2140003600000000000000000C00A0020140F00205B
S214000370443500200000000000000000F0B5002614
S21400038005250127874C9FB08748266022F03FF955
S21400039022688649531C2360D2B23346CDE9015702
S2140003A08148009522F0AAFA22688149D319236071
S2140003B0D2B23346CDE901577B48009522F09EFA2B
S2140003C07C4905A82DF08CF97B4B1B78FF2B40F061
S2140003D0A9807A4905A82DF02AF979490AA82DF0AE
S2140003E07FF905250126226805A9531C2360D2B291
S2140003F00023CDE901566C48009522F07FFA22686A
S2140004000AA9931923600A23D2B20093CDE90156B4
S2140004100023654822F072FA6A4905A82DF060F9B3
S214000420694B1B78FF2B40F08D80644905A82DF0A2
S214000430FEF866490FA82DF053F905250126226817
S21400044005A9531C2360D2B20023CDE901565648B5
S214000450009522F053FA22680FA9931923600A2305
S214000460D2B20093CDE9015600234F4822F046FA57
S214000470574905A82DF034F9564B1B78FF2B71D140
S2140004804E4905A82DF0D3F8534914A82DF028F9A5
S21400049005250126226805A9531C2360D2B2002335
S2140004A0CDE901564048009522F028FA226814A9A2
S2140004B0931923600A23D2B20093CDE90156002394
S2140004C0394822F01BFA454905A82DF009F9444B96
S2140004D01B78FF2B56D1394905A82DF0A8F84149BD
S2140004E019A82DF0FDF805250126226805A9531C3C
S2140004F02360D2B20023CDE9015600952A4822F0A7
S214000500FDF9226819A9931923600A23D2B2009331
S214000510CDE901560023244822F0F0F903F028FA2A
S2140005201FB0F0BD304A314905A8002B18BF114650
S2140005302DF07DF82E4B2F4993F900200AA820F0C5
S21400054051FA4EE7284A294905A8012B08BF11464B
S2140005502DF06DF8284B294993F900200FA820F0BC
S21400056041FA6AE7204A214905A8012B08BF11462F
S2140005702DF05DF8224B234993F9002014A820F0B3
S21400058031FA85E7184A194905A8012B08BF114614
S2140005902DF04DF81C4B1D4993F9002019A820F0AA
S2140005A021FAA0E7001200200412002000E6020054
S2140005B015E602002AE60200110D002044E60200BD
S2140005C03BE6020058E60200100D002069E6020035
S2140005D086E602000F0D002097E60200B4E6020051
S2140005E00E0D0020C5E6020056E8020060E8020094
S2140005F00D0D002048E602000C0D002076E60200F5
S2140006000B0D0020A4E602000A0D0020D2E6020030
S2140006102DE9FF41354E21F01EFD002003F080F944
S2140006203046002703F0E4F96FF07F4305244FF0CF
S21400063001082F4D3046C6E9013721F0E8FF304665
S2140006402C4922F048F92A683046531C2B602A4968
S2140006503B46CDE901480094D2B222F04FF92A6811
S214000660304602EB08032B6024493B46CDE901489F
S2140006700094D2B222F042F92A68304602EB080310
S2140006802B601F493B46CDE901480094D2B222F0C8
S21400069035F92A68304602EB08032B6019493B46B9
S2140006A0CDE901480094D2B222F028F92A683046F3
S2140006B002EB08032B6014493B46CDE90148009441
S2140006C0D2B222F01BF92A68304602EB08032B60F0
S2140006D00E493B46CDE901480094D2B222F00EF90D
S2140006E004B0BDE8F04103F043B900BF0412002097
S2140006F00012002064EC020000E6020015E602008C
S214000700E2E60200F7E602000CE7020021E702003C
S21400071008B521F08AFC21F089FC0E4B0E491868BA
S21400072022F02AFE0D4821F094FD0D4821F091FD9F
S214000730012006F049F900F095FD0023094A1370E0
S214000740094A1370094A1370094A1370BDE8084035
S214000750FFF75EBFC012002036E70200D0EB0200B3
S214000760B8EB0200002C0020FF2B0020FE2B002000
S214000770FD2B002008B519B10139022920D908BD82
S21400078080B91D4A1378DB4303F00103137021F090
S2140007904CFC21F04BFC1949194B1868BDE8084081
S2140007A022F0EABD0128EAD1164A1378DB4303F0AB
S2140007B00103137021F039FC21F038FC1249EBE7F5
S2140007C058B9124A1378DB4303F00103137021F083
S2140007D02CFC21F02BFC0E49DEE70128CFD10D4A78
S2140007E01378DB4303F00103137021F01EFC21F0A5
S2140007F01DFC0949D0E700BF002C002077E7020067
S214000800C0120020FF2B0020ADE70200FE2B0020C8
S214000810E3E70200FD2B002019E8020070B503682C
S2140008209C4A23F47F4323F007039342044686B092
S21400083000F0E9810AD8A2F1AA72934215D002F517
S214000840A802934200F0F18006B070BD924A93422F
S214000850FAD121F0EAFB21F0E9FB904B90491868A9
S21400086006B0BDE8704022F087BD8E4D284611F0D8
S214000870ABFD064618B3894C8B49206822F07CFDF8
S2140008808A49206822F078FD21F0CFFB21F0CEFBCC
S214000890874B884A009388494FF4B573206822F046
S2140008A06BFD86493346864A206822F065FD304651
S2140008B000F040FD8349206822F05EFDFEE702213D
S2140008C0287811F0AFFD064618B3744C76492068B8
S2140008D022F052FD7549206822F04EFD21F0A5FB5E
S2140008E021F0A4FB724B734A009373494FF4B8731C
S2140008F0206822F041FD71493346714A206822F093
S2140009003BFD304600F016FD6E49206822F034FDAF
S214000910FEE704222878114611F06EFD044618B34F
S2140009205E4D6149286822F027FD6049286822F05C
S21400093023FD21F07AFB21F079FB5D4B5D4A0093A5
S2140009405D4940F27713286822F016FD5B4923467E
S2140009505B4A286822F010FD204600F0EBFC59495F
S214000960286822F009FDFEE702460146287811F0C5
S2140009706DFD044618B3494D4B49286822F0FCFC2F
S2140009804A49286822F0F8FC21F04FFB21F04EFB84
S214000990474B484A0093484940F27D13286822F0A6
S2140009A0EBFC46492346464A286822F0E5FC2046EA
S2140009B000F0C0FC4349286822F0DEFCFEE708226F
S2140009C005230292CDE903231022CDE900325022FE
S2140009D003461146287811F051FD054600283FF4DD
S2140009E033AF2E4C3049206822F0C6FC2F492068D1
S2140009F022F0C2FC21F019FB21F018FB2C4B2D4AEB
S214000A0000932D4940F28913206822F0B5FC2B494B
S214000A102B462B4A206822F0AFFC284600F08AFCC2
S214000A202849206822F0A8FCFEE7417901294DD12B
S214000A30254B1C48CDE9001300220523007811F051
S214000A4053FD054600283FF4FFAE144C16492068B7
S214000A5022F092FC1549206822F08EFC21F0E5FA7F
S214000A6021F0E4FA124B134A0093134940F299130B
S214000A70206822F081FC11492B46114A206822F09A
S214000A807BFC284600F056FC0E49206822F074FCD9
S214000A90FEE700BFA0005501A0005502C0120020CE
S214000AA0A7E80200120D0020BEE8020064E802007B
S214000AB0F9E8020069E8020072E8020081E8020034
S214000AC07EE8020096E80200002C0020022931D1C0
S214000AD0754B764801930123009300220523007886
S214000AE011F002FD054600283FF4AEAE704C714989
S214000AF0206822F041FC7049206822F03DFC21F07D
S214000B0094FA21F093FA6D4B6D4A00936D494FF4B9
S214000B10D273206822F030FC6B492B466B4A206863
S214000B2022F02AFC284600F005FC6949206822F0DD
S214000B3023FCFEE7032931D1664B5C480193012371
S214000B40009300220523007811F0CEFC054600280D
S214000B503FF47AAE564C5749206822F00DFC5649B1
S214000B60206822F009FC21F060FA21F05FFA534B6E
S214000B70534A0093534940F2AF13206822F0FCFB1F
S214000B8051492B46514A206822F0F6FB284600F0D1
S214000B90D1FB4F49206822F0EFFBFEE704297FF4E3
S214000BA053AE4D4B41480193012300930022052389
S214000BB0007811F099FC054600283FF445AE3C4C01
S214000BC03C49206822F0D8FB3B49206822F0D4FB41
S214000BD021F02BFA21F02AFA384B394A009339498A
S214000BE04FF4DD73206822F0C7FB37492B46374A9F
S214000BF0206822F0C1FB284600F09CFB34492068A0
S214000C0022F0BAFBFEE7037B002B3FF41DAE21F07B
S214000C100CFA21F00BFA617B304A314B244D012946
S214000C2008BF13460093637A62792E49286822F03B
S214000C30A3FB21F0FAF921F0F9F92B49286822F0F4
S214000C409BFB6379012B0DD1637B284A5D1E6B42AB
S214000C506B411370E279264B1A7006B0BDE87040FF
S214000C60FFF78CBB022B08D1637B224A581E4342F7
S214000C7043411370E279204BEEE7032B08D1637BE8
S214000C801E4A591E4B424B411370E2791C4BE3E758
S214000C90042BE2D1637B5A1E53425341194A137008
S214000CA0E279194BD8E700BFFF2B0020120D002079
S214000CB0C0120020BEE8020064E80200F9E8020064
S214000CC069E8020072E8020081E802007EE802009D
S214000CD096E80200FE2B0020FD2B00204FE80200C5
S214000CE059E80200C0E80200BDE80200110D00202D
S214000CF00D0D0020100D00200C0D00200F0D002003
S214000D000B0D00200E0D00200A0D002030B50368E4
S214000D107C4A23F47F4323F00703934289B040F0D4
S214000D20EE80082200211220774B11F0FBFB0446D0
S214000D3010B3764D7649286822F01EFB7549286860
S214000D4022F01AFB21F071F921F070F9724B734A08
S214000D50009373493D23286822F00EFB7149234611
S214000D60714A286822F008FB204600F0E3FA6F4933
S214000D70286822F001FBFEE70146032214206C4B94
S214000D8011F0D0FB044610B3604D6149286822F08C
S214000D90F3FA6049286822F0EFFA21F046F921F0CC
S214000DA045F95D4B5D4A00935D494B23286822F068
S214000DB0E3FA5C4923465C4A286822F0DDFA2046BE
S214000DC000F0B8FA5949286822F0D6FAFEE701463C
S214000DD005221620574B11F0A5FB054610B34B4CC9
S214000DE04B49206822F0C8FA4A49206822F0C4FA23
S214000DF021F01BF921F01AF9474B484A009348495D
S214000E005923206822F0B8FA46492B46464A2068FD
S214000E1022F0B2FA284600F08DFA4449206822F003
S214000E20ABFAFEE70DF10F0104A811F091FB0446A2
S214000E3010B3364D3649286822F09EFA35492868A0
S214000E4022F09AFA21F0F1F821F0F0F8324B334A0A
S214000E50009333496423286822F08EFA31492346EA
S214000E60314A286822F088FA204600F063FA2F49B3
S214000E70286822F081FAFEE7BDF8143001465BBA16
S214000E80ADF818309DF8133008228DF81A30FF237D
S214000E908DF81B30FE238DF81C309DF8123018207C
S214000EA08DF81D30BDF810305BBAADF81E3006ABBD
S214000EB011F038FB054610B3144C1549206822F093
S214000EC05BFA1449206822F057FA21F0AEF821F0B8
S214000ED0ADF8114B114A009311497423206822F093
S214000EE04BFA10492B46104A206822F045FA28464D
S214000EF000F020FA0D49206822F03EFAFEE709B01D
S214000F0030BD00BFA000010008E90200C0120020AA
S214000F10BEE8020064E8020043E9020011E90200AC
S214000F2072E8020081E802007EE8020096E802000D
S214000F3039E902003DE9020010B5234C01F058FCE7
S214000F4001F078FE236F23F0070343F003032367C3
S214000F5021F0D9FA1D4B00209B6A9B075EBF012239
S214000F601B4B9A62D4F8203123F0030343F00203AC
S214000F70C4F82031D4F8243123F0070343F00203E9
S214000F80C4F82431D4F8403123F0030343F00203BD
S214000F90C4F84031D4F8603123F0030343F0020371
S214000FA0C4F86031D4F8403223F0030343F0020360
S214000FB0C4F84032D4F8003223F0070343F00203AB
S214000FC0C4F8003210BD00BF0080005000C00050C2
S214000FD000E0005008B502F087FA01280ED1134B46
S214000FE004205A6E4FF480231149520358BF114A09
S214000FF04B6601F51041086258BF536604F09EFA2E
S21400100021F03DF804F02AFA04F082FA04F048FAD7
S21400101022F061F9FFF790FF04F030FA21F024F88F
S21400102001F046F8BDE8084004F0F4BE0080005029
S2140010300090005000A0005030B5224D95B00DAC89
S2140010400FCD0FC495E80700032384E807008DF84A
S2140010504D3029231C4A1D49CDE902231C4B0E2284
S214001060CDE904134FF4807300210DF1260006939A
S2140010702CF016FB4FF4A020164B07A9CDE907036A
S2140010800F238DF8243010238DF82530124B0DAA2F
S2140010900A9320230B9301238DF831300F4B104811
S2140010A0009302AB04F078FC04469DF832304FF40F
S2140010B0E130002B0CBF0321002121F029F8204647
S2140010C015B030BD9CEB020000000650000500067F
S2140010D00008000724000650012C002030120020D3
S2140010E084120020831E012B10B512D8012922D8A5
S2140010F0114B04221B6905210020C3F3401301F0A5
S214001100F7FF0E4B1B681868A8B1BDE81040436A8D
S21400111018478B1E012B0CD801280CD8BDE81040B0
S2140011200022054B05211B691046C3F3401301F04E
S214001130DFBF0129E5D910BD00C00350C00A00205A
S21400114008B50449044804F02BFFBDE80840FFF743
S21400115073BF00BFC40A0020A8120020014822F076
S21400116079BA00BF84120020014B1A6A186810472B
S2140011708412002008B5044821F014F8BDE80840A1
S214001180024821F00FB800BFD0EB0200B8EB020017
S21400119004210022024B19711A6019739A60704775
S2140011A0B01200202DE9F843204B05461B78ABB95A
S2140011B04FF00208DFF87C901D4C59F8043BAB4218
S2140011C007D1284620F0F3FF01280CD122F005FBBA
S2140011D02060B8F1010F04F1080401D1BDE8F883DE
S2140011E04FF00108E9E7284620F0E1FF074600280F
S2140011F0EFD122F0F2FA2368C61AFA2005F0D2FBE5
S214001200B04201D92771E4E74FF47A7005F0CAFBC3
S214001210B04202D901232371DBE741F2883005F0A2
S214001220C1FBB0428CBF02230323F4E7130D00205A
S214001230B0120020CC0A002010B5094C21790429F0
S21400124004D00020FFF796FA04232371217B04299B
S21400125004D00120FFF78EFA0423237310BD00BFCD
S214001260B012002010B50B4C206820F0A0FF01281B
S21400127003D122F0B2FA084B1860606820F097FF9E
S214001280012803D122F0A9FA034B98600022034BF1
S2140012901A7010BDCC0A0020B0120020130D0020DA
S2140012A0054B187838B9054B1A79042A03D1187BF0
S2140012B0031F584258417047130D0020B0120020FB
S2140012C0074B1B7843B9074B1879042806D11B7BBC
S2140012D0042B08BF01207047012070470420704788
S2140012E0130D0020B0120020012208B5074B1A701B
S2140012F00022074B1A700422064B1A701F22064B58
S2140013001A7004F045F9054B186008BD160D00204C
S214001310212C0020150D0020140D0020C0120020E6
S214001320024B0349186822F027B800BFC0120020FD
S214001330E8EB020070B50C4C0C490646206822F01B
S2140013401BF804F025F90546206804F015F9304628
S214001350FFF7E6FF284604F00FF920680449BDE8C9
S214001360704022F009B800BFC0120020EAEB02006D
S214001370ECEB02002DE9F0430646294D89B001AC9E
S214001380884617460FCD0FC495E80700254B3568ED
S21400139084E807009D4241D0234CA5420CBF01249F
S2140013A04FF0FF34640104F1A04404F570340121C9
S2140013B03A20D4F81C9601F041F97068012101F03A
S2140013C03DF9717B307B0023042201F091FE04225C
S2140013D0717A307A002301F08BFE0123284601A99A
S2140013E08DF81230CDF80C80ADF8147002F068F964
S2140013F00020727A337A09F0040943EA0243C4F8FB
S2140014003436727B337B43EA0243C4F8303649F005
S2140014101803C4F81C3609B0BDE8F0830024C1E701
S214001420F0EB020000C00550000006500122014B00
S2140014301A61704700F0035013B5044605F0ACFA85
S21400144000230122217BCDE900324900B0FBF1F1F7
S214001450024A034822F081F902B010BD2D140000A4
S214001460D8120020F7B540260E4C054604F58053EA
S2140014701E67407B05F070FC04230B4F02220DF123
S21400148006013846ADF8063020F051FE384620F00A
S2140014905FFEA87B05F060FC002004F5005426677C
S2140014A003B0F0BD00C00350D40A002070B5064655
S2140014B001213A2001F0C2F8B16800220F48FFF778
S2140014C059FF002304220621022001F011FE00230A
S2140014D035460B4C04221946184601F009FE0FCD7E
S2140014E00FC401222B6830462360064B1A70FFF7A4
S2140014F0A3FF3046FFF7B6FF002070BDD40A0020D9
S214001500C4120020222C00202DE9F74F144640225A
S21400151006889846037901345E43244BA4B21A67C2
S2140015200546407B0F4605F017FC230243F00103F7
S21400153002221F480DF10601ADF806304FF0000BF1
S21400154020F0F5FD01342402DFF86490F610A4B212
S21400155008F1FF3AC3450FD1154820F0F9FDA87BE6
S21400156005F0FAFB4022134B11481A6720F0F5FDF0
S214001570002003B0BDE8F08F39463246484620F0DA
S214001580D6FDDA450CBF4FF6FF7344F0FF03022288
S21400159048460DF1060104F58074ADF80630374470
S2140015A020F0C5FD0BF1010BA4B2D3E700D0035029
S2140015B0D40A002000E00350034B04481B78002B9D
S2140015C008BF0020704700BF222C0020C412002055
S2140015D030B5064D87B001AC0FCD0FC42B6801A8FF
S2140015E02360FFF763FF07B030BD00BF0CEC0200BE
S2140015F02DE9F047434D88B001AC0FCD0FC495E8F8
S2140016000700012584E8070001213A2001F016F8BA
S214001610DFF8FC800121282001F010F83A4B404604
S21400162001A903938DF8125002F04AF82B460422C3
S2140016300021022001F05CFD2A46294600230220F4
S21400164001F056FD02212B460846042201F050FD0B
S21400165004222B461146002001F04AFD4FF00213EB
S2140016602A4C0226C4F83036A3F58033C4F82C364C
S2140016701C231027C4F8346604F5005AC4F81C3638
S2140016804FF4487005F068FB04F580591420CAF83A
S214001690107005F061FB2320C9F8107005F05CFBA4
S2140016A0B9214046CAF8107020F098FF0023304653
S2140016B01A461946C9F8107001F01AFD002329468B
S2140016C01A46304601F014FD2B46314630460022BD
S2140016D001F00EFD00222B461046042101F008FD05
S2140016E0404601F043FF00212820C4F83016C4F815
S2140016F02C16C4F83416C4F81C1600F09FFF08B069
S214001700BDE8F08720EC020000127A0000C003500B
S21400171000C005500348044A0449121A921020F0EB
S21400172027BD00BFB8410300B84103004435002080
S21400173008B500F02FF8FFF7EDFF124B12498B4269
S21400174012D30020114B12498B4218D3FEF7DCFD52
S214001750186850F82240586840F8224001329868CD
S2140017608242F5D30C33EAE70022F8E71C6844F817
S214001770220001325C68A242F8D30833E4E7002274
S214001780F8E700BF583D0300643D0300643D0300D6
S214001790643D03004FF400414FF0FF30124B134AF4
S2140017A010B59A60D3F8882042F47002C3F88820F7
S2140017B00F4A916601F1884101F5005210664FF616
S2140017C0DF7050660220C3F8D000BFF34F8FBFF320
S2140017D06F8F08244FF440330648C0F88041D3602A
S2140017E004600B6110BD00BF00ED00E000000000CB
S2140017F00090005000E100E0014B1868704700BF01
S214001800E80A0020084B1B6F03F00703022B04D0E6
S214001810032B05D0012B05D0FEE7044B1868704754
S214001820034BFBE70348704700800050E80A00209F
S214001830F00A0020002D310108B5FFF7E3FF054B45
S2140018401B6FC3F303330133B0FBF3F0024B186096
S21400185008BD00BF00800050E40A00200048704722
S21400186000B4C404014B1868704700BFF00A00209B
S214001870054B1860054B1B6F03F00703032B01D1C4
S214001880FFF7DABF704700BFF00A00200080005064
S21400189000487047002D3101014B1868704700BFA3
S2140018A0EC0A00200346054A0549106803448B42AB
S2140018B08CBF4FF0FF301360704700BFF40A002063
S2140018C000800020F7B50468012105463A2000F0A4
S2140018D0B5FE002301226179207901F009FC14236A
S2140018E03021227911FB023101F1A04101F570315E
S2140018F009686379D940C943A37901F00101022B35
S214001900217017D100F01CFB164A2B46617920790E
S21400191000F040FBFF28024660790ED12A461149A6
S21400192000F070FB0123024661792079CDE900338F
S21400193001F084FB002003B0F0BD012627790023C8
S21400194001460096384601F03BFC2A460549607978
S21400195000F058FB00236179024620790093019637
S2140019603346E5E7B921020008B501213A2000F028
S21400197065FE032101230422002001F0B9FB0020AC
S21400198020F0FEFD0122214B4FF46070C3F8442482
S21400199020F0F0FC1E4B00F5D520D3F8F02000F226
S2140019A0FC4042F00102C3F8F020D3F8FC2042F0DD
S2140019B08072C3F8FC20174AA3F55D431A60164BE5
S2140019C00222B0FBF3F0154B01381861C3F8F02083
S2140019D04FF48072C3F804234FF06043104A00208F
S2140019E0C3F8B02F0F4AC3F8802ED3F8002E42F467
S2140019F08072C3F8002EFF2283F82020D3F8002E32
S214001A0022F48072C3F8002E08BD00BF00D0035039
S214001A1000ED00E0FF030040F8590D00000004E070
S214001A2055CEACC5090001004FF06043D3F8802EB8
S214001A3030B5D20715D501240B4D8440D5F8FC20CF
S214001A4042F08072C5F8FC20D3F8002E2243C3F87B
S214001A50002E53F82020002AF0D003F82010002093
S214001A6030BD1120FCE700BF00ED00E02DE9F04F8F
S214001A709A46564B85B01B7806460F461546DDF847
S214001A803C909DF844B0DDF85080002B00F0978025
S214001A90072A00F296800E9B002B00F09280B9F188
S214001AA0000F00F08E80129BB3F5006F00F3898064
S214001AB0012803D1109B002B00F08380444B03EBDE
S214001AC005131B7B002B7ED0424C1022002168465B
S214001AD02BF0E6FD04EB45141022A7BB3946204642
S214001AE02BF0DEFD43F210036380BBF1000F03D141
S214001AF0E37843F00303E370364A0E9B02EB451C83
S214001B00CCE90193129B6901581E9DF84C30C0F336
S214001B100A0003F003039B0643EA001E53582E48B0
S214001B20012E00EA03004EEA0003CDF800A0535051
S214001B3017D0B8F1000F2ED19CF8023068F30413CA
S214001B408CF8023027E0002120462BF0A9FD4FF448
S214001B5044736380BBF1000FCED1E37843F03003CB
S214001B60C9E713230CF1100ECCF80C309CE80F00DC
S214001B708EE80F006FF00301DCF81C20109B61F369
S214001B809F02012FCCF81C20CCF8143003D1CCF8DF
S214001B901890CCF8043000270D4A290102EB0513F3
S214001BA042F80180159A28465A60694622469F6088
S214001BB05E7301F081FB384605B0BDE8F08F07483C
S214001BC0FAE70748F8E70748F6E700BF232C0020A7
S214001BD0F8130020F81200200F80FFF3028000F0B8
S214001BE0018000F0078000F038B5124B05461B78E0
S214001BF0DBB1E0B120F0A3FC0F4A00231146147BB2
S214001C0054B92B6001251A0101EB03131D738C5088
S214001C1020F09BFC204638BD0133082B02F1100251
S214001C20EDD120F092FC0548F5E70548F3E70548B6
S214001C30F1E700BF232C0020F8130020048000F0FA
S214001C40028000F0018000F038B520F078FC002318
S214001C5005460B4A147B6CB90133082B02F11002BF
S214001C60F8D101F0CBFA074B28461C7020F06DFC2B
S214001C70204603E0284620F068FC034838BD00BF35
S214001C80F8130020232C0020058000F00D4B10B523
S214001C901B78044693B1072812D820F050FC0A4B54
S214001CA003EB04131A7B2AB100241C7320F04DFCAE
S214001CB0204610BD20F049FC0448FAE70448F8E73F
S214001CC00448F6E7232C0020F8130020068000F0D6
S214001CD0028000F0018000F0154B13B51868002351
S214001CE001908DF8043020F02AFC124B1C7824B1A9
S214001CF020F02BFC104802B010BD01221A7020F014
S214001D0024FC0E4B01A81C731C7783F82C4083F828
S214001D103C4083F84C4083F85C4083F86C4083F882
S214001D207C4008238DF8073001F094FA2046E2E75D
S214001D303CEC0200232C0020038000F0F813002067
S214001D400A4A08B512785AB107280BD8084A02EB97
S214001D5000131B7B43B1002101F06EFA002008BD82
S214001D600448FCE70448FAE70448F8E7232C002078
S214001D70F8130020028000F0018000F0078000F0D9
S214001D800A4A08B512785AB107280BD8084A02EB57
S214001D9000131B7B43B1012101F04EFA002008BD61
S214001DA00448FCE70448FAE70448F8E7232C002038
S214001DB0F8130020028000F0018000F0078000F099
S214001DC00A4A08B5127852B107280AD8084A02EB20
S214001DD000131B7B3BB101F0BBFA002008BD054891
S214001DE0FCE70548FAE70548F8E700BF232C002083
S214001DF0F8130020028000F0018000F0078000F059
S214001E000D4B1B7893B1072812D889B10B4B03EB07
S214001E1000131B7B73B10A4B1A6D012383401342D8
S214001E2014BF0123002300200B707047054870473D
S214001E300548704705487047232C0020F8130020FB
S214001E4000000450028000F0018000F0078000F0DF
S214001E500B4A10B512780C4662B107280CD859B157
S214001E60084A02EB00131B7B43B101F083FA207093
S214001E70002010BD0448FCE70448FAE70448F8E7E9
S214001E80232C0020F8130020028000F0018000F0D0
S214001E90078000F0184B2DE9F0411F6D5B6D1F4069
S214001EA000D5FEE701260025144CDFF8588037429F
S214001EB018D02368C8F85060A3B1A168284601313D
S214001EC06268A1609847637B012B0BD150B90C4B1D
S214001ED003EB45131A7B60F341021A731A7F60F313
S214001EE041021A770135082D4FEA460604F1100420
S214001EF0DDD1BDE8F08100BF00000450F8130020DB
S214001F00F81200200020045070B5044601250B4E40
S214001F1004B970BD94FAA4F0B0FA80F005FA00F3A4
S214001F2006EB001224EA03045368002BF0D0117B62
S214001F3011B191689847EBE79847E9E778140020D5
S214001F4008B5192000F0A2FE28B14FF00072074B2A
S214001F50C3F880211A601A2000F098FE28B14FF0CE
S214001F608062024BC3F880211A6008BD00E100E0E1
S214001F7038B505460C4620F0E2FA0022044B03EB87
S214001F8005135C601A73BDE8384020F0DEBA00BF67
S214001F9078140020F8B504460D4617461E4620F075
S214001FA0CEFA1CB9052D18D0FF241FE0012C05D150
S214001FB0012D1FD0032DF7D104240EE0022C07D1EB
S214001FC0052D19D0072D19D0002DEDD1062404E0DB
S214001FD0032CE9D1022DE7D10924094904F11003A5
S214001FE001EB03110123C1E901760B7320F0ADFA72
S214001FF02046F8BD0324F0E70724EEE70824ECE7C4
S21400200078140020F8B505460E46174620F097FAD5
S214002010134B2C46D3F8242405F0FC0122FA05F3D2
S214002020DB0712D500230133DBB2042B04D1FF24D7
S21400203020F08BFA2046F8BDEC1804F003040C449C
S21400204022FA04FC1CF0010FEDD1FF2CF0D0012287
S214002050044B03EB0413C3E901671A73E8E700BFF8
S21400206000C0035078140020074BD3F82404D3F89C
S214002070202403F50053104000F0553020F0502087
S214002080C3F82004FFF740BF00C00350074BD3F847
S2140020902404D3F8202403F50053104000F0AA309F
S2140020A020F0A020C3F82004FFF72EBF00C0035086
S2140020B0024B1968024B186817F06AB9F80A002034
S2140020C0180B002070B59400224605460E462CF0EC
S2140020D077FA431C0AD058B92246314628462BF0D8
S2140020E0B5FA0028034808BF002070BD0248FCE788
S2140020F00248FAE710E000F021E000F024E000F0EB
S21400210010B504462CF060FA431C10D088B901F0D4
S214002110F3F9234620F003002044984201D1002022
S21400212010BD53F8042B0132F7D00348F8E70348F4
S214002130F6E70348F4E700BF0EE000F021E000F009
S21400214024E000F008B520F0F3F9014B186008BD54
S214002150681D0020014B186820F0EEB9681D0020AD
S21400216000210846F0B52F4C2F4A2368156845B164
S2140021701D68002D4BD09D889688AE4284BF1346BE
S21400218001210130052802F10802EFD101B12360D8
S21400219000210D462548264A0368166846B11E6883
S2140021A0002E37D09E889788B7423CBF1346012141
S2140021B00135052D02F10802EFD101B10360236855
S2140021C01A6852B31B499C888A6F1B4B22F0FF7219
S2140021D003EA044322F4803213438B674FF0502304
S2140021E04FF000429A6603681A68C2B111499B888C
S2140021F08A6FC3F3080322F4FF7222F0010213432E
S2140022008B674FF050234FF080429A66F0BD13461E
S2140022100121B6E713460121CAE7084BE0E7074B62
S214002220F1E700BF701D00209C1D00206C1D0020E3
S214002230741D0020004000500000FF0100600050A8
S21400224008B500F0E9FEDFED117AB4EEE70AF1EE2C
S21400225010FA17D4DFED0E7AB4EE670AF1EE10FA34
S21400226037FE800AF6EE007A30EE270ADFED097AAE
S21400227030EE270ABDEEC00A10EE103AA3F1800039
S21400228040B208BDB0EE670AECE700BF000000C32E
S2140022900000FE4200000043154A38B5936E526EA9
S2140022A0134013F0804212D0124B1B681D6835B1E4
S2140022B000241C605C60FFF7C3FF2146A8474FF070
S2140022C080420D4B5A66BDE83840FFF749BF002BE9
S2140022D0F9DA0A4B1B681C682CB11A605A60FFF7C3
S2140022E0AFFF0121A0474FF00042034BEAE700BFD3
S2140022F0004000506C1D002000600050701D002043
S214002300044BD3F88420D206FBD4D3F88400C0F361
S214002310811070470040005038B5104B0546D3F882
S21400232020310C4603F00303022B0BD0032B0DD0F9
S214002330012B0FD1FFF760FA052305B1286004B121
S214002340236038BDFFF78EFA0323F6E7FFF7A0FAFF
S2140023500223F2E701230020EFE700BF00800050D1
S21400236073B50D4600210E4B0191D3F88041064609
S21400237004F00304012C09D0022C0CD00C460EB13C
S214002380019B336005B12C6002B070BD01A8FFF759
S214002390C3FF0F24F3E7FFF77BFA0190EFE700BFD8
S2140023A00080005038B5184B0546D3F824010C467B
S2140023B000F00700062823D8DFE800F0040A121A07
S2140023C01E0E1600012305B1286004B1236038BD37
S2140023D0FFF712FA0523F6E7FFF70EFA0623F2E7F1
S2140023E0FFF740FA0323EEE7FFF73CFA0423EAE799
S2140023F0FFF74EFA0223E6E71FF0C5FE0723E2E7E3
S21400240000231846DFE700BF0080005038B5104BA9
S2140024100546D3F840310C4603F00303022B0BD0DD
S214002420032B0DD0012B0FD11FF0AFFE092305B1F2
S214002430286004B1236038BDFFF72EFA0823F6E7BC
S2140024401FF0A6FE0B23F2E701230020EFE700BFF4
S2140024500080005038B5144B0546D3F800020C46F1
S21400246000F0070004281BD8DFE800F003090D1170
S2140024701500012305B1286004B1236038BD1FF0A4
S21400248084FE0923F6E7FFF707FA0823F2E71FF0B2
S2140024907FFE0B23EEE7FFF7CFF90E23800AE9E76E
S2140024A000231846E6E700BF0080005038B5104B02
S2140024B00546D3F840320C4603F00303022B0BD03C
S2140024C0032B0DD0012B0FD11FF05FFE092305B1A2
S2140024D0286004B1236038BDFFF7DEF90823F6E76D
S2140024E01FF056FE0B23F2E700231846EFE700BF67
S2140024F00080005038B5104B0546D3F860310C46C6
S21400250003F00303022B0BD0032B0DD0012B0FD1AE
S2140025101FF03BFE092305B1286004B1236038BDD7
S214002520FFF7BAF90823F6E71FF032FE0B23F2E7AF
S21400253001230020EFE700BF0080005010B40D4CD0
S2140025400B46D4F8204204F00304012C0AD0022CD7
S2140025500CD008B1002101600BB100221A605DF8B2
S214002560044B70475DF8044BFFF7D6BE5DF8044B8E
S214002570FFF74CBF0080005038B50C4605461FF0EC
S214002580D7FF054B9A6A54402C4054409C62BDE8E5
S21400259038401FF0D1BF00BF00C00050B0F5207F0C
S2140025A01FD009D8B0F5007F15D003D868B1B0F5B4
S2140025B0C07F0AD000200CE0B0F5607FFAD10B4B4C
S2140025C0D3F88000C0F3011003E0084B186FC0F387
S2140025D0033001307047054BD3F89000C0F3046019
S2140025E0F7E7024B186FC0F38020F2E70080005038
S2140025F04FF400320E4B014610B500209A66FFF7E6
S214002600CDFF484341F671320A490B4B884294BFCE
S21400261000200120DC69DA639A6822F4401242EA5C
S21400262000529A60E20344BF0022DA6310BD00BF86
S21400263000900050005A620200000350420910B594
S2140026400FD0012A0FD00A4B0A4C022A18BF234685
S21400265000F01F0049B103F58053012282401A6042
S21400266010BD1346F4E7044BF2E703F50053F4E716
S21400267068800050608200506480005008B580205A
S2140026801FF078FE034B98429EBF4FF48032024BF9
S2140026901A6708BD005A620200A000501FB500234A
S2140026A0B0F5807F019377D028D8382800F0948042
S2140026B00BD82438092810D809280ED8DFE800F0EF
S2140026C0676767670D0D620D377D52285FD008D8A3
S2140026D03D283BD03E2800F08480019805B05DF888
S2140026E004FB8028F9D1414B1B6F03F00703013B25
S2140026F0032BF2D8DFE803F044413F6CB0F5D06F0F
S2140027005BD019D8B0F5A06F66D00AD8B0F5806F48
S2140027103DD0B0F5906FE0D1002001A9FFF742FE52
S214002720DBE7B0F5B06F2DD0B0F5C06FD5D1002087
S21400273001A9FFF76BFED0E7B0F5006FECD00AD822
S214002740B0F5E06F4DD0B0F5F06FC6D1002001A90E
S214002750FFF7D0FEC1E7B0F5086FBED1234BD3F824
S214002760003103F00303022B2CD0032B2ED0012BB9
S21400277030D1FFF777F8032300E005230193ACE799
S2140027800223FBE7002001A9FFF7EAFDA5E70020EA
S21400279001A9FFF7C1FDA0E702934FF0E0231B69F4
S2140027A05B0705D5FFF748F80C230393039BE5E783
S2140027B003A902A8FFF72AFEF8E7002001A9FFF701
S2140027C049FE8AE7FFF768F80823D7E71FF0DBFC27
S2140027D00723D3E70123D1E7002001A9FFF7AEFEC8
S2140027E07BE7002001A9FFF761FE76E70080005036
S2140027F04FF40022034B5A66012203F580439A6287
S214002800704700BF0090005008B5FFF747FF082844
S21400281011D00938012802D94FF6FF7008BD4FF4D1
S2140028200012064B5A6603F5D8335B6ADB07F3D50E
S2140028304FF4FA70F2E7024B1888EFE7009000506A
S214002840F80C0020F8B504468020FFF727FF032881
S21400285000F087804FF40022424B02215A6645F66C
S2140028600E03414AC2F88030404B9962012103F5BD
S21400287080539962936DD903FCD4D4E900131B05E9
S21400288043EA0163E17B94F820500B43217BE77E0B
S21400289043EA0143617B6D0143EA0133A17B43EACE
S2140028A0811313619169D4E904031B0643EA80632C
S2140028B001F000410B43A17E94F823000B43217ED8
S2140028C043EA0143617E43EA01239361136AE669A2
S2140028D023F00D0394F8221043EA8703002E2DD12F
S2140028E01362966A94F8213045EA031326F03305FE
S2140028F02B4343F0010393621D4D1B4B9A6D35EA43
S2140029000202FBD10222194DAA621A659A6D520084
S214002910FCD41A69A56822F4700242EA05521A61CC
S2140029204FF00042114B9A6119B9022203F5805309
S2140029309A6278B901220F4B9A620BE0334343F058
S21400294008031362936A23F0330303432B4343EADB
S2140029504103936294F824301BB1034B064AC3F834
S2140029608020F8BD0090005000C0005000D00050FD
S2140029700300014000E00050F1A7FFFF1E4BFF28B8
S21400298070B59E6A35D89A6D12F4803F18BF012143
S2140029901A4A18BF9162022191629B6DDC0303D52F
S2140029A0154A936D9907FCD50222144B124D1A65F1
S2140029B0AC6D14F08044FBD1114AAB6992F900204B
S2140029C023F47F03024423F47F4382F3080243EA9E
S2140029D0002343EA0243AB6131460220FFF7CCFDF9
S2140029E0AB6DDB0303D531460120FFF7C5FD20465E
S2140029F070BD2124FBE700BF00C0005000D000508F
S214002A00242C0020014B93F900007047242C002052
S214002A1001221548154B816A9A62826D02F0030204
S214002A20032AFAD102229A621A650F4A936D5B0056
S214002A30FCD40F48936D30EA0303FBD101220B4B05
S214002A401A65A3F580539A6D9007FCD49A6D920789
S214002A50FCD50222054B1A65034A936D9B07FCD5ED
S214002A600320FFF789BD00BF00C0005000D0005013
S214002A7003000100F0B5D0E901434FF480061A4A7E
S214002A804178057856664FF4D156022702F5B832DB
S214002A905662164E4F2977604FF0010728BF4F2128
S214002AA006F5805677601669F603FCD441EA0521E0
S214002AB051611B01417B43EA04230B43017B43EA3C
S214002AC041039360C37B817B1B0143EA4113417C36
S214002AD00B43017C43EA41035360837C13B16FF4DC
S214002AE0D1535362F0BD00BF00900050001002505A
S214002AF0014B1880704700BFF80C0020014B18806F
S214002B00704700BFF60C00204FF4001208B5184BB3
S214002B105A660223174A5360936813F48033FBD136
S214002B20012822D1FEF79EFE134B984215D003F5DE
S214002B30122303F5F863984213D0104B00EB800283
S214002B40400AB3FBF0F3520A0A49CA620B63012338
S214002B504B620022074B5A6008BD45F67A13084AB6
S214002B60F2E745F61A03074AEEE75362F1E700BFBD
S214002B70009000500040025000F04902646666660D
S214002B80D8B80500BBCF0500B0F5207F10B50C46C1
S214002B9042D008D8B0F5007F33D003D888B1B0F55E
S214002BA0C07F0ED010BDB0F5607FFBD11F4A4C1E13
S214002BB0D2F8803023F0300343EA0413C2F88030A2
S214002BC0F0E71FF0CFFB1FF099FC4FF48031184B55
S214002BD0164A1967136F013C23F4704343EA043323
S214002BE01367FEF729FE0446FFF78AFBC0F10201D1
S214002BF020461FF07DFC00F02DF8BDE81040FFF7E2
S214002C003DBD0A4A4C1ED2F8903023F0F85343EAF2
S214002C100463C2F89030C5E7044A4C1E136F23F4D1
S214002C20806343EA84231367BCE700BF008000503C
S214002C300090005008B50121022000F0F5F81FF0C2
S214002C4091FB1FF05BFC4FF48032014B1A6708BD06
S214002C500090005008B54FF4C0701FF08BFBBDE825
S214002C6008400449884294BF012102214FF4207095
S214002C70FFF78ABF80F0FA02034B5868C0F30800DB
S214002C80003818BF0120704700ED00E0054B4209F0
S214002C9053F8223000F01F0023FA00F0C04300F083
S214002CA00100704700E100E010B5224B70B94FF408
S214002CB00031214A1860516602F598325268012A9E
S214002CC003D11E4AD2F800211A6010BD1B68002BE3
S214002CD0FBD01B4A5268012AF7D0184A8020C2F857
S214002CE00031FFF7DBFC05281FD14FF4C070FFF75B
S214002CF055FC0128044604D102214FF4C070FFF7AA
S214002D0043FF07220F4B1A610122A3F580535A6036
S214002D100B4A1369DB07FCD5012CD6D12146BDE84A
S214002D2010404FF4C070FFF72FBF0122064B5A60C9
S214002D30CBE700BFC41D002000900050008000506C
S214002D4000C0015000E0015000D00150044A417814
S214002D50536F23F4407343EA01235367704700BF61
S214002D600040005010B5044610B10020FFF79CFF4D
S214002D70104A136943F00403136103F04DFB1FF080
S214002D80E7FB0D4B0D4AC3F820241FF0D1FB2BF0B8
S214002D9013FC1FF0D1FB1FF0DCFB03F065FB1CB936
S214002DA0BDE81040FEF748BD0120BDE81040FFF723
S214002DB07BBF00BF00ED00E000E003500000FF0F07
S214002DC010B5044610B10020FFF76EFF0E4A1369D7
S214002DD043F0040313610D4B0D4AC3F8202403F09F
S214002DE01BFB1FF0A5FB2BF0E7FB1FF0A5FB03F07A
S214002DF03BFB1CB9BDE81040FEF71EBD0120BDE838
S214002E001040FFF751BF00BF00ED00E000E00350A8
S214002E100000FF0F034A0179D36E23F030030B4303
S214002E20D366704700400050F8B504461C4BD3F8F4
S214002E308420D106FBD4D3F88430C3F381139C429C
S214002E402CD0FEF7DFFC012C064602D121461FF0EF
S214002E504FFB1FF06DFB4FF00072124B07465A6691
S214002E6020461FF07DFB4FF480630D4D621E93409D
S214002E702B676B6E9A0103D4D5F884309B060AD56F
S214002E8038461FF059FB022C08D13046BDE8F84002
S214002E9000211FF02DBBD5F88430EAE7F8BD00BF4F
S214002EA0004000500060005010B50C4608B9FEF710
S214002EB0A9FC074B21461B783BB1064B984204D829
S214002EC00120BDE81040FFF7AFBF0220F9E700BFC2
S214002ED0252C0020005A62020278034B01210020B4
S214002EE01A70FFF7E1BF00BF252C00204FF000420C
S214002EF038B5264B26495A6601224A604AF6CD3135
S214002F0003F50B235D6C1964154030BB9968C9073F
S214002F100BD4002401221F4B5A6015B11E4B1F4ACA
S214002F201A6429F09CFE204638BD1A498A601C4A5D
S214002F30D96ACC0705D4904201D10724EAE70130CC
S214002F40F6E79042E5D1F8E70132DC6A14F00804AF
S214002F5006D08A42F8D10724DFE700221049F4E7BA
S214002F608A42F8D020220B4B0B495A620122A3F565
S214002F7080539A6023460A4A486A800603D49342DE
S214002F80E9D00133F8E79342C7D1E4E70090005058
S214002F900050095000600950004009503254FFFFAD
S214002FA040420F004FF0004238B5174B174C5A6698
S214002FB0012203F50C235A604AF6CD33656C236470
S214002FC0437893401343124AD363C3788178A26848
S214002FD09B0043EA011322F074021343A3600279B4
S214002FE0837943EA022323614279C37943EA0223C1
S214002FF063610078FFF77AFFEB0744BF054B236455
S21400300029F02DFE012038BD0090005000400950E8
S214003010004000503254FFFF064BDFED077AD3F82E
S2140030208830C3F30A0300EE103ABAEECF0A30EE49
S214003030670A70470040005033938843072A2DE9FB
S214003040F041154698464FF0030401F003072DD8CB
S2140030509600B44000FA06F221461C481FF081FA9A
S21400306021461B4807FA06F21FF07BFA194B1A494D
S2140030709DF81800B8F1000F18BF1946012303FA8F
S21400308005F50D60154B1649002818BF0B461D6048
S214003090144B9DF81C00C3F82054103103F224434F
S2140030A0002818BF0B461D60BDE8F081A2F1080697
S2140030B0B600B44000FA06F221460B481FF051FA5B
S2140030C021460A4807FA06F2CEE700BF00C40350BE
S2140030D008C4035010D4035010E4035014E4035003
S2140030E014D4035000E0035004C403500CC403502F
S2140030F0F8B504460D461F4616464AB101238B40D6
S2140031003021184A01FB0022F7B141F2100153505A
S21400311004EB4403072D4FF00F014FEA031316D8B4
S214003120A80006FA00F281400F4818441FF019FA6A
S2140031304EB9012330210B4AAB4001FB042277B184
S21400314041F210015350F8BD42F21001DFE7A5F13D
S2140031500800800006FA00F281400448E5E742F2E3
S2140031601001EFE700C0035004C003500CC003502A
S214003170104B0140D3F8302422EA0002C3F8302472
S214003180D3F830241143C3F83014D3F82C24024368
S214003190C3F82C24084AD36E03F03003202B1FBF3D
S2140031A0D36E23F0300343F01003D366034BC3F80B
S2140031B02004704700C003500040005000E0035059
S2140031C038B514461D46032283F00103FFF790FF2F
S2140031D0012004F11001884005FA01F1FFF7C8FF4D
S2140031E09DF81010034B044A002918BF13461860B8
S2140031F038BD00BF24E4035024D403504FF400121B
S2140032000B4B10B5C3F88020BFF34F8FBFF36F8F03
S2140032100024FF22074B21465C6520209A625C60F2
S214003220FFF70CFA2146BDE810402120FFF706BA4A
S21400323000E100E000000450044A054B002908BFE6
S2140032401346012282401A60704700BF40100450A7
S2140032504020045010B5012104462020FFF7EEF967
S21400326001212120FFF7EAF90122114B5A6022784A
S21400327012069A606178A27842EA01429A61FF22B9
S2140032809A6200229A631A644FF000425A654FF021
S214003290FF324FF4001103F500531A65054AC2F8D1
S2140032A08011E3781B01DBB282F81533116010BD84
S2140032B00000045000E100E0F8B50125C3B2DFF8D5
S2140032C088C0D1F800E09D408F7ACB7A0C46097B07
S2140032D0CCF850500CF5005C4CF820E04FF0300E67
S2140032E0184E1B050EFB006094F80DC043EA07431A
S2140032F043EA415322F00302C0F860C0C365026788
S2140033001FF01DF9736D2B437365237A13B1336C6D
S2140033102B433364637A13B1B36B2B43B3632279C5
S214003320A37943EA0243084A93616179E37943EA61
S214003330014306498B61034B55639D64BDE8F84025
S2140033401FF003B900000450002004500010045081
S21400335010B50124C0B284401FF0F1F8044B5A6D3A
S21400336022EA04025A659C62BDE810401FF0EDB8E0
S2140033700000045010B50124C0B284401FF0DFF8EE
S214003380074BDA6A224208D15B6B9C430CBF0124D0
S21400339000241FF0DAF8204610BD0024F9E700BF2D
S2140033A0000004504FF40032054B9A6641F6713225
S2140033B003F51C33DA63012203F50053DA60704725
S2140033C00090005041F671320121064BDA6303F596
S2140033D00052D1600022DA634FF40032A3F51833AE
S2140033E09A66704700000350CB784A7810B55B01A8
S2140033F00C7843EA82030A79234343EA02130C2239
S214003400424302F1B0421363012C02BF8A78024B9A
S21400341043F8202010BD00BFE880035008B54FF0E9
S214003420B0435A686AB958B15B680BB11FF0A9F887
S21400343001210D4B59601FF0A4F84FF0B043D9603E
S21400344008BD5B680BB11FF09CF80028F0D11FF098
S21400345098F84FF0B0430222DA601FF092F801228B
S214003460024B5A60ECE700BF0010005800200058DE
S2140034704FF0B0414B6810B50BB11FF082F8012237
S2140034800B4BC4785A608378934043EA84034478AD
S2140034902343047943EA0413447943EAC4038B6064
S2140034A0044B5A600378C3F10203CB6010BD00BF23
S2140034B000200058001000584FF48032064B5A6621
S2140034C003F5E6235B69C3F38512827003F03F02BF
S2140034D01B0B42700370704700900050014B986CB5
S2140034E0D96C70470080E00F024B1868C0F30740A5
S2140034F0704700BF0080E00F0120034B9B680A3333
S21400350003F01F03984070470080E00F70B5054633
S21400351016461C4621B94FF420701EF02BFF0146BC
S214003520402C1BD003D8DCB1202C1BD070BD602CE7
S214003530FCD1042303FB06F2530803EB4113B3FB51
S214003540F2F3094A203B02EAC303AA6822F06002AB
S214003550AA60AA681443AC60EB61E7E70623E9E7D4
S2140035601023E7E70823E5E7F8FF7F00012200F5D0
S21400357080535A6040F6AA6341F205024361002375
S2140035800B498360C365C26000F500520361C361E6
S214003590C364916407498365884203D103650023A9
S2140035A0436502E004498842F8D00123536070471F
S2140035B0FFFF010000C005500000065070B50D4624
S2140035C0FFF7D4FF012300F580567360AB7C0446FA
S2140035D01BB1836843F080438360EB7C5BB1354A64
S2140035E02B7D944245D1A2F51032C2F88C31E36DA2
S2140035F043F08003E3652A8A6B7B20461343EA89FF
S2140036001343E3602B7BD5E90112FFF77FFF6B7D49
S2140036101BB1A36843F48033A360AB7D1BB1A368E2
S21400362043F40043A360EB7D2A7E1B07120502F4D9
S214003630E00203F0E0431343A365697E1D4A8B1E38
S214003640012B1D4B1FD894421BD002F5804294429A
S2140036500CBF01224FF0FF3203EB4213022041F26F
S2140036601C620329985020D10423F3652B786361EC
S21400367070BD124A944204BFA2F52032C2F89C31B3
S214003680B5E70022E8E794420DD00C4A94420CBFFE
S21400369001224FF0FF3203EB4213022042F21C627B
S2140036A001299850DFE70022F5E7042204F50053CD
S2140036B0DA65DBE700C0055000C003500000065086
S2140036C038B50D46FFF752FF012200F580535A60C9
S2140036D02B8A826843F001031343AA7B044643EA1D
S2140036E08223836083682A7D43EA42738360AB7CCF
S2140036F05BB11D4AEB7C90422DD1A2F51032C2F888
S2140037008C31E36D43F08003E3652B7B2046D5E9DF
S214003710011243F48053E3601EF03BFF6B7B0BB15A
S214003720102363616B7D1BB1A36843F48033A360F1
S214003730AB7D1BB1A36843F40043A360EB7D2A7EF8
S2140037401B07120503F0E04302F4E0021343A365EF
S2140037502B78636138BD054A904204BFA2F520323B
S214003760C2F89C31CDE700BF00C0055000000650EF
S2140037700123054A411100F01F00834052F8210042
S214003780034342F821307047C81D0020044B1B68D5
S2140037901BB1044B0360002070470120704700BF38
S2140037A0D81D00209C2B002070B50D4C246884B1D9
S2140037B00C4C85182688B5420DDC6688CD18B542B7
S2140037C009DC52B14BB1A0800020E18022816381E8
S2140037D070BD0120FCE70420FAE70520F8E700BFEB
S2140037E0D81D00209C2B00202DE9F74F9946494B09
S2140037F01B68002B00F08A80B9F1000718BF01276C
S2140038004FF0010BDFF814A17F42BAF80650BAF861
S2140038100A300D9E2B449BB20D440093FFB2ADB20E
S2140038201EB9304603B0BDE8F08F009AABB29A429C
S2140038306ED9BAF80840BAF80430241AB44228BF41
S21400384034461844344B361B80B203EB0512B9F1EC
S214003850000F0AD0072C26D80444A04216D32846C8
S214003860FFF786FF01350020DAE7072C1BD8044453
S214003870A042F4D2C108535C00F0070C0BFA0CFC13
S21400388023EA0C030130535480B2F1E7C10812F862
S21400389001C000F007030BFA03F343EA0C03013000
S2140038A0535480B2D9E74FEAD00C02EBD00810F0A0
S2140038B007000BD1E20839464046019229F0F0FE97
S2140038C014F00704019ACAD0904412E00BFA00F3F1
S2140038D012F80CE0DBB2591E5B420EEA01013B40D7
S2140038E008381943044402F80C10E20808F10108ED
S2140038F0E1D10BFA04F498F80030E4B26242013CDD
S21400390013403C40234388F80030A8E7012688E7A8
S214003910042686E7D81D0020262C00209C2B00209D
S21400392037B5114D2B68EBB9FDF752FE044610B1C2
S214003930012003B030BDFDF73FFE28600028F7D019
S21400394002884188094B20461A801A814A435980CA
S21400395059819C80DC802146CDE9004223462246E0
S214003960FFF742FF0020E4E7D81D00209C2B002034
S2140039702DE9F843002301251A461A4FDFF86C801C
S2140039803C68DFF86490D8F80000D61841888E426C
S21400399007D3FBB910220021124829F081FE00202F
S2140039A012E0E10708D50133D118C9060ABF57F857
S2140039B0254064080135E6E753B109EB0211FDF72F
S2140039C0A3FD034610B10720BDE8F883721CEBE7A1
S2140039D00132E9E7044901EB0211FDF795FD0028E5
S2140039E0D8D0F0E7C81D0020262C0020D81D0020C7
S2140039F030B5054687B000B300226FF07F43C0E9BC
S214003A00012301A8FFF7C2FE044698B9019BCDE941
S214003A1002001A882B605B88013A013B284602A9FF
S214003A20049205931EF01EFE044618B92846044963
S214003A301EF051FF204607B030BD0524FAE700BF50
S214003A4094EF020038B50446054D29F02CF90FCC4A
S214003A500FC594E8030085E80300002038BD00BFCA
S214003A60DC1D002047F6FF739A42F0B56FD002299E
S214003A706FD8394B5B5C012B6BD8384DDF0005EBFC
S214003A80C30415F83330A178012B13D10025E07854
S214003A90401AA84202D80844C0B2F0BD431B66686C
S214003AA0A0EB530336F913609642D4BF1D4603F1CC
S214003AB0FF30EEE760680028EFD0B0F9004094428F
S214003AC004DBB0F902409442B8BF144683883D44F4
S214003AD0FF2B19BFC8224FF0280CB0F90620B0F90A
S214003AE008C0A2EB04030CBF0126002693FBFCF3E0
S214003AF033446E781BB29E4201DD002B01DA731E42
S214003B001BB24FF47A7C01339BB2071D5D1E2DB2AB
S214003B104FEAC50E00EBC505EA88AD689E4214FB69
S214003B20025222EAE27202F15C02B2FBFCF204DD0F
S214003B3037F8335001339542E8D200EB0E039888ED
S214003B40904228BF1046884238BF0846A4E7FF20A8
S214003B50A3E70020A1E700BFC4F20200DC1D00209E
S214003B600229F0B555D82C4B585C012851D82B4C5F
S214003B7004EBC00114F830004B6801280FD1C87858
S214003B808C78904294BFC4EB0001C4EB0201001B8A
S214003B90CAB28242C8BF002233F91200F0BD002B21
S214003BA037D08878904202D3B3F90200F6E7CC7893
S214003BB0B3F900009442F1D94C789988013CA1F100
S214003BC0FF06714203F10405E4B2714103F10C07EC
S214003BD0CEB2B44216D805EBC1014FF47A756A43EB
S214003BE0B1F902404968521A04EBD47102EB610243
S214003BF092FBF4F29042D1DBB3F902009042CDDCA6
S214003C0010B2CBE737F831C04E1C9445E3D33146AB
S214003C10DEE70348C2E700BFC4F20200DC1D002056
S214003C200080FFFF08B50448FFF70CFFBDE808401A
S214003C30012029F03CB800BFC8F2020000487047D7
S214003C40FA0C00201B0603F0706300F00F00090258
S214003C50034301F47061120402F470220B43134311
S214003C60014A1360704700BF0020025C60B505463D
S214003C7019B10139B1F5806F0FD2094EF06810F412
S214003C808030FBD143EA012312072B4302F0805217
S214003C90134343F00043736060BD0120FCE700BFA0
S214003CA00020025C0122054B9A60DA68D203FCD43D
S214003CB0D86820F00F000004000C70470020025C5B
S214003CC0014B1868704700BF0040025C014B586803
S214003CD0704700BF0010025C014B186B704700BFB6
S214003CE00010025C014B1868704700BF0010025CB1
S214003CF0014B9860704700BF0010025C014B1864CF
S214003D00704700BF0010025C014B5864704700BF4C
S214003D100010025C014B5863704700BF0010025C45
S214003D200022014B1A6070470010025C024A1368BA
S214003D3043F00103136070470010025C024A1368E8
S214003D4023F00103136070470010025C43F2040284
S214003D50014B1A60704700BF0010025C024A1368ED
S214003D6043F03003136070470010025C044B1A687F
S214003D7042F480721A601A6822F480721A607047E1
S214003D800010025C024A136843F4806313607047B5
S214003D900010025C034A136823F4702343EA0043CE
S214003DA0136070470010025C044B1A6902605A697F
S214003DB042609A698260DB69C36070470010025CEB
S214003DC00268044B1A6142685A6182689A61C26846
S214003DD0DA6170470010025C024B1A6BD207FCD403
S214003DE0186270470010025C0322024B18601961CB
S214003DF05A6370470000025C82B01FB507930A9BA7
S214003E0004AC8B4228BF0B4604E907001048D100DB
S214003E10079948BF03330160099948BF23F003039D
S214003E2023F0704301F0E041194341F000518160F6
S214003E30002102F0E042019C1A4342F00052C160A9
S214003E4004618261416304B0BDE8104002B070476F
S214003E500000025C3F22034B1A631022DA61032241
S214003E609A6370470000025C024AD36B9B07FCD43F
S214003E70704700BF0000025C044B9B6A13F0240FDF
S214003E8014BF012000208000704700BF0000025CC5
S214003E9008B5FFF7F1FF064BDB6B23F47F4323F0F7
S214003EA0EF0303431EBF0122024BC3F8FC2F08BDDD
S214003EB00000025C00F0FF3F4368182B0AD0202B5E
S214003EC01DD0102B2BD1174BD3F80434DB010AD4AA
S214003ED001207047134BD3F804349A01F8D50B68C9
S214003EE043F008030B6003680F4A934210D10B6837
S214003EF043F040030B600023436000207047094BEB
S214003F00D3F804345B01E3D50B6843F00403E9E718
S214003F10064A9342F1D10B6843F08003EAE7072094
S214003F20704700BF0000025C2734002026340020C3
S214003F300B4607B50749D1F80414C90708D5002170
S214003F4000920246084600F05BF803B05DF804FBFA
S214003F500120FAE70000025C1346064AD2F8042461
S214003F60D20504D50A46014600201EF0F8BE012000
S214003F70704700BF0000025C13B5084CD4F8044438
S214003F80E40508D5009313460A460146002000F0D3
S214003F9061F802B010BD0120FBE700BF0000025C24
S214003FA013B5084CD4F80444E40508D5009313462A
S214003FB00A460146002000F071F802B010BD01204C
S214003FC0FBE700BF0000025C70B504460D461646CF
S214003FD08CB00A4A09AB07CA83E807001A4621468E
S214003FE0CDE90563CDE90333CDE9013300954FF400
S214003FF080301EF0E0FD0CB070BD00BF4CF3020038
S214004000F0B51C465B6815468DB01A07129E1AD18D
S214004010CBB17268934216D10C4B0D4A53F82170FF
S21400402009AB07CA83E807001A462946CDE90533D7
S214004030CDE90333CDE90163009447F480701EF0A8
S214004040BAFD0DB0F0BD0720FBE700BF58F3020035
S2140040504CF30200F0B516465A688DB0102A0D468D
S214004060129F15D17A68102A12D10A4A09AC07CADB
S21400407084E8070022462946CDE90547CDE90344F2
S214004080CDE90144044800961EF095FD0DB0F0BD44
S2140040900720FBE74CF3020030000100F0B516469F
S2140040A05A688DB0102A0D46129F15D17A68102ACC
S2140040B012D10A4A09AC07CA84E8070022462946F4
S2140040C0CDE90574CDE90344CDE9014404480096E2
S2140040D01EF071FD0DB0F0BD0720FBE74CF30200AB
S2140040E01000010082B070B586B0149D03AE202D7E
S2140040F086E807000B9359D805EB85038B4203D05F
S21400410006236B438B4253D10C9BAB4250D10F9B83
S214004110B3EB450F4CD1129A934249D1012229465E
S2140041202220159BFFF7A2FD044630BB034606225D
S2140041300E210C20FFF786FD0123CDE900332B4628
S21400414096E807001EF0CAFC0E230BAA009307CAC7
S2140041502B461EF00EFC0C23164C00930EAA2B4684
S21400416007CA1EF036FC636823F07F0343F026037D
S2140041706360FFF797FD30B10624204606B0BDE821
S214004180704002B07047636823F07F0343F0220359
S2140041906360FFF787FD04460028EDD1062311AAC9
S2140041A0009307CA2B461EF047FCE6E70124E4E727
S2140041B00724E2E70020025C70B598B0002843D0E0
S2140041C02C4C08AD0FCC0FC50FCC0FC50FCC0FC5B0
S2140041D094E80F0085E80F006D4604AE04F1100366
S2140041E020340FCB85E80F0094E80F0086E80F0018
S2140041F0FFF7BCFD0420FFF7CDFDFFF7A7FD304617
S214004200FFF7DEFD002408AE56F8040B0134FFF776
S214004210E3FD102CF8D1FFF759FD0328FBD9002445
S214004220FFF77EFD2646FFF74BFD55F8043B0136AB
S2140042305840042E44EA0004F5D12CB10122062091
S2140042400D4B1A7018B070BDFFF790FD0820FFF7F1
S2140042504FFD0020FFF752FD0720FFF755FD4FF4F6
S2140042600070FFF757FD0820FFF794FDFFF75EFD8F
S2140042700020E7E734F402002934002008B5FFF7F1
S21400428075FD0122014B1A7008BD00BF28340020BE
S2140042901FB51EF0E3FE044630B1012206240D4B86
S2140042A01A70204604B010BDFFF70AFD0090FFF715
S2140042B007FD0190FFF704FD0290FFF701FD039054
S2140042C06846FFF77DFDFFF7D9FFFFF747FDFFF7CD
S2140042D059FDE6E72934002006289ABF014B185CF2
S2140042E00020704794F4020030B5154B87B0029357
S2140042F0144B0390049346F611030D46059300F005
S21400430077F91428044616D168461EF051FF4FF080
S214004310A843032202A95A6319601D619A63DA6BE7
S2140043209207FCD1142C02D168461EF04FFF00F015
S21400433093F9044601E00028E9D0204607B030BDD6
S214004340F41D0020040000202DE9F04FB1B0054612
S2140043508C469E46E8466F4EDDF8EC90409C06F193
S214004360100A474630687168083603C75645B8468F
S214004370F7D13E9B03EB0208C8F1000A0AF00F0AC9
S214004380B9F1000F00F09D80C9F1000707F00F0794
S2140043900121DDF8FCB044F00050C4F11006CDF861
S2140043A010B005910690300200F4F85040F021005D
S2140043B00790B9F1000F40F08680CDF820D047F086
S2140043C00050002D00F08480099121210A9041EAD6
S2140043D007210B9142F00050CDF830C03D9B08A954
S2140043E04FEA0A2C0D910E904CF041000F9010935E
S2140043F0002A75D13E9B119143F0005312933C9BCB
S2140044001390149310AB1593434B444A169340F6FF
S21400441011031793424B0021002D08BF1346189333
S21400442014AB19933F4B10221A9311231B931CAB0A
S214004430184629F035F901221D92002246F08046E2
S21400444003461E96239205B9EB46102CCDF880B095
S21400445024AE4BD1012322460021304621932294DC
S21400446029F01EF920AB002125938F4218BF334652
S21400447047F0804226923A9A2CA828922993B2FABC
S21400448082F35B0949EA837310222B912A9329F061
S21400449007F9B9F1000F00D028AED04448F08043A9
S2140044A02CA918A82D962E93FFF71EFF30B92DB90C
S2140044B00346A34225D1002818BF2C2031B0BDE802
S2140044C0F08F102764E7CDF820E049F0005078E739
S2140044D0002C3FF479AF04A9099101210A9076E7F0
S2140044E03E9B0CAA11924120129388E710220021CD
S2140044F030462193229429F0D3F8002CB2D1012320
S214004500B1E703F1C0026A4412F8C02C013310432D
S214004510CFE700BF9BF4020010000020B0F40200BA
S214004520B4F4020004000020F0B5C0299FB0DDE915
S214004530244557D0B1F5807F04D0802948D0292063
S2140045401FB0F0BD01265CB140F23447029410243F
S21400455003960494212401970594069502AC0AE07C
S21400456040F21447029410240396049421240594E0
S21400457001240197069507940125102408940995AF
S2140045800A9221220B950C940D92174A0AAD0E92B0
S214004590164A0F95109242F6110211921293139535
S2140045A01494159201AA1692D3B112AB1793042352
S2140045B018931123199316AB1A901B9340F6110308
S2140045C0C9081C911AA806A91D93FFF78DFEB7E728
S2140045D0012614B94FF48267C4E74FF48667B5E73F
S2140045E00EABE3E70F20ABE7ACF4020010000010C0
S2140045F038B5164B5A6E42F004025A66D3F880223B
S21400460042F00102C3F88022114B5B68C3F3080333
S21400461043B14FF0A842D36B13F0430FFBD11424E1
S214004620204638BD4FF0A843DC6B14F04304FBD1A2
S214004630084D2B681BB90421284602F0DFFD2B68C5
S214004640013343F000432B60EAE700BF00800050D0
S21400465000ED00E0F41D0020014B00205B68704771
S21400466000ED00E04FF40052034B00209A66032250
S214004670C3F86022704700BF009000504FF400520D
S214004680034B00209A660322C3F86022704700BFDF
S21400469000A00050012300F01F02A0F506200949E3
S2140046A0A0F550604009934051F820201A4341F885
S2140046B02020054951F8202022EA030241F8202054
S2140046C0704700BF0C1E0020F81D00200121A0F539
S2140046D006230E4AA3F550635B0900F01F008140D5
S2140046E052F82300014342F823100949D1E900306B
S2140046F0034488680344C868096903445B1802BF1A
S214004700C2E90033C2E9023313617047F81D002086
S2140047100C1E00202DE9F04FA9B003921D4604465A
S2140047200822339ECDE90401414021FA02F34B40B2
S214004730980702F1080218BF9B00202A1C44F4D1F7
S2140047408123B4FBF3F303EBC313E41A734B04F5B2
S21400475006241B7804F55064002B3ED1FDF7A8FC18
S214004760074620B16FF0910029B0BDE8F08F0146F2
S214004770402208A828F094FF4022394618A828F0BE
S2140047808FFFDFF8B481DFF8B491C3460BF10F0A50
S214004790CDF800A0102208A95B46D9F8000028F042
S2140047A011F80022014608F1100808AF914246D1E0
S2140047B0CDF800A05B461022D9F8000018A928F012
S2140047C00AF84FF0000A834618AFD34541D1544B40
S2140047D09845DAD10122514B1A704FF0810A4FF0FA
S2140047E00008DFF85CB1A4F50627A7F550635B095F
S2140047F05BF8232004F01F01CA40D2073DD4494A83
S21400480052F82330CB40DB072AD5B8F1000F08BF9B
S214004810A0468123A7F6FF47B7FBF3F303EBC313CA
S214004820FF1A07F50624BAF1010A04F55064DAD136
S214004830039BBBB1B8F1000F14D0444619E057F8FB
S214004840040BCDE90612FFF725FF079A06990132F9
S214004850ACE757F8040BFFF739FF0AF1010AB4E793
S214004860039B13B96FF08B007EE7B8F1000F18BFFB
S2140048704446349B00201C6076E7329B13B100232D
S214004880329A13600EB1002333601023DFF8AC9029
S21400489000932A4600232146D9F8000014F0EAFEC9
S2140048A060BB32992A68204BC9B99A4206D0214685
S2140048B0D9F8000014F076FF0028D3D1D5E90223FA
S2140048C0DDE90410834208BF8A42A2D1039B002B75
S2140048D0CFD06B68012BCCD16FF0840044E710205A
S2140048E032999A420860E2D1002EE7D0334621463C
S2140048F0D9F8000018AA14F011FF48B10B4B9842E3
S214004900D5D00B4B9842D2D00A4B9842D6D029E746
S214004910329A336812689B1A3360CFE72A34002035
S21400492000710800F81D0020105D175EFFDF00F024
S21400493011E000F0FEDF00F0006D0800180B00200C
S2140049400C1E00202DE9F04F87B082468946984617
S2140049501646DDF840B02AB1002B4FD040F26C73FB
S2140049609A424ED8BBF1010F4ED8002406F110072C
S2140049703946012005941EF08CFF0546002846D0D7
S21400498021463A4628F08CFE05ABCDE9014300945B
S2140049902B46012250464946FFF7BCFE044680B12E
S2140049A010F18C0F08BF6FF08D043A4600212846A0
S2140049B028F076FE28461EF07CFF204607B0BDE8AD
S2140049C0F08F144BC5E902A92B60C5F804B02EB1D0
S2140049D03246414605F1100028F06DFE059E0E4851
S2140049E03B462A463146006814F0ACFD18B93046FE
S2140049F0FFF750FED9E76FF09104D6E76FF0860414
S214004A00DBE76FF09104D8E76FF08504D5E76FF029
S214004A108C04D2E7105D175E180B00202DE9F043DA
S214004A208DB08146DDE914780E4615461C469BB1CE
S214004A30B8F1000F05D16FF0860630460DB0BDE820
S214004A40F083002FF7D0B7F1005FF4D3C3F1005323
S214004A5003F500439F42EED81022002108A828F054
S214004A601FFE002207AB029305AB019306AB31464F
S214004A700093484608ABCDE90522FFF74BFE0646F5
S214004A800028DAD1059BA4B1AB4215D853EA050439
S214004A90D1D1069B0B48C8F8004000943A460799C7
S214004AA000682B4414F0E6FD002818BF6FF091064E
S214004AB0C3E7AB42EDD2BEE75B1B9C4228BF1C4659
S214004AC0E7E700BF180B002030B58DB00C46054652
S214004AD01022002108A828F0E3FD002207AB02936D
S214004AE005AB019306AB21460093284608ABCDE9FB
S214004AF00522FFF70FFE0446D8B9099B012B1BD0F1
S214004B00079D104B2946186814F04CFEB8B90122D0
S214004B10A5F506230C49A3F550635B0905F01F00B5
S214004B20824051F823004240284641F82320FFF7F0
S214004B30CDFD20460DB030BD6FF08404F9E76FF070
S214004B409104F6E7180B00200C1E00202DE9F04F0C
S214004B5089B007460E46FFF7C5F8C00709D40424F7
S214004B6001201EF088FA80B3013CF9D16FF0920064
S214004B7028E0102200210DEB020028F091FD04A889
S214004B80FFF712F9049B002BE9D0059B002BE6D01B
S214004B90069B002BE3D0079B002BE0D00025DFF818
S214004BA0808008F10409B54219D34FF48A74FFF7E0
S214004BB093F800F00E03062B2DD1C30501D5FFF7A1
S214004BC0BDF8002009B0BDE8F08FFFF785F810F0BB
S214004BD00E03FAD0022BF8D04105DFD5C4E7FFF765
S214004BE075F8A6EB050A8400544528BF544699E894
S214004BF0030000238DE80300CDE9054307EB050B12
S214004C00CDF810B0029404AAD8F8003007CA1EF0F7
S214004C102BF92544C7E724FA03F3DA07A6D5C6E737
S214004C20C0F402001FB504A800E90E001146019862
S214004C30FFF78CFF70B1FFF721FBBFF34F8F0749DB
S214004C40074BCA6802F4E0621343CB60BFF34F8F92
S214004C5000BFFDE705B05DF804FB00BF00ED00E017
S214004C600400FA052DE9F0438BB01746DDE915453B
S214004C70DDE913269C46DDE91738894621B96FF031
S214004C8086000BB0BDE8F083002FF8D00EB9002CDC
S214004C90F5D1129909B9002AF1D10DB9002BEED140
S214004CA0B8F1000FEBD0244A944541D10288B2F502
S214004CB0105F3DD14288B7EBD20FE0D322F040011F
S214004CC0802902D0B2F5807FD9D16CB3AE421CD217
S214004CD03219954219D29C42D1D8314622462846EE
S214004CE028F0C4FC2E4614F00F03C8D1CDE9019776
S214004CF0CDE90336CDE90543CDE907540993FFF71F
S214004D00B1FC38B16FF09200BBE79C42EBD96FF074
S214004D108900B6E707AA04A901A8FFF709F905461E
S214004D20FFF7ACFC0543EDD10020C8F80040A8E72B
S214004D306FF08500A5E700BF004440042DE9F04F62
S214004D40A9B0834617469A460E46DDF8C890DDF8A9
S214004D50D88029B96FF08603184629B0BDE8F08FD1
S214004D60002AF7D0B9F1000FF4D0349B002BF1D015
S214004D70B8F1000FEED00024424B0CAD93E80700CC
S214004D8085E807003C22214619A8189428F088FCDC
S214004D903388728803F4E040B0F5804FDAD03A4E9C
S214004DA03A480BEA060646F01066864263D1B2F52C
S214004DB0807F60D147F2121293425CD10620344ABB
S214004DC0BAF11F0FD3680E940B931369126800FB99
S214004DD003F3CDE90C23BDD9339B402BBAD9359BC1
S214004DE01F2B4BD909F1010220261292402299F876
S214004DF000300F97042B18AFCDE91324CDE91572B8
S214004E00109611941794A5D1FFF72CFC03460028A2
S214004E10A2D10B9B15AACDE9086305AB07CA83E8A8
S214004E20070002AB12AA07CA83E80700DDE91001F3
S214004E308DE803000F9B95E80700FFF753F905463A
S214004E40FFF71CFC55EA000384D13D46349A20AE99
S214004E502C4603CCB44210605160254602F108028D
S214004E60F6D100221146B9540132402AFBD1202245
S214004E70C8F8002070E76FF085036DE76FF08903D0
S214004E806AE700BF4CF302000000FFF600000209CC
S214004E9060F30200F0B50E461D468BB0002853D0D6
S214004EA0002951D0002A4FD0002B4DD0048804F49E
S214004EB04F43B3F5824F03D06FF085000BB0F0BDC3
S214004EC0E3B224F0FF04B4F5E24FB0F802C0F3D129
S214004ED0122B01D0172BEFD10CF10701B2EBD10F3B
S214004EE04FEAD10733D31D4A04ACBCF5807F07CA0E
S214004EF084E80700E0D1122B07D1194B1A691B680A
S214004F001344CDE90432002306930023CDE9076756
S214004F100993FFF7A7FB0028D0D1124A02AB92E80C
S214004F20030083E803000AAB13E903008DE80300DF
S214004F30079B94E807001DF01CFF0446FFF79EFB46
S214004F40204307D12F60B9E76FF08600B6E76FF011
S214004F508900B3E76FF09200B0E700BF4CF30200A1
S214004F6060F30200B8F402002DE9F0438FB01D464E
S214004F70DDE916C600285CD000295AD0002A58D091
S214004F80002B56D0BCF1000F53D0002E51D0038812
S214004F9003F44F44B4F5824F51D1DCB223F0FF0343
S214004FA0B3F5824F40884AD0122C01D0172C46D138
S214004FB0C31DB2EBD30F4FEAD3083AD34FEA4802E9
S214004FC0571C674538D8B0F5807F38D1122C18BFEB
S214004FD04FF000094FF0000308BF1C4CCDE908183D
S214004FE005F1010114BF4C46D4F80C90CDE90B1224
S214004FF00A930D93FFF736FBC0B9CDE9058902ABDE
S21400500008AA07CA83E807000EAB13E903008DE879
S21400501003000B9B94E807001DF0CAFE0446FFF74A
S2140050202DFB20430ED104232B7037600FB0BDE854
S214005030F0836FF08600F9E76FF08900F6E76FF00F
S2140050408500F3E76FF09200F0E700BF60F3020020
S2140050502DE9F04389B00E4615461F46DDF8488018
S21400506020B96FF0860009B0BDE8F0830029F8D0BB
S214005070002AF6D0B8F1000FF3D0038803F44F42AD
S214005080B2F5824F02D06FF08500ECE7DAB2122A52
S21400509001D0172AF7D123F0FF03B3F5E24F41D131
S2140050A04488C8F8004044B9EB00B3F5807FC8F8E0
S2140050B00030E8D1122A0DD108E0E31DB5EBD30F7E
S2140050C0CFD1B4F5807FDED1122A29D1354B1C68AA
S2140050D01B691C440023194670192C4414F801CD92
S2140050E010F8012D1143B2EB0C020CBF4FF0FF3C41
S2140050F04FF0000C86420CEA030343EA0203EDD1AC
S2140051000029AED0002BACDA109B9D4246D82A462A
S2140051103146384628F0CFFA119B00201D60A2E7E2
S2140051200024D7E73378042B9BD16B1EDB005B088B
S214005130B3F5807FC8F80030A5D1122A06F1010326
S21400514018BF4FF000094FF0400205934FF00003E0
S2140051500ABF144C4C46D4F80C90CDE90623FFF752
S21400516081FA00287FF47FAFCDF80C90D8F8003095
S2140051700733DB08029308AB13E903008DE803004E
S214005180059B94E807001DF0C0FE0446FFF776FA7C
S21400519000287FF468AF002CB6D062E76FF0890075
S2140051A061E700BF60F302000388B3F5105F0ED11D
S2140051B04388DB08103B102B0CD8084A22FA03F36E
S2140051C013F0010F14BF00206FF0860070476FF0D9
S2140051D0850070476FF08600704700BF0101010030
S2140051E02DE9F04F8FB01546DDE918A91E46DDF80B
S2140051F068801C9F09B300B3B8F1000F1DD0E7B15B
S214005200BAF1000F02D1B9F1000F16D1274B26F4E0
S2140052107E129A42B0F802B044D1FFF7C5FF0446AA
S214005220A8BBB5EBDB0F4FEADB0306D316F47C1FF7
S214005230C6F3054504D0102D03D96FF0860426E08A
S21400524010251B9A95422AD8CDE901130023102277
S214005250CDE905930DF12809CDE9033ACDE90823F8
S214005260CDF81C90FFF7FEF9044680B907AA04A9FA
S21400527001A8FEF771FE0646FFF700FA044656B987
S21400528058B92A464946404628F015FA3D60204659
S2140052900FB0BDE8F08F6FF092040025F6E76FF0D0
S2140052A08904F4E76FF08504F1E700BF0002C0034D
S2140052B02DE9F041069F0C461646054610B309B385
S2140052C002B9FBB96288B3EBD20F4FEAD20819D302
S2140052D04C220021284628F0E3F90D4B27F47E12D5
S2140052E09A4212D12046FFF75FFF044638B942467D
S2140052F03146281D28F0DFF9C5F824802F602046A7
S214005300BDE8F0816FF08604F9E76FF08504F6E7F4
S2140053100002C0032DE9F0410E461446054600285B
S21400532040D000293ED092B10368214823F47E1372
S21400533083423AD1AF6BF7B1C7F1100807F12800E6
S2140053404245284406D2274428F0B5F9AF6300202A
S214005350BDE8F081424628F0AEF91022103C3C1918
S214005360AA63F4D0284605F128011DF077FF00282F
S214005370EED14644A863102C0CD9671E27F00F0701
S2140053803A46314628461DF069FF0028E0D1E41B66
S214005390DDD03E442246314605F1280028F08BF940
S2140053A0AC63D4E76FF08600D2E76FF08800CFE7F3
S2140053B00002C0032DE9F04388461F4605468BB021
S2140053C070B169B163B10368234923F47E10884243
S2140053D03ED113F47C1FC3F3054604D0102E03D928
S2140053E06FF086042AE0102696422BD8FFF73AF98B
S2140053F0044618BBAB6B05F12802CDE901236B6AA6
S2140054002A1DCDE904231023CDE9083007AB1A4640
S2140054100390069005F13C0901A904A8CDF81C905C
S214005420FEF7BEFD0546FFF729F904466DB928B913
S21400543032464946404628F03EF93E6020460BB0CC
S214005440BDE8F0836FF08904F8E76FF09204F5E7A3
S2140054506FF08504F2E700BF0002C00307B56B4695
S214005460054A1068516803C36846FDF79BFD002097
S21400547003B05DF804FB00BFCCF4020013B50024B3
S214005480064A6846536F43F00103536700948DF84D
S2140054900440FDF7BFFC204602B010BD004000509F
S2140054A030B58BB06C46174D0FCD0FC40FCD0FC463
S2140054B095E8030084E80300134BD3F84C2112034D
S2140054C01CD5A3F5FE431C884FF6FF739C4208BF0D
S2140054D078248DF81940FDF795FA204480F30800EB
S2140054E08DF818000948FCF7C3F96846FDF7AAF9D5
S2140054F03220FDF703FB00200BB030BDD3F850413F
S214005500E4B2E6E7D4F402000080E00F00F04902BF
S21400551030B5094D87B001AC0FCD0FC42B6801A87C
S214005520236025238DF80530FDF7A4FA6420FDF7E7
S214005530DFFA002007B030BDFCF402006FF0040371
S214005540502110B50A480B4C13F0800F03F10102EE
S21400555007D12344402A83F800131346F4D10020D1
S21400556010BD03F00F03043B034419761346EBE724
S21400557000ED00E000E100E010B504461CF0D8FFA6
S214005580024B1C601CF0D8FF002010BD201E00201F
S21400559010B51CF0CDFF034B1C681CF0CDFF204659
S2140055A010BD00BF201E0020034B022218680023F7
S2140055B0806819461BF056B9240C002030B51446F6
S2140055C0054687B010461DF021FF636902468342F8
S2140055D03CBFD4E903315B181B1A7BB10F49049416
S2140055E003910021CDE90131012300932846D4E937
S2140055F000131CF066FE002007B030BD0122627664
S21400560094F82D20002AF6D084F835301321E3696B
S214005610204698472046636A9847ECE7BD55000049
S2140056202DE9F04788B004460F46164698461CF00B
S21400563086FF8146002E7AD0237E03F0FF02002BE1
S21400564000F0A28020461DF0E1FE6569A84205D163
S214005650637ED4E9033213445D1B01E0F9D9451B90
S214005660B54228BF35461CF06AFF94F82D308246B6
S214005670002B6DD12A463846616928F01CF863690C
S2140056802E462B44636121E0037803F0FD011129C7
S2140056905BD1216B814205D1A3F111014B424B41F5
S2140056A084F83430013E6369216B01328B4203F18A
S2140056B0010308BF2363636195426069E4D1D4E9BE
S2140056C00323216B1344994200D122630025D4E9B9
S2140056D0032361691344994208BF6261207A6576A4
S2140056E0FCF72EFB20461DF091FE6369834232D103
S2140056F0257694F82D30E568656103B1256320466C
S214005700636A9847214B049403930023029323690A
S2140057102A4601930123009363682168207A1CF0CF
S214005720D0FD207AFCF72CFB50461CF00EFF4846B6
S214005730C8F800601CF009FFD8F80030002B0CBF3A
S2140057401B20002008B0BDE8F08707F8013BAAE759
S2140057502E460022B0E70123207A23760DF11E01A3
S214005760FCF776FB9DF81E30002BDAD00DF11F01FA
S214005770207AFCF745FB9DF81F100029D1D1224660
S214005780207AFFF71BFFCCE71646D0E7BD55000092
S214005790002807DB01234109034A00F01F0083406D
S2140057A042F82130704700BF00E100E0002808DB27
S2140057B001224309034900F01F008240603341F88C
S2140057C02320704700E100E070B504460568FFF747
S2140057D0DFFE844202D10020FFF7CEFE95F9366048
S2140057E03046FFF7E3FF002E0CDB01221949730950
S2140057F006F01F06B240203341F82320BFF34F8F38
S214005800BFF36F8F95F937603046FFF7CFFF002E56
S2140058100CDB01220F49730906F01F06B240203345
S21400582041F82320BFF34F8FBFF36F8F287AFCF722
S214005830C7FA287AFCF72AFAFCF706FA0023284665
S214005840C4E90033C4E90433A360AB6ABDE8704022
S214005850184700BF00E100E02DE9F0430C4615466E
S214005860064687B04022002120461F4627F018FF34
S21400587095E8030000232A692376EB6884E8030092
S214005880C4E904232A7DE36084F82C20AA7D2363E0
S214005890012384F8343084F835300E9B84F82D20AC
S2140058A023620F9BE7616362109BA3622B7A84F8E6
S2140058B036306B7A84F837302D4B346073602D4B5E
