S021000062742D6164762D636F6E6E656374696F6E2D6F7269656E7465642E733337B1
S31508012000C00A0020C52D0108351603083516030830
S31508012010772D030835160308351603083516030800
S315080120203516030835160308351603083516030849
S315080120303516030804D303082914030835160308BB
S315080120403516030835160308351603083516030829
S315080120503516030835160308351603083516030819
S3150801206035160308892A01081515030835160308C4
S3150801207035160308351603083516030835160308F9
S3150801208035160308351603083516030835160308E9
S3150801209035160308C535010835160308351603082C
S315080120A035160308351603083516030835160308C9
S315080120B03516030871F602088D00030831CB0308AB
S315080120C02DCB030859F802083DCB030835CB030885
S315080120D06500030839CB0308CD000308310103085D
S315080120E03516030835160308351603083516030889
S315080120F06729030835160308351603083516030834
S315080121003516030835160308351603083516030868
S315080121103516030835160308351603083516030858
S315080121203516030835160308351603083516030848
S315080121303516030835160308351603083516030838
S31508012140351603083516030835160308812E0308C4
S3150801215051DF020835160308D5C70308DBC703088C
S315080121603516030835160308351603083516030808
S31508012170013800D0FCE77047002370B5404C05468E
S315080121808AB0E36318B1008823600CF00BFF3D4861
S315080121902AF038F83C4E3D4B304633603C4B736071
S315080121A024F01FFE0021304617F098FA32A3D3E92E
S315080121B00023A062C4E9062324F01EFED4E90623FF
S315080121C0194310434FF0FF33C4E90601CDE9000175
S315080121D04FF0FF32A06A2AF062F802224FF0FF316F
S315080121E0A06A2AF061F801200CF0EAFC4FF40073AA
S315080121F000222849A06A2AF0ADF8B0F5007F38D147
S3150801220000239422CDE9073309933C23CDE9033210
S3150801221005939623A06A03A9069317F07BFB35B3AA
S31508012220287C0DF085F80546F0B9A06A2AF073F9FD
S315080122300DF026F80CF0A6FC20B14FF480700021B1
S315080122400AF04EFA0CF0AEFC20B14FF40060002102
S315080122500AF046FA24F094FD012017F093FA0E4A83
S315080122600E49A06A24F0BBFD28460AB070BDFF20BE
S31508012270D7E70725F8E700BF0DD50155200000006F
S31508012280300F0020690345EC5022002051EA01086D
S315080122904422002044200020876D0308C76D0308E7
S315080122A010B5054C237833B9044B13B1044800E043
S315080122B000BF0123237010BD90110020000000000B
S315080122C0002B040808B5034B1BB10349034800E07A
S315080122D000BF08BD0000000094110020002B04086F
S315080122E0A3F5803A704700BF174B002B08BF134B65
S315080122F09D46FFF7F5FF00218B460F461348144A02
S31508012300121A2AF068FC0E4B002B00D098470D4B89
S31508012310002B00D098470020002104000D000D482D
S31508012320002802D00C4800E000BF1EF025F9200065
S3150801233029001FF06DF81EF00BF900BF0000080018
S315080123400000000000000000C00A0020BC0E0020AA
S31508012350B02800200000000000000000F0B5036866
S315080123609B4A23F47F4323F00703934287B005D0A2
S31508012370984A934200F0008107B0F0BD964C1FF0D1
S3150801238007F904AE1FF005F99449206820F03BFBD4
S3150801239030460DF10F010FF0A9FD054608B3904926
S315080123A0206820F030FB8F49206820F02CFB1FF0B5
S315080123B0EFF81FF0EEF88C4B8C4A00938C495423A6
S315080123C0206820F020FB8B492B468B4A206820F099
S315080123D01AFB284600F030FC8849206820F013FBD8
S315080123E0FEE71FF0D5F81FF0D4F88549206820F0DC
S315080123F00AFB0525834F1FF0CBF81FF0CAF8725D5B
S315080124003946206820F0FFFA013DF4D11FF0C0F8E3
S315080124101FF0BFF89DF80F107B4A7C4B7C4F0029B3
S3150801242018BF134620689DF810207A4920F0EBFA68
S3150801243038460FF0B9FC064608B36949206820F00A
S31508012440E2FA6849206820F0DEFA1FF0A1F81FF0C9
S31508012450A0F8654B654A009365495F23206820F01B
S31508012460D2FA64493346644A206820F0CCFA3046E9
S3150801247000F0E2FB6149206820F0C5FAFEE7022177
S3150801248038780FF0CBFC064608B35549206820F08A
S31508012490BAFA5449206820F0B6FA1FF079F81FF005
S315080124A078F8514B514A009351496423206820F02A
S315080124B0AAFA50493346504A206820F0A4FA304611
S315080124C000F0BAFB4D49206820F09DFAFEE7A022EC
S315080124D000952B46114638780FF07EFC054608B361
S315080124E03F49206820F08FFA3E49206820F08BFA90
S315080124F01FF04EF81FF04DF83B4B3C4A00933C4900
S315080125006D23206820F07FFA3A492B463A4A20681B
S3150801251020F079FA284600F08FFB3849206820F028
S3150801252072FAFEE7022138780FF08CFC054600287E
S315080125303FF422AF2A49206820F065FA2949206824
S3150801254020F061FA1FF024F81FF023F8264B274ADA
S31508012550009327497123206820F055FA25492B460F
S31508012560254A206820F04FFA284600F065FB2349E2
S31508012570206820F048FAFEE7254C022120780FF062
S315080125804DFC0546002847D0134C1549206820F014
S315080125903AFA1449206820F036FA1EF0F9FF1EF0BF
S315080125A0F8FF114B114A009311497F23206820F047
S315080125B02AFA10492B46104A206820F024FA2846A0
S315080125C000F03AFB0D49206820F01DFAFEE700BF2E
S315080125D0A0000100A00006012C12002004CF030868
S315080125E039CF03083BCF0308ABCF030840CF030815
S315080125F049CF030858CF030855CF03086DCF030801
S315080126007ECF030899CF0308EECE0308D8CE030878
S31508012610E60C00209FCF0308022120780FF012FC58
S31508012620054600283FF4A8AE114C1249206820F04F
S31508012630EAF91149206820F0E6F91EF0A9FF1EF013
S31508012640A8FF0E4B0E4A00930E498423206820F0FA
S31508012650DAF90D492B460D4A206820F0D4F92846A7
S3150801266000F0EAFA0A49206820F0CDF9FEE700BF32
S315080126702C12002039CF03083BCF0308ABCF030840
S3150801268040CF030849CF030858CF030855CF03089D
S315080126906DCF030830B503687F4A23F47F4323F0DF
S315080126A00703934289B040F0F480082200211220E2
S315080126B07A4B0FF0EDFB044610B3794D794928683A
S315080126C020F0A1F97849286820F09DF91EF060FFED
S315080126D01EF05FFF754B764A009376493D232868BD
S315080126E020F091F974492346744A286820F08BF939
S315080126F0204600F0A1FA7249286820F084F9FEE71D
S315080127000146032214206F4B0FF0C2FB044610B397
S31508012710634D6449286820F076F96349286820F0F2
S3150801272072F91EF035FF1EF034FF604B604A0093C4
S3150801273060494B23286820F066F95F4923465F4ABA
S31508012740286820F060F9204600F076FA5C49286886
S3150801275020F059F9FEE70146052216205A4B0FF0DB
S3150801276097FB054610B34E4C4E49206820F04BF9AD
S315080127704D49206820F047F91EF00AFF1EF009FFAF
S315080127804A4B4B4A00934B495923206820F03BF9A1
S3150801279049492B46494A206820F035F9284600F070
S315080127A04BFA4749206820F02EF9FEE70DF10F0193
S315080127B004A80FF09BFB044610B3394D3949286824
S315080127C020F021F93849286820F01DF91EF0E0FEAD
S315080127D01EF0DFFE354B364A0093364964232868D6
S315080127E020F011F934492346344A286820F00BF9B8
S315080127F0204600F021FA3249286820F004F9FEE75C
S315080128009DF8153001468DF818309DF814300822C8
S315080128108DF819309DF8133018208DF81A30FF23DA
S315080128208DF81B30FE238DF81C309DF812308DF87B
S315080128301D309DF811308DF81E309DF810308DF839
S315080128401F3006AB0FF024FB054610B3144C15498F
S31508012850206820F0D8F81449206820F0D4F81EF032
S3150801286097FE1EF096FE114B114A009311497423E7
S31508012870206820F0C8F810492B46104A206820F035
S31508012880C2F8284600F0D8F90D49206820F0BBF8AF
S31508012890FEE709B030BD00BFA0000100BACF0308AA
S315080128A02C12002039CF03083BCF0308F5CF0308C4
S315080128B0C3CF030849CF030858CF030855CF0308E8
S315080128C06DCF0308EBCF0308EFCF030810B5274CEC
S315080128D001F0CEFB01F028FE236F23F0070343F036
S315080128E0030323671EF042FF214B00209B6ADB018D
S315080128F05EBF4FF480321F4B9A62D4F8203123F021
S31508012900070343F00203C4F82031D4F8283123F031
S31508012910070343F00203C4F82831D4F8403123F001
S31508012920030343F00203C4F84031D4F8603123F0BD
S31508012930030343F00203C4F86031D4F8403223F0AC
S31508012940030343F00203C4F84032D4F8003223F0FB
S31508012950070343F00203C4F80032D4F8083223F01F
S31508012960070343F00203C4F8083210BD0080005083
S315080129700040005A0060005A30B51F4D95B00DACA5
S315080129800FCD0FC495E80700292384E807001B4AE1
S315080129900024CDE902230523CDE904448DF811303D
S315080129A006232146102209A88DF8133006942AF029
S315080129B012F94FF48021124B0DAACDE90713092309
S315080129C08DF824300A238DF825300E4B07A90A9372
S315080129D020230B9301238DF831300B4B0B480093C1
S315080129E002AB04F0FFFB054621464FF4E1301EF029
S315080129F012FE284615B030BD50D2030800C0055056
S31508012A0024C0055080270020AC11002008120020A0
S31508012A10831E012B10B512D8012910D8114B042297
S31508012A201B6C05210020C3F3401301F03FFF0E4B39
S31508012A301B681868A8B1BDE81040436A18478B1E81
S31508012A40012B0CD801280CD8BDE810400022054BF3
S31508012A5005211B6C1046C3F3401301F027BF01295A
S31508012A60E5D910BD00C00350C80A002008B50449BD
S31508012A70044804F0BBFEBDE80840FFF77DBF00BF70
S31508012A80C00A002000120020014820F02AB900BF20
S31508012A9008120020014B1A6A18681047081200200C
S31508012AA07FB500240368464A23F47F4323F00703CE
S31508012AB0934205468DF808408DF809408DF80A407D
S31508012AC08DF80B408DF80C408DF80D406DD002F154
S31508012AD08272934271D1B0F805301B2B6DD1FF2359
S31508012AE004A91A4611E903001EF04BFD012814BF7B
S31508012AF041F2FC14334B4FF01B0108BF187004F068
S31508012B00FC0228790FF0DAF9064610B32E4C2F4944
S31508012B1020681FF078FF2E4920681FF074FF1EF009
S31508012B2037FD1EF036FD2B4B2B4A00932B494E23BE
S31508012B3020681FF068FF2A4933462A4A20681FF091
S31508012B4062FF304600F078F8274920681FF05BFFDE
S31508012B50FEE71C4B1B78002B2FD028790FF086F93E
S31508012B60054650B3184C194920681FF04CFF1849FF
S31508012B7020681FF048FF1EF00BFD1EF00AFD154BDD
S31508012B80154A00931549542320681FF03CFF144940
S31508012B902B46144A20681FF036FF284600F04CF8E9
S31508012BA0114920681FF02FFFFEE7064B1B7823B15A
S31508012BB004B0BDE8704020F0B0B904B070BD00BFE4
S31508012BC0A0000601A02700202C12002039CF0308F7
S31508012BD03BCF0308BED203086CD2030849CF0308CA
S31508012BE058CF030855CF03086DCF0308012208B54E
S31508012BF0074B1A700022074B1A700422064B1A70EB
S31508012C001F22064B1A7004F0E3F8054B186008BD3D
S31508012C10E70C0020A1270020E80C0020E90C002081
S31508012C202C120020024B034918681FF0ECBE00BFA6
S31508012C302C120020DED2030870B50C4C0C4906464E
S31508012C4020681FF0E0FE04F0C3F80546206804F08A
S31508012C50B3F83046FFF7E6FF284604F0ADF82068DA
S31508012C600449BDE870401FF0CEBE00BF2C120020FB
S31508012C70E0D20308E2D2030807B508201EF0EAFCF1
S31508012C8002238DF80030054B684601931EF093FC2C
S31508012C90082003B05DF804EB1EF0E8BC006A1810C2
S31508012CA02DE9F041424D88B001AC0FCD0FC495E82E
S31508012CB0070084E80700012401213A2000F094FF67
S31508012CC03C4E0121292000F08FFF3B4B304601A9DC
S31508012CD003938DF8124002F035F8234604220321A6
S31508012CE0022001F0E3FD022122460846002301F0F5
S31508012CF0DDFD234621460422022001F0D7FD0422E8
S31508012D0000212346022001F0D1FD2C4D2C4B05F55F
S31508012D100058C5F834374FF00213C5F8303703F5B4
S31508012D208033C5F838371C234FF44870C5F8203767
S31508012D3005F05CFC05F580571420C8F8A04005F09D
S31508012D4055FC2320C7F8A04005F050FCB9213046B0
S31508012D50C8F8A0401EF0B9FD002303211A46022037
S31508012D60C7F8A04001F0A2FD002302211A46084631
S31508012D7001F09CFD234621460022022001F096FD22
S31508012D80002223461146022001F090FD304601F04B
S31508012D9057FF00212920C5F83417C5F83017C5F89B
S31508012DA03817C5F8201700F01FFF08B0BDE8F081F5
S31508012DB0E8D2030800C0055000127A0000C003508B
S31508012DC00200010008B500F02DF8124B12498B429A
S31508012DD012D30020114B12498B4218D3FFF784FAFC
S31508012DE0186850F82240586840F82240013298681D
S31508012DF08242F5D30C33EAE70022F8E71C6844F867
S31508012E00220001325C68A242F8D30833E4E70022C3
S31508012E10F8E700BF082B0408142B0408142B040830
S31508012E20142B04084FF480414FF0FF30114B124A1E
S31508012E3010B59A60D3F8882042F47002C3F8882046
S31508012E400E4A91660E4901F5005210660D48506604
S31508012E500220C3F8D000BFF34F8FBFF36F8F012451
S31508012E604FF440330848C0F88041D36004600B61D1
S31508012E7010BD00BF00ED00E00020010800900050E1
S31508012E8000800044F7FF370000E100E0014B1868B5
S31508012E90704700BFD00A0020084B1B6F03F00703D9
S31508012EA0022B04D0032B05D0012B05D0FEE7044BDA
S31508012EB018687047034BFBE70348704700800050CA
S31508012EC0D00A0020D40A0020002D310108B5FFF7E9
S31508012ED0E3FF054B1B6FC3F303330133B0FBF3F079
S31508012EE0024B186008BD00BF00800050CC0A0020C4
S31508012EF00048704700B4C404014B1868704700BF06
S31508012F00D40A0020054B1860054B1B6F03F0070315
S31508012F10032B01D1FFF7DABF704700BFD40A00209F
S31508012F200080005000487047002D31014FF0B4432E
S31508012F309868C0F304400C2822D8DFE800F009217C
S31508012F4021212121071719211B1D1F000F48704731
S31508012F509B6803F04073B3F1807F13D0B3F1007F10
S31508012F6012D00B4A002B08BF104670470948704714
S31508012F700948704709487047094870470948704722
S31508012F80002070470848704708487047405DC600EA
S31508012F9000093D000024F400C0EA210180BA8C0131
S31508012FA00048E801005A620280841E0040420F0070
S31508012FB0014B1868704700BFD80A00204FF000631C
S31508012FC09B6A10B503F17842B2F5903F0ED21968A3
S31508012FD0094A91420AD1094C227812F0FD0F08D10B
S31508012FE0DB69984708B90123237010BD4FF4817036
S31508012FF0FBE70020F9E700BF07B0CD5EA227002056
S315080130004FF00053074A1A60BFF34F8F0649074B23
S31508013010CA6802F4E0621343CB60BFF34F8F00BF67
S31508013020FDE700BF02020FF000ED00E00400FA051B
S3150801303005490A681318054883428CBF4FF0FF32C9
S315080130400B601046704700BFDC0A00200000042010
S3150801305010B501213A2000F0C7FD012304220321FE
S31508013060002001F023FC00201EF0BBFB0122314B9E
S315080130703149C3F844244FF40022A3F550335A6664
S31508013080D1F8FC202C4C12F080721EBFD1F8FC300E
S3150801309023F08073C1F8FC302849D1F8803023F039
S315080130A0030343F00203C1F880302AB1D4F8FC3097
S315080130B043F08073C4F8FC304FF4607000F0B0FD43
S315080130C0D4F8F0301E4A43F00103C4F8F030D4F8BE
S315080130D0FC3000F5D52043F08073C4F8FC30194B59
S315080130E000F2FC401A60184B0222B0FBF3F0174BB2
S315080130F001381861C3F8F0204FF48072C3F804232D
S315080131004FF06043124A0020C3F8B02F114AC3F8A2
S31508013110802ED3F8002E42F48072C3F8002EFF22C7
S3150801312083F82020D3F8002E22F48072C3F8002EEB
S3150801313010BD00BF00D0035000ED00E00080005034
S31508013140FF030040001000E0F8590D00000004E0FC
S3150801315055CEACC5090001004FF06043D3F8802E67
S3150801316030B5D20715D501240B4D8440D5F8FC207E
S3150801317042F08072C5F8FC20D3F8002E2243C3F82A
S31508013180002E53F82020002AF0D003F82010002042
S3150801319030BD1120FCE700BF00ED00E02DE9F04F3E
S315080131A09A46564B85B01B7806460F461546DDF8F6
S315080131B03C909DF844B0DDF85080002B00F08D80DE
S315080131C0072A00F28C800E9B002B00F08880B9F14B
S315080131D0000F00F08480129BB3F5006F7FDC012895
S315080131E002D1109B002B7AD0454B03EB05131B7BB1
S315080131F0002B76D0434C10220021684629F0EBFCBF
S3150801320004EB45141022002F59D13946204629F0DE
S31508013210E2FC43F210036380BBF1000F03D1E378AC
S3150801322043F00303E370374A0E9B02EB451CCCE9D6
S315080132300193129B6901013BC3F30A009DF84C30C7
S31508013240012E03F003034FEA836343EA001E535832
S315080132502D48CDF800A000EA03004EEA00035350BA
S3150801326041D113230CF1100ECCF80C309CE80F0059
S315080132708EE80F006FF00301DCF81C20109B61F348
S315080132809F02012FCCF81C20CCF8143003D1CCF8BE
S315080132901890CCF804300027194A290102EB0513C6
S315080132A042F80180159A28465A60694622469F6067
S315080132B05E7301F099FB384605B0BDE8F08F002131
S315080132C0204629F088FC4FF444736380BBF1000F54
S315080132D0A9D1E37843F03003A4E70C48ECE70C489E
S315080132E0EAE70C48E8E7B8F1000FD4D19CF80230B8
S315080132F068F304138CF80230CDE700BFA32700203A
S3150801330030120020B01200200F80FFF3028000F077
S31508013310018000F0078000F038B5124B05461B788E
S31508013320DBB1E0B11EF03EFA0F4A00231146147BC9
S3150801333054B92B6001251A0101EB03131D738C5037
S315080133401EF036FA204638BD0133082B02F1100269
S31508013350EDD11EF02DFA0548F5E70548F3E70548CE
S31508013360F1E700BFA327002030120020048000F0F7
S31508013370028000F0018000F013B51EF013FA002355
S315080133800B4A147B7CB90133082B02F11002F8D1E0
S31508013390019001F0CBFA074B01981C701EF008FA50
S315080133A0204602B010BD1EF003FA0348F9E700BF34
S315080133B030120020A3270020058000F00D4B10B520
S315080133C01B78044693B1072812D81EF0EBF90A4B6D
S315080133D003EB04131A7B2AB100241C731EF0E8F9C7
S315080133E0204610BD1EF0E4F90448FAE70448F8E758
S315080133F00448F6E7A327002030120020068000F0D3
S31508013400028000F0018000F0154B13B518680023FF
S3150801341001908DF804301EF0C5F9124B1C7824B1C1
S315080134201EF0C6F9104802B010BD01221A701EF02E
S31508013430BFF90E4B01A81C731C7783F82C4083F83F
S315080134403C4083F84C4083F85C4083F86C4083F831
S315080134507C4008238DF8073001F094FA2046E2E70C
S3150801346054D30308A3270020038000F0301200205C
S315080134700A4A08B512785AB107280BD8084A02EB46
S3150801348000131B7B43B1002101F06EFA002008BD31
S315080134900448FCE70448FAE70448F8E7A3270020AC
S315080134A030120020028000F0018000F0078000F051
S315080134B00A4A08B512785AB107280BD8084A02EB06
S315080134C000131B7B43B1012101F04EFA002008BD10
S315080134D00448FCE70448FAE70448F8E7A32700206C
S315080134E030120020028000F0018000F0078000F011
S315080134F00A4A08B5127852B107280AD8084A02EBCF
S3150801350000131B7B3BB101F0BDFA002008BD05483D
S31508013510FCE70548FAE70548F8E700BFA3270020B6
S3150801352030120020028000F0018000F0078000F0D0
S315080135300D4B1B7893B1072812D889B10B4B03EBB6
S3150801354000131B7B73B10A4B1A6D012303FA00F0B2
S3150801355010401ABF00200B70087070470548704765
S315080135600548704705487047A327002030120020F8
S3150801357000000450028000F0018000F0078000F08E
S315080135800B4A10B512780C4662B107280CD859B106
S31508013590084A02EB00131B7B43B101F085FA207040
S315080135A0002010BD0448FCE70448FAE70448F8E798
S315080135B0A327002030120020028000F0018000F0CD
S315080135C0078000F0204B2DE9F0471F6D5A6D1F4CFF
S315080135D0174010D54FF000411D4A1165D868C0F350
S315080135E004200301E35804EB00125BB3BDE8F0477E
S315080135F000215268184701260025DFF85480DFF8B4
S315080136005490374217D02368C8F850609BB1A16817
S31508013610284601316268A1609847637B012B0AD16C
S3150801362048B909EB45131A7B60F341021A731A7FED
S3150801363060F341021A770135082D4FEA460604F16F
S315080136401004DED1BDE8F0870000045030120020D6
S3150801365000200450B0120020024B1968024B18686A
S3150801366015F050BCE40A0020E00A002037B59200A4
S3150801367004460D46019229F027FC431C0BD060B97C
S3150801368029462046019A29F06FFA0028044808BFFE
S31508013690002003B030BD0348FBE70348F9E700BF44
S315080136A010E000F021E000F024E000F010B5044637
S315080136B029F002FC431C10D088B901F087FA234689
S315080136C020F003002044984201D1002010BD53F890
S315080136D0042B0132F7D00348F8E70348F6E7034815
S315080136E0F4E700BF0EE000F021E000F024E000F06E
S315080136F008B51EF050F8014B186008BDF0190020F6
S31508013700014B18681EF04BB8F0190020044BD3F88A
S315080137108420D206FBD4D3F88400C0F38110704705
S315080137200040005038B5104B0546D3F880300C469A
S3150801373003F00303022B0BD0032B0DD0012B0FD162
S31508013740FFF7AAFB0E2305B1286004B1236038BD33
S31508013750FFF7ECFB0723F6E7FFF798FB0623F2E7EB
S3150801376000231846EFE700BF0080005038B5184B14
S315080137700546D3F820010C4600F00700062805D8AF
S31508013780DFE800F0230B0F17131B1F000023184651
S3150801379005B1286004B1236038BDFFF777FB05231F
S315080137A0F6E7FFF7A9FB0323F2E7FFF7BFFB0723BA
S315080137B0EEE7FFF7B7FB0223EAE7FFF767FB062306
S315080137C0E6E7FFF799FB0423E2E70123E0E700BFF9
S315080137D00080005038B5174B0546D3F828310C46FA
S315080137E003F00703013B052B20D8DFE803F0031399
S315080137F01B0F0B17FFF74AFB052305B1286004B118
S31508013800236038BDFFF742FB0623F6E7FFF78EFB79
S315080138100723F2E7FFF770FB0323EEE7FFF76CFBDD
S315080138200423EAE7FFF77EFB0223E6E700231846AF
S31508013830E3E700BF0080005073B50D460021114B28
S315080138400191D3F88041064604F00304022C13D0F3
S31508013850032C0CD0012C13D101A8FFF787FF1024E4
S315080138600EB1019B336005B12C6002B070BDFFF744
S315080138705DFB07240190F3E7FFF754FB0190EFE79F
S315080138800C46EDE700800050002337B50193164B2F
S315080138900546D3F820320C4603F00703042B04D857
S315080138A0DFE803F0200B11161B0000230DB1019A66
S315080138B02A6004B1236003B030BD002101A8FFF7D7
S315080138C089FF1223F2E7FFF731FB07230190EDE7A2
S315080138D01DF0B3FE0A230190E8E7FFF769FB092308
S315080138E00190E3E70123E1E70080005038B5104B6A
S315080138F00546D3F840310C4603F00303022B0BD0DF
S31508013900032B0DD0012B0FD11DF097FE0A2305B10C
S31508013910286004B1236038BDFFF74AFB0923F6E79F
S315080139201DF08EFE0C23F2E701230020EFE700BF0E
S3150801393000800050002337B50193164B0546D3F88E
S3150801394060320C4603F00703013B032B1FD8DFE85F
S3150801395003F0020E1914002101A8FFF707FF10232F
S315080139600DB1019A2A6004B1236003B030BD00216C
S3150801397001A8FFF7BBFF1123F2E7FFF7D7FA0723E1
S315080139800190EDE7FFF7CEFA02230190E8E700235D
S31508013990E6E700BF00800050002337B50193164BB8
S315080139A00546D3F894320C4603F00703013B032B73
S315080139B01FD8DFE803F0020E1914002101A8FFF74A
S315080139C0D5FE10230DB1019A2A6004B1236003B014
S315080139D030BD002101A8FFF789FF1123F2E7FFF7A0
S315080139E0A5FA07230190EDE7FFF79CFA0223019058
S315080139F0E8E70023E6E700BF0080005038B5144B1E
S31508013A000546D3F800020C4600F00700042804D83E
S31508013A10DFE800F01B0A0E1216000023184605B14E
S31508013A20286004B1236038BD1DF007FE0A23F6E7B6
S31508013A30FFF7BEFA0923F2E71DF002FE0C23EEE7B3
S31508013A40FFF744FA0F23800AE9E70123E7E700BFF6
S31508013A500080005038B5144B0546D3F808020C46C9
S31508013A6000F00700042804D8DFE800F01B0A0E124C
S31508013A7016000023184605B1286004B1236038BD35
S31508013A801DF0DBFD0A23F6E7FFF792FA0923F2E7B1
S31508013A901DF0D6FD0C23EEE7FFF718FA0F23800A6F
S31508013AA0E9E70123E7E700BF0080005038B5104B6E
S31508013AB00546D3F840320C4603F00303022B0BD01C
S31508013AC0032B0DD0012B0FD11DF0B7FD0A2305B12C
S31508013AD0286004B1236038BDFFF76AFA0923F6E7BF
S31508013AE01DF0AEFD0C23F2E701230020EFE700BF2E
S31508013AF00080005038B5104B0546D3F860310C46A6
S31508013B0003F00303022B0BD0032B0DD0012B0FD18E
S31508013B101DF093FD0A2305B1286004B1236038BD61
S31508013B20FFF746FA0923F6E71DF08AFD0C23F2E7AB
S31508013B3001230020EFE700BF00800050B0F5207F89
S31508013B401FD009D8B0F5007F15D003D868B1B0F5F4
S31508013B50C07F0AD000200CE0B0F5607FFAD10B4B8C
S31508013B60D3F88000C0F3011003E0084B186FC0F3C7
S31508013B70033001307047054BD3F89000C0F3046059
S31508013B80F7E7024B186FC0F38020F2E70080005078
S31508013B9002464FF48030104B10B598660020FFF7A7
S31508013BA0CDFF504341F671320C4BDC69DA635A6832
S31508013BB004F4803422F4401259B9094988428CBF69
S31508013BC04FF480100020104358600CB10022DA63CC
S31508013BD010BD0449F2E700BF0090005000000350F1
S31508013BE0005A6202002D3101430905D0012B0DD07F
S31508013BF0022B094B18BF002300F01F0041B103F542
S31508013C008053012202FA00F018607047034BF3E76C
S31508013C1003F50053F5E700BF688000506480005043
S31508013C201FB5002180280446CDE9001100F0A580C2
S31508013C3035D85E2846D85E2844D8DFE800F0A24386
S31508013C404343434343434343434343434343434335
S31508013C504343434343434343434343434343A2AA5F
S31508013C60A2AAB9B9B9B9B9AAC34DD9714DAAAAAA0D
S31508013C704343434343434343AAAAAA79E3AA434393
S31508013C804343434343434343434343B9A2A2A2DEC7
S31508013C904D4DE8885EBE434343434399A200B0F5C0
S31508013CA0B06F00F08F802DD8B0F5207F71D00CD879
S31508013CB0B0F5C07F65D0B0F5007F65D0B0F5807FDF
S31508013CC000F08580009804B010BDB0F5607F6AD019
S31508013CD00DD8B0F5407FF5D1FFF7F8F802464FF455
S31508013CE02070FFF72BFFB2FBF0F0400847E0B0F574
S31508013CF0806F5DD0B0F5A06FE4D100216846FFF76B
S31508013D00C3FDDFE7B0F5106F77D016D8B0F5E06FD1
S31508013D1078D00AD8B0F5C06F6AD0B0F5D06FD1D1D6
S31508013D2000216846FFF76AFECCE7B0F5F06FC9D106
S31508013D3000216846FFF7DEFEC4E7B0F5406F3CD0C8
S31508013D4013D8B0F5206F62D0B0F5286FBAD100212B
S31508013D50314B0391D3F8703203F00303012B02D1DF
S31508013D6003A8FFF7C3FD039B3BE0B0F5486FA9D154
S31508013D7000216846FFF710FEA4E7FFF78DF80090CB
S31508013D80A0E7FFF7A3F8FAE7FFF786F80246204609
S31508013D9004E0FFF79BF802464FF42070FFF7CEFECA
S31508013DA0B2FBF0F0EBE701A8FFF7BCFC019AEEE7DE
S31508013DB000216846FFF7DAFC84E700216846FFF729
S31508013DC009FD7FE700216846FFF736FD7AE74FF0E0
S31508013DD0E02302911B695B0705D5FFF777F8029087
S31508013DE0029B00936EE703A902A8FFF77FFDF7E799
S31508013DF000216846FFF77AFD64E700216846FFF768
S31508013E0029FE5FE700216846FFF750FE5AE70021C1
S31508013E106846FFF78FFD55E70080005008B58020FA
S31508013E20FFF7FEFE034B98429EBF4FF48032024BCA
S31508013E301A6708BD005A620200A000501FB5002388
S31508013E40B0F5807F019300F0C38064D85D2855D80A
S31508013E504C2807D82D2847D823282BD8019805B0F0
S31508013E605DF804FB4D381028F8D801A353F820F063
S31508013E70C73F01085D3E01085D3E01085D3E010838
S31508013E80793F01085D3E01085D3E01084D40010884
S31508013E90973F01083D3F0108434001085D3E01087F
S31508013EA05D3E01085D3E01085D3E01085D3E010873
S31508013EB05740010824380928D0D801A353F820F01F
S31508013EC0C73F0108C73F0108C73F0108C73F0108A7
S31508013ED0C73F01085D3E0108BD3F01085D3E010877
S31508013EE0593F0108FD3F01083D2800F082803E2820
S31508013EF0B4D1002001A9FFF7D9FDAFE78028ADD1DC
S31508013F005A4B1B6F03F00703013B032BA6D8DFE8C7
S31508013F1003F05350878FB0F5F06F6AD021D8B0F50A
S31508013F20B06F4BD00FD8B0F5607F00F0858095D380
S31508013F30B0F5806F47D0B0F5A06F8FD1002001A9E9
S31508013F40FFF7A2FC8AE7B0F5D06F57D0B0F5E06F5E
S31508013F50CFD0B0F5C06F81D1002001A9FFF7C6FC0B
S31508013F607CE7B0F5206F71D00BD8B0F5086F4AD051
S31508013F70B0F5106F7FF472AF002001A9FFF76AFD53
S31508013F806CE7B0F5406F5CD0B0F5486F63D0B0F51B
S31508013F90286F7FF463AF0021344B0391D3F8703255
S31508013FA003F00303012B5BD0022B14BF0B46152329
S31508013FB000E00523019351E70223FBE7002001A94D
S31508013FC0FFF73AFC4AE7002001A9FFF7CFFB45E7CF
S31508013FD002934FF0E0231B695B0705D5FEF776FFD1
S31508013FE00D230393039BE5E703A902A8FFF77EFCCC
S31508013FF0F8E7002001A9FFF77DFD2FE7002001A9B9
S31508014000FFF7FCFC2AE7194BD3F8003103F0030349
S31508014010022B07D0032B09D0012B0BD1FEF76CFF1E
S315080140200323C7E7FEF7C4FF0923C3E71DF003FB14
S315080140300823BFE70123BDE7184601A9FFF772FB6D
S315080140400CE7002001A9FFF7C5FB07E7002001A936
S31508014050FFF770FC02E7002001A9FFF79DFCFDE6CA
S3150801406003A8FFF743FC1123A4E700BF0080005013
S315080140704FF48012034B5A664FF48032024B9A6210
S31508014080704700BF009000500050005A08B5FFF76E
S31508014090D5FE092811D00A38012811D84FF4800213
S315080140A0094B4FF6FF705A6603F5D8335B6A13F06E
S315080140B0010F18BF4FF4FA7008BD044B1888FBE7C7
S315080140C04FF6FF70F8E700BF00900050D40C0020AF
S315080140D038B504468020FFF7B1FE032800F08A8030
S315080140E04FF48012544B4FF0A0615A6645F60E0301
S315080140F0524AC2F88030524B99624FF4803103F527
S3150801410080539962936DD903FCD4916D11F0804166
S31508014110FBD1D4E900031B0543EA0063E07B0343B3
S31508014120207B43EA0043607B43EA0033A07B43EAF2
S31508014130801313619069D4E904531B0643EA856326
S3150801414000F000400343A07EE57E0343207E43EA58
S315080141500043607E43EA00239361E069136A0028FD
S315080141600CBF0022082223F00F0343EA000343EAA7
S31508014170850343EA0203314A324D13623BD194F86F
S315080141802430916A94F82000DB000D4043EA40137D
S3150801419094F821102B4343EA011343F480339362C5
S315080141A0294B916D33EA0101FBD14FF08071244807
S315080141B081621369A56823F4700343EA0553136101
S315080141C04FF00043836194F822300BB91F4B996273
S315080141D094F823303BB94FF480321C4B9A62174A44
S315080141E0936D5B00FCD494F825301BB1134B184A28
S315080141F0C3F8802038BD022808D11161154891619C
S315080142004FF408524FF47F411DF08CFA0B4994F88C
S3150801421022308A6A94F820001B06154043EA4013A7
S3150801422094F824202B4343EAC20394F8232043EA53
S3150801423002438B62D7E700BF009000500040005A46
S315080142400050005AC7FFFEFE030001000060005A35
S31508014250F1A7FFFF3440005A37B5194CA26AA36D7E
S3150801426013F4803F18BF4FF48031164B18BF99627B
S315080142704FF080719962144BA56993F9003025F4C2
S315080142807F050344000280B225F47F4583F30803C2
S31508014290284340EA0340A0610C4801921DF042FA06
S315080142A0A36D019A13F4803F07D04FF48031074874
S315080142B003B0BDE830401DF035BA03B030BD00BFCC
S315080142C00040005A0050005AEA0C00202840005AC3
S315080142D0014B93F900007047EA0C00204FF4803334
S315080142E011481249826A8B62836D03F00303032B1B
S315080142F0FAD14FF080738B620B4B0D49986D31EAF9
S315080143000000FBD1012009490865996D8907FCD48C
S31508014310054B996D8807FCD5996D8907FCD5054923
S3150801432005481DF0FFB900BF0040005A0050005A69
S3150801433003000100000001012840005AF0B5D0E948
S3150801434001434FF400061A4A4178057856664FF438
S31508014350D156022702F5B8325662164E4F297760B2
S315080143604FF0010728BF4F2106F580567760166979
S31508014370F603FCD441EA052151611B01417B43EA5D
S3150801438004230B43017B43EA41039360C37B817B8F
S315080143901B0143EA4113417C0B43017C43EA410378
S315080143A05360837C13B16FF4D1535362F0BD00BFE0
S315080143B00090005000100250014B1880704700BF52
S315080143C0D40C0020014B1880704700BFD20C002086
S315080143D04FF4800208B5184B5A660223174A5360F0
S315080143E0936813F48033FBD1012822D1FEF784FDAB
S315080143F0134B984215D003F5122303F5F863984237
S3150801440013D0104B00EB8002400AB3FBF0F0520ABE
S315080144100A4BDA62012218635A620022074B5A6074
S3150801442008BD45F67A10084AF2E745F61A00074A22
S31508014430EEE75362F1E700BF0090005000400250DA
S3150801444000F0490264666666D8B80500BBCF050068
S31508014450B0F5207F10B50C4657D008D8B0F5007FC7
S3150801446048D003D830B3B0F5C07F23D010BDB0F51E
S31508014470607FFBD129492A48D1F8FC2012F08072C5
S315080144801EBFD1F8FC3023F08073C1F8FC30D0F898
S315080144908030611E23F0300444EA0114C0F88040DC
S315080144A0002AE3D01D4AD2F8FC3043F08073C2F8E3
S315080144B0FC30DBE71DF047F91DF053F94FF4803165
S315080144C0184B174A1967136F611E23F4704444EA9F
S315080144D001341467FEF7FAFC0446FFF717F9C0F131
S315080144E0020120461DF037F900F02EF8BDE810400C
S315080144F0FFF794BC0A4A0139D2F8903023F0F854F0
S3150801450044EA0164C2F89040B0E7054B013C196FD3
S3150801451021F4806141EA84241C67A7E700ED00E0E5
S31508014520008000500090005008B50121022000F0DB
S3150801453071F81DF008F91DF014F94FF48032014B9A
S315080145401A6708BD0090005008B54FF4C070FFF710
S3150801455067FBBDE80840044988428CBF0221012156
S315080145604FF42070FFF774BF80F0FA02034B5868C6
S31508014570C0F30800003818BF0120704700ED00E0BD
S31508014580024A536B0342FCD1704700BF00400950F1
S31508014590044A4178536F23F4407343EA012353676E
S315080145A0704700BF004000500A4A10B51369044617
S315080145B043F00403136103F045FB1DF0FCF830BF1B
S315080145C01DF0FAF803F078FB1CB9BDE81040FEF7B8
S315080145D07DBC10BD00ED00E0084A10B5136904461C
S315080145E043F00403136103F02DFB30BF03F064FBB2
S315080145F01CB9BDE81040FEF769BC10BD00ED00E02E
S31508014600034A0179D36E23F030030B43D36670470F
S3150801461000400050F8B504461C4BD3F88420D10657
S31508014620FBD4D3F88430C3F381139C422CD0FEF714
S3150801463033FC012C064602D121461DF08CF81DF0EB
S31508014640AAF84FF00072124B07465A6620461DF02B
S31508014650B6F84FF480630D4D621E93402B676B6E5F
S315080146609A0103D4D5F884309B060AD538461DF03D
S3150801467096F8022C08D13046BDE8F84000211DF015
S315080146806AB8D5F88430EAE7F8BD00BF00400050A3
S315080146900060005007B518B90191FEF7FDFB0199B5
S315080146A0064B1B7843B1064B984205D8012003B047
S315080146B05DF804EBFFF7AEBF0220F8E7A427002058
S315080146C0005A62020278034B012100201A70FFF793
S315080146D0E1BF00BFA42700204FF0004238B5244BA4
S315080146E0244C5A664AF6CD33656C014605F0010538
S315080146F0236430BB0120FFF743FF6368DB0708D457
S31508014700002415B11B4B1C4A1A6427F0E2FD20460A
S3150801471038BD1A4B58600846194B226BD20705D487
S31508014720984201D10724ECE70130F6E79842E7D130
S31508014730F8E70132236B13F0080305D08A42F8D152
S31508014740F0E700220E49F5E78A42EBD020210B4A11
S3150801475091620121A2F5805251600649084A886A88
S31508014760800603D49342DDD00133F8E79342DEE7AE
S3150801477000900050004009503254FFFF0060095074
S3150801478040420F004FF0004238B5164B01465A66B3
S315080147904AF6CD33144C154A656C236443780B20CD
S315080147A05B0043F00103D363FFF7EAFE63688A7887
S315080147B023F4F87343EA02136360CA784B7943EA30
S315080147C00223A3600A798B7943EA022323610878D5
S315080147D0FFF782FFEB0744BF054B236427F079FDFA
S315080147E0012038BD0090005000400950004000509B
S315080147F03254FFFF4FF00042124B70B55D6E03F560
S3150801480080535A664AF6CD3304460F4980204E6CCA
S315080148100B64FFF7B5FE0B6A23F00F030F2C94BF49
S31508014820234343F00F030B62F30744BF074B0B64A3
S31508014830002DA2BF4FF00042054B5A6627F049FDED
S3150801484070BD00BF00800050004009503254FFFF80
S3150801485000A000504FF00042104B70B55D6E03F595
S3150801486080535A664AF6CD3304460D4980204E6C6C
S315080148700B64FFF785FE0B6A23F4F85343EA042316
S315080148800B62F30744BF074B0B64002DA2BF4FF021
S315080148900042054B5A6627F01CFD70BD008000508A
S315080148A0004009503254FFFF00A000502DE9F041A5
S315080148B005460F461E4690464AB101233022194C39
S315080148C08B4002FB00443EB304F5825423600F215A
S315080148D0072F05EB450388BFA7F108044FEA031321
S315080148E0114895BFBC00A40004330C3308FA04F23E
S315080148F0A14018441CF064FFB8F1000F0AD1012148
S315080149003020084A01FA07F700FB05223EB102F5F5
S3150801491082521760BDE8F08104F50154D6E702F525
S315080149200152F6E700C0035030C003504FF400129D
S315080149300B4B10B5C3F88020BFF34F8FBFF36F8FB2
S315080149400024FF22074B21465C6520209A625C60A1
S31508014950FFF74AF92146BDE810402120FFF744B97F
S3150801496000E100E000000450044A054B002918BF85
S315080149701346012202FA00F01860704740200450DD
S315080149804010045010B5012104462020FFF72CF9E8
S3150801499001212120FFF728F90122114B5A602278BB
S315080149A012069A606178A27842EA01429A61FF2268
S315080149B09A6200229A631A644FF000425A654FF0D0
S315080149C0FF324FF4001103F500531A65054AC2F880
S315080149D08011E3781B01DBB282F81533116010BD33
S315080149E00000045000E100E02DE9F0410125C3B2C1
S315080149F0D1F8008091F80AC00F7B91F80DE09D402F
S31508014A000C46CB7A1C491D4E0D65810001F1A0416A
S31508014A1001F58821C1F80480302101FB00601B05DE
S31508014A2043EA0C4343EA475322F00302C0F860E025
S31508014A30C36502671CF0B6FE736D2B437365237A53
S31508014A4013B1336C2B433364637A13B1B36B2B43C2
S31508014A50B3632279A37943EA0243074A93616179E9
S31508014A60E37943EA014306498B61044B55639D6427
S31508014A70BDE8F0411CF09CBE002004500000045023
S31508014A800010045010B50124C0B284401CF08AFEFF
S31508014A90044B5A6D22EA04025A659C62BDE810402D
S31508014AA01CF086BE0000045010B50124C0B2844033
S31508014AB01CF078FE074BDA6A224209D15B6B34EAAD
S31508014AC003030CBF012400241CF072FE204610BD0E
S31508014AD00024F9E7000004504FF48032054B9A662A
S31508014AE041F6713203F51C33DA63012203F50053EB
S31508014AF0DA6070470090005041F671320121064B89
S31508014B00DA6303F50052D1600022DA634FF480328A
S31508014B10A3F518339A667047000003500138312807
S31508014B209ABF024B185C0020704700BF7CD303086C
S31508014B3010B5C2F30623044602F0070241B942EA58
S31508014B4003220B4B42F44022063443F8242010BDBD
S31508014B50184611461CF046FE01461846FFF7DEFFC9
S31508014B60034B41EA0020163443F82400EFE700BF5F
S31508014B70008003504FF48032064B5A6603F5E6234C
S31508014B809B69C3F38512827003F03F021B0B4270C7
S31508014B90037070470090005040F6B732064B5B68C9
S31508014BA09BB293429FBF4FF47A72B3FBF2F3034A67
S31508014BB0D05C88BF002070470080E00FAED30308A1
S31508014BC0014B986CD96C70470080E00F0120034BAC
S31508014BD09B680A3303F01F03984070470080E00F73
S31508014BE070B5054616461C4621B94FF42070FFF7E5
S31508014BF017F80146402C1BD003D8DCB1202C1BD05A
S31508014C0070BD602CFCD1042303FB06F2560806EBA3
S31508014C104113B3FBF2F3094A203B02EAC303AA682C
S31508014C2022F06002AA60AA681443AC60EB61E7E768
S31508014C300623E9E71023E7E70823E5E7F8FF7F00FE
S31508014C40012100F5805310B5596040F6AA6341F277
S31508014C50050243610023094C8360C365C26000F500
S31508014C6000520361C361C3649464054C8365A04221
S31508014C7004BF03654365516010BD00BFFFFF010016
S31508014C8000C0055070B50D46FFF7DAFF012300F5A0
S31508014C9080567360AB7C04461BB1836843F080433E
S31508014CA08360EB7C5BB1244B9C4202BF2A7DA3F552
S31508014CB01033C3F8C821E36D43F08003E3652A8AFC
S31508014CC06B7B20461343EA891343E3602B7BD5E9C3
S31508014CD00112FFF785FF6B7D1BB1A36843F480338F
S31508014CE0A360AB7D1BB1A36843F40043A360EB7DCE
S31508014CF02A7E1B07120502F4E00203F0E043134380
S31508014D00A3656B7E9A1E012A4FF0020209D80B4948
S31508014D10032BC1F8202709D10423F3652B78636196
S31508014D2070BD0749012BC1F82027F4E7042204F5D1
S31508014D300053DA65F2E700BF00C0055000D0035002
S31508014D4000E0035038B50D46FFF77AFF0122A97B2B
S31508014D5000F580535A602A8A8368002914BF4FF4E4
S31508014D608061002142F0010213432A7D0B43002A88
S31508014D7014BF4FF000520022836083680446134330
S31508014D808360AB7C5BB1194B984202BFEA7CA3F501
S31508014D901033C3F8C821C36D43F08003C3652B7B69
S31508014DA02046D5E9011243F48053E3601CF06EFDF9
S31508014DB06B7B0BB1102363616B7D1BB1A36843F455
S31508014DC08033A360AB7D1BB1A36843F40043A360A2
S31508014DD0EB7D2A7E1B07120503F0E04302F4E0028D
S31508014DE01343A3652B78636138BD00BF00C0055026
S31508014DF0054B9A689107FCD45A689207F9D4DA697F
S31508014E00002AF6D1704700BF00800A5008B5FFF79F
S31508014E10EFFF0122024B03F580514A601A6108BD72
S31508014E2000800A50074B5A68012A0AD15A68D207E4
S31508014E3002D5DA69002AF9D102221A610122024B46
S31508014E405A60704700800A5000A00A5010B5064CF7
S31508014E50FFF7CEFF6368012B03D1FFF7E3FFFFF7E7
S31508014E60C7FF0378E36010BD00800A50E8B94A68B5
S31508014E700B7812B1127843EAC2034A78002A14BFA2
S31508014E800222002213438A6812B1127843EA821376
S31508014E908A78002A14BF042200221343CA6812B171
S31508014EA0127843EA4223014A9364704700800A5004
S31508014EB008B9014B5964704700900A5008B9014B6B
S31508014EC05964704700A00A5008B9014B1964704724
S31508014ED000A00A5010B9024B186C704700207047A1
S31508014EE000800A5048B911B1012903D07047044B13
S31508014EF0D86C7047024B186D70470020704700BF89
S31508014F0000800A5040B911B1012903D07047034BFB
S31508014F10DA647047014B1A65704700BF00800A5072
S31508014F2010B9024B586D70470020704700800A502F
S31508014F3038B50446054D27F0F2F90FCC0FC594E8AC
S31508014F40030085E80300002038BD00BFA41A00202D
S31508014F5047F6FF739A42F0B566D0012966D8344DF3
S31508014F60CF0015F8313005EBC100012B847813D138
S31508014F700025C3781B1B9D4202D3E018C0B2F0BDC1
S31508014F80591B4668A3EB510136F911609642D4BF05
S31508014F900D4601F1FF33EEE740680028EFD0B0F97E
S31508014FA00030934204DBB0F902309342B8BF13468E
S31508014FB082883D44FF2A19BFC8214FF0280CB0F951
S31508014FC00610B0F908C0A1EB03020CBF01260026A2
S31508014FD092FBFCF26D78324412B2954201DD002A49
S31508014FE001DA6A1E12B24FF47A7700EBC206F1882B
S31508014FF0B668013213FB016112B221EAE1715C3133
S315080150009542B1FBF7F104DD00EBC206B6888E4284
S31508015010EBD200EBC20232F8040C884228BF0846DC
S31508015020A04238BF2046A9E7FF20A8E70020A6E747
S31508015030A41A00200129F0B553D82B4800EBC10466
S3150801504010F83110636801290FD1E078A4789042ED
S3150801505094BFC4EB0001C4EB0201001BCAB2824231
S31508015060C8BF002233F91200F0BD002B39D0A17850
S31508015070914202D3B3F90200F6E7E178B3F90000E9
S315080150809142F1D999886478A1F1FF06013C7142F0
S3150801509003F10405E4B2714103F10C071FFA82FC1E
S315080150A0CEB2B44216D805EBC1014FF47A756A43FC
S315080150B0B1F902404968521A04EBD47102EB610254
S315080150C092FBF4F29042CFDBB3F902009042CBDCBB
S315080150D010B2C9E737F831E04E1CE645E3D331464D
S315080150E0DEE70248C0E700BFA41A00200080FFFFE0
S315080150F00148FFF71DBF00BFB4D303080048704736
S31508015100D60C00207FB50222084B0949CDE90123B7
S315080151104FF00073CDE90313072301A94FF0FF30C0
S31508015120059327F034F907B05DF804FB006A180007
S315080151300002060008B5B0B14FF480620B4B9A66BF
S315080151401CF086FB4FF098435A6CD202FCD54FF4FB
S315080151508062586D064B10F470209A6604D0BDE83B
S3150801516008401CF0C9BB212008BD00BF00900050B3
S3150801517000A000502DE9F0418CB08846DDE9127691
S315080151801D460446002847D0002945D0002F43D0A4
S31508015190002E41D013F00F033ED120482049A360C9
S315080151A0002A18BF0146E361C4E90013404609A96C
S315080151B01CF096FC68BB204609991CF040FB294661
S315080151C020461CF03CFB6946404600F0E7FA00BB66
S315080151D0694620461CF01FFB404603A91CF04EFDFC
S315080151E0B8B9204603A91CF016FB069701272046E5
S315080151F045F0005506A9079708951CF00CFB2046B3
S3150801520009A909960A970B951CF00FFB2046FFF78B
S3150801521091FF0CB0BDE8F0812120FAE700010104F5
S31508015220000100042DE9F0438DB0884615461C4659
S315080152300746DDF85090002850D000294ED0002AA4
S315080152404CD0B9F1000F49D00B68103B102B45D84B
S31508015250012606FA03F303F0013323F08073002BCA
S315080152603CD000231E4A8360C0E90023C36109A913
S3150801527040461CF035FC70BB384609991CF0DFFA2C
S31508015280214638461CF0DBFA6946404600F086FAA4
S3150801529008BB694638461CF0BEFA404603A91CF00D
S315080152A0EDFCC0B9384603A91CF0B5FA44F0005420
S315080152B0384606A90695079608941CF0ACFA094BD8
S315080152C0384609A9CDF824900A960B931CF0ADFA35
S315080152D03846FFF72FFF0DB0BDE8F0832120FAE726
S315080152E00000040410000020F0B50C4617461E46BF
S315080152F0054695B0002874D0002972D0002A70D0CE
S31508015300002B6ED0036B0F2B5BD80023364A384629
S31508015310C4E90023A360E36111A91CF0E1FB00289D
S315080153205BD1204611991CF08AFA296B20460F2970
S3150801533084BF01F00F0110311CF081FA384602A929
S3150801534000F02CFA002848D1204602A91CF063FA7D
S31508015350384605A91CF092FC00283ED1204605A92D
S315080153601CF059FA0122214B089509920A932B6BD5
S3150801537005F1100003F00F0141F000510B900F2BBE
S315080153800C920D910E900F9243F00052109226D96D
S315080153900A9B08A923F0005320460A931CF03BFAFE
S315080153A00BA920461CF037FA0123119612930F4BCD
S315080153B0204611A913931CF038FA2046FFF7BAFEC6
S315080153C00BE000F1200301900093012210233946D6
S315080153D02046FFF7CFFE002897D015B0F0BD0EA9DD
S315080153E0DFE72120F9E700BF0000040410000020D0
S315080153F02DE9F04F9BB00D46914698460646DDF8D5
S3150801540090A0002800F0B380002900F0B080002A9F
S3150801541000F0AD80002B00F0AA80026B02EB0A03B4
S315080154201B09B3EB121F02F00F0700F09880002347
S31508015430504A8B60C1E90023CB61484617A91CF085
S315080154404FFB0446002840F0868007EB0A0323F049
S315080154500F0B2846179900931CF0F1F9594628466F
S315080154601CF0EDF9484602A900F098F9044600280F
S3150801547071D1284602A91CF0CEF9484605A91CF0A7
S31508015480FDFB0446002866D14FF00109284605A907
S315080154901CF0C1F9384A284608A90896CDF824907F
S315080154A00A921CF0B8F947F00051ABEB070706F171
S315080154B0100347F000570B93CDF830900D91CDF8B6
S315080154C03880CDF83C9010970D99284621F0005167
S315080154D00D910BA901931CF09EF928460EA91CF003
S315080154E09AF9ABF11001244A41F000511194CDF813
S315080154F04890139106F120011491CDF85490169213
S315080155001399284641F080411391139921F00051CE
S31508015510139111A91CF089F9284614A91CF085F9DB
S31508015520154A17A928461796CDF8609019921CF0C6
S315080155307CF92846FFF7FEFD009B0446ABEB030109
S31508015540A3EB0B02019B51441846414427F01CFB6F
S31508015550336B5344336320461BB0BDE8F08F1030DC
S3150801556052464146384427F00FFB0024F0E7212430
S31508015570F1E700BF03020004100000202DE9FF47F0
S3150801558000230E4617460446009300285BD00AB14D
S31508015590002958D037F0030807F0030A25D04FF041
S315080155A000094FF0E063C4E900390123019620465A
S315080155B0029301A948F00053C4F80890C4F81C9056
S315080155C003931CF032F9414620461CF038F920466F
S315080155D0FFF7B0FD054640B142464946304627F039
S315080155E0FAFA284604B0BDE8F0874FF00009BAF187
S315080155F0000F2AD04FF0E063C4E900390123CDF842
S3150801560004D00293124B204601A9C4F80890C4F8A5
S315080156101C9003931CF009F9042120461CF00FF98C
S315080156202046FFF787FD054608B13A46D5E7034602
S3150801563000994644DA00013321FA02F29A4506F83E
S31508015640012BF7D1CDE72125CBE75546C9E700BFA1
S3150801565004000020F0B50F4616461D46044693B0D1
S3150801566010B9212013B0F0BD0029FAD0002AF8D0CC
S31508015670002BF6D0002331461A4638461CF0E5F9C8
S315080156800028EFD1304602A91CF075F90028E9D1A6
S31508015690EB68022B0AD039683F48029A81426B6946
S315080156A002D01830814270D19A42DAD82B68002B81
S315080156B0D7D14FF060623846C4E90023A360E3619D
S315080156C001A91CF00DFA0028CCD10199204621F434
S315080156D0F06101911CF0B3F8694628461CF000FAFE
S315080156E00028BFD1204600991CF0A9F8384609A917
S315080156F000F054F80028B5D1204609A91CF08BF80A
S3150801570038460CA91CF0BAFA0028ABD120460CA9D8
S315080157101CF081F8EB684BB1284606A900F03EF863
S3150801572000289FD1204606A91CF075F8304603A922
S315080157301CF0A4FA002895D1B368DA040CD59B04A9
S3150801574027D50621F36932691B6801FB03225B0031
S3150801575043F0005303920593204603A91CF05BF816
S3150801576028460FA91CF08AFA00287FF47BAF204649
S315080157700FA91CF05AF803252046FFF7DBFC012880
S315080157807FF470AF013DF7D16CE7B3EB420F8DD2D1
S3150801579067E7292066E700BF200000B0A0B199B1EC
S315080157A001234B60C368013B012B0AD88069074B6B
S315080157B018B1086000208B607047054A0A608B6043
S315080157C070474FF00053F5E7212070470800002085
S315080157D064E5030870B50E46154604468AB00028E6
S315080157E05BD0002959D0002A57D0012329461A46E9
S315080157F030461CF02AF900284DD1B36813F4C04F7E
S315080158004BD0AB6803F4C043B3F5005F45D1254BD4
S31508015810A060C4E90030E06107A930461CF060F9D0
S31508015820002838D1204607991CF009F8304601A905
S31508015830FFF7B4FF78BB20461BF0EDFF304604A9FD
S315080158401CF01CFA38BB204604A91BF0E4FFEB68E0
S315080158501BBBAB6803F4C043B3F5005F1DD16946B2
S3150801586028461CF0B9F8B0B9009B6A699A4216D362
S315080158702A6943F0005307920122204607A9089294
S31508015880032509931BF0D1FF2046FFF753FC012896
S3150801589001D1013DF8D10AB070BD2120FBE71D20D9
S315080158A0F9E700BF0000010205289ABF014B185C01
S315080158B0002070476CE5030830B5154B87B0029395
S315080158C0144B0390049346F611030D46059300F015
S315080158D06DF91428044616D168461CF0A0FB4FF052
S315080158E0A843032202A95A6319601D619A63DA6BF8
S315080158F09207FCD1142C02D168461CF09EFB00F0DD
S3150801590089F9044601E00028E9D0204607B030BDF0
S31508015910BC1A0020040000202DE9F04FB1B005465D
S315080159208C46E9466E4F3B9EDDF8F8E0409C07F150
S31508015930100AC846386879680837A8E80300574541
S31508015940C146F6D10EEB0208C8F1000909F00F09A4
S31508015950002E00F0AF80774207F00F070121DDF82E
S31508015960FCB0C4F1100ACDF810B0059144F000510D
S3150801597006914FEA0A2101F4F85141F021010791F4
S3150801598006B96B460893002D40F09680002C00F06E
S31508015990938004AB0993002E00F0908046F00053E3
S315080159A00A93002D40F08D80002C14BF012321237A
S315080159B043EA07230B9308A942F00053CDF830C0F8
S315080159C03D980D910E934FEA092343F041030F9336
S315080159D0109002B10CA9002A16BF00224FF00052FE
S315080159E0412342EA0E021191129213933C9B3D4ABE
S315080159F0149310AB15933C4B0021169340F61103F3
S31508015A0017933A4B002D08BF1346189314AB1993F5
S31508015A10374B10221A9311231B931CAB184627F0F8
S31508015A20DAF801221D924AF080421E9200220346AC
S31508015A30239205B9EB46102C08BF01230DF1900AF4
S31508015A40102200215046CDF880B02193229427F0E8
S31508015A50C2F8002C37D020AB002125938F4218BFFE
S31508015A60534647F0804226923A9A2CA88A422892AF
S31508015A70299313460CBF4FF080430B46102233433C
S31508015A802B912A9327F0A7F8FEB95346C8442D93BC
S31508015A902CA948F0804318A82E93FFF70DFF30B9BB
S31508015AA02DB90346A34212D1002818BF2C2031B0C4
S31508015AB0BDE8F08F102751E701236BE747F0005344
S31508015AC06EE7212374E70123C6E728ABDEE703F176
S31508015AD0C0026A4412F8C02C01331043E2E700BF42
S31508015AE072E5030884E503081000002088E5030829
S31508015AF004000020F0B5C0299FB0249E4FD0B1F50F
S31508015B00807F04D0802941D029201FB0F0BD40F202
S31508015B10344440F21445002E08BF2C46212710258F
S31508015B20019401240296039404950597259F0697E7
S31508015B3006B102AC07940124089509940A92212218
S31508015B400B940C950D92174A0AAC0E92164A0F94AD
S31508015B50109242F61102119212931394149515920A
S31508015B6001AA1692CBB112AB1793042318931123EA
S31508015B70199316AB1A901B9340F61103C9081C9189
S31508015B801AA806A91D93FFF797FEBEE7002E14BFB4
S31508015B904FF486644FF48264C0E70EABE4E70F2046
S31508015BA0B3E700BF8CE503081000001038B5164BA3
S31508015BB05A6E42F004025A66D3F8802242F0010274
S31508015BC0C3F88022114B5B68C3F3080343B14FF056
S31508015BD0A842D36B13F0430FFBD11424204638BDDA
S31508015BE04FF0A843DC6B14F04304FBD1084D2B6836
S31508015BF01BB90421284602F0E5FF2B68013343F05F
S31508015C0000432B60EAE700BF0080005000ED00E08A
S31508015C10BC1A0020014B00205B68704700ED00E0CC
S31508015C20012300F01F02A0F506200949A0F55060DE
S31508015C304009934051F820201A4341F8202005498C
S31508015C4051F8202022EA030341F82030704700BFAB
S31508015C50C01A0020D41A00200121A0F506230F4AF4
S31508015C60A3F550635B0900F01F0001FA00F052F832
S31508015C70231008430A4942F82300D1E900300344B6
S31508015C8088680344C868096903445B1802BFC2E906
S31508015C900033C2E902331361704700BFD41A0020EA
S31508015CA0C01A00202DE9F04FA9B002921D46DDE980
S31508015CB0326704460822CDE90301414021FA02F37D
S31508015CC04B40980702F1080218BF9B00202A1C4482
S31508015CD0F4D18123B4FBF3F303EBC313E41A7A4B30
S31508015CE004F506241B7804F55064002B40D1FDF712
S31508015CF0B3FC014620B16FF0910029B0BDE8F08FE1
S31508015D004022059008A826F066FF4022059918A8A2
S31508015D1026F061FFDFF8C891DFF8C8A14B4603F109
S31508015D200F0B102208A9DAF80000CDF800B0059388
S31508015D3026F0AFF800220146059B09F110090DF17D
S31508015D40200891424CD1CDF800B01022DAF80000B3
S31508015D5018A926F0A7F84FF0000B03460DF16008C5
S31508015D605B4549D1594B9945D8D10122564B1A70F1
S31508015D704FF081084FF00009DFF868A1A4F5062362
S31508015D805349A3F55062520951F8221004F01F0C29
S31508015D9021FA0CF1C90744D44E4951F8220020FAD8
S31508015DA00CF010F0010030D0B9F1000F08BFA14680
S31508015DB0A3F6FF448123B4FBF3F303EBC313E41AFD
S31508015DC004F50624B8F1010804F55064D6D1029BFE
S31508015DD0EBB1B9F1000F1AD0349BC3F800906DE00E
S31508015DE058F8040BCDE906230591FFF719FF069A22
S31508015DF0079B05990132A4E758F8040B05930BF1A3
S31508015E00010BFFF729FF059BAAE7029B13B96FF060
S31508015E108B0072E7349BB9F1000F4ED0C3F800909E
S31508015E206BE70EB1002333600FB100233B604FF0DF
S31508015E30100B00232A462146DAF80000CDF800B0F7
S31508015E4013F0CEF908BB0EB1C6F800B02B68224A8A
S31508015E50934224D166B15FB13B462146DAF8000088
S31508015E6018AA13F011FA80B93B6832689B1A3B608D
S31508015E70D5E90223DDE90310834208BF8A4216D019
S31508015E80A4F50624A4F6FF4494E7144B984206D0D9
S31508015E901233984203D0133B9842E9D02BE72146A7
S31508015EA0DAF8000013F036FA0028E1D0AFE7029BD2
S31508015EB013B16B68012B03D0349B1C6000201CE7CF
S31508015EC06FF0840019E700BFA527002000710800BC
S31508015ED0C01A0020D41A0020105D175EFFDF00F0FB
S31508015EE0006D0800E00A00202DE9F04F87B08246D0
S31508015EF0894698461646DDF840B02AB1002B4ED0A1
S31508015F0040F26C739A424DD8BBF1010F4DD800246B
S31508015F1006F110073946012005941DF019F80546C2
S31508015F20002845D021463A4626F055FE05ABCDE96F
S31508015F30014300942B46012250464946FFF7B2FE1B
S31508015F40044680B110F18C0F08BF6FF08D043A46F4
S31508015F500021284626F03FFE28461DF00AF820466D
S31508015F6007B0BDE8F08F144BC5E902A92B60C5F847
S31508015F7004B02EB13246414605F1100026F004FE62
S31508015F800E483B462A460599006813F091F818B958
S31508015F900598FFF745FEDAE76FF09104D7E76FF04A
S31508015FA08604DCE76FF09104D9E76FF08504D6E73C
S31508015FB06FF08C04D3E700BF105D175EE00A00207E
S31508015FC02DE9F0438DB08146DDE914780C46154676
S31508015FD01E469BB1B8F1000F05D16FF08604204625
S31508015FE00DB0BDE8F083002FF7D0B7F1005FF4D309
S31508015FF0C3F1005303F580239F42EED810220021F6
S3150801600008A826F0E8FD002207AB029305AB019329
S3150801601006AB21460093484608ABCDE90522FFF7B2
S3150801602041FE04460028DAD10599DEB1A94203D812
S315080160300029D2D115B1D0E70029FBD0491BB142BD
S3150801604028BF3146069B0948C8F8001000913A4610
S31508016050079900682B4413F0C3F8002818BF6FF09E
S315080160609104BCE7A942E9D2B7E700BFE00A0020DC
S3150801607030B58DB00C4605461022002108A826F039
S31508016080AAFD002207AB029305AB019306AB214695
S315080160900093284608ABCDE90522FFF703FE04461F
S315080160A0D0B9099B012B1AD0104B0799186813F020
S315080160B031F9B8B9012207980D49A0F50623A3F5C8
S315080160C050635B0900F01F05AA4051F823506A4046
S315080160D041F82320FFF7C0FD20460DB030BD6FF013
S315080160E08404F9E76FF09104F6E700BFE00A00209F
S315080160F0C01A00202DE9F04F93B00446DDE91E755C
S31508016100DDE920689346DDE91C028A46DDF88890B8
S3150801611029B96FF08604204613B0BDE8F08FBBF1AC
S31508016120000FF6D00FB9002DF3D108B9002AF0D126
S3150801613016B9B8F1000FECD1B9F1000FE9D02D4A23
S31508016140934244D12388B3F5105F40D12022002120
S3150801615002A826F040FD202200210AA826F03BFDD0
S3150801616002A81BF0F9FB78BB20465A4651460AABF2
S3150801617000F00EFA04460028CDD10A981BF0CBFF91
S3150801618004460028C7D115B9C9F80000C3E7B742C4
S315080161902CD27B199E4229D24545BAD839462A4678
S315080161A0304626F0FEFC374615F00F0AB1D1CDE987
S315080161B000762B4652460AA902A8FEF7DBFF0746D8
S315080161C040B9C9F80050A6E76FF09204A3E76FF04B
S315080161D08504A0E742465146304626F0FCFC012FCD
S315080161E0C9F800A0F0D16FF08B0494E74545DBD9D7
S315080161F08FE700BF004440042DE9F047C2B00C46C2
S3150801620006460021154601A820229A46DDF828915E
S31508016210DDF830814E9F26F0DEFC2022002109A8F8
S3150801622026F0D9FC2022002111A826F0D4FC202230
S31508016230002119A826F0CFFC0021802222A821914D
S3150801624026F0C9FC002C5BD0002D59D0B9F1000FFE
S3150801625056D0B8F1000F53D0002F51D0218862884B
S3150801626001F4E043B3F5804F4AD0314B314833400E
S3150801627043F01063834205D06FF08504204642B08F
S31508016280BDE8F087D31DBAEBD30F4FEAD30637D350
S315080162904D9B9E4246D847F212139942ECD1B2F56C
S315080162A0807FE9D1244B4B98099309F101030D939A
S315080162B08423023020F00300169373000E90129384
S315080162C02046524629460DF1840901ABCDF8549072
S315080162D000F05EF904460028D0D10B9B119043F4D7
S315080162E0005319A80B931BF037FBF0B911AB09AA98
S315080162F001A919A8FFF7AEF9054620B14828BBD070
S315080163006FF08604BAE732464946404626F03CFC19
S315080163102A4609EB05030135852D01D13E60ADE716
S315080163201A70F6E76FF08904A8E76FF09204A5E7FB
S315080163300000FFF60000020920000080F0B50D46B6
S3150801634014461E46C3B010B96FF086000DE0002949
S31508016350FAD0002AF8D0002BF6D0038803F44F426E
S31508016360B2F5824F03D06FF0850043B0F0BDDAB2C3
S31508016370122AF8D123F0FF03B3F5E24F28D1438857
S31508016380336003BBE30033603368B3F5807FEAD13A
S315080163900023424A281914441A4614F8016D10F8C4
S315080163A0011D0A43891B0CBF4FF0FF3600268542A3
S315080163B003EA060343EA0103EFD1002AC4D0002BFE
S315080163C0C2DA0020D1E70733B4EBD30FDCD0BBE741
S315080163D0B3F5824F5FD10B78042BB5D1202200216A
S315080163E0684626F0F8FB68461BF0B6FA00284FD136
S315080163F0842200210DEB0200209126F0ECFB2022DD
S315080164000123882700210DEB0200013C8DF880301D
S31508016410013526F0E0FB202200210D9410A8E400A6
S315080164200C95640826F0D7FB20AD2022002118A878
S315080164301495159726F0CFFBE02CCDE91C5734604F
S3150801644003D0B4F5807F7FF47FAF154B07340893EB
S3150801645010934FF400530A934FF48043E4081293C0
S3150801646008AA18AB6846640010A91994FFF7F2F850
S3150801647033680733DB085A0043B900283FF475AF80
S3150801648062E705F8013B013AFBD2F6E70023FAE792
S315080164906FF0920069E76FF0960066E790E50308EA
S315080164A020000080F8B5134642880D460732072AB0
S315080164B04FEAD20104D0A94202D06FF086003AE031
S315080164C044680688C76820221846002126F083FBFF
S315080164D0240A034614B1012C52D1C460002DECD014
S315080164E041F20102964205D0B6F5885F02D0B6F5AB
S315080164F0905F0ED15D60002C45D017F0020007F0C1
S31508016500010116D1B9B99A68084642F080729A60B3
S3150801651011E0B6F5105F07D1182D03D0202D01D053
S31508016520102DCAD11D60E5E706F44F42B2F5824F38
S3150801653002D06FF08500F8BDF2B2122AF9D1202DEA
S31508016540F7D1124A26F0FF06B6F5E24F1A600DD1C9
S315080165504FF4804217F4705F9A600DD017F4864F96
S31508016560E7D19A6842F480629A60C4E7B6F5824F29
S31508016570A3D14FF40052EDE79A6822F48062F3E75B
S315080165806FF08B00D7E72046D5E700BF20000080D3
S315080165902DE9F041154600221C4643688AB01B0ABC
S315080165A007460E46019204D0012B59D06FF08B0095
S315080165B094E0008820F0FF03B3F5824F4ED17A8824
S315080165C00732D20801921BF0B2FD002800F00181C2
S315080165D00B78042B02D06FF086007FE0013DB5EB06
S315080165E0420F06F10106F6D1224638460199FFF710
S315080165F059FF002872D10335C4E9030625F00305BE
S315080166006561019D002C00F0C880002D00F0C58051
S315080166102022002102A826F0DEFA2946384602AAD7
S31508016620FFF740FF002840F0B8802368029A9A4293
S3150801663040F0B3806368039A9A4240F0AE80A3683B
S31508016640049A9A4240F0A980A369089A9A4240F0AE
S31508016650A480E369099A9A4240D09EE00195C3E76E
S31508016660032DB8D991F80080B8F1010F40F0B48034
S315080166704978002979D0F739082997D801A353F819
S3150801668021F000BF1B670108E3660108AD65010833
S31508016690FF660108AD650108A9660108AD6501082F
S315080166A037670108516701081C22002103A826F053
S315080166B092FA4B4B4FF4105002930323CDE904038E
S315080166C0FC2306930AAD02AB1A4603CAAA42206006
S315080166D06160134604F10804F6D100200AB0BDE84A
S315080166E0F0811C22002103A826F075FA3C4B4FF4D1
S315080166F0105202930323CDE90423F823E1E71C2270
S31508016700002103A826F067FA10234FF0807E029332
S315080167100323CDE904E3FA23D3E71C22002103A8C6
S3150801672026F059FA20234FF0007702930323CDE987
S315080167300473F723C5E71C22002103A826F04BFAA8
S31508016740274B284D02930323CDE90453FE23B8E7CB
S3150801675000211C2203A826F03EFA214B2249029366
S315080167600323CDE90413FF23ABE72B2D7FF633AFC4
S315080167702022204626F02FFA7368103D2360B3685D
S315080167801036636056F8043C2046C4E9023826618F
S31508016790656101A91BF0EFF828B1202200212046E6
S315080167A026F019FA17E73A88019B02F44F41B1F529
S315080167B0824F08D1D1B2122905D122F0FF02B2F5D2
S315080167C0824F08BF5B0062691C339A42BFF419AF56
S315080167D0E3E76FF0850081E76FF091007EE700BF80
S315080167E02000008000440002004400032DE9F04720
S315080167F090B0DDF8608006460C4692461A9FB8F1BD
S31508016800000F05D16FF08604204610B0BDE8F08769
S315080168100393002FF6D00028F4D0202200210DEB97
S31508016820020026F0D8F908A81BF096F8039B10B1C8
S315080168306FF09204E8E714F47C1FC4F305452CD0E5
S31508016840102DDFD8199A954237D81F4A24F47E1499
S31508016850944235D100220DF11009CDE90422CDE982
S31508016860062231465246CDF8009008A8FEF7DAFC12
S315080168700446B0B92A464946404626F085F92246D5
S3150801688009EB04030134112C09D100243D6008A841
S315080168901BF06CF80028B7D0CAE71025D2E71A70A2
S315080168A0EEE7212806D0012814BF6FF092046FF095
S315080168B08B04ECE76FF08604E9E76FF08904A3E738
S315080168C06FF08504A0E700BF0002C00370B50E464D
S315080168D01446054610B96FF0860070BD0029FAD036
S315080168E03822002126F077F9094B24F47E129A42C0
S315080168F00AD13388B3F5105F06D1C4F30543102BCB
S31508016900E9D800202C60E8E76FF08500E5E700BFCD
S315080169100002C003F0B50F4616461D4604468BB065
S3150801692070B302B963BB2022002102A826F053F9ED
S3150801693002A81BF011F8A8B92368134A23F47E1399
S31508016940934214D14DB133463A46009502A9201D0A
S31508016950FEF74EFD01280DD078B9002402A81BF0D8
S3150801696005F808B16FF0920420460BB0F0BD6FF040
S315080169708804F3E76FF08B04F0E76FF09204EDE714
S315080169806FF08604F0E700BF0002C0032DE9F0416D
S315080169908CB0884616460446129F002841D0002A24
S315080169A03FD0002B3DD0002F3BD0102B28BF102302
S315080169B01D46036813F47C1FC3F3054202D09542B2
S315080169C028BF15461A4A23F47E1393422CD1202256
S315080169D0002104A826F0FFF8002304A8CDE9003316
S315080169E0CDE902331AF0B8FF40B96B46424604A90D
S315080169F0201DFEF779FC20B100233B606FF0920061
S31508016A000CE004A81AF0B2FF04460028F4D12A467D
S31508016A106946304626F0B8F820463D600CB0BDE818
S31508016A20F0816FF08600F9E76FF08800F6E700BF9E
S31508016A300002C0030023C36001F138030361202368
S31508016A400A6843618B6D0B4922F47E128A424360C0
S31508016A5003D001F580718A4208D1102B02D1036057
S31508016A6000207047182BFAD0202BF8D06FF0880039
S31508016A70704700BF0001C00307B5094B18689A881B
S31508016A809B7900906846ADF804208DF80630FDF72D
S31508016A9079FE0C20FDF7AEFE002003B05DF804FB7D
S31508016AA0B0E5030813B50024064A6846536F43F058
S31508016AB00103536700948DF80440FDF7A1FD2046B4
S31508016AC002B010BD0040005030B58BB06C46174D72
S31508016AD00FCD0FC40FCD0FC495E8030084E803005A
S31508016AE0134BD3F84C21120317D4D3F85041E4B20F
S31508016AF08DF81940FDF7ECFB204480F308008DF86A
S31508016B0018000C48FCF7FEF96846FDF7E1FA322051
S31508016B10FDF758FC00200BB030BD074B1C884FF61B
S31508016B20FF739C4208BF8C24E2E700BFB8E503085F
S31508016B300080E00FC01753020001E00F30B5094D80
S31508016B4087B001AC0FCD0FC42B6801A823603F2382
S31508016B508DF80530FDF7F2FB6420FDF72DFC0020CA
S31508016B6007B030BDE0E503086FF00402502110B507
S31508016B700A480B4C12F0800FD3B21BBF03F00F0368
S31508016B80043BA3181B1802F101020CBF83F800137A
S31508016B9019764C2AEED1002010BD00BF00ED00E0A9
S31508016BA000E100E038B501F03DFA0446F0B901F01C
S31508016BB04FFC01F0FDFA4FF4167343430C4803F5F5
S31508016BC0742303F23F23B3FBF0F30A4A0A4913601D
S31508016BD00A220D680948013A12F0FF0240F8043BFF
S31508016BE0F9D103EBC3022B4413440B60204638BD8D
S31508016BF040420F001C1B0020EC1A0020F01A00204E
S31508016C00012208B5034B1A701CF00AF9024B1860E9
S31508016C1008BD00BFA6270020181B002010B501F0EB
S31508016C20C7FA04461AF00CFD844207D91CF006F986
S31508016C3020B10122024B1860024B1A7010BD00BF29
S31508016C40181B0020A6270020F8B51C4C2378D3B1C1
S31508016C501CF0E6F81A4B1B4D1B68C01A012838BFF1
S31508016C600120286001F0A4FA4FF416735843164B15
S31508016C7000F5742000F23F20B0FBF3F02968814249
S31508016C8002D900232370F8BD104D114E2B78114FF0
S31508016C9056F8232046F82310501A0A213A68013378
S31508016CA0121A3A600932B2FBF1F20B48DBB2026002
S31508016CB0B3FBF1F201FB12332B70E2E7A6270020A2
S31508016CC0181B0020E81A002040420F00A7270020C1
S31508016CD0F01A0020EC1A00201C1B0020014B186832
S31508016CE0704700BF1C1B002020234FF4801204218B
S31508016CF010B50F4C0F4884F82C330F4B5A660F4BBF
S31508016D0003F5005250675167106711674FF48052B7
S31508016D10C4F8842162609A18506751679A6A22F00A
S31508016D2000729A629A6A42F480529A6210BD00BF52
S31508016D3000E100E0010000A0009000500040005A68
S31508016D40044B9A6D12F0050F02D10028F9D170474C
S31508016D50012070470040005A154B10B51C6F14F0FE
S31508016D6004020FD003F500531A6708229A62FFF747
S31508016D7055FF00F093FE00F073FE012001F00CFBB5
S31508016D801CF05EF8E30706D501220A4B1A67FFF7DE
S31508016D905BFF00F065FE14F000521CBF054B1A6735
S31508016DA0002CBEBF4FF00042024B1A6710BD00BF50
S31508016DB00040005A0060005A10B504461AF0EBFC70
S31508016DC0024B1C601AF0EBFC002010BD201B0020B2
S31508016DD010B51AF0E0FC034B1C681AF0E0FC2046DB
S31508016DE010BD00BF201B0020034B02221868002398
S31508016DF08068194619F0E4BC000C002030B5144629
S31508016E00054687B010461BF04AFE6369024683426F
S31508016E103CBFD4E903315B181B1A7BB10F492846DD
S31508016E2003910021CDE90131012304940093D4E9AA
S31508016E3000131AF028FC002007B030BD0122627643
S31508016E4094F82D20002AF6D084F835301321E36909
S31508016E50204698472046636A9847ECE7FD6D010886
S31508016E602DE9F04788B004468846174699461AF030
S31508016E7099FC8246002F7AD0237E03F0FF02002B6D
S31508016E8000F0A28020461BF00AFE6669B04205D1D1
S31508016E90637ED4E903521544AD1B01E0F9D9851B7C
S31508016EA0BD4228BF3D461AF07DFC94F82D300646B2
S31508016EB0002B6DD12A464046616925F065FE636956
S31508016EC02F462B44636121E0037803F0FD01112964
S31508016ED05BD1216B814205D1A3F111014B424B4193
S31508016EE084F83430013F6369216B01328B4203F127
S31508016EF0010308BF2363636195426069E4D1D4E95C
S31508016F000323216B1344994200D122630025D4E956
S31508016F10032361691344994208BF6261207A657641
S31508016F20FCF7A6FA20461BF0BAFD6369834232D103
S31508016F30257694F82D30E568656103B12563204609
S31508016F40636A9847214B2A460393002302932369D0
S31508016F50216801930123207A0093049463681AF047
S31508016F6092FB207AFCF7A4FA30461AF021FC504627
S31508016F70C9F800701AF01CFCD9F80030002B0CBFB8
S31508016F801B20002008B0BDE8F08708F8013BAAE7F6
S31508016F902F460022B0E70123207A23760DF11E0140
S31508016FA0FCF7EEFA9DF81E30002BDAD00DF11F0121
S31508016FB0207AFCF7BDFA9DF81F100029D1D1224687
S31508016FC0207AFFF71BFFCCE71746D0E7FD6D0108CE
S31508016FD0002808DB0123420900F01F0003FA00F02C
S31508016FE0014B43F82200704700E100E0002809DB65
S31508016FF00122430900F01F0002FA00F0024A603339
S3150801700042F82300704700BF00E100E070B504466E
S315080170100568FFF7DDFE844202D10020FFF7CCFEAA
S3150801702095F93600FFF7E2FF95F93630002B0DDBAF
S3150801703001215A0903F01F0301FA03F31849203203
S3150801704041F82230BFF34F8FBFF36F8F95F93700A1
S31508017050FFF7CCFF95F93730002B0DDB01215A09D3
S3150801706003F01F0301FA03F30D49203241F82230D8
S31508017070BFF34F8FBFF36F8F287AFCF739FA287A57
S31508017080FCF79CF9FCF778F900232846C4E9003394
S31508017090C4E90433A360AB6ABDE87040184700BF72
S315080170A000E100E02DE9F0410C461546064686B09A
S315080170B04022002120461F4625F08DFD95E8030054
S315080170C000232A692376EB6884E80300C4E90423CC
S315080170D02A7DE36084F82C20AA7D2363012384F8A2
S315080170E0343084F835300C9B84F82D2023620D9BAF
S315080170F0E76163620E9BA3622B7A84F836306B7A5A
S3150801710084F837302D4B346073602D4BB3602D4BAB
S3150801711033612D4B73612D4BF360FCF775F938B16B
S315080171202B4B984204D01024204606B0BDE8F081C6
S31508017130002104F10800FCF7EFF807460028F2D110
S315080171404FF00108234B3362234B84F83C80B3612B
S31508017150224BF3619DF8403084F8390084F83B30BE
S315080171609DF83C30204684F83A30697D84F83880A9
S315080171701BF0A5FC95F90900FFF738FF95F90900F9
S31508017180FFF726FF164B0494CDE902732369CDE96F
S3150801719000836368E2682168207A1AF074FA044663
S315080171A00028C0D195F90800FFF720FF95F90800D6
S315080171B0FFF70EFF3046FFF7FFFDB5E70F2B030874
S315080171C0616E01088D2A0308932A03080D700108C8
S315080171D0038000F0632A0308BF2A0308992A0308D3
S315080171E0FD6D01082DE9F04101271C465C4B86B06F
S315080171F002935C4B0C9D01935B4B904600930A46A8
S31508017200CDE903772946594BFFF74CFF0646002877
S3150801721040F08180236839462B6463683A206B64A1
S31508017220637A85F84930237A85F84830E37A85F810
S315080172304B30A37A85F84A30637B85F84D30237B3A
S3150801724085F84C30E37B85F84F30A37B85F84E30C3
S31508017250FCF7CAFC3B460422617A207AFDF726FB35
S315080172603B460222E17AA07AFDF720FB394660689F
S31508017270FCF7BAFC88F8006041462068FDF702FD74
S315080172801420617C3A4B01F1390252019850607A17
S31508017290227A03EB411342EA0042C3F83827E17A1E
S315080172A0A27A42EA0142C3F8302785F8506098F875
S315080172B01930032B52D8DFE803F01F02324C0123A1
S315080172C0002785F8503000230222617B207BFDF7D9
S315080172D0EDFA617B227B637C42EA014241F2287125
S315080172E05B0103F1A04303F570335A500422236866
S315080172F003F58053DA65AFB9237A2A6C85F84830E5
S31508017300637A052185F84930D36C206843F0040374
S31508017310D3641AF0CBFA304606B0BDE8F0810223F1
S3150801732085F8503000230422E17BA07BFDF7BEFAE5
S315080173300220617C0E4B01F1B9025201985003EB10
S31508017340411341F22C71E07BA27B42EA00425A507A
S31508017350D2E70323012785F85030B4E72326DAE775
S31508017360392C03082D2C0308C52C0308B92C03084E
S3150801737000C00350BFF35F8F074B5A6A22F480326D
S315080173805A62D3F8942022F00102C3F89420BFF37D
S315080173904F8FBFF36F8F704700ED00E070B5264839
S315080173A0264CFFF7E7FF844208BF4FF08043244A83
S315080173B018BF20F01F03D2F8C01018BF203B21F0D8
S315080173C0FF0141F0A001B3F1005FC2F8C0100CD370
S315080173D01C4D1D4E296843F00103C2F8981001316E
S315080173E0C2F89C60C2F8A0302960844210D01548C2
S315080173F0164B0268124923F01F0343F00303C1F831
S315080174009820C1F89C30124B0132C1F8A0300260B5
S31508017410BFF35F8F05220A4BC3F894205A6A42F4D8
S3150801742080325A62BFF34F8FBFF36F8FBFF34F8F0F
S31508017430BFF36F8F70BD00BF080D0020B40E00208A
S3150801744000ED00E0241B002003000020D30E0020DD
S31508017450E1FFFF3FF8B51446FFF78CFF1F2C27D92C
S315080174600027C2062A4D1CBF20F01F0020302A68BB
S31508017470CB06284B18BF21F01F01FCB2A24219D82E
S31508017480D3F8C04020F01F0024F47F4444F48074EC
S3150801749021F01F01C3F8C04040F00300C3F898204B
S315080174A041F003010132C3F89C00C3F8A0102A6019
S315080174B000201AE0C3F89840D3F89C40D3F8A0609E
S315080174C024F01F04A04226F01F0601D1B142EFD0D5
S315080174D0B04201D8A14207D2D3F89840013724F027
S315080174E0FF04C3F89840C8E72820BFF35F8F052239
S315080174F0084BC3F894205A6A42F480325A62BFF3A1
