:020000040801F1
:10200000C00A0020112E01081D3A03081D3A0308DA
:102010004B5103081D3A03081D3A03081D3A0308F3
:102020001D3A03081D3A03081D3A03081D3A030828
:102030001D3A030860040408173803081D3A030812
:102040001D3A03081D3A03081D3A03081D3A030808
:102050001D3A03081D3A03081D3A03081D3A0308F8
:102060001D3A0308952A0108FD3803081D3A0308A4
:102070001D3A03081D3A03081D3A03081D3A0308D8
:102080001D3A03081D3A03081D3A03081D3A0308C8
:102090001D3A0308113601081D3A03081D3A0308CA
:1020A0001D3A03081D3A03081D3A03081D3A0308A8
:1020B0001D3A03084919030865230308D7FC0308E0
:1020C000D3FC0308311B0308E3FC0308DBFC030813
:1020D0003D230308DFFC0308A523030809240308A4
:1020E0001D3A03081D3A03081D3A03081D3A030868
:1020F000314D03081D3A03081D3A03081D3A030831
:102100001D3A03081D3A03081D3A03081D3A030847
:102110001D3A03081D3A03081D3A03081D3A030837
:102120001D3A03081D3A03081D3A03081D3A030827
:102130001D3A03081D3A03081D3A03081D3A030817
:102140001D3A03081D3A03081D3A03089F5203086D
:10215000290203081D3A03087BF9030881F90308E3
:102160001D3A03081D3A03081D3A03081D3A0308E7
:10217000013800D0FCE77047002370B5404C05469D
:102180008AB0E36318B1008823600EF009FC3D4873
:102190002DF00BF93C4E3D4B304633603C4B7360A9
:1021A00027F0CAFE0021304619F0CAFA32A3D3E95B
:1021B0000023A062C4E9062327F0C9FED4E9062360
:1021C000194310434FF0FF33C4E90601CDE9000184
:1021D0004FF0FF32A06A2DF035F902224FF0FF31A7
:1021E000A06A2DF034F901200EF070F94FF400735D
:1021F00000222849A06A2DF080F9B0F5007F38D17F
:1022000000239422CDE9073309933C23CDE903321F
:1022100005939623A06A03A9069319F0ADFB35B385
:10222000287C0EF083FD0546F0B9A06A2DF046FA31
:102230000EF024FD0EF02CF920B14FF48070002137
:102240000BF0DCF80EF034F920B14FF400600021FF
:102250000BF0D4F827F03FFE012019F0C5FA0E4A22
:102260000E49A06A27F066FE28460AB070BDFF201E
:10227000D7E70725F8E700BF0DD50155200000007E
:10228000180F0020690345EC102300205D030208AD
:102290000423002004210020DD9E03081D9F030865
:1022A00010B5054C237833B9044B13B1044800E052
:1022B00000BF0123237010BD781100200000000032
:1022C000A05D040808B5034B1BB10349034800E0B7
:1022D00000BF08BD000000007C110020A05D0408C4
:1022E000A3F5803A704700BF174B002B08BF134B74
:1022F0009D46FFF7F5FF00218B460F461348144A11
:10230000121A2DF03BFD0E4B002B00D098470D4BC1
:10231000002B00D098470020002104000D000D483C
:10232000002802D00C4800E000BF20F091FA200005
:10233000290021F064FA20F077FA00BF00000800BD
:102340000000000000000000C00A0020A80E0020CD
:102350004C2A002000000000000000002DE9F041A0
:102360008CB00368AA4A23F47F4323F00703934207
:1023700007D002F14072934200F017820CB0BDE822
:10238000F0810DF11D0108A811F042FE054610B3C1
:10239000A04CA149206822F01BFDA049206822F032
:1023A00017FD21F0E9FA21F0E8FA9D4B9D4A0093D0
:1023B0009D495023206822F00BFD9C492B469C4AE6
:1023C000206822F005FD284600F05CFC9949206851
:1023D00022F0FEFCFEE7032000F00EFC20B38D4C43
:1023E0009549206822F0F4FC21F0C6FA21F0C5FAE4
:1023F0009DF820309DF81D0004939DF821308F49F1
:1024000003939DF822308E4A02939DF823300028D2
:1024100008BF0A4601939DF824308A49009320683A
:102420009DF8253022F0D4FC9DF8253008228DF847
:1024300028309DF8243000218DF829309DF8233074
:1024400012208DF82A30FF238DF82B30FE238DF8D3
:102450002C309DF822308DF82D309DF821308DF8EC
:102460002E309DF820308DF82F300AAB11F0A2FDF0
:10247000054610B3674C6849206822F0A9FC6749FB
:10248000206822F0A5FC21F077FA21F076FA644B5F
:10249000644A009364496723206822F099FC6349E9
:1024A0002B46634A206822F093FC284600F0EAFBA2
:1024B0006049206822F08CFCFEE7634C204611F056
:1024C000ABFC054610B3534C5349206822F080FC06
:1024D0005249206822F07CFC21F04EFA21F04DFA9E
:1024E0004F4B504A009350496B23206822F070FCF8
:1024F0004E492B464E4A206822F06AFC284600F0DE
:10250000C1FB4C49206822F063FCFEE71E212078C5
:102510000DF11E0211F0BAFC054610B33D4C3E49C8
:10252000206822F055FC3D49206822F051FC21F042
:1025300023FA21F022FA3A4B3A4A00933A496F23A0
:10254000206822F045FC39492B46394A206822F0A0
:102550003FFC284600F096FB3649206822F038FC04
:10256000FEE7A022009003461146207811F06CFC93
:10257000054610B3274C2849206822F029FC27493A
:10258000206822F025FC21F0F7F921F0F6F9244B20
:10259000244A009324497923206822F019FC234916
:1025A0002B46234A206822F013FC284600F06AFBE1
:1025B0002049206822F00CFCFEE70221207811F06F
:1025C00087FC0546002841D0124C1349206822F0B0
:1025D000FFFB1249206822F0FBFB21F0CDF921F02E
:1025E000CCF90F4B0F4A00930F497F23206822F04C
:1025F000EFFB0E492B460E4A206822F0E9FB2846E5
:1026000000F040FB0B49206822F0E2FBFEE700BF30
:10261000A0000100341200207A010408FC00040824
:1026200080010408010104080A01040819010408D2
:10263000160104082E0104083F010408EE000408F6
:10264000E000040844010408D20C002001460222E4
:10265000207811F051FC054610B38F4C8F4920684B
:1026600022F0B6FB8E49206822F0B2FB21F084F9FB
:1026700021F083F98B4B8C4A00938C498523206889
:1026800022F0A6FB8A492B468A4A206822F0A0FB4A
:10269000284600F0F7FA8849206822F099FBFEE707
:1026A000A02202231146207811F054FC054610B3F5
:1026B000794C7A49206822F08BFB7949206822F016
:1026C00087FB21F059F921F058F9764B764A0093AF
:1026D00076498A23206822F07BFB75492B46754A90
:1026E000206822F075FB284600F0CCFA7249206879
:1026F00022F06EFBFEE72078BF21704A11F014FC37
:10270000044610B3644D6549286822F061FB6449B2
:10271000286822F05DFB21F02FF921F02EF9614BA2
:10272000614A009361498F23286822F051FB604978
:102730002346604A286822F04BFB204600F0A2FAAC
:102740005D49286822F044FBFEE70346CDE900001E
:102750004FF400415A4A5B4822F04CFD05460028E0
:102760003FF40CAE4C4C4D49206822F031FB4C49F3
:10277000206822F02DFB21F0FFF821F0FEF8494BF4
:10278000494A009349499423206822F021FB484993
:102790002B46484A206822F01BFB284600F072FABC
:1027A0004549206822F014FBFEE74368012B7FF4C3
:1027B000E5AD032000F020FA60B1374C42492068B3
:1027C00022F006FB21F0D8F821F0D7F83F49206825
:1027D00022F0FEFABE24394D2F4E3B4FDFF8F48035
:1027E00020F04AF9092390FBF3F303EBC303C01A6B
:1027F00005F8010B032000F0FFF968B13946306895
:1028000022F0E6FA21F0B8F821F0B7F8414615F8C1
:10281000012C306822F0DCFA013CE1D1032000F009
:10282000EBF960B11C4C2849206822F0D1FA21F064
:10283000A3F821F0A2F82549206822F0C9FA244B18
:10284000BF211E4A187811F06FFB054600283FF49F
:1028500095AD114C1149206822F0BAFA1049206850
:1028600022F0B6FA21F088F821F087F80D4B0E4AD5
:1028700000930E49A723206822F0AAFA0C492B46A0
:102880000C4A206822F0A4FA284600F0FBF90A4915
:10289000206822F09DFAFEE7341200207A01040835
:1028A000FC00040880010408010104080A0104086E
:1028B00019010408160104082E0104085C280020F0
:1028C000F5370308941100203F010408790104083A
:1028D000D20C00207C01040810B5274C01F0EEFB5F
:1028E00001F048FE236F23F0070343F0030323673F
:1028F00021F030F9214B00209B6ADB015EBF4FF4D1
:1029000080321F4B9A62D4F8203123F0070343F042
:102910000203C4F82031D4F8283123F0070343F030
:102920000203C4F82831D4F8403123F0030343F004
:102930000203C4F84031D4F8603123F0030343F0BC
:102940000203C4F86031D4F8403223F0030343F0AB
:102950000203C4F84032D4F8003223F0070343F0F6
:102960000203C4F80032D4F8083223F0070343F01E
:102970000203C4F8083210BD008000500040005A25
:102980000060005A30B595B01E4D0DAC0FCD0FC490
:1029900095E80700292384E807001B4A0024CDE9B5
:1029A00002230523CDE904448DF811300623214686
:1029B000102209A88DF8133006942DF0DFF94FF49A
:1029C0008021124B0DAACDE9071309238DF824307D
:1029D0000A238DF825300E4B07A90A9320230B9369
:1029E00001238DF831300B4B0B48009302AB04F000
:1029F0001FFC054621464FF4E13021F000F828463F
:102A000015B030BDAC03040800C0055024C005500B
:102A10001B290020B41100201012002010B5831EC5
:102A2000012B12D8012910D8114B04221B6C05214F
:102A30000020C3F3401301F05FFF0E4B1B681868C2
:102A4000A8B1BDE81040436A18478B1E012B0CD873
:102A500001280CD8BDE810400022054B05211B6C55
:102A60001046C3F3401301F047BF0129E5D910BD5B
:102A700000C00350C80A002008B50449044804F007
:102A8000DBFEBDE80840FFF77DBF00BFC00A0020A5
:102A900008120020014822F00EBB00BF10120020D7
:102AA000014B1A6A18681047101200207FB50024E5
:102AB0000368464A23F47F4323F007039342054605
:102AC0008DF808408DF809408DF80A408DF80B40CC
:102AD0008DF80C408DF80D406DD002F1827293425A
:102AE00071D1B0F80530182B6DD1FF2304A91A4617
:102AF00011E9030020F039FF012814BF41F2FC1452
:102B0000334B4FF0180108BF187004F0FC0228790D
:102B100011F066FA064610B32E4C2F49206822F0B9
:102B200057F92E49206822F053F920F025FF20F0B4
:102B300024FF2B4B2B4A00932B494E23206822F075
:102B400047F92A4933462A4A206822F041F930469B
:102B500000F098F82749206822F03AF9FEE71C4B6C
:102B60001B78002B2FD0287911F012FA054650B3AC
:102B7000184C1949206822F02BF91849206822F0D6
:102B800027F920F0F9FE20F0F8FE154B154A0093C6
:102B900015495423206822F01BF914492B46144A86
:102BA000206822F015F9284600F06CF811492068D9
:102BB00022F00EF9FEE7064B1B7823B104B0BDE806
:102BC000704022F0B9BB04B070BD00BFA000060188
:102BD0003B290020341200207A010408FC0004087C
:102BE0001A040408C80304080A01040819010408A7
:102BF000160104082E0104080B4B02461B788BB10A
:102C00000A4B1B78834234BF00200120084B1B78FD
:102C10003BB1084B1B7843FA02F212F0010F08BFD8
:102C2000002070470120F1E7D30C0020D40C0020D5
:102C30003C290020D50C002008B50122074B1A7052
:102C40000022074B1A700422064B1A701F22064BF3
:102C50001A7004F0E3F8054B186008BDD30C00208F
:102C60003C290020D40C0020D50C00203412002078
:102C7000024B0349186822F0ABB800BF34120020A1
:102C80003A04040870B50C4C0C490646206822F042
:102C90009FF804F0C3F80546206804F0B3F8304606
:102CA000FFF7E6FF284604F0ADF820680449BDE8C8
:102CB000704022F08DB800BF341200203C0404089C
:102CC0003E04040807B5082020F0B8FE02238DF862
:102CD0000030054B6846019320F061FE082003B0E8
:102CE0005DF804EB20F0B6BE006A18102DE9F04143
:102CF00088B0424D01AC0FCD0FC495E8070084E8C1
:102D00000700012401213A2000F094FF3C4E0121EC
:102D1000292000F08FFF3B4B304601A903938DF82B
:102D2000124002F035F8234604220321022001F06C
:102D3000E3FD022122460846002301F0DDFD234683
:102D400021460422022001F0D7FD0422002123465F
:102D5000022001F0D1FD2C4D2C4B05F50058C5F893
:102D600034374FF00213C5F8303703F58033C5F818
:102D700038371C234FF44870C5F8203705F05CFC49
:102D800005F580571420C8F8A04005F055FC232015
:102D9000C7F8A04005F050FCB9213046C8F8A04063
:102DA00020F087FF002303211A460220C7F8A04025
:102DB00001F0A2FD002302211A46084601F09CFD05
:102DC000234621460022022001F096FD00222346E0
:102DD0001146022001F090FD304601F057FF00211E
:102DE0002920C5F83417C5F83017C5F83817C5F8C5
:102DF000201700F01FFF08B0BDE8F081440404086C
:102E000000C0055000127A0000C00350020001000B
:102E100008B500F02DF8124B12498B4212D3002056
:102E2000114B12498B4218D3FFF75EFA186850F81D
:102E30002240586840F82240013298688242F5D317
:102E40000C33EAE70022F8E71C6844F8220001325C
:102E50005C68A242F8D30833E4E70022F8E700BF39
:102E6000A85D0408B45D0408B45D0408B45D0408FA
:102E700010B54FF480414FF0FF30114B114A9A606A
:102E8000D3F8882042F47002C3F888200E4A916675
:102E90000E4901F5005210660D4850660220C3F835
:102EA000D000BFF34F8FBFF36F8F01244FF4403337
:102EB0000848C0F88041D36004600B6110BD00BFBA
:102EC00000ED00E000200108009000500080004468
:102ED000F7FF370000E100E0014B1868704700BFC2
:102EE000D00A0020084B1B6F03F00703022B04D00D
:102EF000032B05D0012B05D0FEE7044B1868704763
:102F0000034BFBE70348704700800050D00A0020C5
:102F1000D40A0020002D310108B5FFF7E3FF054B6F
:102F20001B6FC3F303330133B0FBF3F0024B1860A4
:102F300008BD00BF00800050CC0A00200048704748
:102F400000B4C404014B1868704700BFD40A0020C5
:102F5000054B1860054B1B6F03F00703032B01D1D2
:102F6000FFF7DABF704700BFD40A0020008000508E
:102F700000487047002D31014FF0B4439868C0F30A
:102F800004400C2822D8DFE800F00921212121216A
:102F9000071719211B1D1F000F4870479B6803F07E
:102FA0004073B3F1807F13D0B3F1007F12D00B4A8E
:102FB000002B08BF10467047094870470948704702
:102FC0000948704709487047094870470020704712
:102FD0000848704708487047405DC60000093D003A
:102FE0000024F400C0EA210180BA8C010048E80105
:102FF000005A620280841E0040420F00014B186894
:10300000704700BFD80A002010B54FF000639B6ADC
:1030100003F17842B2F5903F0ED21968094A914205
:103020000AD1094C227812F0FD0F08D1DB699847CC
:1030300008B90123237010BD4FF48170FBE7002015
:10304000F9E700BF07B0CD5E3D2900204FF00053E7
:10305000074A1A60BFF34F8F0649074BCA6802F44C
:10306000E0621343CB60BFF34F8F00BFFDE700BFAB
:1030700002020FF000ED00E00400FA0505490A68BD
:103080001318054883428CBF4FF0FF320B60104687
:10309000704700BFDC0A00200000042010B50121A9
:1030A0003A2000F0C7FD012304220321002001F093
:1030B00023FC002020F089FD0122314B3149C3F867
:1030C00044244FF40022A3F550335A66D1F8FC2073
:1030D0002C4C12F080721EBFD1F8FC3023F08073AC
:1030E000C1F8FC302849D1F8803023F0030343F0C5
:1030F0000203C1F880302AB1D4F8FC3043F0807369
:10310000C4F8FC304FF4607000F0B0FDD4F8F0303B
:103110001E4A43F00103C4F8F030D4F8FC3000F547
:10312000D52043F08073C4F8FC30194B00F2FC400A
:103130001A60184B0222B0FBF3F0174B01381861EC
:10314000C3F8F0204FF48072C3F804234FF06043BB
:10315000124A0020C3F8B02F114AC3F8802ED3F8CA
:10316000002E42F48072C3F8002EFF2283F8202044
:10317000D3F8002E22F48072C3F8002E10BD00BFD9
:1031800000D0035000ED00E000800050FF0300403D
:10319000001000E0F8590D00000004E055CEACC569
:1031A0000900010030B54FF06043D3F8802ED207FC
:1031B00015D501240B4D8440D5F8FC2042F08072D7
:1031C000C5F8FC20D3F8002E2243C3F8002E53F894
:1031D0002020002AF0D003F82010002030BD11205C
:1031E000FCE700BF00ED00E02DE9F04F85B09A4606
:1031F000554B06461B780F461546DDF83C909DF86A
:1032000044B0DDF85080002B00F08D80072A00F2DA
:103210008C800E9B002B00F08880B9F1000F00F02D
:103220008480129BB3F5006F7FDC012802D1109BD4
:10323000002B7AD0454B03EB05131B7B002B76D07C
:10324000434C1022002168462CF098FD04EB4514F5
:103250001022002F59D1394620462CF08FFD43F221
:1032600010036380BBF1000F03D1E37843F0030345
:10327000E370374A0E9B02EB451CCCE90193129B8D
:103280006901013BC3F30A009DF84C30012E03F0A5
:1032900003034FEA836343EA001E53582D48CDF8D9
:1032A00000A000EA03004EEA0003535041D113236B
:1032B0000CF1100ECCF80C309CE80F008EE80F00DB
:1032C0006FF00301DCF81C20109B61F39F02012FBB
:1032D000CCF81C20CCF8143003D1CCF81890CCF8E2
:1032E00004300027194A290102EB051342F8018036
:1032F000159A28465A60694622469F605E7301F01F
:1033000099FB384605B0BDE8F08F002120462CF02F
:1033100035FD4FF444736380BBF1000FA9D1E3780E
:1033200043F03003A4E70C48ECE70C48EAE70C480C
:10333000E8E7B8F1000FD4D19CF8023068F3041329
:103340008CF80230CDE700BF3E2900203812002063
:10335000B81200200F80FFF3028000F0018000F01F
:10336000078000F038B5124B05461B78DBB1E0B1A1
:1033700020F00CFC0F4A00231146147B54B92B603B
:1033800001251A0101EB03131D738C5020F004FC7E
:10339000204638BD0133082B02F11002EDD120F098
:1033A000FBFB0548F5E70548F3E70548F1E700BFF3
:1033B0003E29002038120020048000F0028000F036
:1033C000018000F013B520F0E1FB00230B4A147BD1
:1033D0007CB90133082B02F11002F8D1019001F001
:1033E000CBFA074B01981C7020F0D6FB204602B0A8
:1033F00010BD20F0D1FB0348F9E700BF38120020D0
:103400003E290020058000F010B50D4B04461B78C6
:1034100093B1072812D820F0B9FB0A4B03EB041331
:103420001A7B2AB100241C7320F0B6FB204610BD85
:1034300020F0B2FB0448FAE70448F8E70448F6E74E
:103440003E29002038120020068000F0028000F0A3
:10345000018000F013B5154B1868002301908DF81A
:10346000043020F093FB124B1C7824B120F094FB25
:10347000104802B010BD01221A7020F08DFB0E4BD7
:1034800001A81C731C7783F82C4083F83C4083F818
:103490004C4083F85C4083F86C4083F87C40082300
:1034A0008DF8073001F094FA2046E2E7B0040408F2
:1034B0003E290020038000F03812002008B50A4A97
:1034C00012785AB107280BD8084A02EB00131B7B6D
:1034D00043B1002101F06EFA002008BD0448FCE76A
:1034E0000448FAE70448F8E73E2900203812002093
:1034F000028000F0018000F0078000F008B50A4A61
:1035000012785AB107280BD8084A02EB00131B7B2C
:1035100043B1012101F04EFA002008BD0448FCE748
:103520000448FAE70448F8E73E2900203812002052
:10353000028000F0018000F0078000F008B50A4A20
:10354000127852B107280AD8084A02EB00131B7BF5
:103550003BB101F0BDFA002008BD0548FCE7054875
:10356000FAE70548F8E700BF3E290020381200209E
:10357000028000F0018000F0078000F00D4B1B7806
:1035800093B1072812D889B10B4B03EB00131B7BB7
:1035900073B10A4B1A6D012303FA00F010401ABFF1
:1035A00000200B7008707047054870470548704749
:1035B000054870473E2900203812002000000450C2
:1035C000028000F0018000F0078000F010B50B4A87
:1035D0000C46127862B107280CD859B1084A02EBA0
:1035E00000131B7B43B101F085FA2070002010BD51
:1035F0000448FCE70448FAE70448F8E73E290020BD
:1036000038120020028000F0018000F0078000F0F6
:103610002DE9F0471F4B204C1F6D5A6D174010D5F8
:103620004FF000411D4A1165D868C0F30420030122
:10363000E35804EB00125BB3BDE8F0470021526889
:10364000184701260025DFF85480DFF854903742F0
:1036500017D02368C8F850609BB1A1682846013193
:103660006268A1609847637B012B0AD148B909EBD6
:1036700045131A7B60F341021A731A7F60F341020B
:103680001A770135082D4FEA460604F11004DED101
:10369000BDE8F087000004503812002000200450DC
:1036A000B8120020024B1968024B186817F05CBC76
:1036B000E40A0020E00A002037B5920004460D46D7
:1036C00001922CF0FDFC431C0BD060B9294620462A
:1036D000019A2CF01CFB0028044808BF002003B00E
:1036E00030BD0348FBE70348F9E700BF10E000F0F6
:1036F00021E000F024E000F010B504462CF0E8FCD6
:10370000431C10D088B901F087FA234620F003004B
:103710002044984201D1002010BD53F8042B0132FF
:10372000F7D00348F8E70348F6E70348F4E700BF9B
:103730000EE000F021E000F024E000F008B520F0F9
:103740001EFA014B186008BDF8190020014B1868DB
:1037500020F019BAF8190020044BD3F88420D206BF
:10376000FBD4D3F88400C0F38110704700400050B0
:1037700038B5104B0546D3F880300C4603F00303F0
:10378000022B0BD0032B0DD0012B0FD1FFF7AAFB7F
:103790000E2305B1286004B1236038BDFFF7ECFBB0
:1037A0000723F6E7FFF798FB0623F2E70023184606
:1037B000EFE700BF0080005038B5184B0546D3F83E
:1037C00020010C4600F00700062805D8DFE800F0CD
:1037D000230B0F17131B1F000023184605B1286089
:1037E00004B1236038BDFFF777FB0523F6E7FFF749
:1037F000A9FB0323F2E7FFF7BFFB0723EEE7FFF781
:10380000B7FB0223EAE7FFF767FB0623E6E7FFF7CC
:1038100099FB0423E2E70123E0E700BF00800050AA
:1038200038B5174B0546D3F828310C4603F007038B
:10383000013B052B20D8DFE803F003131B0F0B1708
:10384000FFF74AFB052305B1286004B1236038BDAA
:10385000FFF742FB0623F6E7FFF78EFB0723F2E7AD
:10386000FFF770FB0323EEE7FFF76CFB0423EAE7A7
:10387000FFF77EFB0223E6E700231846E3E700BFDD
:103880000080005073B50D460021114B0191D3F813
:103890008041064604F00304022C13D0032C0CD004
:1038A000012C13D101A8FFF787FF10240EB1019B53
:1038B000336005B12C6002B070BDFFF75DFB0724DB
:1038C0000190F3E7FFF754FB0190EFE70C46EDE7BB
:1038D0000080005037B500230193164B0546D3F8FE
:1038E00020320C4603F00703042B04D8DFE803F072
:1038F000200B11161B0000230DB1019A2A6004B1A0
:10390000236003B030BD002101A8FFF789FF122317
:10391000F2E7FFF731FB07230190EDE720F081F894
:103920000A230190E8E7FFF769FB09230190E3E729
:103930000123E1E70080005038B5104B0546D3F86D
:1039400040310C4603F00303022B0BD0032B0DD0A8
:10395000012B0FD120F065F80A2305B1286004B1CE
:10396000236038BDFFF74AFB0923F6E720F05CF837
:103970000C23F2E701230020EFE700BF0080005096
:1039800037B500230193164B0546D3F860320C4639
:1039900003F00703013B032B1FD8DFE803F0020EFF
:1039A0001914002101A8FFF707FF10230DB1019A98
:1039B0002A6004B1236003B030BD002101A8FFF7E5
:1039C000BBFF1123F2E7FFF7D7FA07230190EDE7DA
:1039D000FFF7CEFA02230190E8E70023E6E700BFF5
:1039E0000080005037B500230193164B0546D3F8ED
:1039F00094320C4603F00703013B032B1FD8DFE88A
:103A000003F0020E1914002101A8FFF7D5FE1023C0
:103A10000DB1019A2A6004B1236003B030BD0021CA
:103A200001A8FFF789FF1123F2E7FFF7A5FA0723A3
:103A30000190EDE7FFF79CFA02230190E8E70023ED
:103A4000E6E700BF0080005038B5144B0546D3F8B8
:103A500000020C4600F00700042804D8DFE800F05C
:103A60001B0A0E1216000023184605B1286004B187
:103A7000236038BD1FF0D5FF0A23F6E7FFF7BEFA33
:103A80000923F2E71FF0D0FF0C23EEE7FFF744FA1B
:103A90000F23800AE9E70123E7E700BF0080005019
:103AA00038B5144B0546D3F808020C4600F0070061
:103AB000042804D8DFE800F01B0A0E1216000023C9
:103AC000184605B1286004B1236038BD1FF0A9FF76
:103AD0000A23F6E7FFF792FA0923F2E71FF0A4FFA3
:103AE0000C23EEE7FFF718FA0F23800AE9E701231A
:103AF000E7E700BF0080005038B5104B0546D3F80B
:103B000040320C4603F00303022B0BD0032B0DD0E5
:103B1000012B0FD11FF085FF0A2305B1286004B1E6
:103B2000236038BDFFF76AFA0923F6E71FF07CFF30
:103B30000C23F2E701230020EFE700BF00800050D4
:103B400038B5104B0546D3F860310C4603F003033B
:103B5000022B0BD0032B0DD0012B0FD11FF061FFD7
:103B60000A2305B1286004B1236038BDFFF746FA87
:103B70000923F6E71FF058FF0C23F2E7012300208A
:103B8000EFE700BF00800050B0F5207F1FD009D8BC
:103B9000B0F5007F15D003D868B1B0F5C07F0AD06A
:103BA00000200CE0B0F5607FFAD10B4BD3F8800019
:103BB000C0F3011003E0084B186FC0F3033001306D
:103BC0007047054BD3F89000C0F30460F7E7024B51
:103BD000186FC0F38020F2E70080005010B5024655
:103BE0004FF480300F4B98660020FFF7CDFF504315
:103BF00041F671320C4BDC69DA635A6804F48034A4
:103C000022F4401259B9094988428CBF4FF4801000
:103C10000020104358600CB10022DA6310BD044943
:103C2000F2E700BF0090005000000350005A62020B
:103C3000002D3101430905D0012B0DD0022B094B7A
:103C400018BF002300F01F0041B103F5805301228B
:103C500002FA00F018607047034BF3E703F50053D6
:103C6000F5E700BF68800050648000501FB5002158
:103C700080280446CDE9001100F0A58035D85E28E3
:103C800046D85E2844D8DFE800F0A24343434343CC
:103C900043434343434343434343434343434343F4
:103CA00043434343434343434343A2AAA2AAB9B96C
:103CB000B9B9B9AAC34DD9714DAAAAAA434343437E
:103CC00043434343AAAAAA79E3AA43434343434352
:103CD00043434343434343B9A2A2A2DE4D4DE88888
:103CE0005EBE434343434399A200B0F5B06F00F07A
:103CF0008F802DD8B0F5207F71D00CD8B0F5C07F63
:103D000065D0B0F5007F65D0B0F5807F00F085808C
:103D1000009804B010BDB0F5607F6AD00DD8B0F542
:103D2000407FF5D1FFF7F8F802464FF42070FFF717
:103D30002BFFB2FBF0F0400847E0B0F5806F5DD09C
:103D4000B0F5A06FE4D100216846FFF7C3FDDFE7BF
:103D5000B0F5106F77D016D8B0F5E06F78D00AD8EC
:103D6000B0F5C06F6AD0B0F5D06FD1D100216846F0
:103D7000FFF76AFECCE7B0F5F06FC9D100216846C5
:103D8000FFF7DEFEC4E7B0F5406F3CD013D8B0F5C6
:103D9000206F62D0B0F5286FBAD10021314B03916A
:103DA000D3F8703203F00303012B02D103A8FFF70D
:103DB000C3FD039B3BE0B0F5486FA9D100216846E5
:103DC000FFF710FEA4E7FFF78DF80090A0E7FFF7DC
:103DD000A3F8FAE7FFF786F80246204604E0FFF76B
:103DE0009BF802464FF42070FFF7CEFEB2FBF0F0D6
:103DF000EBE701A8FFF7BCFC019AEEE7002168465B
:103E0000FFF7DAFC84E700216846FFF709FD7FE74A
:103E100000216846FFF736FD7AE74FF0E023029174
:103E20001B695B0705D5FFF777F80290029B0093AB
:103E30006EE703A902A8FFF77FFDF7E700216846B8
:103E4000FFF77AFD64E700216846FFF729FE5FE788
:103E500000216846FFF750FE5AE700216846FFF749
:103E60008FFD55E70080005008B58020FFF7FEFE6B
:103E7000034B98429EBF4FF48032024B1A6708BD35
:103E8000005A620200A000501FB50023B0F5807FE9
:103E9000019300F0C38064D85D2855D84C2807D81A
:103EA0002D2847D823282BD8019805B05DF804FBAE
:103EB0004D381028F8D801A353F820F0134001081A
:103EC000A93E0108A93E0108A93E0108C53F010815
:103ED000A93E0108A93E010899400108E33F0108F5
:103EE000893F01088F400108A93E0108A93E010849
:103EF000A93E0108A93E0108A93E0108A340010806
:103F000024380928D0D801A353F820F01340010821
:103F10001340010813400108134001081340010831
:103F2000A93E010809400108A93E0108A53F010872
:103F3000494001083D2800F082803E28B4D100208D
:103F400001A9FFF7D9FDAFE78028ADD15A4B1B6F10
:103F500003F00703013B032BA6D8DFE803F053501F
:103F6000878FB0F5F06F6AD021D8B0F5B06F4BD025
:103F70000FD8B0F5607F00F0858095D3B0F5806FE5
:103F800047D0B0F5A06F8FD1002001A9FFF7A2FCA8
:103F90008AE7B0F5D06F57D0B0F5E06FCFD0B0F56D
:103FA000C06F81D1002001A9FFF7C6FC7CE7B0F506
:103FB000206F71D00BD8B0F5086F4AD0B0F5106FF4
:103FC0007FF472AF002001A9FFF76AFD6CE7B0F53E
:103FD000406F5CD0B0F5486F63D0B0F5286F7FF4C8
:103FE00063AF0021344B0391D3F8703203F0030325
:103FF000012B5BD0022B14BF0B46152300E00523D9
:10400000019351E70223FBE7002001A9FFF73AFCE7
:104010004AE7002001A9FFF7CFFB45E702934FF0E5
:10402000E0231B695B0705D5FEF776FF0D2303939D
:10403000039BE5E703A902A8FFF77EFCF8E7002051
:1040400001A9FFF77DFD2FE7002001A9FFF7FCFC88
:104050002AE7194BD3F8003103F00303022B07D0F2
:10406000032B09D0012B0BD1FEF76CFF0323C7E70D
:10407000FEF7C4FF0923C3E71FF0D1FC0823BFE705
:104080000123BDE7184601A9FFF772FB0CE70020EA
:1040900001A9FFF7C5FB07E7002001A9FFF770FCA6
:1040A00002E7002001A9FFF79DFCFDE603A8FFF74A
:1040B00043FC1123A4E700BF008000504FF480129E
:1040C000034B5A664FF48032024B9A62704700BF2E
:1040D000009000500050005A08B5FFF7D5FE09289F
:1040E00011D00A38012811D84FF48002094B4FF63D
:1040F000FF705A6603F5D8335B6A13F0010F18BFDF
:104100004FF4FA7008BD044B1888FBE74FF6FF70B8
:10411000F8E700BF00900050C00C002038B50446FE
:104120008020FFF7B1FE032800F08A804FF4801250
:10413000544B4FF0A0615A6645F60E03524AC2F83E
:104140008030524B99624FF4803103F5805399626D
:10415000936DD903FCD4916D11F08041FBD1D4E96A
:1041600000031B0543EA0063E07B0343207B43EA33
:104170000043607B43EA0033A07B43EA8013136172
:104180009069D4E904531B0643EA856300F00040BC
:104190000343A07EE57E0343207E43EA0043607E26
:1041A00043EA00239361E069136A00280CBF0022F0
:1041B000082223F00F0343EA000343EA850343EA9E
:1041C0000203314A324D13623BD194F82430916A94
:1041D00094F82000DB000D4043EA401394F82110CE
:1041E0002B4343EA011343F480339362294B916DCF
:1041F00033EA0101FBD14FF08071244881621369D9
:10420000A56823F4700343EA055313614FF000439C
:10421000836194F822300BB91F4B996294F82330D4
:104220003BB94FF480321C4B9A62174A936D5B0086
:10423000FCD494F825301BB1134B184AC3F88020E6
:1042400038BD022808D11161154891614FF4085218
:104250004FF47F411FF05AFC0B4994F822308A6AD0
:1042600094F820001B06154043EA401394F82420DC
:104270002B4343EAC20394F8232043EA02438B62B0
:10428000D7E700BF009000500040005A0050005A8D
:10429000C7FFFEFE030001000060005AF1A7FFFF08
:1042A0003440005A37B5194CA26AA36D13F4803F0D
:1042B00018BF4FF48031164B18BF99624FF08071D0
:1042C0009962144BA56993F9003025F47F050344E6
:1042D000000280B225F47F4583F30803284340EAB7
:1042E0000340A0610C4801921FF010FCA36D019ADD
:1042F00013F4803F07D04FF48031074803B0BDE886
:1043000030401FF003BC03B030BD00BF0040005A76
:104310000050005AD60C00202840005A014B93F957
:1043200000007047D60C00204FF48033114812492A
:10433000826A8B62836D03F00303032BFAD14FF083
:1043400080738B620B4B0D49986D31EA0000FBD1F5
:10435000012009490865996D8907FCD4054B996DC1
:104360008807FCD5996D8907FCD5054905481FF0DC
:10437000CDBB00BF0040005A0050005A03000100AE
:10438000000001012840005AF0B54FF40006D0E9C2
:1043900001431A4A4178057856664FF4D1560227F0
:1043A00002F5B8325662164E4F2977604FF001077A
:1043B00028BF4F2106F5805677601669F603FCD4B6
:1043C00041EA052151611B01417B43EA04230B4370
:1043D000017B43EA41039360C37B817B1B0143EA7A
:1043E0004113417C0B43017C43EA41035360837CCE
:1043F00013B16FF4D1535362F0BD00BF0090005071
:1044000000100250014B1880704700BFC00C002004
:10441000014B1880704700BFBE0C002008B54FF458
:104420008002184B5A660223174A5360936813F4AC
:104430008033FBD1012822D1FEF784FD134B984233
:1044400015D003F5122303F5F863984213D0104BEF
:1044500000EB8002400AB3FBF0F0520A0A4BDA622A
:10446000012218635A620022074B5A6008BD45F6C4
:104470007A10084AF2E745F61A00074AEEE7536257
:10448000F1E700BF009000500040025000F04902E8
:1044900064666666D8B80500BBCF050010B5B0F5F8
:1044A000207F0C4657D008D8B0F5007F48D003D8FD
:1044B00030B3B0F5C07F23D010BDB0F5607FFBD125
:1044C00029492A48D1F8FC2012F080721EBFD1F889
:1044D000FC3023F08073C1F8FC30D0F88030611ECE
:1044E00023F0300444EA0114C0F88040002AE3D0ED
:1044F0001D4AD2F8FC3043F08073C2F8FC30DBE791
:104500001FF015FB1FF021FB4FF48031184B174AA9
:104510001967136F611E23F4704444EA0134146771
:10452000FEF7FAFC0446FFF717F9C0F10201204636
:104530001FF005FB00F02EF8BDE81040FFF794BC1B
:104540000A4A0139D2F8903023F0F85444EA016461
:10455000C2F89040B0E7054B013C196F21F480612F
:1045600041EA84241C67A7E700ED00E000800050CA
:104570000090005008B50121022000F071F81FF0F2
:10458000D6FA1FF0E2FA4FF48032014B1A6708BDE9
:104590000090005008B54FF4C070FFF767FBBDE80E
:1045A0000840044988428CBF022101214FF4207049
:1045B000FFF774BF80F0FA02034B5868C0F308009D
:1045C000003818BF0120704700ED00E0024A536B2D
:1045D0000342FCD1704700BF00400950044A4178B3
:1045E000536F23F4407343EA01235367704700BFBE
:1045F0000040005010B50A4A0446136943F0040312
:10460000136103F045FB1FF0CAFA30BF1FF0C8FA70
:1046100003F078FB1CB9BDE81040FEF77DBC10BD6F
:1046200000ED00E010B5084A0446136943F00403A6
:10463000136103F02DFB30BF03F064FB1CB9BDE830
:104640001040FEF769BC10BD00ED00E0034A01799F
:10465000D36E23F030030B43D36670470040005005
:10466000F8B504461C4BD3F88420D106FBD4D3F80C
:104670008430C3F381139C422CD0FEF733FC012C11
:10468000064602D121461FF05AFA1FF078FA4FF081
:104690000072124B07465A6620461FF084FA4FF408
:1046A00080630D4D621E93402B676B6E9A0103D49D
:1046B000D5F884309B060AD538461FF064FA022CE0
:1046C00008D13046BDE8F84000211FF038BAD5F8CF
:1046D0008430EAE7F8BD00BF0040005000600050A1
:1046E00007B518B90191FEF7FDFB0199064B1B7840
:1046F00043B1064B984205D8012003B05DF804EBA6
:10470000FFF7AEBF0220F8E73F290020005A6202FF
:10471000034B0278012100201A70FFF7E1BF00BFB0
:104720003F29002038B54FF00042244B244C5A66F4
:104730004AF6CD33656C014605F00105236430BBB4
:104740000120FFF743FF6368DB0708D4002415B19D
:104750001B4B1C4A1A642AF08FFE204638BD1A4BA8
:1047600058600846194B226BD20705D4984201D1F4
:104770000724ECE70130F6E79842E7D1F8E7013289
:10478000236B13F0080305D08A42F8D1F0E700222A
:104790000E49F5E78A42EBD020210B4A91620121B4
:1047A000A2F5805251600649084A886A800603D4FF
:1047B0009342DDD00133F8E79342DEE700900050EA
:1047C000004009503254FFFF0060095040420F0082
:1047D00038B54FF00042164B01465A664AF6CD33C3
:1047E000144C154A656C236443780B205B0043F03E
:1047F0000103D363FFF7EAFE63688A7823F4F87352
:1048000043EA02136360CA784B7943EA0223A36048
:104810000A798B7943EA022323610878FFF782FF44
:10482000EB0744BF054B23642AF026FE012038BD68
:104830000090005000400950004000503254FFFFEB
:1048400070B54FF00042124B04465D6E03F5805385
:104850005A664AF6CD330F4980204E6C0B64FFF741
:10486000B5FE0B6A23F00F030F2C94BF234343F0D4
:104870000F030B62F30744BF074B0B64002DA2BF6D
:104880004FF00042054B5A662AF0F6FD70BD00BF9E
:1048900000800050004009503254FFFF00A000503B
:1048A00070B54FF00042104B04465D6E03F5805327
:1048B0005A664AF6CD330D4980204E6C0B64FFF7E3
:1048C00085FE0B6A23F4F85343EA04230B62F307D3
:1048D00044BF074B0B64002DA2BF4FF00042054BB5
:1048E0005A662AF0C9FD70BD008000500040095092
:1048F0003254FFFF00A000502DE9F04105460F465D
:104900001E4690464AB101233022194C8B4002FBCF
:1049100000443EB304F5825423600F21072F05EBBA
:10492000450388BFA7F108044FEA0313114895BF58
:10493000BC00A40004330C3308FA04F2A14018446C
:104940001FF032F9B8F1000F0AD101213020084AD6
:1049500001FA07F700FB05223EB102F5825217600B
:10496000BDE8F08104F50154D6E702F50152F6E7FF
:1049700000C0035030C0035010B54FF400120B4B71
:10498000C3F88020BFF34F8FBFF36F8F0024FF2247
:10499000074B21465C6520209A625C60FFF74AF96C
:1049A0002146BDE810402120FFF744B900E100E0B6
:1049B00000000450044A054B002918BF1346012289
:1049C00002FA00F018607047402004504010045074
:1049D00010B5012104462020FFF72CF901212120E8
:1049E000FFF728F90122114B5A60227812069A60CB
:1049F0006178A27842EA01429A61FF229A6200221B
:104A00009A631A644FF000425A654FF0FF324FF438
:104A1000001103F500531A65054AC2F88011E378C6
:104A20001B01DBB282F81533116010BD0000045089
:104A300000E100E02DE9F0410125C3B2D1F800808A
:104A400091F80AC00F7B91F80DE09D400C46CB7A9F
:104A50001C491D4E0D65810001F1A04101F5882121
:104A6000C1F80480302101FB00601B0543EA0C43C0
:104A700043EA475322F00302C0F860E0C3650267CF
:104A80001FF084F8736D2B437365237A13B1336C75
:104A90002B433364637A13B1B36B2B43B363227933
:104AA000A37943EA0243074A93616179E37943EAD0
:104AB000014306498B61044B55639D64BDE8F04199
:104AC0001FF06AB800200450000004500010045089
:104AD00010B50124C0B284401FF058F8044B5A6D41
:104AE00022EA04025A659C62BDE810401FF054B8E7
:104AF0000000045010B50124C0B284401FF046F8F5
:104B0000074BDA6A224209D15B6B34EA03030CBF1C
:104B1000012400241FF040F8204610BD0024F9E7CE
:104B2000000004504FF48032054B9A6641F6713212
:104B300003F51C33DA63012203F50053DA60704792
:104B40000090005041F671320121064BDA6303F503
:104B50000052D1600022DA634FF48032A3F518339B
:104B60009A66704700000350013831289ABF024B03
:104B7000185C0020704700BFD804040810B5C2F3C9
:104B80000623044602F0070241B942EA03220B4B16
:104B900042F44022063443F8242010BD1846114642
:104BA0001FF014F801461846FFF7DEFF034B41EAF9
:104BB0000020163443F82400EFE700BF00800350C4
:104BC0004FF48032064B5A6603F5E6239B69C3F324
:104BD0008512827003F03F021B0B42700370704716
:104BE0000090005040F6B732064B5B689BB2934290
:104BF0009FBF4FF47A72B3FBF2F3034AD05C88BFD5
:104C0000002070470080E00F0A050408014B986CF3
:104C1000D96C70470080E00F0120034B9B680A337A
:104C200003F01F03984070470080E00F70B5054601
:104C300016461C4621B94FF42070FFF717F80146BD
:104C4000402C1BD003D8DCB1202C1BD070BD602CB5
:104C5000FCD1042303FB06F2560806EB4113B3FB19
:104C6000F2F3094A203B02EAC303AA6822F0600279
:104C7000AA60AA681443AC60EB61E7E70623E9E7A2
:104C80001023E7E70823E5E7F8FF7F0010B50121CF
:104C900000F58053596040F6AA6341F20502436172
:104CA0000023094C8360C365C26000F500520361B4
:104CB000C361C3649464054C8365A04204BF03656B
:104CC0004365516010BD00BFFFFF010000C00550EB
:104CD00070B50D46FFF7DAFF012300F580567360CB
:104CE000AB7C04461BB1836843F080438360EB7C5C
:104CF0005BB1244B9C4202BF2A7DA3F51033C3F85D
:104D0000C821E36D43F08003E3652A8A6B7B20466C
:104D10001343EA891343E3602B7BD5E90112FFF7C4
:104D200085FF6B7D1BB1A36843F48033A360AB7D2B
:104D30001BB1A36843F40043A360EB7D2A7E1B07ED
:104D4000120502F4E00203F0E0431343A3656B7E17
:104D50009A1E012A4FF0020209D80B49032BC1F811
:104D6000202709D10423F3652B78636170BD0749BF
:104D7000012BC1F82027F4E7042204F50053DA657B
:104D8000F2E700BF00C0055000D0035000E0035020
:104D900038B50D46FFF77AFF0122A97B00F5805355
:104DA0005A602A8A8368002914BF4FF48061002169
:104DB00042F0010213432A7D0B43002A14BF4FF037
:104DC0000052002283608368044613438360AB7CF7
:104DD0005BB1194B984202BFEA7CA3F51033C3F8CC
:104DE000C821C36D43F08003C3652B7B2046D5E902
:104DF000011243F48053E3601EF03CFF6B7B0BB168
:104E0000102363616B7D1BB1A36843F48033A360FF
:104E1000AB7D1BB1A36843F40043A360EB7D2A7E06
:104E20001B07120503F0E04302F4E0021343A365FD
:104E30002B78636138BD00BF00C00550054B9A68F0
:104E40009107FCD45A689207F9D4DA69002AF6D19E
:104E5000704700BF00800A5008B5FFF7EFFF01223E
:104E6000024B03F580514A601A6108BD00800A5068
:104E7000074B5A68012A0AD15A68D20702D5DA6963
:104E8000002AF9D102221A610122024B5A607047AE
:104E900000800A5000A00A5010B5064CFFF7CEFF64
:104EA0006368012B03D1FFF7E3FFFFF7C7FF037828
:104EB000E36010BD00800A50E8B94A680B7812B16F
:104EC000127843EAC2034A78002A14BF0222002261
:104ED00013438A6812B1127843EA82138A78002A4F
:104EE00014BF042200221343CA6812B1127843EAA5
:104EF0004223014A9364704700800A5008B9014B6D
:104F00005964704700900A5008B9014B59647047C2
:104F100000A00A5008B9014B1964704700A00A505C
:104F200010B9024B186C70470020704700800A507F
:104F300048B911B1012903D07047044BD86C7047B0
:104F4000024B186D70470020704700BF00800A5068
:104F500040B911B1012903D07047034BDA6470479F
:104F6000014B1A65704700BF00800A5010B9024B10
:104F7000586D70470020704700800A5038B50446CD
:104F8000054D2AF09FFA0FCC0FC594E8030085E881
:104F90000300002038BD00BFAC1A0020F0B547F672
:104FA000FF739A4266D0012966D8344DCF0015F8B8
:104FB000313005EBC100012B847813D10025C37873
:104FC0001B1B9D4202D3E018C0B2F0BD591B4668BE
:104FD000A3EB510136F911609642D4BF0D4601F1A1
:104FE000FF33EEE740680028EFD0B0F9003093427D
:104FF00004DBB0F902309342B8BF134682883D44C7
:10500000FF2A19BFC8214FF0280CB0F90610B0F9DB
:1050100008C0A1EB03020CBF0126002692FBFCF2A4
:105020006D78324412B2954201DD002A01DA6A1E1F
:1050300012B24FF47A7700EBC206F188B6680132FB
:1050400013FB016112B221EAE1715C319542B1FBBF
:10505000F7F104DD00EBC206B6888E42EBD200EB1E
:10506000C20232F8040C884228BF0846A04238BF6A
:105070002046A9E7FF20A8E70020A6E7AC1A0020F9
:10508000F0B5012953D82B4800EBC10410F83110BA
:10509000636801290FD1E078A478904294BFC4EBF3
:1050A0000001C4EB0201001BCAB28242C8BF002249
:1050B00033F91200F0BD002B39D0A178914202D310
:1050C000B3F90200F6E7E178B3F900009142F1D9B3
:1050D00099886478A1F1FF06013C714203F104054F
:1050E000E4B2714103F10C071FFA82FCCEB2B44264
:1050F00016D805EBC1014FF47A756A43B1F9024045
:105100004968521A04EBD47102EB610292FBF4F28B
:105110009042CFDBB3F902009042CBDC10B2C9E77A
:1051200037F831E04E1CE645E3D33146DEE702486E
:10513000C0E700BFAC1A00200080FFFF0148FFF766
:105140001DBF00BF1005040800487047C20C0020B6
:105150007FB50222084B0949CDE901234FF00073C6
:10516000CDE90313072301A94FF0FF3005932AF07F
:10517000E1F907B05DF804FB006A180000020600C0
:1051800008B5B0B14FF480620B4B9A661EF054FD27
:105190004FF098435A6CD202FCD54FF48062586DA0
:1051A000064B10F470209A6604D0BDE808401EF04B
:1051B00097BD212008BD00BF0090005000A0005006
:1051C0002DE9F0418CB08846DDE912761D46044693
:1051D000002847D0002945D0002F43D0002E41D0D1
:1051E00013F00F033ED120482049A360002A18BFC6
:1051F0000146E361C4E90013404609A91EF064FEBC
:1052000068BB204609991EF00EFD294620461EF077
:105210000AFD6946404600F0E7FA00BB69462046B1
:105220001EF0EDFC404603A91EF01CFFB8B9204655
:1052300003A91EF0E4FC06970127204645F000551F
:1052400006A9079708951EF0DAFC204609A90996D9
:105250000A970B951EF0DDFC2046FFF791FF0CB07E
:10526000BDE8F0812120FAE70001010400010004FB
:105270002DE9F0438DB0884615461C460746DDF8FB
:105280005090002850D000294ED0002A4CD0B9F1BF
:10529000000F49D00B68103B102B45D8012606FAA9
:1052A00003F303F0013323F08073002B3CD0002381
:1052B0001E4A8360C0E90023C36109A940461EF06D
:1052C00003FE70BB384609991EF0ADFC21463846F6
:1052D0001EF0A9FC6946404600F086FA08BB694604
:1052E00038461EF08CFC404603A91EF0BBFEC0B938
:1052F000384603A91EF083FC44F00054384606A942
:105300000695079608941EF07AFC094B384609A9C1
:10531000CDF824900A960B931EF07BFC3846FFF7DD
:105320002FFF0DB0BDE8F0832120FAE70000040450
:1053300010000020F0B595B00C4617461E460546F5
:10534000002874D0002972D0002A70D0002B6ED0B3
:10535000036B0F2B5BD80023364A3846C4E9002381
:10536000A360E36111A91EF0AFFD00285BD12046C8
:1053700011991EF058FC296B20460F2984BF01F0BB
:105380000F0110311EF04FFC384602A900F02CFA34
:10539000002848D1204602A91EF031FC384605A954
:1053A0001EF060FE00283ED1204605A91EF027FC15
:1053B0000122214B089509920A932B6B05F11000ED
:1053C00003F00F0141F000510B900F2B0C920D9147
:1053D0000E900F9243F00052109226D90A9B08A912
:1053E00023F0005320460A931EF009FC0BA9204627
:1053F0001EF005FC0123119612930F4B204611A9B4
:1054000013931EF006FC2046FFF7BAFE0BE000F1F6
:105410002003019000930122102339462046FFF714
:10542000CFFE002897D015B0F0BD0EA9DFE72120F0
:10543000F9E700BF00000404100000202DE9F04F40
:105440009BB00D46914698460646DDF890A0002890
:1054500000F0B380002900F0B080002A00F0AD8099
:10546000002B00F0AA80026B02EB0A031B09B3EBCE
:10547000121F02F00F0700F098800023504A8B6043
:10548000C1E90023CB61484617A91EF01DFD044663
:10549000002840F0868007EB0A0323F00F0B284614
:1054A000179900931EF0BFFB594628461EF0BBFB20
:1054B000484602A900F098F90446002871D1284610
:1054C00002A91EF09CFB484605A91EF0CBFD044630
:1054D000002866D14FF00109284605A91EF08FFB70
:1054E000384A284608A90896CDF824900A921EF05A
:1054F00086FB47F00051ABEB070706F1100347F0BE
:1055000000570B93CDF830900D91CDF83880CDF841
:105510003C9010970D99284621F000510D910BA950
:1055200001931EF06CFB28460EA91EF068FBABF140
:105530001001244A41F000511194CDF84890139184
:1055400006F120011491CDF8549016921399284633
:1055500041F080411391139921F00051139111A949
:105560001EF057FB284614A91EF053FB154A17A935
:1055700028461796CDF8609019921EF04AFB2846EF
:10558000FFF7FEFD009B0446ABEB0301A3EB0B0210
:10559000019B5144184641442AF0C9FB336B5344E4
:1055A000336320461BB0BDE8F08F103052464146B1
:1055B00038442AF0BCFB0024F0E72124F1E700BFC7
:1055C00003020004100000202DE9FF4700230E46CF
:1055D00017460446009300285BD00AB1002958D032
:1055E00037F0030807F0030A25D04FF000094FF009
:1055F000E063C4E90039012301962046029301A922
:1056000048F00053C4F80890C4F81C9003931EF0AF
:1056100000FB414620461EF006FB2046FFF7B0FD8A
:10562000054640B14246494630462AF0A7FB284687
:1056300004B0BDE8F0874FF00009BAF1000F2AD09E
:105640004FF0E063C4E900390123CDF804D00293A0
:10565000124B204601A9C4F80890C4F81C9003938B
:105660001EF0D7FA042120461EF0DDFA2046FFF78F
:1056700087FD054608B13A46D5E7034600994644FA
:10568000DA00013321FA02F29A4506F8012BF7D12C
:10569000CDE72125CBE75546C9E700BF0400002030
:1056A000F0B593B00F4616461D46044610B92120AA
:1056B00013B0F0BD0029FAD0002AF8D0002BF6D0A4
:1056C000002331461A4638461EF0B3FB0028EFD1BE
:1056D000304602A91EF043FB0028E9D1EB68022BFB
:1056E0000AD039683F48029A81426B6902D018306B
:1056F000814270D19A42DAD82B68002BD7D14FF073
:1057000060623846C4E90023A360E36101A91EF08A
:10571000DBFB0028CCD10199204621F4F0610191F6
:105720001EF081FA694628461EF0CEFB0028BFD144
:10573000204600991EF077FA384609A900F054F87F
:105740000028B5D1204609A91EF059FA38460CA9FF
:105750001EF088FC0028ABD120460CA91EF04FFAA1
:10576000EB684BB1284606A900F03EF800289FD10F
:10577000204606A91EF043FA304603A91EF072FC2B
:10578000002895D1B368DA040CD59B0427D50621EF
:10579000F36932691B6801FB03225B0043F000538D
:1057A00003920593204603A91EF029FA28460FA963
:1057B0001EF058FC00287FF47BAF20460FA91EF096
:1057C00028FA03252046FFF7DBFC01287FF470AFA1
:1057D000013DF7D16CE7B3EB420F8DD267E729208B
:1057E00066E700BF200000B0A0B199B101234B6073
:1057F000C368013B012B0AD88069074B18B10860C8
:1058000000208B607047054A0A608B6070474FF03C
:105810000053F5E72120704708000020C016040857
:1058200070B58AB00E461546044600285BD00029A4
:1058300059D0002A57D0012329461A4630461EF077
:10584000F8FA00284DD1B36813F4C04F4BD0AB68C1
:1058500003F4C043B3F5005F45D1254BA060C4E914
:105860000030E06107A930461EF02EFB002838D139
:10587000204607991EF0D7F9304601A9FFF7B4FF7B
:1058800078BB20461EF0BBF9304604A91EF0EAFBA7
:1058900038BB204604A91EF0B2F9EB681BBBAB680D
:1058A00003F4C043B3F5005F1DD1694628461EF0DE
:1058B00087FAB0B9009B6A699A4216D32A6943F005
:1058C000005307920122204607A908920325099355
:1058D0001EF09FF92046FFF753FC012801D1013D3E
:1058E000F8D10AB070BD2120FBE71D20F9E700BF09
:1058F0000000010205289ABF014B185C0020704788
:10590000C816040830B587B0144B0D460293144BEB
:105910000390049346F61103059300F06DF91428E3
:10592000044616D168461EF06CFD4FF0A8430322D2
:1059300002A95A6319601D619A63DA6B9207FCD160
:10594000142C02D168461EF06AFD00F089F9044665
:1059500001E00028E9D0204607B030BDC41A00207D
:10596000040000202DE9F04FB1B005468C46E94611
:105970006E4F3B9EDDF8F8E0409C07F1100AC846E8
:10598000386879680837A8E803005745C146F6D15A
:105990000EEB0208C8F1000909F00F09002E00F013
:1059A000AF80774207F00F070121DDF8FCB0C4F1AA
:1059B000100ACDF810B0059144F0005106914FEA5D
:1059C0000A2101F4F85141F02101079106B96B4613
:1059D0000893002D40F09680002C00F0938004ABDB
:1059E0000993002E00F0908046F000530A93002D9A
:1059F00040F08D80002C14BF0123212343EA0723AC
:105A00000B9308A942F00053CDF830C03D980D919A
:105A10000E934FEA092343F041030F93109002B114
:105A20000CA9002A16BF00224FF00052412342EA7F
:105A30000E021191129213933C9B3D4A149310ABAA
:105A400015933C4B0021169340F6110317933A4BE4
:105A5000002D08BF1346189314AB1993374B10222F
:105A60001A9311231B931CAB18462AF087F90122C5
:105A70001D924AF080421E9200220346239205B9ED
:105A8000EB46102C08BF01230DF1900A10220021D3
:105A90005046CDF880B0219322942AF06FF9002C63
:105AA00037D020AB002125938F4218BF534647F0D3
:105AB000804226923A9A2CA88A4228922993134629
:105AC0000CBF4FF080430B46102233432B912A9397
:105AD0002AF054F9FEB95346C8442D932CA948F036
:105AE000804318A82E93FFF70DFF30B92DB9034658
:105AF000A34212D1002818BF2C2031B0BDE8F08F8E
:105B0000102751E701236BE747F000536EE721238D
:105B100074E70123C6E728ABDEE703F1C0026A445D
:105B200012F8C02C01331043E2E700BFCE16040880
:105B3000E016040810000020E41604080400002009
:105B4000F0B59FB0C029249E4FD0B1F5807F04D01E
:105B5000802941D029201FB0F0BD40F2344440F2EA
:105B60001445002E08BF2C4621271025019401243E
:105B70000296039404950597259F069706B102ACFB
:105B800007940124089509940A9221220B940C95FC
:105B90000D92174A0AAC0E92164A0F94109242F6D2
:105BA00011021192129313941495159201AA169250
:105BB000CBB112AB1793042318931123199316AB8F
:105BC0001A901B9340F61103C9081C911AA806A944
:105BD0001D93FFF797FEBEE7002E14BF4FF48664B7
:105BE0004FF48264C0E70EABE4E70F20B3E700BFD9
:105BF000E81604081000001038B5164B5A6E42F033
:105C000004025A66D3F8802242F00102C3F88022CF
:105C1000114B5B68C3F3080343B14FF0A842D36B49
:105C200013F0430FFBD11424204638BD4FF0A84396
:105C3000DC6B14F04304FBD1084D2B681BB9042125
:105C4000284602F0E5FF2B68013343F000432B6048
:105C5000EAE700BF0080005000ED00E0C41A002019
:105C6000014B00205B68704700ED00E0012300F06D
:105C70001F02A0F506200949A0F550604009934095
:105C800051F820201A4341F82020054951F82020DE
:105C900022EA030341F82030704700BFC81A0020F1
:105CA000DC1A00200121A0F506230F4AA3F550635A
:105CB0005B0900F01F0001FA00F052F823100843BE
:105CC0000A4942F82300D1E90030034488680344BC
:105CD000C868096903445B1802BFC2E90033C2E91E
:105CE00002331361704700BFDC1A0020C81A00207D
:105CF0002DE9F04FA9B002921D46DDE93267044656
:105D00000822CDE90301414021FA02F34B409807F4
:105D100002F1080218BF9B00202A1C44F4D1812301
:105D2000B4FBF3F303EBC313E41A7A4B04F5062434
:105D30001B7804F55064002B40D1FDF7B3FC0146FD
:105D400020B16FF0910029B0BDE8F08F402205909E
:105D500008A82AF013F84022059918A82AF00EF88E
:105D6000DFF8C891DFF8C8A14B4603F10F0B1022F2
:105D700008A9DAF80000CDF800B0059329F05CF925
:105D800000220146059B09F110090DF120089142FE
:105D90004CD1CDF800B01022DAF8000018A929F093
:105DA00054F94FF0000B03460DF160085B4549D1F3
:105DB000594B9945D8D10122564B1A704FF08108A2
:105DC0004FF00009DFF868A1A4F506235349A3F5B5
:105DD0005062520951F8221004F01F0C21FA0CF104
:105DE000C90744D44E4951F8220020FA0CF010F0B3
:105DF000010030D0B9F1000F08BFA146A3F6FF445F
:105E00008123B4FBF3F303EBC313E41A04F5062474
:105E1000B8F1010804F55064D6D1029BEBB1B9F199
:105E2000000F1AD0349BC3F800906DE058F8040BB3
:105E3000CDE906230591FFF719FF069A079B0599FF
:105E40000132A4E758F8040B05930BF1010BFFF79F
:105E500029FF059BAAE7029B13B96FF08B0072E73D
:105E6000349BB9F1000F4ED0C3F800906BE70EB130
:105E7000002333600FB100233B604FF0100B002371
:105E80002A462146DAF80000CDF800B015F0DAF91C
:105E900008BB0EB1C6F800B02B68224A934224D149
:105EA00066B15FB13B462146DAF8000018AA15F04A
:105EB0001DFA80B93B6832689B1A3B60D5E9022322
:105EC000DDE90310834208BF8A4216D0A4F50624F8
:105ED000A4F6FF4494E7144B984206D0123398423C
:105EE00003D0133B9842E9D02BE72146DAF80000B3
:105EF00015F042FA0028E1D0AFE7029B13B16B68BE
:105F0000012B03D0349B1C6000201CE76FF0840041
:105F100019E700BF4029002000710800C81A0020BE
:105F2000DC1A0020105D175EFFDF00F0006D080036
:105F3000E00A00202DE9F04F87B082468946984656
:105F40001646DDF840B02AB1002B4ED040F26C73FB
:105F50009A424DD8BBF1010F4DD8002406F110072D
:105F60003946012005941FF00BFA0546002845D05C
:105F700021463A4629F002FF05ABCDE901430094E2
:105F80002B46012250464946FFF7B2FE044680B137
:105F900010F18C0F08BF6FF08D043A46002128469F
:105FA00029F0ECFE28461FF0FCF9204607B0BDE8BA
:105FB000F08F144BC5E902A92B60C5F804B02EB1CF
:105FC0003246414605F1100029F0B1FE0E483B462D
:105FD0002A460599006815F09DF818B90598FFF74D
:105FE00045FEDAE76FF09104D7E76FF08604DCE74F
:105FF0006FF09104D9E76FF08504D6E76FF08C0459
:10600000D3E700BF105D175EE00A00202DE9F043E2
:106010008DB08146DDE914780C4615461E469BB1CD
:10602000B8F1000F05D16FF0860420460DB0BDE831
:10603000F083002FF7D0B7F1005FF4D3C3F1005322
:1060400003F580239F42EED81022002108A829F0F2
:1060500095FE002207AB029305AB019306AB2146E8
:106060000093484608ABCDE90522FFF741FE044600
:106070000028DAD10599DEB1A94203D80029D2D18E
:1060800015B1D0E70029FBD0491BB14228BF3146EA
:10609000069B0948C8F8001000913A460799006825
:1060A0002B4415F0CFF8002818BF6FF09104BCE71F
:1060B000A942E9D2B7E700BFE00A002030B58DB0B1
:1060C00010220C460546002108A829F057FE0022A0
:1060D00007AB029305AB019306AB2146009328461C
:1060E00008ABCDE90522FFF703FE0446D0B9099BB2
:1060F000012B1AD0104B0799186815F03DF9B8B963
:10610000012207980D49A0F50623A3F550635B090A
:1061100000F01F05AA4051F823506A4041F823209F
:10612000FFF7C0FD20460DB030BD6FF08404F9E7E5
:106130006FF09104F6E700BFE00A0020C81A0020C3
:106140002DE9F04F93B00446DDE91E75DDE92068C6
:106150009346DDE91C028A46DDF8889029B96FF084
:106160008604204613B0BDE8F08FBBF1000FF6D0D7
:106170000FB9002DF3D108B9002AF0D116B9B8F142
:10618000000FECD1B9F1000FE9D02D4A934244D170
:106190002388B3F5105F40D12022002102A829F006
:1061A000EDFD202200210AA829F0E8FD02A81DF03B
:1061B000C7FD78BB20465A4651460AAB00F014FA98
:1061C00004460028CDD10A981EF097F9044600280D
:1061D000C7D115B9C9F80000C3E7B7422CD27B1963
:1061E0009E4229D24545BAD839462A46304629F03A
:1061F000ABFD374615F00F0AB1D1CDE900762B463D
:1062000052460AA902A8FEF7DBFF074640B9C9F8C3
:106210000050A6E76FF09204A3E76FF08504A0E7B3
:1062200042465146304629F0A9FD012FC9F800A089
:10623000F0D16FF08B0494E74545DBD98FE700BFC1
:10624000004440042DE9F047C2B00C460646002148
:10625000154601A820229A46DDF82891DDF8308104
:106260004E9F29F08BFD2022002109A829F086FDF0
:106270002022002111A829F081FD2022002119A847
:1062800029F07CFD0021802222A8219129F076FDB1
:10629000002C5BD0002D59D0B9F1000F56D0B8F1C9
:1062A000000F53D0002F51D02188628801F4E043C1
:1062B000B3F5804F4AD0314B3148334043F010633F
:1062C000834205D06FF08504204642B0BDE8F087D8
:1062D000D31DBAEBD30F4FEAD30637D34D9B9E4263
:1062E00046D847F212139942ECD1B2F5807FE9D13A
:1062F000244B4B98099309F101030D938423023039
:1063000020F00300169373000E901293204652461D
:1063100029460DF1840901ABCDF8549000F064F9E1
:1063200004460028D0D10B9B119043F4005319A8C8
:106330000B931DF005FDF0B911AB09AA01A919A82D
:10634000FFF7AEF9054620B14828BBD06FF08604B0
:10635000BAE732464946404629F0E9FC2A4609EBAD
:1063600005030135852D01D13E60ADE71A70F6E7D2
:106370006FF08904A8E76FF09204A5E70000FFF62C
:106380000000020920000080F0B5C3B00D4614469D
:106390001E4610B96FF086000DE00029FAD0002AE1
:1063A000F8D0002BF6D0038803F44F42B2F5824FA9
:1063B00003D06FF0850043B0F0BDDAB2122AF8D1F5
:1063C00023F0FF03B3F5E24F28D14388336003BBCA
:1063D000E30033603368B3F5807FEAD10023424A9B
:1063E000281914441A4614F8016D10F8011D0A43C7
:1063F000891B0CBF4FF0FF360026854203EA0603D7
:1064000043EA0103EFD1002AC4D0002BC2DA0020F6
:10641000D1E70733B4EBD30FDCD0BBE7B3F5824F42
:106420005FD10B78042BB5D120220021684629F0DA
:10643000A5FC68461DF084FC00284FD18422002171
:106440000DEB0200209129F099FC202201238827DE
:1064500000210DEB0200013C8DF88030013529F060
:106460008DFC202200210D9410A8E4000C956408F6
:1064700029F084FC20AD2022002118A8149515973E
:1064800029F07CFCE02CCDE91C57346003D0B4F536
:10649000807F7FF47FAF154B0734089310934FF440
:1064A00000530A934FF48043E408129308AA18ABF0
:1064B0006846640010A91994FFF7F2F833680733AF
:1064C000DB085A0043B900283FF475AF62E705F8CE
:1064D000013B013AFBD2F6E70023FAE76FF09200A6
:1064E00069E76FF0960066E7EC160408200000806C
:1064F0002DE9F041438814460733072B0E464FEA37
:10650000D30204D08A4202D06FF086000EE04568C4
:106510000788D0F80C802D0A20220021204629F07F
:106520002DFC2DB1012D03D06FF08B00BDE8F08163
:10653000E560002EE8D041F201039F4205D0B7F597
:10654000885F02D0B7F5905F11D1002323606660A9
:10655000002D45D018F0020008F0010217D1002AE2
:10656000E4D1A368104643F08073A360DEE7B7F57B
:10657000105F07D1182E03D0202E01D0102EC3D1CA
:106580002660E4E707F44F43B3F5824F02D06FF083
:106590008500CBE7FBB2122BF9D1202EF7D1114B9E
:1065A00027F0FF07B7F5E24F23600ED1A36843F44D
:1065B000804318F4705FA3600ED018F4864FE6D1C4
:1065C000A36843F48063A360C2E7B7F5824F9BD111
:1065D000A36843F40053ECE7A36823F48063F2E775
:1065E0002846A3E7200000802DE9F0418AB0154637
:1065F00000221C46436807461B0A0E46019204D03F
:10660000012B59D06FF08B008EE0008820F0FF0343
:10661000B3F5824F4ED17A880732D20801921DF02D
:1066200078FF002800F0FB800B78042B02D06FF07D
:10663000860079E0013DB5EB420F06F10106F6D187
:10664000224638460199FFF753FF00286CD10335E5
:10665000C4E9030625F003056561019D002C00F0E7
:10666000C280002D00F0BF802022002102A829F066
:1066700085FB2946384602AAFFF73AFF002840F07A
:10668000B2802368029A9A4240F0AD806368039A10
:106690009A4240F0A880A368049A9A4240F0A380EE
:1066A000A369089A9A4240F09E80E369099A9A4247
:1066B0003AD098E00195C3E7032DB8D991F800804E
:1066C000B8F1010F40F0AE804978002973D0F73956
:1066D000082997D801A353F821F000BF6767010884
:1066E0002F670108056601084B6701080566010868
:1066F0000167010805660108836701089D670108B5
:106700001C22002103A829F039FB484B4FF41050FC
:1067100002930323CDE90403FC232022204602A98F
:10672000069329F004FB00200AB0BDE8F0811C228A
:10673000002103A829F022FB3C4B4FF41052029396
:106740000323CDE90423F823E7E71C22002103A853
:1067500029F014FB10234FF0807E02930323CDE930
:1067600004E3FA23D9E71C22002103A829F006FB41
:1067700020234FF0007702930323CDE90473F7231E
:10678000CBE71C22002103A829F0F8FA274B284D5B
:1067900002930323CDE90453FE23BEE700211C220C
:1067A00003A829F0EBFA214B224902930323CDE9F8
:1067B0000413FF23B1E72B2D7FF639AF20222046AB
:1067C00029F0DCFA7368103D2360B368103663600B
:1067D00056F8043C2046C4E902382661656101A9E7
:1067E0001DF0BDFA28B120220021204629F0C6FA6A
:1067F0001DE73A88019B02F44F41B1F5824F08D161
:10680000D1B2122905D122F0FF02B2F5824F08BFA2
:106810005B0062691C339A42BFF41FAFE3E76FF07D
:10682000850081E76FF091007EE700BF20000080C7
:1068300000440002004400032DE9F04790B0DDF869
:10684000608006460C4692461A9FB8F1000F05D1AB
:106850006FF08604204610B0BDE8F0870393002F48
:10686000F6D00028F4D0202200210DEB020029F000
:1068700085FA08A81DF064FA039B10B16FF092042A
:10688000E8E714F47C1FC4F305452CD0102DDFD8A5
:10689000199A954237D81F4A24F47E14944235D170
:1068A00000220DF11009CDE90422CDE9062231467E
:1068B0005246CDF8009008A8FEF7DAFC0446B0B9BD
:1068C0002A464946404629F032FA224609EB04039B
:1068D0000134112C09D100243D6008A81DF03AFABA
:1068E0000028B7D0CAE71025D2E71A70EEE72128B2
:1068F00006D0012814BF6FF092046FF08B04ECE710
:106900006FF08604E9E76FF08904A3E76FF0850470
:10691000A0E700BF0002C00370B50E46144605464E
:1069200010B96FF0860070BD0029FAD0382200211E
:1069300029F024FA094B24F47E129A420AD13388B2
:10694000B3F5105F06D1C4F30543102BE9D800203E
:106950002C60E8E76FF08500E5E700BF0002C003A8
:10696000F0B58BB00F4616461D46044670B302B90B
:1069700063BB2022002102A829F000FA02A81DF022
:10698000DFF9A8B92368134A23F47E13934214D184
:106990004DB133463A46009502A9201DFEF74EFD43
:1069A00001280DD078B9002402A81DF0D3F908B150
:1069B0006FF0920420460BB0F0BD6FF08804F3E74F
:1069C0006FF08B04F0E76FF09204EDE76FF0860450
:1069D000F0E700BF0002C0032DE9F0418CB088460B
:1069E00016460446129F002841D0002A3FD0002BB3
:1069F0003DD0002F3BD0102B28BF10231D4603682D
:106A000013F47C1FC3F3054202D0954228BF1546FC
:106A10001A4A23F47E1393422CD12022002104A889
:106A200029F0ACF9002304A8CDE90033CDE9023305
:106A30001DF086F940B96B46424604A9201DFEF7B9
:106A400079FC20B100233B606FF092000CE004A8B9
:106A50001DF080F904460028F4D12A4669463046E4
:106A600029F065F920463D600CB0BDE8F0816FF07B
:106A70008600F9E76FF08800F6E700BF0002C00368
:106A80000023C36001F13803036120230A684361D6
:106A90008B6D0B4922F47E128A42436003D001F5CC
:106AA00080718A4208D1102B02D103600020704708
:106AB000182BFAD0202BF8D06FF08800704700BF59
:106AC0000001C00307B5094B18689A889B790090AC
:106AD0006846ADF804208DF80630FDF779FE0C20ED
:106AE000FDF7AEFE002003B05DF804FB0C170408B0
:106AF00013B50024064A6846536F43F001035367F9
:106B000000948DF80440FDF7A1FD204602B010BDB1
:106B10000040005030B58BB06C46174D0FCD0FC400
:106B20000FCD0FC495E8030084E80300134BD3F89E
:106B30004C21120317D4D3F85041E4B28DF8194018
:106B4000FDF7ECFB204480F308008DF818000C489A
:106B5000FCF7FEF96846FDF7E1FA3220FDF758FC34
:106B600000200BB030BD074B1C884FF6FF739C42D2
:106B700008BF8C24E2E700BF141704080080E00F70
:106B8000C01753020001E00F30B587B0084D01ACCB
:106B90000FCD0FC42B6801A823603F238DF805306B
:106BA000FDF7F2FB6420FDF72DFC002007B030BD9F
:106BB0003C17040810B56FF0040250210A480B4C32
:106BC00012F0800FD3B21BBF03F00F03043BA318D6
:106BD0001B1802F101020CBF83F8001319764C2A2E
:106BE000EED1002010BD00BF00ED00E000E100E0AC
:106BF00038B501F03DFA0446F0B901F04FFC01F060
:106C0000FDFA4FF4167343430C4803F5742303F263
:106C10003F23B3FBF0F30A4A0A4913600A220D68C6
:106C20000948013A12F0FF0240F8043BF9D103EBA6
:106C3000C3022B4413440B60204638BD40420F0072
:106C4000241B0020F41A0020F81A002008B50122A5
:106C5000034B1A701EF0F3FA024B186008BD00BF18
:106C600041290020201B002010B501F0C7FA04467E
:106C70001CF0DAFE844207D91EF0EFFA20B101229F
:106C8000024B1860024B1A7010BD00BF201B002081
:106C900041290020F8B51C4C2378D3B11EF0CFFA5F
:106CA0001A4B1B4D1B68C01A012838BF01202860F1
:106CB00001F0A4FA4FF416735843164B00F57420F4
:106CC00000F23F20B0FBF3F02968814202D9002393
:106CD0002370F8BD104D114E2B78114F56F823201C
:106CE00046F82310501A0A213A680133121A3A6002
:106CF0000932B2FBF1F20B48DBB20260B3FBF1F2F6
:106D000001FB12332B70E2E741290020201B0020F9
:106D1000F01A002040420F0042290020F81A0020FB
:106D2000F41A0020241B0020014B1868704700BF94
:106D3000241B002010B520234FF4801204210F4C97
:106D40000F4884F82C330F4B5A660F4B03F5005253
:106D500050675167106711674FF48052C4F884215F
:106D600062609A18506751679A6A22F000729A62BC
:106D70009A6A42F480529A6210BD00BF00E100E0BE
:106D8000010000A0009000500040005A044B9A6D92
:106D900012F0050F02D10028F9D170470120704789
:106DA0000040005A10B5154B1C6F14F004020FD0B0
:106DB00003F500531A6708229A62FFF755FF00F0A7
:106DC00093FE00F073FE012001F00CFB1EF047FA69
:106DD000E30706D501220A4B1A67FFF75BFF00F0B5
:106DE00065FE14F000521CBF054B1A67002CBEBF95
:106DF0004FF00042024B1A6710BD00BF0040005A1E
:106E00000060005A10B504461CF0B9FE024B1C602D
:106E10001CF0B9FE002010BD281B002010B51CF08E
:106E2000AEFE034B1C681CF0AEFE204610BD00BF3A
:106E3000281B0020034B0222186800238068194693
:106E40001BF068BE000C002030B587B01446054624
:106E500010461EF00EF86369024683423CBFD4E937
:106E600003315B181B1A7BB10F492846039100219F
:106E7000CDE90131012304940093D4E900131CF0FF
:106E8000F6FD002007B030BD0122627694F82D2077
:106E9000002AF6D084F835301321E369204698475C
:106EA0002046636A9847ECE7496E01082DE9F047F0
:106EB00088B004468846174699461CF067FE82460D
:106EC000002F7AD0237E03F0FF02002B00F0A28077
:106ED00020461DF0CEFF6669B04205D1637ED4E93D
:106EE00003521544AD1B01E0F9D9851BBD4228BFF3
:106EF0003D461CF04BFE94F82D300646002B6DD11C
:106F00002A464046616928F012FF63692F462B44E8
:106F1000636121E0037803F0FD0111295BD1216B4E
:106F2000814205D1A3F111014B424B4184F8343029
:106F3000013F6369216B01328B4203F1010308BFFA
:106F40002363636195426069E4D1D4E90323216B33
:106F50001344994200D122630025D4E903236169D7
:106F60001344994208BF6261207A6576FCF7A6FA5D
:106F700020461DF07EFF6369834232D1257694F866
:106F80002D30E568656103B125632046636A984743
:106F9000214B2A460393002302932369216801931E
:106FA0000123207A0093049463681CF060FD207A2A
:106FB000FCF7A4FA30461CF0EFFD5046C9F800700B
:106FC0001CF0EAFDD9F80030002B0CBF1B2000207C
:106FD00008B0BDE8F08708F8013BAAE72F46002279
:106FE000B0E70123207A23760DF11E01FCF7EEFABB
:106FF0009DF81E30002BDAD00DF11F01207AFCF72E
:10700000BDFA9DF81F100029D1D12246207AFFF742
:107010001BFFCCE71746D0E7496E0108002808DBC4
:107020000123420900F01F0003FA00F0014B43F86E
:107030002200704700E100E0002809DB012243093B
:1070400000F01F0002FA00F0024A603342F8230009
:10705000704700BF00E100E070B504460568FFF727
:10706000DDFE844202D10020FFF7CCFE95F9360008
:10707000FFF7E2FF95F93630002B0DDB01215A09AD
:1070800003F01F0301FA03F31849203241F82230BC
:10709000BFF34F8FBFF36F8F95F93700FFF7CCFF2A
:1070A00095F93730002B0DDB01215A0903F01F033E
:1070B00001FA03F30D49203241F82230BFF34F8F1C
:1070C000BFF36F8F287AFCF739FA287AFCF79CF91E
:1070D000FCF778F900232846C4E90033C4E90433F7
:1070E000A360AB6ABDE87040184700BF00E100E054
:1070F0002DE9F04186B00C46154606464022002197
:1071000020461F4628F03AFE95E8030000232A692E
:107110002376EB6884E80300C4E904232A7DE36056
:1071200084F82C20AA7D2363012384F8343084F86A
:1071300035300C9B84F82D2023620D9BE761636240
:107140000E9BA3622B7A84F836306B7A84F8373042
:107150002D4B346073602D4BB3602D4B33612D4B41
:1071600073612D4BF360FCF775F938B12B4B9842E6
:1071700004D01024204606B0BDE8F081002104F1BF
:107180000800FCF7EFF807460028F2D14FF001089D
:10719000234B3362234B84F83C80B361224BF36171
:1071A0009DF8403084F8390084F83B309DF83C303D
:1071B000204684F83A30697D84F838801DF069FEF5
:1071C00095F90900FFF738FF95F90900FFF726FF49
:1071D000164B0494CDE902732369CDE900836368FB
:1071E000E2682168207A1CF042FC04460028C0D1E5
:1071F00095F90800FFF720FF95F90800FFF70EFF4B
:107200003046FFF7FFFDB5E7E34E0308AD6E01081A
:10721000614E0308674E030859700108038000F0AF
:10722000374E0308934E03086D4E0308496E01085C
:107230002DE9F04186B001271C465C4B0C9D029362
:107240005B4B904601935B4B0A4600932946CDE980
:107250000377594BFFF74CFF0646002840F081802A
:10726000236839462B6463683A206B64637A85F837
:107270004930237A85F84830E37A85F84B30A37A91
:1072800085F84A30637B85F84D30237B85F84C3098
:10729000E37B85F84F30A37B85F84E30FCF7CAFCC2
:1072A0003B460422617A207AFDF726FB3B46022208
:1072B000E17AA07AFDF720FB39466068FCF7BAFC5A
:1072C00088F8006041462068FDF702FD1420617CCB
:1072D0003A4B01F1390252019850607A227A03EB5D
:1072E000411342EA0042C3F83827E17AA27A42EA1F
:1072F0000142C3F8302785F8506098F81930032B05
:1073000052D8DFE803F01F02324C0123002785F832
:10731000503000230222617B207BFDF7EDFA617B78
:10732000227B637C42EA014241F228715B0103F156
:10733000A04303F570335A500422236803F58053A9
:10734000DA65AFB9237A2A6C85F84830637A05216B
:1073500085F84930D36C206843F00403D3641CF0F3
:1073600099FC304606B0BDE8F081022385F8503024
:1073700000230422E17BA07BFDF7BEFA0220617CA2
:107380000E4B01F1B9025201985003EB411341F247
:107390002C71E07BA27B42EA00425A50D2E70323E1
:1073A000012785F85030B4E72326DAE70D500308AB
:1073B00001500308995003088D50030800C0035082
:1073C000BFF35F8F074B5A6A22F480325A62D3F8B8
:1073D000942022F00102C3F89420BFF34F8FBFF333
:1073E0006F8F704700ED00E070B52648264CFFF720
:1073F000E7FF844208BF4FF08043244A18BF20F0C3
:107400001F03D2F8C01018BF203B21F0FF0141F04C
:10741000A001B3F1005FC2F8C0100CD31C4D1D4E8B
:10742000296843F00103C2F898100131C2F89C604A
:10743000C2F8A0302960844210D01548164B02686B
:10744000124923F01F0343F00303C1F89820C1F849
:107450009C30124B0132C1F8A0300260BFF35F8F45
:1074600005220A4BC3F894205A6A42F480325A62C9
:10747000BFF34F8FBFF36F8FBFF34F8FBFF36F8F8C
:1074800070BD00BFF40C0020A00E002000ED00E055
:107490002C1B002003000020BF0E0020E1FFFF3F57
:1074A000F8B51446FFF78CFF1F2C27D90027C2061A
:1074B0002A4D1CBF20F01F0020302A68CB06284B25
:1074C00018BF21F01F01FCB2A24219D8D3F8C04066
:1074D00020F01F0024F47F4444F4807421F01F0145
:1074E000C3F8C04040F00300C3F8982041F0030106
:1074F0000132C3F89C00C3F8A0102A6000201AE0F3
:10750000C3F89840D3F89C40D3F8A06024F01F043F
:10751000A04226F01F0601D1B142EFD0B04201D8FF
:10752000A14207D2D3F89840013724F0FF04C3F8F2
:107530009840C8E72820BFF35F8F0522084BC3F8A7
:1075400094205A6A42F480325A62BFF34F8FBFF3DD
:107550006F8FBFF34F8FBFF36F8FF8BD2C1B0020D1
:1075600000ED00E0BFF34F8F0549064BCA6802F4F7
:10757000E0621343CB60BFF34F8F00BFFDE700BF56
:1075800000ED00E00400FA05054B1A782AB95B7893
:10759000002B14BF0220032070470120704700BF5A
:1075A0004B290020F8B5032998BF124B05460E461B
:1075B0008CBF00245C5C032805D8DFE800F00208DB
:1075C0000B0E44F002040C4B1F684FB9F8BD44F099
:1075D0000804F8E744F02004F5E744F08004F2E7FB
:1075E0007B681A68144203D0314628465B68984786
:1075F0003F68EAE750170408541B002038B5104DC7
:107600002B78ABB10F4C23781BB100F0A9FB002302
:107610002370002000F0CCFB0B4C50B100F0D2FBEB
:107620000023012120782B70FFF7BCFF012323707A
:1076300038BD0122054B1A702278054B1A70F7E706
:107640004A290020452900204329002049290020FB
:107650005029002010B51CF092FA064B04461B7806
:107660001BB1BDE810401CF08EBAFFF7C7FF2046E3
:10767000F7E700BF44290020002814BF0121FF21A3
:10768000074A13780B44137008D0064B1B78012B64
:1076900004D9054B1B780BB9FFF7B0BF704700BF8B
:1076A0004B290020432900204929002070B51CF0F7
:1076B00066FA134E05463378ABB900F0D9FC0446A0
:1076C00020B128461CF05FFA204670BD00F0CCFEC9
:1076D0000C481CF0ACF900F097FF0B4B1C6000F05D
:1076E0008DFD0A4B186000F033FA1DF03EFD084B8B
:1076F000002418600123284633701CF044FAE3E7A5
:1077000046290020541B00205C1B0020581B002031
:10771000501B00202DE9F341002914BF0121FF2156
:10772000254A00F1FF30135C0B4413543AD0234E2A
:107730003178012936D9FFF727FF0128044634D8CC
:107740001F4F1CF01CFA3B781BB31E4D2B781BB946
:1077500001222A701C4A1370DFF8708098F80030FC
:1077600033B1019000F0FCFA0023019888F8003052
:107770001CF009FA012000F01BFB1CF000FA2B782A
:107780002BB1019000F01EFB002301982B70002309
:107790003B701CF0F8F93078A04203D02146FFF787
:1077A00001FF347002B0BDE8F0810329F3D1022853
:1077B000F1D11DF0DEFCEEE74B290020432900202B
:1077C0004A29002044290020492900204529002079
:1077D00010B504461CF0D3F9002C14BF0121FF2181
:1077E000064A13780B44DBB21370B3FA83F3BDE897
:1077F0001040034A5B0913701CF0C5B94E290020E4
:107800004D29002068B51CF0BAF9094B06461B78D3
:10781000012B04D81CF0B7F90025284668BD054B9C
:107820001D6800F02FFB054430461CF0ACF9F4E76E
:10783000432900205C1B002038B5416004461CF041
:107840009EF90546214604481CF0F4F82846BDE898
:1078500038401CF098B900BF541B0020054B1B6832
:107860005843054B00F5742000F23F20B0FBF3F0C5
:10787000704700BF581B002040420F002DE9FF4712
:10788000EFF3108672B600E000BF1CF03DF8002850
:1078900000F09B80704D714F2B7823B10020FFF7D3
:1078A000EBFE00232B70FFF76FFE0446002800F06C
:1078B0009380841EE4B2012C40F29680FFF764FEB0
:1078C0000128804604D9664B1B780BB900F0CAF931
:1078D000644CDFF8B0912078DFF8ACA140450AD0C5
:1078E000002389F800309AF8003013B94146FFF7B9
:1078F00059FE84F8008099F800303BB12378022BC0
:1079000004D1002389F8003027F018FFB8F1010FE7
:107910000FD9DFF84C8198F8003053B9524B1B78DF
:1079200023B900F017FA0122504B1A70012388F88E
:107930000030207800F090FA9AF8003013B14C4BE8
:107940001B78237000E000BF06B962B6EFF3108623
:1079500072B6484B1A7852B100221A70444B207804
:107960001B78984203D101212170FFF71BFE384696
:1079700000F0B8FB1BF0D3FF804600288CD1384FB5
:1079800089F800003B789BB1DFF8E0908AF80000AE
:1079900099F800301BB100F0E3F989F8008000206D
:1079A00000F006FA00284ED000F00CFA00233B70DD
:1079B0002B7823B10020FFF75FFE00232B700021FE
:1079C0002078FFF7EFFD0023237000E000BF06B929
:1079D00062B604B0BDE8F0872B78002B3FF46EAFA1
:1079E000FFF74AFE2C7069E7002003A900F0C0FBF6
:1079F000044600287FF462AF1F4B039A1B689A422B
:107A000005D80120FFF738FE01232B7056E71B4BEA
:107A1000D3F8008000F036FA039B80449845F0D2FA
:107A200000F046FA00280CBF00230423039943F01A
:107A30000203CDE9004338462346114AA1EB080171
:107A40001DF098FB3AE7012000F006FA06B962B68D
:107A5000EFF3108672B6A2E74F290020301B0020FA
:107A60004A290020432900204E29002045290020D2
:107A70005029002048290020501B00205C1B0020BA
:107A8000557601084D2900204929002010B51CF029
:107A900076F80022044B1C781A701CF074F800F081
:107AA00095FC2043C0B210BD4729002010B5094BFA
:107AB0001B786BB1084C237853B100F083F9002395
:107AC000064A237013700123054A1370054A137088
:107AD00010BD00BF43290020492900204A29002069
