S01C000062742D676174742D646174612D7472616E736665722E733337CC
S31508012000C00A002079300108AD1D0308AD1D03087B
S315080120108F350308AD1D0308AD1D0308AD1D030863
S31508012020AD1D0308AD1D0308AD1D0308AD1D03084D
S31508012030AD1D0308B0DD0308951B0308AD1D030894
S31508012040AD1D0308AD1D0308AD1D0308AD1D03082D
S31508012050AD1D0308AD1D0308AD1D0308AD1D03081D
S31508012060AD1D0308E52C01088D1C0308AD1D0308E9
S31508012070AD1D0308AD1D0308AD1D0308AD1D0308FD
S31508012080AD1D0308AD1D0308AD1D0308AD1D0308ED
S31508012090AD1D0308013A0108AD1D0308AD1D03086E
S315080120A0AD1D03089D3B0108793B0108AD1D0308D9
S315080120B0AD1D0308E1FD0208FD07030829D403083D
S315080120C025D40308C9FF020835D403082DD403080B
S315080120D0D507030831D403083D080308A1080308F6
S315080120E0AD1D0308AD1D0308AD1D0308AD1D03088D
S315080120F07F310308AD1D0308AD1D0308AD1D030897
S31508012100AD1D0308AD1D0308AD1D0308AD1D03086C
S31508012110AD1D0308AD1D0308AD1D0308AD1D03085C
S31508012120AD1D0308AD1D0308AD1D0308AD1D03084C
S31508012130AD1D0308AD1D0308AD1D0308AD1D03083C
S31508012140AD1D0308AD1D0308AD1D03089936030827
S31508012150C1E60208AD1D0308CDD00308D3D0030894
S31508012160AD1D0308AD1D0308AD1D0308AD1D03080C
S31508012170013800D0FCE77047002370B5404C05468E
S315080121808AB0E36318B1008823600DF025FA3D484B
S315080121902AF0B4FC3C4E3D4B304633603C4B7360F1
S315080121A025F02BFA0021304617F050FE32A3D3E969
S315080121B00023A062C4E9062325F02AFAD4E90623F6
S315080121C0194310434FF0FF33C4E90601CDE9000175
S315080121D04FF0FF32A06A2AF0DEFC02224FF0FF31EF
S315080121E0A06A2AF0DDFC01200DF004F84FF4007313
S315080121F000222849A06A2AF029FDB0F5007F38D1C6
S3150801220000239422CDE9073309933C23CDE9033210
S3150801221005939623A06A03A9069317F033FF35B3EE
S31508012220287C0DF09FFB0546F0B9A06A2AF0EFFD60
S315080122300DF040FB0CF0C0FF20B14FF48070002177
S315080122400AF068FD0CF0C8FF20B14FF400600021C8
S315080122500AF060FD25F0A0F9012017F04BFE0E4AA1
S315080122600E49A06A25F0C7F928460AB070BDFF20B5
S31508012270D7E70725F8E700BF0DD50155200000006F
S31508012280500F0020690345EC7024002085F00108F1
S3150801229064240020642200209F750308DF75030863
S315080122A010B5054C237833B9044B13B1044800E043
S315080122B000BF0123237010BDB011002000000000EB
S315080122C0BC35040808B5034B1BB10349034800E0B4
S315080122D000BF08BD00000000B4110020BC35040889
S315080122E0A3F5803A704700BF174B002B08BF134B65
S315080122F09D46FFF7F5FF00218B460F461348144A02
S31508012300121A2BF0E4F80E4B002B00D098470D4B10
S31508012310002B00D098470020002104000D000D482D
S31508012320002802D00C4800E000BF1EF0DDFC2000AA
S3150801233029001FF023FC1EF0C3FC00BF00000800A3
S315080123400000000000000000C00A0020E00E002086
S31508012350D02A00200000000000000000014B186888
S315080123601FF042BDCC0A00203D4B13B51A78002A4E
S315080123704DD000221A703B4B18681FF02CFD00281F
S3150801238047D0012857D18DF80700032000F068FDD2
S3150801239060B1354C3549206820F041FF1FF0B4FC87
S315080123A01FF0B3FC3249206820F039FF01220021D1
S315080123B01D200DF1070310F0E5F880B1012000F0AA
S315080123C04FFD60B1284C2B49206820F028FF1FF0EB
S315080123D09BFC1FF09AFC2849206820F020FF012168
S315080123E01D200DF1070210F0FBF880B1012000F065
S315080123F037FD60B11C4C1F49206820F010FF1FF003
S3150801240083FC1FF082FC1D49206820F008FF02B0FA
S3150801241010BD8DF80700032000F022FD0028C5D065
S31508012420114C1249206820F0FAFE1FF06DFC1FF0CE
S315080124306CFC1349B7E7032000F012FD0028E6D02B
S31508012440094C0A49206820F0EAFE1FF05DFC1FF0DE
S315080124505CFC0C49206802B0BDE8104020F0DFBEE4
S31508012460A0290020CC0A00204C120020D0D703084E
S31508012470D5D7030814D8030819D8030841D803087F
S31508012480E9D70308FED70308034B1B68834202BF3B
S315080124900122024B1A707047CC0A0020A02900209D
S315080124A0F0B503689F4A23F47F4323F00703934259
S315080124B087B000F0878102F57C02934200F006811D
S315080124C0994A934240F00081984C1FF01DFC04AED6
S315080124D01FF01BFC9649206820F0A1FE30460DF13D
S315080124E00F0110F093F8054608B39249206820F0C9
S315080124F096FE9149206820F092FE1FF005FC1FF018
S3150801250004FC8E4B8E4A00938E498A23206820F05C
S3150801251086FE8D492B468D4A206820F080FE284686
S3150801252000F0E4FC8A49206820F079FEFEE71FF0F6
S31508012530EBFB1FF0EAFB8749206820F070FE0525B2
S31508012540854F1FF0E1FB1FF0E0FB725D39462068FD
S3150801255020F065FE013DF4D11FF0D6FB1FF0D5FB37
S315080125609DF80F107D4A7E4B7E4F002918BF1346F2
S3150801257020689DF810207C4920F051FE38460FF05E
S315080125805BFF064608B36B49206820F048FE6A4996
S31508012590206820F044FE1FF0B7FB1FF0B6FB674B1F
S315080125A0674A009367499523206820F038FE6649F3
S315080125B03346664A206820F032FE304600F096FC23
S315080125C06349206820F02BFEFEE7022138780FF0D8
S315080125D06DFF064608B35749206820F020FE564984
S315080125E0206820F01CFE1FF08FFB1FF08EFB534B5B
S315080125F0534A009353499A23206820F010FE524902
S315080126003346524A206820F00AFE304600F06EFC36
S315080126104F49206820F003FEFEE7A02200952B46CD
S31508012620114638780FF020FF054608B3414920685E
S3150801263020F0F5FD4049206820F0F1FD1FF064FB0C
S315080126401FF063FB3D4B3E4A00933E49A323206896
S3150801265020F0E5FD3C492B463C4A206820F0DFFD89
S31508012660284600F043FC3A49206820F0D8FDFEE7E9
S31508012670022138780FF02EFF054608B32D49206848
S3150801268020F0CDFD2C49206820F0C9FD1FF03CFB48
S315080126901FF03BFB294B2A4A00932A49A7232068A6
S315080126A020F0BDFD28492B46284A206820F0B7FDB1
S315080126B0284600F01BFC2649206820F0B0FDFEE7FD
S315080126C02A4B18681FF08CFB07B0F0BD254C022178
S315080126D020780FF0EBFE0546002849D0134C154922
S315080126E0206820F09CFD1449206820F098FD1FF011
S315080126F00BFB1FF00AFB114B114A00931149B82332
S31508012700206820F08CFD10492B46104A206820F0DD
S3150801271086FD284600F0EAFB0D49206820F07FFD7A
S31508012720FEE700BFA0000A00A00001004C1200202D
S3150801273083D80308ABD80308ADD8030893D903088F
S31508012740B2D80308BBD80308CAD80308C7D80308F0
S31508012750DFD80308F0D803080BD903086DD8030896
S3150801276057D80308060D002011D90308CC0A002002
S31508012770022120780FF0AEFE05460028A4D04B4C66
S315080127804B49206820F04BFD4A49206820F047FD57
S315080127901FF0BAFA1FF0B9FA474B484A009348495D
S315080127A0BD23206820F03BFD46492B46464A206852
S315080127B020F035FD284600F099FB4449206820F0B1
S315080127C02EFDFEE7B0F805301B2B7FF47DAF032005
S315080127D000F046FB60B1354C3D49206820F01FFDED
S315080127E01FF092FA1FF091FA3A49206820F017FD76
S315080127F00DF10F030093012200211B2004AB0FF0FA
S315080128008FFE98B1012000F02BFB00283FF45CAF46
S31508012810264C3149206820F002FD1FF075FA1FF099
S3150801282074FA2E49206820F0FAFC4DE79DF80F301E
S31508012830A3B92B4B18681FF01EFB032000F010FBF1
S3150801284000283FF441AF194C2149206820F0E7FCE4
S315080128501FF05AFA1FF059FA2249E3E7012B14D15E
S315080128601F4B18681FF004FB032000F0F9FA002833
S315080128703FF42AAF0D4C1649206820F0D0FC1FF012
S3150801288043FA1FF042FA1849CCE7032000F0E8FAA8
S3150801289000283FF419AF054C0D49206820F0BFFC0C
S315080128A01FF032FA1FF031FA1049BBE74C1200202B
S315080128B0ABD80308ADD8030893D90308B2D80308DF
S315080128C0BBD80308CAD80308C7D80308DFD8030842
S315080128D0D0D703081DD9030814D8030848D9030813
S315080128E0D00A002062D9030870D903087DD90308E4
S315080128F030B503687F4A23F47F4323F007039342E5
S3150801290089B040F0F4800822002112207A4B0FF09A
S3150801291039FE044610B3794D7949286820F07FFCC1
S315080129207849286820F07BFC1FF0EEF91FF0EDF9D5
S31508012930754B764A009376493D23286820F06FFC4B
S3150801294074492346744A286820F069FC204600F039
S31508012950CDFA7249286820F062FCFEE70146032297
S3150801296014206F4B0FF00EFE044610B3634D6449F5
S31508012970286820F054FC6349286820F050FC1FF0B1
S31508012980C3F91FF0C2F9604B604A009360494B23B3
S31508012990286820F044FC5F4923465F4A286820F0EE
S315080129A03EFC204600F0A2FA5C49286820F037FC74
S315080129B0FEE70146052216205A4B0FF0E3FD0546B0
S315080129C010B34E4C4E49206820F029FC4D49206829
S315080129D020F025FC1FF098F91FF097F94A4B4B4A4E
S315080129E000934B495923206820F019FC49492B4685
S315080129F0494A206820F013FC284600F077FA47492F
S31508012A00206820F00CFCFEE70DF10F0104A80FF079
S31508012A10FDFD044610B3394D3949286820F0FFFBFE
S31508012A203849286820F0FBFB1FF06EF91FF06DF995
S31508012A30354B364A009336496423286820F0EFFB64
S31508012A4034492346344A286820F0E9FB204600F039
S31508012A504DFA3249286820F0E2FBFEE79DF8153069
S31508012A6001468DF818309DF8143008228DF8193072
S31508012A709DF8133018208DF81A30FF238DF81B3076
S31508012A80FE238DF81C309DF812308DF81D309DF807
S31508012A9011308DF81E309DF810308DF81F3006ABB9
S31508012AA00FF070FD054610B3144C1549206820F047
S31508012AB0B6FB1449206820F0B2FB1FF025F91FF078
S31508012AC024F9114B114A009311497423206820F007
S31508012AD0A6FB10492B46104A206820F0A0FB284681
S31508012AE000F004FA0D49206820F099FBFEE709B0C9
S31508012AF030BD00BFA0000100A2D903084C12002076
S31508012B00ABD80308ADD80308DDD90308ABD9030848
S31508012B10BBD80308CAD80308C7D80308DFD80308EF
S31508012B20D3D90308D7D9030810B5274C01F054FDAA
S31508012B3001F0AEFF236F23F0070343F00303236776
S31508012B401FF020FA214B00209B6ADB015EBF4FF480
S31508012B5080321F4B9A62D4F8203123F0070343F0E1
S31508012B600203C4F82031D4F8283123F0070343F0CF
S31508012B700203C4F82831D4F8403123F0030343F0A3
S31508012B800203C4F84031D4F8603123F0030343F05B
S31508012B900203C4F86031D4F8403223F0030343F04A
S31508012BA00203C4F84032D4F8003223F0070343F095
S31508012BB00203C4F80032D4F8083223F0070343F0BD
S31508012BC00203C4F8083210BD008000500040005AC4
S31508012BD00060005A30B51F4D95B00DAC0FCD0FC42E
S31508012BE095E80700292384E807001B4A0024CDE954
S31508012BF002230523CDE904448DF811300623214625
S31508012C00102209A88DF8133006942AF060FC4FF4B7
S31508012C108021124B0DAACDE9071309238DF824301B
S31508012C200A238DF825300E4B07A90A9320230B9307
S31508012C3001238DF831300B4B0B48009302AB04F09E
S31508012C40EBFD054621464FF4E1301FF0A0F8284672
S31508012C5015B030BDCCDC030800C0055024C00550B2
S31508012C60A1290020CC11002028120020831E012B47
S31508012C7010B512D8012910D8114B04221B6C052155
S31508012C800020C3F3401302F02BF90E4B1B6818689A
S31508012C90A8B1BDE81040436A18478B1E012B0CD812
S31508012CA001280CD8BDE810400022054B05211B6CF4
S31508012CB01046C3F3401302F013B90129E5D910BD33
S31508012CC000C00350C80A002008B50449044805F0A5
S31508012CD0A7F8BDE80840FFF77DBF00BFC00A00207E
S31508012CE020120020014820F008BC00BF281200204D
S31508012CF0014B1A6A186810472812002001481FF06C
S31508012D0065B800BFE8DC030801481FF0AEB800BF8C
S31508012D1000DD03087FB500240368464A23F47F4390
S31508012D2023F00703934205468DF808408DF80940BC
S31508012D308DF80A408DF80B408DF80C408DF80D4042
S31508012D406DD002F18272934271D1B0F80530212B10
S31508012D506DD1FF2304A91A4611E903001EF0CDFF20
S31508012D60012814BF41F2FC14334B4FF0210108BF6F
S31508012D70187004F0FC0228790FF01AFC064610B305
S31508012D802E4C2F49206820F04AFA2E49206820F057
S31508012D9046FA1EF0B9FF1EF0B8FF2B4B2B4A0093DB
S31508012DA02B494E23206820F03AFA2A4933462A4A03
S31508012DB0206820F034FA304600F098F82749206850
S31508012DC020F02DFAFEE71C4B1B78002B2FD0287913
S31508012DD00FF094FB054650B3184C1949206820F0AA
S31508012DE01EFA1849206820F01AFA1EF08DFF1EF007
S31508012DF08CFF154B154A009315495423206820F07A
S31508012E000EFA14492B46144A206820F008FA284677
S31508012E1000F06CF81149206820F001FAFEE7064B2C
S31508012E201B7823B104B0BDE8704020F082BC04B021
S31508012E3070BD00BFA0000601C12900204C12002068
S31508012E40ABD80308ADD803086ADD030818DD030803
S31508012E50BBD80308CAD80308C7D80308DFD80308AC
S31508012E600B4B02461B788BB10A4B1B78834234BF46
S31508012E7000200120084B1B783BB1084B1B7843FA0D
S31508012E8002F212F0010F08BF002070470120F1E796
S31508012E900A0D00200B0D0020C22900200C0D002070
S31508012EA0012208B5074B1A700022074B1A70042233
S31508012EB0064B1A701F22064B1A7004F0A3FA054B2B
S31508012EC0186008BD0A0D0020C22900200B0D00203C
S31508012ED00C0D00204C120020024B0349186820F003
S31508012EE09EB900BF4C1200208ADD030870B50C4C50
S31508012EF00C490646206820F092F904F083FA054643
S31508012F00206804F073FA3046FFF7E6FF284604F016
S31508012F106DFA20680449BDE8704020F080B900BF09
S31508012F204C1200208CDD03088EDD030807B5082046
S31508012F301EF082FF02238DF80030054B6846019387
S31508012F401EF0F5FE082003B05DF804EB1EF080BF05
S31508012F50006A18102DE9F041424D88B001AC0FCD39
S31508012F600FC495E8070084E80700012401213A20E7
S31508012F7001F0EEF83C4E0121292001F0E9F83B4B1E
S31508012F80304601A903938DF8124002F0F5F923465C
S31508012F9004220321022001F0A3FF0221224608464A
S31508012FA0002301F09DFF234621460422022001F059
S31508012FB097FF042200212346022001F091FF2C4DA0
S31508012FC02C4B05F50058C5F834374FF00213C5F8F0
S31508012FD0303703F58033C5F838371C234FF448706A
S31508012FE0C5F8203705F01CFE05F580571420C8F8EA
S31508012FF0A04005F015FE2320C7F8A04005F010FEF5
S31508013000B9213046C8F8A0401FF06BF80023032108
S315080130101A460220C7F8A04001F062FF00230221E8
S315080130201A46084601F05CFF234621460022022083
S3150801303001F056FF002223461146022001F050FFF7
S31508013040304602F017F900212920C5F83417C5F8CA
S315080130503017C5F83817C5F8201701F079F808B000
S31508013060BDE8F08194DD030800C0055000127A001E
S3150801307000C003500200010008B500F02DF8124BFC
S3150801308012498B4212D30020114B12498B4218D395
S31508013090FFF72AF9186850F82240586840F8224084
S315080130A0013298688242F5D30C33EAE70022F8E741
S315080130B01C6844F8220001325C68A242F8D308333E
S315080130C0E4E70022F8E700BFC4350408D035040850
S315080130D0D0350408D03504084FF480414FF0FF304D
S315080130E0114B124A10B59A60D3F8882042F470023F
S315080130F0C3F888200E4A91660E4901F500521066FA
S315080131000D4850660220C3F8D000BFF34F8FBFF3B6
S315080131106F8F01244FF440330848C0F88041D360CB
S3150801312004600B6110BD00BF00ED00E0002001083E
S315080131300090005000800044F7FF370000E100E0EE
S31508013140014B1868704700BFD80A0020084B1B6F4F
S3150801315003F00703022B04D0032B05D0012B05D05E
S31508013160FEE7044B18687047034BFBE703487047B3
S3150801317000800050D80A0020DC0A0020002D310109
S3150801318008B5FFF7E3FF054B1B6FC3F303330133A1
S31508013190B0FBF3F0024B186008BD00BF0080005079
S315080131A0D40A00200048704700B4C404014B1868CB
S315080131B0704700BFDC0A0020054B1860054B1B6FE2
S315080131C003F00703032B01D1FFF7DABF704700BFEE
S315080131D0DC0A00200080005000487047002D3101AC
S315080131E04FF0B4439868C0F304400C2822D8DFE8AE
S315080131F000F0092121212121071719211B1D1F0073
S315080132000F4870479B6803F04073B3F1807F13D072
S31508013210B3F1007F12D00B4A002B08BF1046704746
S31508013220094870470948704709487047094870476F
S315080132300948704700207047084870470848704792
S31508013240405DC60000093D000024F400C0EA2101E2
S3150801325080BA8C010048E801005A620280841E0087
S3150801326040420F00014B1868704700BFE00A002072
S315080132704FF000639B6A10B503F17842B2F5903FAF
S315080132800ED21968094A91420AD1094C227812F0DC
S31508013290FD0F08D1DB69984708B90123237010BDD2
S315080132A04FF48170FBE70020F9E700BF07B0CD5E58
S315080132B0C32900204FF00053074A1A60BFF34F8F06
S315080132C00649074BCA6802F4E0621343CB60BFF3B1
S315080132D04F8F00BFFDE700BF02020FF000ED00E0CF
S315080132E00400FA0505490A681318054883428CBF84
S315080132F04FF0FF320B601046704700BFE40A00200A
S315080133000000042010B40A681378022B11D0142087
S315080133103023147913FB040307481B585079C3401B
S31508013320DB4303F00103137008465DF8044BFFF70E
S31508013330ABB85DF8044B704730C0035037B5046825
S31508013340012105463A2000F003FF00230122617995
S31508013350207901F0C5FD14223023217913FB0123BD
S315080133600E4A9B586279D340DB4303F0010323706D
S31508013370A379022B0ED100F0A9FB2A4608496079E8
S3150801338000F0CEFB0123024661792079CDE90033AD
S3150801339001F04EFD002003B030BD00BF30C0035020
S315080133A00533010802681378022B24D0142130232F
S315080133B0107913FB001310495B585179CB40917969
S315080133C003F00103012912D1508843EA40034FF65D
S315080133D0E07063F03F039BB2834202D111705380C0
S315080133E070474FF6DF718B42F9D10021F6E711B923
S315080133F083F001031370704730C0035010B50121E3
S315080134003A2000F0A5FE012304220321002001F041
S3150801341067FD00201EF0F1FD0122314B3149C3F849
S3150801342044244FF40022A3F550335A66D1F8FC2000
S315080134302C4C12F080721EBFD1F8FC3023F0807339
S31508013440C1F8FC302849D1F8803023F0030343F052
S315080134500203C1F880302AB1D4F8FC3043F08073F6
S31508013460C4F8FC304FF4607000F08EFED4F8F030EA
S315080134701E4A43F00103C4F8F030D4F8FC3000F5D5
S31508013480D52043F08073C4F8FC30194B00F2FC4098
S315080134901A60184B0222B0FBF3F0174B013818617A
S315080134A0C3F8F0204FF48072C3F804234FF0604349
S315080134B0124A0020C3F8B02F114AC3F8802ED3F858
S315080134C0002E42F48072C3F8002EFF2283F82020D2
S315080134D0D3F8002E22F48072C3F8002E10BD00BF67
S315080134E000D0035000ED00E000800050FF030040CB
S315080134F0001000E0F8590D00000004E055CEACC5F7
S31508013500090001004FF06043D3F8802E30B5D20789
S3150801351015D501240B4D8440D5F8FC2042F0807264
S31508013520C5F8FC20D3F8002E2243C3F8002E53F821
S315080135302020002AF0D003F82010002030BD1120E9
S31508013540FCE700BF00ED00E010B5012243780178E1
S31508013550847830209A40054B00FB01331CB903F5EA
S3150801356001531A6010BD03F58253FAE700C00350F0
S3150801357010B5012243780178847830209A40054BAA
S3150801358000FB01331CB903F582531A6010BD03F51C
S315080135900153FAE700C003500122437801789A40A3
S315080135A030235943014B5A50704700BF40F003502E
S315080135B0102130230246007813FB00130549507881
S315080135C05B58C34003F0010093780BB980F0010002
S315080135D0704700BF30C003502DE9F04F9A46564B4D
S315080135E085B01B7806460F461546DDF83C909DF8D2
S315080135F044B0DDF85080002B00F08D80072A00F2D8
S315080136008C800E9B002B00F08880B9F1000F00F02A
S315080136108480129BB3F5006F7FDC012802D1109BD1
S31508013620002B7AD0454B03EB05131B7B002B76D079
S31508013630434C10220021684629F049FF04EB451442
S315080136401022002F59D13946204629F040FF43F26E
S3150801365010036380BBF1000F03D1E37843F0030342
S31508013660E370374A0E9B02EB451CCCE90193129B8A
S315080136706901013BC3F30A009DF84C30012E03F0A2
S3150801368003034FEA836343EA001E53582D48CDF8D6
S3150801369000A000EA03004EEA0003535041D1132368
S315080136A00CF1100ECCF80C309CE80F008EE80F00D8
S315080136B06FF00301DCF81C20109B61F39F02012FB8
S315080136C0CCF81C20CCF8143003D1CCF81890CCF8DF
S315080136D004300027194A290102EB051342F8018033
S315080136E0159A28465A60694622469F605E7301F01C
S315080136F095FC384605B0BDE8F08F0021204629F033
S31508013700E6FE4FF444736380BBF1000FA9D1E37859
S3150801371043F03003A4E70C48ECE70C48EAE70C4809
S31508013720E8E7B8F1000FD4D19CF8023068F3041326
S315080137308CF80230CDE700BFC429002050120020C2
S31508013740D01200200F80FFF3028000F0018000F004
S31508013750078000F038B5124B05461B78DBB1E0B19E
S315080137601EF02CFC0F4A00231146147B54B92B601A
S3150801377001251A0101EB03131D738C501EF024FC5D
S31508013780204638BD0133082B02F11002EDD11EF097
S315080137901BFC0548F5E70548F3E70548F1E700BFCF
S315080137A0C429002050120020048000F0028000F095
S315080137B0018000F013B51EF001FC00230B4A147BAF
S315080137C07CB90133082B02F11002F8D1019001F0FE
S315080137D0C7FB074B01981C701EF0F6FB204602B08A
S315080137E010BD1EF0F1FB0348F9E700BF5012002097
S315080137F0C4290020058000F00D4B10B51B7804463E
S3150801380093B1072812D81EF0D9FB0A4B03EB041310
S315080138101A7B2AB100241C731EF0D6FB204610BD64
S315080138201EF0D2FB0448FAE70448F8E70448F6E72D
S31508013830C429002050120020068000F0028000F002
S31508013840018000F0154B13B51868002301908DF817
S3150801385004301EF0B3FB124B1C7824B11EF0B4FBE6
S31508013860104802B010BD01221A701EF0ADFB0E4BB6
S3150801387001A81C731C7783F82C4083F83C4083F815
S315080138804C4083F85C4083F86C4083F87C400823FD
S315080138908DF8073001F090FB2046E2E700DE0308C9
S315080138A0C4290020038000F0501200200A4A08B5F6
S315080138B012785AB107280BD8084A02EB00131B7B6A
S315080138C043B1002101F06AFB002008BD0448FCE76A
S315080138D00448FAE70448F8E7C429002050120020F2
S315080138E0028000F0018000F0078000F00A4A08B55E
S315080138F012785AB107280BD8084A02EB00131B7B2A
S3150801390043B1012101F04AFB002008BD0448FCE748
S315080139100448FAE70448F8E7C429002050120020B1
S31508013920028000F0018000F0078000F00A4A08B51D
S31508013930127852B107280AD8084A02EB00131B7BF2
S315080139403BB101F0B9FB002008BD0548FCE7054875
S31508013950FAE70548F8E700BFC429002050120020FD
S31508013960028000F0018000F0078000F00D4B1B7803
S3150801397093B1072812D889B10B4B03EB00131B7BB4
S3150801398073B10A4B1A6D012303FA00F010401ABFEE
S3150801399000200B7008707047054870470548704746
S315080139A005487047C4290020501200200000045021
S315080139B0028000F0018000F0078000F00B4A10B584
S315080139C012780C4662B107280CD859B1084A02EB9D
S315080139D000131B7B43B101F081FB2070002010BD51
S315080139E00448FCE70448FAE70448F8E7C429002034
S315080139F050120020028000F0018000F0078000F0DC
S31508013A00204B2DE9F0471F6D5A6D1F4C174010D5F5
S31508013A104FF000411D4A1165D868C0F3042003011F
S31508013A20E35804EB00125BB3BDE8F0470021526886
S31508013A30184701260025DFF85480DFF854903742ED
S31508013A4017D02368C8F850609BB1A1682846013190
S31508013A506268A1609847637B012B0AD148B909EBD3
S31508013A6045131A7B60F341021A731A7F60F3410208
S31508013A701A770135082D4FEA460604F11004DED1FE
S31508013A80BDE8F087000004505012002000200450C1
S31508013A90D012002070B5044601250B4E04B970BD3D
S31508013AA094FAA4F0B0FA80F005FA00F306EB0012D6
S31508013AB024EA03045368002BF0D0117B11B19168F5
S31508013AC09847EBE79847E9E7D013002008B519208E
S31508013AD001F00AF828B14FF00072074BC3F88021AC
S31508013AE01A601A2001F000F828B14FF08062024BE3
S31508013AF0C3F880211A6008BD00E100E038B5054623
S31508013B000C461EF05BFA0022044B03EB05135C60BE
S31508013B101A73BDE838401EF057BA00BFD01300200B
S31508013B20F8B505460F4616461EF048FA104B05F03D
S31508013B30FC02D3F824140023EC1804F003041443FC
S31508013B4021FA04FC1CF0010F07D00133042BF3D131
S31508013B50FF241EF039FA2046F8BDFF2CF9D00122C0
S31508013B60044B03EB0413C3E901761A73F1E700BFAB
S31508013B7000C00350D0130020074BD3F82404D3F810
S31508013B80202403F50053104000F0553020F0502052
S31508013B90C3F82004FFF77EBF00C00350074BD3F8D4
S31508013BA02404D3F8202403F50053104000F0AA306A
S31508013BB020F0A020C3F82004FFF76CBF00C0035013
S31508013BC0024B1968024B186815F054BDEC0A00201F
S31508013BD0E80A002037B5920004460D46019229F0FD
S31508013BE0E7FD431C0BD060B929462046019A29F006
S31508013BF037FC0028044808BF002003B030BD03483D
S31508013C00FBE70348F9E700BF10E000F021E000F008
S31508013C1024E000F010B5044629F0D2FD431C10D06B
S31508013C2088B901F0EDFA234620F0030020449842B2
S31508013C3001D1002010BD53F8042B0132F7D00348F7
S31508013C40F8E70348F6E70348F4E700BF0EE000F09B
S31508013C5021E000F024E000F008B51EF0A8F9014BB8
S31508013C60186008BD101C0020014B18681EF0A3B986
S31508013C70101C0020044BD3F88420D206FBD4D3F8B9
S31508013C808400C0F3811070470040005038B5104BCE
S31508013C900546D3F880300C4603F00303022B0BD0FC
S31508013CA0032B0DD0012B0FD1FFF750FA0E2305B1C7
S31508013CB0286004B1236038BDFFF792FA0723F6E7B7
S31508013CC0FFF73EFA0623F2E700231846EFE700BF9F
S31508013CD00080005038B5184B0546D3F820010C462C
S31508013CE000F00700062805D8DFE800F0230B0F17B8
S31508013CF0131B1F000023184605B1286004B1236071
S31508013D0038BDFFF71DFA0523F6E7FFF74FFA032338
S31508013D10F2E7FFF765FA0723EEE7FFF75DFA0223F5
S31508013D20EAE7FFF70DFA0623E6E7FFF73FFA04236A
S31508013D30E2E70123E0E700BF0080005038B5174BE2
S31508013D400546D3F828310C4603F00703013B052B3A
S31508013D5020D8DFE803F003131B0F0B17FFF7F0F961
S31508013D60052305B1286004B1236038BDFFF7E8F9DA
S31508013D700623F6E7FFF734FA0723F2E7FFF716FA01
S31508013D800323EEE7FFF712FA0423EAE7FFF724FA1B
S31508013D900223E6E700231846E3E700BF0080005048
S31508013DA073B50D460021114B0191D3F880410646A2
S31508013DB004F00304022C13D0032C0CD0012C13D1CC
S31508013DC001A8FFF787FF10240EB1019B336005B1E7
S31508013DD02C6002B070BDFFF703FA07240190F3E7E0
S31508013DE0FFF7FAF90190EFE70C46EDE7008000507E
S31508013DF0002337B50193164B0546D3F820320C46F6
S31508013E0003F00703042B04D8DFE803F0200B11168F
S31508013E101B0000230DB1019A2A6004B1236003B087
S31508013E2030BD002101A8FFF789FF1223F2E7FFF74A
S31508013E30D7F907230190EDE71DF0BBFF0A2301908F
S31508013E40E8E7FFF70FFA09230190E3E70123E1E722
S31508013E500080005038B5104B0546D3F840310C4662
S31508013E6003F00303022B0BD0032B0DD0012B0FD12B
S31508013E701DF09FFF0A2305B1286004B1236038BDF0
S31508013E80FFF7F0F90923F6E71DF096FF0C23F2E791
S31508013E9001230020EFE700BF00800050002337B55B
S31508013EA00193164B0546D3F860320C4603F0070317
S31508013EB0013B032B1FD8DFE803F0020E191400217A
S31508013EC001A8FFF707FF10230DB1019A2A6004B173
S31508013ED0236003B030BD002101A8FFF7BBFF112302
S31508013EE0F2E7FFF77DF907230190EDE7FFF774F98C
S31508013EF002230190E8E70023E6E700BF00800050AF
S31508013F00002337B50193164B0546D3F894320C4670
S31508013F1003F00703013B032B1FD8DFE803F0020E6A
S31508013F201914002101A8FFF7D5FE10230DB1019A36
S31508013F302A6004B1236003B030BD002101A8FFF750
S31508013F4089FF1123F2E7FFF74BF907230190EDE704
S31508013F50FFF742F902230190E8E70023E6E700BFED
S31508013F600080005038B5144B0546D3F800020C46BC
S31508013F7000F00700042804D8DFE800F01B0A0E1237
S31508013F8016000023184605B1286004B1236038BD20
S31508013F901DF00FFF0A23F6E7FFF764F90923F2E795
S31508013FA01DF00AFF0C23EEE7FFF7EAF80F23800A54
S31508013FB0E9E70123E7E700BF0080005038B5144B55
S31508013FC00546D3F808020C4600F00700042804D871
S31508013FD0DFE800F01B0A0E1216000023184605B189
S31508013FE0286004B1236038BD1DF0E3FE0A23F6E715
S31508013FF0FFF738F90923F2E71DF0DEFE0C23EEE799
S31508014000FFF7BEF80F23800AE9E70123E7E700BFB8
S315080140100080005038B5104B0546D3F840320C469F
S3150801402003F00303022B0BD0032B0DD0012B0FD169
S315080140301DF0BFFE0A2305B1286004B1236038BD0F
S31508014040FFF710F90923F6E71DF0B6FE0C23F2E790
S3150801405001230020EFE700BF0080005038B5104B60
S315080140600546D3F860310C4603F00303022B0BD047
S31508014070032B0DD0012B0FD11DF09BFE0A2305B191
S31508014080286004B1236038BDFFF7ECF80923F6E789
S315080140901DF092FE0C23F2E701230020EFE700BF93
S315080140A000800050B0F5207F1FD009D8B0F5007FF9
S315080140B015D003D868B1B0F5C07F0AD000200CE04E
S315080140C0B0F5607FFAD10B4BD3F88000C0F301102D
S315080140D003E0084B186FC0F3033001307047054BF6
S315080140E0D3F89000C0F30460F7E7024B186FC0F3EA
S315080140F08020F2E70080005002464FF48030104BD2
S3150801410010B598660020FFF7CDFF504341F671328E
S315080141100C4BDC69DA635A6804F4803422F44012E1
S3150801412059B9094988428CBF4FF4801000201043C1
S3150801413058600CB10022DA6310BD0449F2E700BFEA
S315080141400090005000000350005A6202002D310110
S31508014150430905D0012B0DD0022B094B18BF0023AB
S3150801416000F01F0041B103F58053012202FA00F065
S3150801417018607047034BF3E703F50053F5E700BFF3
S3150801418068800050648000501FB5002180280446CD
S31508014190CDE9001100F0A58035D85E2846D85E28FD
S315080141A044D8DFE800F0A243434343434343434330
S315080141B043434343434343434343434343434343C0
S315080141C0434343434343A2AAA2AAB9B9B9B9B9AA6F
S315080141D0C34DD9714DAAAAAA434343434343434313
S315080141E0AAAAAA79E3AA434343434343434343431E
S315080141F0434343B9A2A2A2DE4D4DE8885EBE4343BE
S3150801420043434399A200B0F5B06F00F08F802DD8D3
S31508014210B0F5207F71D00CD8B0F5C07F65D0B0F568
S31508014220007F65D0B0F5807F00F08580009804B0E6
S3150801423010BDB0F5607F6AD00DD8B0F5407FF5D1D5
S31508014240FEF79EFF02464FF42070FFF72BFFB2FBE5
S31508014250F0F0400847E0B0F5806F5DD0B0F5A06F8B
S31508014260E4D100216846FFF7C3FDDFE7B0F5106F1B
S3150801427077D016D8B0F5E06F78D00AD8B0F5C06F08
S315080142806AD0B0F5D06FD1D100216846FFF76AFE32
S31508014290CCE7B0F5F06FC9D100216846FFF7DEFE1D
S315080142A0C4E7B0F5406F3CD013D8B0F5206F62D0A3
S315080142B0B0F5286FBAD10021314B0391D3F870328A
S315080142C003F00303012B02D103A8FFF7C3FD039BE8
S315080142D03BE0B0F5486FA9D100216846FFF710FE0B
S315080142E0A4E7FEF733FF0090A0E7FEF749FFFAE7D8
S315080142F0FEF72CFF0246204604E0FEF741FF024680
S315080143004FF42070FFF7CEFEB2FBF0F0EBE701A801
S31508014310FFF7BCFC019AEEE700216846FFF7DAFCD5
S3150801432084E700216846FFF709FD7FE70021684613
S31508014330FFF736FD7AE74FF0E02302911B695B0729
S3150801434005D5FEF71DFF0290029B00936EE703A9B0
S3150801435002A8FFF77FFDF7E700216846FFF77AFD18
S3150801436064E700216846FFF729FE5FE700216846F2
S31508014370FFF750FE5AE700216846FFF78FFD55E71C
S315080143800080005008B58020FFF7FEFE034B9842D7
S315080143909EBF4FF48032024B1A6708BD005A62026B
S315080143A000A000501FB50023B0F5807F019300F0EF
S315080143B0C38064D85D2855D84C2807D82D2847D8F6
S315080143C023282BD8019805B05DF804FB4D38102831
S315080143D0F8D801A353F820F02F450108C543010871
S315080143E0C5430108C5430108E1440108C54301085D
S315080143F0C5430108B5450108FF440108A54401085C
S31508014400AB450108C5430108C5430108C543010871
S31508014410C5430108C5430108BF45010824380928D1
S31508014420D0D801A353F820F02F4501082F450108DC
S315080144302F4501082F4501082F450108C5430108E5
S3150801444025450108C5430108C14401086545010818
S315080144503D2800F082803E28B4D1002001A9FFF74B
S31508014460D9FDAFE78028ADD15A4B1B6F03F007037F
S31508014470013B032BA6D8DFE803F05350878FB0F52D
S31508014480F06F6AD021D8B0F5B06F4BD00FD8B0F520
S31508014490607F00F0858095D3B0F5806F47D0B0F581
S315080144A0A06F8FD1002001A9FFF7A2FC8AE7B0F51A
S315080144B0D06F57D0B0F5E06FCFD0B0F5C06F81D1CE
S315080144C0002001A9FFF7C6FC7CE7B0F5206F71D083
S315080144D00BD8B0F5086F4AD0B0F5106F7FF472AFFC
S315080144E0002001A9FFF76AFD6CE7B0F5406F5CD0C3
S315080144F0B0F5486F63D0B0F5286F7FF463AF00213C
S31508014500344B0391D3F8703203F00303012B5BD0CC
S31508014510022B14BF0B46152300E00523019351E72F
S315080145200223FBE7002001A9FFF73AFC4AE700202E
S3150801453001A9FFF7CFFB45E702934FF0E0231B697B
S315080145405B0705D5FEF71CFE0D230393039BE5E7E1
S3150801455003A902A8FFF77EFCF8E7002001A9FFF7E7
S315080145607DFD2FE7002001A9FFF7FCFC2AE7194B7F
S31508014570D3F8003103F00303022B07D0032B09D02C
S31508014580012B0BD1FEF712FE0323C7E7FEF76AFEDE
S315080145900923C3E71DF00BFC0823BFE70123BDE789
S315080145A0184601A9FFF772FB0CE7002001A9FFF7DE
S315080145B0C5FB07E7002001A9FFF770FC02E7002009
S315080145C001A9FFF79DFCFDE603A8FFF743FC1123AC
S315080145D0A4E700BF008000504FF48012034B5A66CF
S315080145E04FF48032024B9A62704700BF0090005028
S315080145F00050005A08B5FFF7D5FE092811D00A3828
S31508014600012811D84FF48002094B4FF6FF705A66FC
S3150801461003F5D8335B6A13F0010F18BF4FF4FA702C
S3150801462008BD044B1888FBE74FF6FF70F8E700BF93
S3150801463000900050F40C002038B504468020FFF79E
S31508014640B1FE032800F08A804FF48012544B4FF0D4
S31508014650A0615A6645F60E03524AC2F88030524B9B
S3150801466099624FF4803103F580539962936DD903AA
S31508014670FCD4916D11F08041FBD1D4E900031B05EF
S3150801468043EA0063E07B0343207B43EA0043607B04
S3150801469043EA0033A07B43EA801313619069D4E9A6
S315080146A004531B0643EA856300F000400343A07EDA
S315080146B0E57E0343207E43EA0043607E43EA002306
S315080146C09361E069136A00280CBF0022082223F0CF
S315080146D00F0343EA000343EA850343EA0203314A27
S315080146E0324D13623BD194F82430916A94F8200034
S315080146F0DB000D4043EA401394F821102B4343EAAB
S31508014700011343F480339362294B916D33EA010116
S31508014710FBD14FF08071244881621369A56823F49F
S31508014720700343EA055313614FF00043836194F81C
S3150801473022300BB91F4B996294F823303BB94FF4D9
S3150801474080321C4B9A62174A936D5B00FCD494F82D
S3150801475025301BB1134B184AC3F8802038BD0228EF
S3150801476008D11161154891614FF408524FF47F4100
S315080147701DF0E4FB0B4994F822308A6A94F820006C
S315080147801B06154043EA401394F824202B4343EAB9
S31508014790C20394F8232043EA02438B62D7E700BF9A
S315080147A0009000500040005A0050005AC7FFFEFE14
S315080147B0030001000060005AF1A7FFFF3440005AC8
S315080147C037B5194CA26AA36D13F4803F18BF4FF48D
S315080147D08031164B18BF99624FF080719962144B5C
S315080147E0A56993F9003025F47F050344000280B2D8
S315080147F025F47F4583F30803284340EA0340A06173
S315080148000C4801921DF09AFBA36D019A13F4803F9F
S3150801481007D04FF48031074803B0BDE830401DF09A
S315080148208DBB03B030BD00BF0040005A0050005A8E
S315080148300D0D00202840005A014B93F900007047DE
S315080148400D0D00204FF4803311481249826A8B629C
S31508014850836D03F00303032BFAD14FF080738B6248
S315080148600B4B0D49986D31EA0000FBD1012009492E
S315080148700865996D8907FCD4054B996D8807FCD5A0
S31508014880996D8907FCD5054905481DF057BB00BF39
S315080148900040005A0050005A0300010000000101BF
S315080148A02840005AF0B5D0E901434FF400061A4AE8
S315080148B04178057856664FF4D156022702F5B83283
S315080148C05662164E4F2977604FF0010728BF4F21D0
S315080148D006F5805677601669F603FCD441EA052188
S315080148E051611B01417B43EA04230B43017B43EAE4
S315080148F041039360C37B817B1B0143EA4113417CDE
S315080149000B43017C43EA41035360837C13B16FF483
S31508014910D1535362F0BD00BF009000500010025001
S31508014920014B1880704700BFF40C0020014B18801A
S31508014930704700BFF20C00204FF4800208B5184BEF
S315080149405A660223174A5360936813F48033FBD1DE
S31508014950012822D1FEF72AFC134B984215D003F5FC
S31508014960122303F5F863984213D0104B00EB80022B
S31508014970400AB3FBF0F0520A0A4BDA6201221863C5
S315080149805A620022074B5A6008BD45F67A10084A52
S31508014990F2E745F61A00074AEEE75362F1E700BF68
S315080149A0009000500040025000F0490264666666B5
S315080149B0D8B80500BBCF0500B0F5207F10B50C4669
S315080149C057D008D8B0F5007F48D003D830B3B0F532
S315080149D0C07F23D010BDB0F5607FFBD129492A4895
S315080149E0D1F8FC2012F080721EBFD1F8FC3023F0FA
S315080149F08073C1F8FC30D0F88030611E23F0300492
S31508014A0044EA0114C0F88040002AE3D01D4AD2F8CE
S31508014A10FC3043F08073C2F8FC30DBE71DF09FFAE7
S31508014A201DF0ABFA4FF48031184B174A1967136F0B
S31508014A30611E23F4704444EA01341467FEF7A0FBAF
S31508014A400446FFF717F9C0F1020120461DF08FFA57
S31508014A5000F02EF8BDE81040FFF794BC0A4A013968
S31508014A60D2F8903023F0F85444EA0164C2F8904031
S31508014A70B0E7054B013C196F21F4806141EA8424B2
S31508014A801C67A7E700ED00E0008000500090005089
S31508014A9008B50121022000F07FF81DF060FA1DF02B
S31508014AA06CFA4FF48032014B1A6708BD009000502A
S31508014AB008B54FF4C070FFF767FBBDE80840044925
S31508014AC088428CBF022101214FF42070FFF774BF81
S31508014AD080F0FA02034B5868C0F30800003818BF83
S31508014AE00120704700ED00E0054B420953F82230DA
S31508014AF000F01F0023FA00F0C04300F001007047E0
S31508014B0000E100E0024A536B0342FCD1704700BF43
S31508014B1000400950044A4178536F23F4407343EA2D
S31508014B2001235367704700BF004000500A4A10B579
S31508014B301369044643F00403136103F09DFB1DF05A
S31508014B4046FA30BF1DF044FA03F0D0FB1CB9BDE8A4
S31508014B501040FEF715BB10BD00ED00E0084A10B580
S31508014B601369044643F00403136103F085FB30BF60
S31508014B7003F0BCFB1CB9BDE81040FEF701BB10BD34
S31508014B8000ED00E0034A0179D36E23F030030B43AD
S31508014B90D366704700400050F8B504461C4BD3F85D
S31508014BA08420D106FBD4D3F88430C3F381139C4205
S31508014BB02CD0FEF7CBFA012C064602D121461DF070
S31508014BC0D6F91DF0F4F94FF00072124B07465A66F2
S31508014BD020461DF000FA4FF480630D4D621E934086
S31508014BE02B676B6E9A0103D4D5F884309B060AD5D8
S31508014BF038461DF0E0F9022C08D13046BDE8F840E8
S31508014C0000211DF0B4B9D5F88430EAE7F8BD00BF34
S31508014C10004000500060005007B518B90191FEF731
S31508014C2095FA0199064B1B7843B1064B984205D86C
S31508014C30012003B05DF804EBFFF7AEBF0220F8E7E9
S31508014C40C5290020005A62020278034B012100207F
S31508014C501A70FFF7E1BF00BFC52900204FF00042D7
S31508014C6038B5244B244C5A664AF6CD33656C014651
S31508014C7005F00105236430BB0120FFF743FF636894
S31508014C80DB0708D4002415B11B4B1C4A1A6427F00C
S31508014C909CFF204638BD1A4B58600846194B226BB3
S31508014CA0D20705D4984201D10724ECE70130F6E78B
S31508014CB09842E7D1F8E70132236B13F0080305D0D0
S31508014CC08A42F8D1F0E700220E49F5E78A42EBD08D
S31508014CD020210B4A91620121A2F5805251600649B1
S31508014CE0084A886A800603D49342DDD00133F8E77F
S31508014CF09342DEE700900050004009503254FFFF0E
S31508014D000060095040420F004FF0004238B5164B7B
S31508014D1001465A664AF6CD33144C154A656C236426
S31508014D2043780B205B0043F00103D363FFF7EAFEE8
S31508014D3063688A7823F4F87343EA02136360CA78CE
S31508014D404B7943EA0223A3600A798B7943EA022362
S31508014D5023610878FFF782FFEB0744BF054B2364FD
S31508014D6027F033FF012038BD00900050004009505C
S31508014D70004000503254FFFF4FF00042124B70B50D
S31508014D805D6E03F580535A664AF6CD3304460F49DC
S31508014D9080204E6C0B64FFF7B5FE0B6A23F00F03F8
S31508014DA00F2C94BF234343F00F030B62F30744BF51
S31508014DB0074B0B64002DA2BF4FF00042054B5A6604
S31508014DC027F003FF70BD00BF008000500040095066
S31508014DD03254FFFF00A000504FF00042104B70B54F
S31508014DE05D6E03F580535A664AF6CD3304460D497E
S31508014DF080204E6C0B64FFF785FE0B6A23F4F8538B
S31508014E0043EA04230B62F30744BF074B0B64002DE7
S31508014E10A2BF4FF00042054B5A6627F0D6FE70BD79
S31508014E2000800050004009503254FFFF00A0005096
S31508014E30072AF7B501F0030614461F464FF003018A
S31508014E402CD89500A94000FA05F21C4801911DF0DD
S31508014E50C3F801991A4806FA05F21DF0BDF8194B6F
S31508014E6019499DF82000002F08BF1946012303FAA6
S31508014E7004F40C60154B1649002808BF0B461C6044
S31508014E80144B9DF82400C3F820441031A3F6DC33F3
S31508014E90002808BF0B461C6003B0F0BDA2F1080547
S31508014EA0AD00A94000FA05F20B4801911DF094F8EE
S31508014EB001990A4806FA05F2CFE700BF00C4035074
S31508014EC008C4035010E4035010D4035014D40350FB
S31508014ED014E4035000E0035004C403500CC4035007
S31508014EE02DE9F04105460F461E4690464AB1012373
S31508014EF03022194C8B4002FB00443EB304F5825420
S31508014F0023600F21072F05EB450388BFA7F1080486
S31508014F104FEA0313114895BFBC00A40004330C33B0
S31508014F2008FA04F2A14018441DF056F8B8F1000F2A
S31508014F300AD101213020084A01FA07F700FB0522A8
S31508014F403EB102F582521760BDE8F08104F50154BD
S31508014F50D6E702F50152F6E700C0035030C0035008
S31508014F604FF400120B4B10B5C3F88020BFF34F8FD7
S31508014F70BFF36F8F0024FF22074B21465C65202073
S31508014F809A625C60FFF7E4F82146BDE810402120EB
S31508014F90FFF7DEB800E100E000000450044A054BC3
S31508014FA0002918BF1346012202FA00F0186070475B
S31508014FB0402004504010045010B501210446202019
S31508014FC0FFF7C6F801212120FFF7C2F80122114B8C
S31508014FD05A60227812069A606178A27842EA0142FA
S31508014FE09A61FF229A6200229A631A644FF000427C
S31508014FF05A654FF0FF324FF4001103F500531A6555
S31508015000054AC2F88011E3781B01DBB282F8153331
S31508015010116010BD0000045000E100E02DE9F041E7
S315080150200125C3B2D1F8008091F80AC00F7B91F827
S315080150300DE09D400C46CB7A1C491D4E0D6581003D
S3150801504001F1A04101F58821C1F80480302101FB55
S3150801505000601B0543EA0C4343EA475322F0030267
S31508015060C0F860E0C36502671CF0A8FF736D2B43A7
S315080150707365237A13B1336C2B433364637A13B1A3
S31508015080B36B2B43B3632279A37943EA0243074AF5
S3150801509093616179E37943EA014306498B61044BDC
S315080150A055639D64BDE8F0411CF08EBF0020045095
S315080150B0000004500010045010B50124C0B2844009
S315080150C01CF07CFF044B5A6D22EA04025A659C6265
S315080150D0BDE810401CF078BF0000045010B501244B
S315080150E0C0B284401CF06AFF074BDA6A224209D132
S315080150F05B6B34EA03030CBF012400241CF064FF34
S31508015100204610BD0024F9E7000004504FF4803210
S31508015110054B9A6641F6713203F51C33DA630122AF
S3150801512003F50053DA6070470090005041F671327A
S315080151300121064BDA6303F50052D1600022DA63D6
S315080151404FF48032A3F518339A667047000003506E
S31508015150013831289ABF024B185C0020704700BFFE
S3150801516028DE030810B5C2F30623044602F0070237
S3150801517041B942EA03220B4B42F44022063443F872
S31508015180242010BD184611461CF038FF0146184662
S31508015190FFF7DEFF034B41EA0020163443F82400EB
S315080151A0EFE700BF008003504FF48032064B5A6682
S315080151B003F5E6239B69C3F38512827003F03F0268
S315080151C01B0B4270037070470090005040F6B732CF
S315080151D0064B5B689BB293429FBF4FF47A72B3FB4F
S315080151E0F2F3034AD05C88BF002070470080E00FC5
S315080151F05ADE0308014B986CD96C70470080E00FA2
S315080152000120034B9B680A3303F01F03984070473C
S315080152100080E00F70B5054616461C4621B94FF4C5
S315080152202070FEF7B1FF0146402C1BD003D8DCB134
S31508015230202C1BD070BD602CFCD1042303FB06F285
S31508015240560806EB4113B3FBF2F3094A203B02EA7F
S31508015250C303AA6822F06002AA60AA681443AC6074
S31508015260EB61E7E70623E9E71023E7E70823E5E724
S31508015270F8FF7F00012100F5805310B5596040F60B
S31508015280AA6341F2050243610023094C8360C365A1
S31508015290C26000F500520361C361C3649464054C9E
S315080152A08365A04204BF03654365516010BD00BF15
S315080152B0FFFF010000C0055070B50D46FFF7DAFF84
S315080152C0012300F580567360AB7C04461BB18368E5
S315080152D043F080438360EB7C5BB1244B9C4202BF65
S315080152E02A7DA3F51033C3F8C821E36D43F0800383
S315080152F0E3652A8A6B7B20461343EA891343E360F5
S315080153002B7BD5E90112FFF785FF6B7D1BB1A368DE
S3150801531043F48033A360AB7D1BB1A36843F4004318
S31508015320A360EB7D2A7E1B07120502F4E00203F057
S31508015330E0431343A3656B7E9A1E012A4FF00202CE
S3150801534009D80B49032BC1F8202709D10423F36592
S315080153502B78636170BD0749012BC1F82027F4E753
S31508015360042204F50053DA65F2E700BF00C00550D0
S3150801537000D0035000E0035038B50D46FFF77AFF19
S315080153800122A97B00F580535A602A8A836800297D
S3150801539014BF4FF48061002142F0010213432A7DB4
S315080153A00B43002A14BF4FF0005200228360836822
S315080153B0044613438360AB7C5BB1194B984202BF29
S315080153C0EA7CA3F51033C3F8C821C36D43F0800303
S315080153D0C3652B7B2046D5E9011243F48053E3606C
S315080153E01CF060FE6B7B0BB1102363616B7D1BB1F7
S315080153F0A36843F48033A360AB7D1BB1A36843F470
S315080154000043A360EB7D2A7E1B07120503F0E043E8
S3150801541002F4E0021343A3652B78636138BD00BF2C
S3150801542000C00550054B9A689107FCD45A68920743
S31508015430F9D4DA69002AF6D1704700BF00800A500C
S3150801544008B5FFF7EFFF0122024B03F580514A60C9
S315080154501A6108BD00800A50074B5A68012A0AD109
S315080154605A68D20702D5DA69002AF9D102221A61E5
S315080154700122024B5A60704700800A5000A00A5068
S3150801548010B5064CFFF7CEFF6368012B03D1FFF772
S31508015490E3FFFFF7C7FF0378E36010BD00800A50FA
S315080154A0E8B94A680B7812B1127843EAC2034A7816
S315080154B0002A14BF0222002213438A6812B1127805
S315080154C043EA82138A78002A14BF0422002213436E
S315080154D0CA6812B1127843EA4223014A93647047B3
S315080154E000800A5008B9014B5964704700900A5068
S315080154F008B9014B5964704700A00A5008B9014B15
S315080155001964704700A00A5010B9024B186C70470D
S315080155100020704700800A5048B911B1012903D00B
S315080155207047044BD86C7047024B186D70470020C2
S31508015530704700BF00800A5040B911B1012903D054
S315080155407047034BDA647047014B1A65704700BF11
S3150801555000800A5010B9024B586D704700207047F9
S3150801556000800A5038B50446054D27F054FB0FCC88
S315080155700FC594E8030085E80300002038BD00BF85
S31508015580C41C002047F6FF739A42F0B566D001297C
S3150801559066D8344DCF0015F8313005EBC100012B23
S315080155A0847813D10025C3781B1B9D4202D3E018CA
S315080155B0C0B2F0BD591B4668A3EB510136F911601B
S315080155C09642D4BF0D4601F1FF33EEE74068002845
S315080155D0EFD0B0F90030934204DBB0F902309342C0
S315080155E0B8BF134682883D44FF2A19BFC8214FF028
S315080155F0280CB0F90610B0F908C0A1EB03020CBFDC
S315080156000126002692FBFCF26D78324412B29542CD
S3150801561001DD002A01DA6A1E12B24FF47A7700EB2D
S31508015620C206F188B668013213FB016112B221EA9A
S31508015630E1715C319542B1FBF7F104DD00EBC2067D
S31508015640B6888E42EBD200EBC20232F8040C8842CD
S3150801565028BF0846A04238BF2046A9E7FF20A8E789
S315080156600020A6E7C41C00200129F0B553D82B4811
S3150801567000EBC10410F83110636801290FD1E078F5
S31508015680A478904294BFC4EB0001C4EB0201001B4D
S31508015690CAB28242C8BF002233F91200F0BD002BFC
S315080156A039D0A178914202D3B3F90200F6E7E1783D
S315080156B0B3F900009142F1D999886478A1F1FF06FE
S315080156C0013C714203F10405E4B2714103F10C078F
S315080156D01FFA82FCCEB2B44216D805EBC1014FF4CB
S315080156E07A756A43B1F902404968521A04EBD471D2
S315080156F002EB610292FBF4F29042CFDBB3F90200AE
S315080157009042CBDC10B2C9E737F831E04E1CE645CA
S31508015710E3D33146DEE70248C0E700BFC41C0020D8
S315080157200080FFFF0148FFF71DBF00BF60DE0308C9
S3150801573000487047F60C00207FB50222084B09493C
S31508015740CDE901234FF00073CDE90313072301A91E
S315080157504FF0FF30059327F096FA07B05DF804FB82
S31508015760006A18000002060008B5B0B14FF480625D
S315080157700B4B9A661CF078FC4FF098435A6CD20290
S31508015780FCD54FF48062586D064B10F470209A666A
S3150801579004D0BDE808401CF0BBBC212008BD00BFF1
S315080157A00090005000A000502DE9F0418CB08846C9
S315080157B0DDE912761D460446002847D0002945D062
S315080157C0002F43D0002E41D013F00F033ED12048BD
S315080157D02049A360002A18BF0146E361C4E9001302
S315080157E0404609A91CF088FD68BB204609991CF0AA
S315080157F032FC294620461CF02EFC6946404600F03C
S31508015800E7FA00BB694620461CF011FC404603A98D
S315080158101CF040FEB8B9204603A91CF008FC0697FF
S315080158200127204645F0005506A9079708951CF05B
S31508015830FEFB204609A909960A970B951CF001FC5F
S315080158402046FFF791FF0CB0BDE8F0812120FAE769
S3150801585000010104000100042DE9F0438DB08846DA
S3150801586015461C460746DDF85090002850D00029F9
S315080158704ED0002A4CD0B9F1000F49D00B68103B25
S31508015880102B45D8012606FA03F303F0013323F05A
S315080158908073002B3CD000231E4A8360C0E9002395
S315080158A0C36109A940461CF027FD70BB3846099912
S315080158B01CF0D1FB214638461CF0CDFB6946404613
S315080158C000F086FA08BB694638461CF0B0FB40462C
S315080158D003A91CF0DFFDC0B9384603A91CF0A7FBD4
S315080158E044F00054384606A90695079608941CF014
S315080158F09EFB094B384609A9CDF824900A960B93C5
S315080159001CF09FFB3846FFF72FFF0DB0BDE8F0836B
S315080159102120FAE70000040410000020F0B50C4627
S3150801592017461E46054695B0002874D0002972D040
S31508015930002A70D0002B6ED0036B0F2B5BD8002387
S31508015940364A3846C4E90023A360E36111A91CF06D
S31508015950D3FC00285BD1204611991CF07CFB296BEE
S3150801596020460F2984BF01F00F0110311CF073FB8B
S31508015970384602A900F02CFA002848D1204602A987
S315080159801CF055FB384605A91CF084FD00283ED1BC
S31508015990204605A91CF04BFB0122214B08950992CB
S315080159A00A932B6B05F1100003F00F0141F000512A
S315080159B00B900F2B0C920D910E900F9243F0005203
S315080159C0109226D90A9B08A923F0005320460A9368
S315080159D01CF02DFB0BA920461CF029FB012311966F
S315080159E012930F4B204611A913931CF02AFB20464C
S315080159F0FFF7BAFE0BE000F12003019000930122A4
S31508015A00102339462046FFF7CFFE002897D015B058
S31508015A10F0BD0EA9DFE72120F9E700BF0000040465
S31508015A20100000202DE9F04F9BB00D46914698468F
S31508015A300646DDF890A0002800F0B380002900F0A2
S31508015A40B080002A00F0AD80002B00F0AA80026B1E
S31508015A5002EB0A031B09B3EB121F02F00F0700F052
S31508015A6098800023504A8B60C1E90023CB614846E0
S31508015A7017A91CF041FC0446002840F0868007EB74
S31508015A800A0323F00F0B2846179900931CF0E3FA33
S31508015A90594628461CF0DFFA484602A900F098F94B
S31508015AA00446002871D1284602A91CF0C0FA4846C6
S31508015AB005A91CF0EFFC0446002866D14FF0010940
S31508015AC0284605A91CF0B3FA384A284608A90896B3
S31508015AD0CDF824900A921CF0AAFA47F00051ABEBD4
S31508015AE0070706F1100347F000570B93CDF83090DE
S31508015AF00D91CDF83880CDF83C9010970D99284630
S31508015B0021F000510D910BA901931CF090FA28463A
S31508015B100EA91CF08CFAABF11001244A41F0005190
S31508015B201194CDF84890139106F120011491CDF8FE
S31508015B30549016921399284641F08041139113996E
S31508015B4021F00051139111A91CF07BFA284614A9DA
S31508015B501CF077FA154A17A928461796CDF86090CA
S31508015B6019921CF06EFA2846FFF7FEFD009B0446C3
S31508015B70ABEB0301A3EB0B02019B514418464144CD
S31508015B8027F07EFC336B5344336320461BB0BDE8D4
S31508015B90F08F103052464146384427F071FC0024F4
S31508015BA0F0E72124F1E700BF0302000410000020FA
S31508015BB02DE9FF4700230E461746044600930028A1
S31508015BC05BD00AB1002958D037F0030807F0030A59
S31508015BD025D04FF000094FF0E063C4E900390123ED
S31508015BE001962046029301A948F00053C4F808908B
S31508015BF0C4F81C9003931CF024FA414620461CF075
S31508015C002AFA2046FFF7B0FD054640B14246494605
S31508015C10304627F05CFC284604B0BDE8F0874FF013
S31508015C200009BAF1000F2AD04FF0E063C4E9003940
S31508015C300123CDF804D00293124B204601A9C4F8DA
S31508015C400890C4F81C9003931CF0FBF90421204624
S31508015C501CF001FA2046FFF787FD054608B13A46CA
S31508015C60D5E7034600994644DA00013321FA02F2E0
S31508015C709A4506F8012BF7D1CDE72125CBE75546FD
S31508015C80C9E700BF04000020F0B50F4616461D46B9
S31508015C90044693B010B9212013B0F0BD0029FAD0FB
S31508015CA0002AF8D0002BF6D0002331461A4638468A
S31508015CB01CF0D7FA0028EFD1304602A91CF067FA82
S31508015CC00028E9D1EB68022B0AD039683F48029AC5
S31508015CD081426B6902D01830814270D19A42DAD872
S31508015CE02B68002BD7D14FF060623846C4E90023F0
S31508015CF0A360E36101A91CF0FFFA0028CCD1019940
S31508015D00204621F4F06101911CF0A5F9694628465F
S31508015D101CF0F2FA0028BFD1204600991CF09BF925
S31508015D20384609A900F054F80028B5D1204609A932
S31508015D301CF07DF938460CA91CF0ACFB0028ABD148
S31508015D4020460CA91CF073F9EB684BB1284606A945
S31508015D5000F03EF800289FD1204606A91CF067F9F5
S31508015D60304603A91CF096FB002895D1B368DA04DE
S31508015D700CD59B0427D50621F36932691B6801FBFB
S31508015D8003225B0043F0005303920593204603A9BF
S31508015D901CF04DF928460FA91CF07CFB00287FF45E
S31508015DA07BAF20460FA91CF04CF903252046FFF7C7
S31508015DB0DBFC01287FF470AF013DF7D16CE7B3EB4B
S31508015DC0420F8DD267E7292066E700BF200000B0A1
S31508015DD0A0B199B101234B60C368013B012B0AD8D5
S31508015DE08069074B18B1086000208B607047054A27
S31508015DF00A608B6070474FF00053F5E72120704722
S31508015E000800002010F0030870B50E461546044632
S31508015E108AB000285BD0002959D0002A57D001231F
S31508015E2029461A4630461CF01CFA00284DD1B3689B
S31508015E3013F4C04F4BD0AB6803F4C043B3F5005F0E
S31508015E4045D1254BA060C4E90030E06107A9304679
S31508015E501CF052FA002838D1204607991CF0FBF8A5
S31508015E60304601A9FFF7B4FF78BB20461CF0DFF8DE
S31508015E70304604A91CF00EFB38BB204604A91CF0C9
S31508015E80D6F8EB681BBBAB6803F4C043B3F5005FF8
S31508015E901DD1694628461CF0ABF9B0B9009B6A6961
S31508015EA09A4216D32A6943F00053079201222046E3
S31508015EB007A90892032509931CF0C3F82046FFF7A2
S31508015EC053FC012801D1013DF8D10AB070BD21204A
S31508015ED0FBE71D20F9E700BF0000010205289ABF6C
S31508015EE0014B185C0020704718F0030830B5154BB4
S31508015EF087B00293144B0390049346F611030D469B
S31508015F00059300F06DF91428044616D168461CF06D
S31508015F1092FC4FF0A843032202A95A6319601D6136
S31508015F209A63DA6B9207FCD1142C02D168461CF0ED
S31508015F3090FC00F089F9044601E00028E9D02046E2
S31508015F4007B030BDDC1C0020040000202DE9F04F0D
S31508015F50B1B005468C46E9466E4F3B9EDDF8F8E042
S31508015F60409C07F1100AC846386879680837A8E8D6
S31508015F7003005745C146F6D10EEB0208C8F10009E0
S31508015F8009F00F09002E00F0AF80774207F00F07DE
S31508015F900121DDF8FCB0C4F1100ACDF810B0059165
S31508015FA044F0005106914FEA0A2101F4F85141F0F3
S31508015FB02101079106B96B460893002D40F096809A
S31508015FC0002C00F0938004AB0993002E00F090801A
S31508015FD046F000530A93002D40F08D80002C14BF23
S31508015FE00123212343EA07230B9308A942F000530F
S31508015FF0CDF830C03D980D910E934FEA092343F031
S3150801600041030F93109002B10CA9002A16BF002272
S315080160104FF00052412342EA0E0211911292139354
S315080160203C9B3D4A149310AB15933C4B00211693A8
S3150801603040F6110317933A4B002D08BF13461893E0
S3150801604014AB1993374B10221A9311231B931CABCC
S31508016050184627F03CFA01221D924AF080421E9208
S3150801606000220346239205B9EB46102C08BF0123EB
S315080160700DF1900A102200215046CDF880B02193E7
S31508016080229427F024FA002C37D020AB002125933F
S315080160908F4218BF534647F0804226923A9A2CA857
S315080160A08A422892299313460CBF4FF080430B4628
S315080160B0102233432B912A9327F009FAFEB9534646
S315080160C0C8442D932CA948F0804318A82E93FFF7AE
S315080160D00DFF30B92DB90346A34212D1002818BFC6
S315080160E02C2031B0BDE8F08F102751E701236BE76B
S315080160F047F000536EE7212374E70123C6E728AB6F
S31508016100DEE703F1C0026A4412F8C02C01331043DA
S31508016110E2E700BF1EF0030830F003081000002074
S3150801612034F0030804000020F0B5C0299FB0249E6E
S315080161304FD0B1F5807F04D0802941D029201FB0E6
S31508016140F0BD40F2344440F21445002E08BF2C46F7
S315080161502127102501940124029603940495059795
S31508016160259F069706B102AC079401240895099460
S315080161700A9221220B940C950D92174A0AAC0E929B
S31508016180164A0F94109242F6110211921293139421
S315080161901495159201AA1692CBB112AB1793042343
S315080161A018931123199316AB1A901B9340F61103F2
S315080161B0C9081C911AA806A91D93FFF797FEBEE701
S315080161C0002E14BF4FF486644FF48264C0E70EAB09
S315080161D0E4E70F20B3E700BF38F00308100000100A
S315080161E038B5164B5A6E42F004025A66D3F8802225
S315080161F042F00102C3F88022114B5B68C3F308031E
S3150801620043B14FF0A842D36B13F0430FFBD11424CB
S31508016210204638BD4FF0A843DC6B14F04304FBD18C
S31508016220084D2B681BB90421284602F0E5FF2B68A7
S31508016230013343F000432B60EAE700BF00800050BA
S3150801624000ED00E0DC1C0020014B00205B68704774
S3150801625000ED00E0012300F01F02A0F50620094920
S31508016260A0F550604009934051F820201A4341F89F
S315080162702020054951F8202022EA030341F820305D
S31508016280704700BFE01C0020F41C00200121A0F586
S3150801629006230F4AA3F550635B0900F01F0001FAB4
S315080162A000F052F8231008430A4942F82300D1E9BD
S315080162B00030034488680344C868096903445B18C5
S315080162C002BFC2E90033C2E902331361704700BF56
S315080162D0F41C0020E01C00202DE9F04FA9B0029221
S315080162E01D46DDE9326704460822CDE9030141402E
S315080162F021FA02F34B40980702F1080218BF9B00E6
S31508016300202A1C44F4D18123B4FBF3F303EBC31312
S31508016310E41A7A4B04F506241B7804F55064002B1D
S3150801632040D1FDF74DFC014620B16FF0910029B02F
S31508016330BDE8F08F4022059008A827F0C8F840224A
S31508016340059918A827F0C3F8DFF8C891DFF8C8A19E
S315080163504B4603F10F0B102208A9DAF80000CDF815
S3150801636000B0059326F011FA00220146059B09F1B2
S3150801637010090DF1200891424CD1CDF800B0102238
S31508016380DAF8000018A926F009FA4FF0000B0346BF
S315080163900DF160085B4549D1594B9945D8D1012280
S315080163A0564B1A704FF081084FF00009DFF868A1C3
S315080163B0A4F506235349A3F55062520951F8221050
S315080163C004F01F0C21FA0CF1C90744D44E4951F8BF
S315080163D0220020FA0CF010F0010030D0B9F1000FBC
S315080163E008BFA146A3F6FF448123B4FBF3F303EBED
S315080163F0C313E41A04F50624B8F1010804F5506438
S31508016400D6D1029BEBB1B9F1000F1AD0349BC3F870
S3150801641000906DE058F8040BCDE906230591FFF7C6
S3150801642019FF069A079B05990132A4E758F8040B48
S3150801643005930BF1010BFFF729FF059BAAE7029BC1
S3150801644013B96FF08B0072E7349BB9F1000F4ED088
S31508016450C3F800906BE70EB1002333600FB1002338
S315080164603B604FF0100B00232A462146DAF800005C
S31508016470CDF800B013F06CFA08BB0EB1C6F800B03F
S315080164802B68224A934224D166B15FB13B46214625
S31508016490DAF8000018AA13F0AFFA80B93B68326837
S315080164A09B1A3B60D5E90223DDE90310834208BF45
S315080164B08A4216D0A4F50624A4F6FF4494E7144BA1
S315080164C0984206D01233984203D0133B9842E9D03A
S315080164D02BE72146DAF8000013F0D4FA0028E1D0B8
S315080164E0AFE7029B13B16B68012B03D0349B1C6089
S315080164F000201CE76FF0840019E700BFC6290020B9
S3150801650000710800E01C0020F41C0020105D175ED5
S31508016510FFDF00F0006D0800E80A00202DE9F04FC2
S3150801652087B08246894698461646DDF840B02AB1B4
S31508016530002B4ED040F26C739A424DD8BBF1010F35
S315080165404DD8002406F110073946012005941DF09F
S315080165500BF90546002845D021463A4626F0B7FFED
S3150801656005ABCDE9014300942B4601225046494625
S31508016570FFF7B2FE044680B110F18C0F08BF6FF029
S315080165808D043A460021284626F0A1FF28461DF02B
S31508016590FCF8204607B0BDE8F08F144BC5E902A9FF
S315080165A02B60C5F804B02EB13246414605F11000FC
S315080165B026F066FF0E483B462A460599006813F001
S315080165C02FF918B90598FFF745FEDAE76FF0910438
S315080165D0D7E76FF08604DCE76FF09104D9E76FF02F
S315080165E08504D6E76FF08C04D3E700BF105D175E0C
S315080165F0E80A00202DE9F0438DB08146DDE91478DB
S315080166000C4615461E469BB1B8F1000F05D16FF031
S31508016610860420460DB0BDE8F083002FF7D0B7F108
S31508016620005FF4D3C3F1005303F580239F42EED8EC
S315080166301022002108A826F04AFF002207AB029380
S3150801664005AB019306AB21460093484608ABCDE955
S315080166500522FFF741FE04460028DAD10599DEB185
S31508016660A94203D80029D2D115B1D0E70029FBD018
S31508016670491BB14228BF3146069B0948C8F8001094
S3150801668000913A46079900682B4413F061F90028EE
S3150801669018BF6FF09104BCE7A942E9D2B7E700BF7A
S315080166A0E80A002030B58DB00C46054610220021B7
S315080166B008A826F00CFF002207AB029305AB01934D
S315080166C006AB21460093284608ABCDE90522FFF71C
S315080166D003FE0446D0B9099B012B1AD0104B079922
S315080166E0186813F0CFF9B8B9012207980D49A0F532
S315080166F00623A3F550635B0900F01F05AA4051F86C
S3150801670023506A4041F82320FFF7C0FD20460DB00B
S3150801671030BD6FF08404F9E76FF09104F6E700BF26
S31508016720E80A0020E01C00202DE9F04F93B004464A
S31508016730DDE91E75DDE920689346DDE91C028A4616
S31508016740DDF8889029B96FF08604204613B0BDE8B4
S31508016750F08FBBF1000FF6D00FB9002DF3D108B9B0
S31508016760002AF0D116B9B8F1000FECD1B9F1000F32
S31508016770E9D02D4A934244D12388B3F5105F40D11D
S315080167802022002102A826F0A2FE202200210AA822
S3150801679026F09DFE02A81BF0EBFC78BB20465A4664
S315080167A051460AAB00F00EFA04460028CDD10A98E4
S315080167B01CF0BDF804460028C7D115B9C9F8000070
S315080167C0C3E7B7422CD27B199E4229D24545BAD88E
S315080167D039462A46304626F060FE374615F00F0A36
S315080167E0B1D1CDE900762B4652460AA902A8FEF791
S315080167F0DBFF074640B9C9F80050A6E76FF09204D7
S31508016800A3E76FF08504A0E742465146304626F0D5
S315080168105EFE012FC9F800A0F0D16FF08B0494E752
S315080168204545DBD98FE700BF004440042DE9F04711
S31508016830C2B00C4606460021154601A820229A46F2
S31508016840DDF82891DDF830814E9F26F040FE2022A2
S31508016850002109A826F03BFE2022002111A826F0D6
S3150801686036FE2022002119A826F031FE00218022B9
S3150801687022A8219126F02BFE002C5BD0002D59D0A1
S31508016880B9F1000F56D0B8F1000F53D0002F51D0EF
S315080168902188628801F4E043B3F5804F4AD0314B31
S315080168A03148334043F01063834205D06FF08504C5
S315080168B0204642B0BDE8F087D31DBAEBD30F4FEAA5
S315080168C0D30637D34D9B9E4246D847F212139942B7
S315080168D0ECD1B2F5807FE9D1244B4B98099309F1A4
S315080168E001030D938423023020F0030016937300ED
S315080168F00E9012932046524629460DF1840901ABA2
S31508016900CDF8549000F05EF904460028D0D10B9BCF
S31508016910119043F4005319A80B931BF029FCF0B905
S3150801692011AB09AA01A919A8FFF7AEF9054620B1C5
S315080169304828BBD06FF08604BAE732464946404636
S3150801694026F09EFD2A4609EB05030135852D01D161
S315080169503E60ADE71A70F6E76FF08904A8E76FF0B5
S315080169609204A5E70000FFF6000002092000008056
S31508016970F0B50D4614461E46C3B010B96FF0860031
S315080169800DE00029FAD0002AF8D0002BF6D00388AA
S3150801699003F44F42B2F5824F03D06FF0850043B03E
S315080169A0F0BDDAB2122AF8D123F0FF03B3F5E24FAC
S315080169B028D14388336003BBE30033603368B3F5FA
S315080169C0807FEAD10023424A281914441A4614F84A
S315080169D0016D10F8011D0A43891B0CBF4FF0FF36E4
S315080169E00026854203EA060343EA0103EFD1002A9A
S315080169F0C4D0002BC2DA0020D1E70733B4EBD30F9A
S31508016A00DCD0BBE7B3F5824F5FD10B78042BB5D148
S31508016A1020220021684626F05AFD68461BF0A8FB8D
S31508016A2000284FD1842200210DEB0200209126F087
S31508016A304EFD20220123882700210DEB0200013C8F
S31508016A408DF88030013526F042FD202200210D9473
S31508016A5010A8E4000C95640826F039FD20AD202223
S31508016A60002118A81495159726F031FDE02CCDE9DB
S31508016A701C57346003D0B4F5807F7FF47FAF154B84
S31508016A800734089310934FF400530A934FF4804345
S31508016A90E408129308AA18AB6846640010A9199469
S31508016AA0FFF7F2F833680733DB085A0043B90028C1
S31508016AB03FF475AF62E705F8013B013AFBD2F6E709
S31508016AC00023FAE76FF0920069E76FF0960066E730
S31508016AD03CF0030820000080F8B5134642880D46AD
S31508016AE00732072A4FEAD20104D0A94202D06FF031
S31508016AF086003AE044680688C768202218460021BD
S31508016B0026F0E5FC240A034614B1012C52D1C460CF
S31508016B10002DECD041F20102964205D0B6F5885F08
S31508016B2002D0B6F5905F0ED15D60002C45D017F006
S31508016B30020007F0010116D1B9B99A68084642F070
S31508016B4080729A6011E0B6F5105F07D1182D03D04F
S31508016B50202D01D0102DCAD11D60E5E706F44F425C
S31508016B60B2F5824F02D06FF08500F8BDF2B2122A53
S31508016B70F9D1202DF7D1124A26F0FF06B6F5E24FD4
S31508016B801A600DD14FF4804217F4705F9A600DD0E8
S31508016B9017F4864FE7D19A6842F480629A60C4E78F
S31508016BA0B6F5824FA3D14FF40052EDE79A6822F465
S31508016BB08062F3E76FF08B00D7E72046D5E700BF81
S31508016BC0200000802DE9F041154600221C46436845
S31508016BD08AB01B0A07460E46019204D0012B59D0EA
S31508016BE06FF08B0094E0008820F0FF03B3F5824F25
S31508016BF04ED17A880732D20801921BF0A4FE0028EA
S31508016C0000F001810B78042B02D06FF086007FE03B
S31508016C10013DB5EB420F06F10106F6D1224638468B
S31508016C200199FFF759FF002872D10335C4E9030614
S31508016C3025F003056561019D002C00F0C880002D33
S31508016C4000F0C5802022002102A826F040FC294632
S31508016C50384602AAFFF740FF002840F0B8802368AB
S31508016C60029A9A4240F0B3806368039A9A4240F0C6
S31508016C70AE80A368049A9A4240F0A980A369089A4B
S31508016C809A4240F0A480E369099A9A4240D09EE06C
S31508016C900195C3E7032DB8D991F80080B8F1010F22
S31508016CA040F0B4804978002979D0F739082997D86E
S31508016CB001A353F821F000BF4F6D0108176D0108B4
S31508016CC0E16B0108336D0108E16B0108DD6C010810
S31508016CD0E16B01086B6D0108856D01081C22002115
S31508016CE003A826F0F4FB4B4B4FF4105002930323F1
S31508016CF0CDE90403FC2306930AAD02AB1A4603CA7F
S31508016D00AA4220606160134604F10804F6D1002006
S31508016D100AB0BDE8F0811C22002103A826F0D7FBA2
S31508016D203C4B4FF4105202930323CDE90423F82375
S31508016D30E1E71C22002103A826F0C9FB10234FF026
S31508016D40807E02930323CDE904E3FA23D3E71C22C9
S31508016D50002103A826F0BBFB20234FF000770293FE
S31508016D600323CDE90473F723C5E71C22002103A8F1
S31508016D7026F0ADFB274B284D02930323CDE9045397
S31508016D80FE23B8E700211C2203A826F0A0FB214B0D
S31508016D90224902930323CDE90413FF23ABE72B2DE5
S31508016DA07FF633AF2022204626F091FB7368103D0B
S31508016DB02360B3681036636056F8043C2046C4E97C
S31508016DC002382661656101A91BF0E1F928B1202283
S31508016DD00021204626F07BFB17E73A88019B02F43F
S31508016DE04F41B1F5824F08D1D1B2122905D122F00E
S31508016DF0FF02B2F5824F08BF5B0062691C339A42F3
S31508016E00BFF419AFE3E76FF0850081E76FF09100F2
S31508016E107EE700BF20000080004400020044000312
S31508016E202DE9F04790B0DDF8608006460C4692469B
S31508016E301A9FB8F1000F05D16FF08604204610B0ED
S31508016E40BDE8F0870393002FF6D00028F4D020225E
S31508016E5000210DEB020026F03AFB08A81BF088F981
S31508016E60039B10B16FF09204E8E714F47C1FC4F396
S31508016E7005452CD0102DDFD8199A954237D81F4AC7
S31508016E8024F47E14944235D100220DF11009CDE97E
S31508016E900422CDE9062231465246CDF8009008A8CB
S31508016EA0FEF7DAFC0446B0B92A464946404626F0BA
S31508016EB0E7FA224609EB04030134112C09D100240F
S31508016EC03D6008A81BF05EF90028B7D0CAE710256F
S31508016ED0D2E71A70EEE7212806D0012814BF6FF011
S31508016EE092046FF08B04ECE76FF08604E9E76FF024
S31508016EF08904A3E76FF08504A0E700BF0002C00379
S31508016F0070B50E461446054610B96FF0860070BD79
S31508016F100029FAD03822002126F0D9FA094B24F49F
S31508016F207E129A420AD13388B3F5105F06D1C4F3AB
S31508016F300543102BE9D800202C60E8E76FF085009F
S31508016F40E5E700BF0002C003F0B50F4616461D4629
S31508016F5004468BB070B302B963BB2022002102A894
S31508016F6026F0B5FA02A81BF003F9A8B92368134A53
S31508016F7023F47E13934214D14DB133463A46009514
S31508016F8002A9201DFEF74EFD01280DD078B900246F
S31508016F9002A81BF0F7F808B16FF0920420460BB06F
S31508016FA0F0BD6FF08804F3E76FF08B04F0E76FF03C
S31508016FB09204EDE76FF08604F0E700BF0002C00314
S31508016FC02DE9F0418CB0884616460446129F0028E2
S31508016FD041D0002A3FD0002B3DD0002F3BD0102BAB
S31508016FE028BF10231D46036813F47C1FC3F305420B
S31508016FF002D0954228BF15461A4A23F47E139342B6
S315080170002CD12022002104A826F061FA002304A825
S31508017010CDE90033CDE902331BF0AAF840B96B4636
S31508017020424604A9201DFEF779FC20B100233B60E6
S315080170306FF092000CE004A81BF0A4F8044600289F
S31508017040F4D12A466946304626F01AFA20463D60AA
S315080170500CB0BDE8F0816FF08600F9E76FF08800A3
S31508017060F6E700BF0002C0030023C36001F138033D
S31508017070036120230A6843618B6D0B4922F47E1252
S315080170808A42436003D001F580718A4208D1102BE8
S3150801709002D1036000207047182BFAD0202BF8D0B4
S315080170A06FF08800704700BF0001C00307B5094BA0
S315080170B018689A889B7900906846ADF804208DF87F
S315080170C00630FDF721FE0C20FDF756FE002003B021
S315080170D05DF804FB5CF0030813B50024064A68460C
S315080170E0536F43F00103536700948DF80440FDF78D
S315080170F049FD204602B010BD0040005030B58BB0A6
S315080171006C46174D0FCD0FC40FCD0FC495E803007C
S3150801711084E80300134BD3F84C21120317D4D3F890
S315080171205041E4B28DF81940FDF786FB204480F3FF
S3150801713008008DF818000C48FCF73EF86846FDF77C
S315080171407BFA3220FDF7F2FB00200BB030BD074B6E
S315080171501C884FF6FF739C4208BF8C24E2E700BFE8
S3150801716064F003080080E00FC01753020001E00F26
S3150801717030B5094D87B001AC0FCD0FC42B6801A8F6
S3150801718023603F238DF80530FDF78CFB6420FDF75E
S31508017190C7FB002007B030BD8CF003086FF004026E
S315080171A0502110B50A480B4C12F0800FD3B21BBF01
S315080171B003F00F03043BA3181B1802F101020CBFCD
S315080171C083F8001319764C2AEED1002010BD00BFB2
S315080171D000ED00E000E100E038B501F03DFA0446B3
S315080171E0F0B901F04FFC01F0FDFA4FF41673434371
S315080171F00C4803F5742303F23F23B3FBF0F30A4A61
S315080172000A4913600A220D680948013A12F0FF0279
S3150801721040F8043BF9D103EBC3022B4413440B603A
S31508017220204638BD40420F003C1D00200C1D0020A1
S31508017230101D0020012208B5034B1A701CF0FCF939
S31508017240024B186008BD00BFC7290020381D002061
S3150801725010B501F0C7FA04461AF0AEFD844207D903
S315080172601CF0F8F920B10122024B1860024B1A7082
S3150801727010BD00BF381D0020C7290020F8B51C4CD9
S315080172802378D3B11CF0D8F91A4B1B4D1B68C01AC9
S31508017290012838BF0120286001F0A4FA4FF41673BB
S315080172A05843164B00F5742000F23F20B0FBF3F06B
S315080172B02968814202D900232370F8BD104D114E69
S315080172C02B78114F56F8232046F82310501A0A2115
S315080172D03A680133121A3A600932B2FBF1F20B48E5
S315080172E0DBB20260B3FBF1F201FB12332B70E2E76A
S315080172F0C7290020381D0020081D002040420F0024
S31508017300C8290020101D00200C1D00203C1D00204E
S31508017310014B1868704700BF3C1D002020234FF41D
S315080173208012042110B50F4C0F4884F82C330F4BEB
S315080173305A660F4B03F5005250675167106711677C
S315080173404FF48052C4F8842162609A1850675167D5
S315080173509A6A22F000729A629A6A42F480529A6292
S3150801736010BD00BF00E100E0010000A00090005040
S315080173700040005A044B9A6D12F0050F02D10028FD
S31508017380F9D17047012070470040005A154B10B5D6
S315080173901C6F14F004020FD003F500531A67082274
S315080173A09A62FFF755FF00F093FE00F073FE012085
S315080173B001F00CFB1CF050F9E30706D501220A4B34
S315080173C01A67FFF75BFF00F065FE14F000521CBF59
S315080173D0054B1A67002CBEBF4FF00042024B1A67D5
S315080173E010BD00BF0040005A0060005A10B504469F
S315080173F01AF0DDFD024B1C601AF0DDFD002010BD00
S31508017400401D002010B51AF0D2FD034B1C681AF076
S31508017410D2FD204610BD00BF401D0020034B0222AD
S31508017420186800238068194619F082BD080C0020E7
S3150801743030B51446054687B010461BF03CFF636914
S31508017440024683423CBFD4E903315B181B1A7BB160
S315080174500F49284603910021CDE9013101230494FE
S315080174600093D4E900131AF01AFD002007B030BDC5
S315080174700122627694F82D20002AF6D084F8353058
S315080174801321E369204698472046636A9847ECE743
S31508017490317401082DE9F04788B004468846174635
S315080174A099461AF08BFD8246002F7AD0237E03F087
S315080174B0FF02002B00F0A28020461BF0FCFE666945
S315080174C0B04205D1637ED4E903521544AD1B01E0F0
S315080174D0F9D9851BBD4228BF3D461AF06FFD94F8C0
S315080174E02D300646002B6DD12A464046616925F0A6
S315080174F0C7FF63692F462B44636121E0037803F0D4
