:020000021000EC
:10200000C00A002085350100971B0300971B0300C1
:10201000F72D0300971B0300971B0300971B03007A
:10202000971B0300971B0300971B0300971B0300DC
:10203000971B0300D0D1030089190300971B0300ED
:10204000971B0300971B0300971B0300971B0300BC
:10205000971B0300971B0300971B0300971B0300AC
:10206000971B0300971B0300971B0300971B03009C
:1020700019870100971B0300971B0300D52F010050
:10208000491A0300971B0300971B0300971B0300CB
:10209000971B0300A93D0100971B0300971B03003A
:1020A000971B0300A13F01007D3F0100971B030028
:1020B000971B030085F40200971B0300E1FE02005A
:1020C000A9BB0300A5BB0300D1F60200B5BB03000A
:1020D000ADBB0300B9FE0200B1BB030021FF02004B
:1020E000B9D702007DD9020091FF0200971B0300BF
:1020F000971B0300971B0300971B0300971B03000C
:10210000971B0300971B0300971B0300971B0300FB
:10211000971B0300971B0300971B0300971B0300EB
:10212000971B0300971B0300971B0300971B0300DB
:10213000971B0300971B0300971B0300971B0300CB
:10214000002370B5404C05468AB0E36318B100889F
:1021500023600CF017FC3D4828F0CDFF3C4E3D4B72
:10216000304633603C4B736024F075FC00213046F0
:1021700017F014FA32A3D3E90023A062C4E90623BE
:1021800024F074FCD4E9062319431043C4E9060182
:10219000CDE900014FF0FF334FF0FF32A06A29F084
:1021A00025F802224FF0FF31A06A29F024F801201F
:1021B0000CF06AF94FF4007300222849A06A29F054
:1021C0006EF8B0F5007F38D100239422CDE90733B3
:1021D00009933C23CDE9033205939623A06A03A912
:1021E000069317F0F9FA35B3287C0CF083FD054609
:1021F000F0B9A06A29F034F90CF02AFD0CF026F9A8
:1022000020B14FF48070002109F0B0F80CF02EF9E5
:1022100020B14FF40060002109F0A8F824F0EAFC96
:10222000012017F00FFA0E4A0E49A06A24F011FCA3
:1022300028460AB070BDFF20D7E70725F8E700BFA2
:102240000DD5015520000000780F0020690345ECF2
:10225000702300200DE30100802300207021002066
:10226000FB6903003B6A03000348044B834202D02E
:10227000034B03B118477047080F0020080F0020D8
:1022800000000000064B0749C91A891048BF0131F8
:10229000491003D0044B0BB101481847704700BFE9
:1022A000080F0020080F00200000000010B5064CA9
:1022B000237843B9FFF7D8FF044B13B10448AFF3B9
:1022C00000800123237010BD4A2B00200000000075
:1022D000CC1B040008B5054B1BB105490548AFF3FD
:1022E0000080BDE80840FFF7CDBF00BF0000000040
:1022F000D8110020CC1B0400A3F5803A704700BF22
:10230000174B002B08BF134B9D46FFF7F5FF00212D
:102310008B460F461348144A121A29F01EFD0E4B25
:10232000002B00D098470D4B002B00D09847002081
:10233000002104000D000D48002802D00C48AFF326
:1023400000801EF09DFA200029001FF011FB1EF0F6
:102350003BF800BF00000800000000000000000083
:10236000C00A0020080F0020842C0020000000007C
:1023700000000000014B18681FF036BCCC0A00209A
:102380003D4B13B51A78002A4DD000221A703B4BF2
:1023900018681FF020FC002847D0012857D18DF87D
:1023A0000700032000F046FF60B1354C3549206836
:1023B00020F069FB1FF093FB1FF092FB324920686D
:1023C00020F061FB012200211D200DF107030FF019
:1023D0003FFC80B1012000F02DFF60B1284C2B495B
:1023E000206820F050FB1FF07AFB1FF079FB284992
:1023F000206820F048FB01211D200DF107020FF09D
:1024000055FC80B1012000F015FF60B11C4C1F4944
:10241000206820F038FB1FF062FB1FF061FB1D49B4
:10242000206820F030FB02B010BD8DF807000320BB
:1024300000F000FF0028C5D0114C1249206820F0A0
:1024400022FB1FF04CFB1FF04BFB1349B7E70320A7
:1024500000F0F0FE0028E6D0094C0A49206820F080
:1024600012FB1FF03CFB1FF03BFB0C49206802B045
:10247000BDE8104020F007BB4B2B0020CC0A002009
:10248000A8120020E0CB0300E5CB030024CC03001E
:1024900029CC030051CC0300F9CB03000ECC030080
:1024A000034B1B68834202BF0122024B1A70704724
:1024B000CC0A00204B2B00207FB50368A94A23F4E7
:1024C0007F4323F007039342044600F007820FD8AE
:1024D000A2F51022934200F0CA8102F580229342B5
:1024E00000F0C882A2F51022934241D004B070BD22
:1024F0009D4A934200F00A8202F18072934200F0FA
:102500001B829A4A9342F1D1994C9A4E1FF0E7FAF6
:102510001FF0E6FA9849206820F0B5FA02213078D9
:102520000FF02AFB0546002800F0AE819349206891
:1025300020F0A9FA9249206820F0A5FA1FF0CFFAFE
:102540001FF0CEFA8F4B904A00939049D823206811
:1025500020F099FA8E492B468E4A206820F093FA93
:10256000284600F0ADFE8C49206820F08CFAFEE78A
:102570007F4C804E1FF0B3FA1FF0B2FA87492068F3
:1025800020F081FA30460FF0BDFA054608B37B49CA
:10259000206820F078FA7A49206820F074FA1FF059
:1025A0009EFA1FF09DFA774B774A009377498C2368
:1025B000206820F068FA76492B46764A206820F099
:1025C00062FA284600F07CFE7349206820F05BFA2E
:1025D000FEE7022130780FF0CFFA054608B36749CD
:1025E000206820F050FA6649206820F04CFA1FF06D
:1025F00076FA1FF075FA634B634A0093634991239F
:10260000206820F040FA62492B46624A206820F098
:102610003AFA284600F054FE5F49206820F033FA69
:10262000FEE7A02200900346114630780FF082FAB0
:10263000054608B35149206820F025FA5049206822
:1026400020F021FA1FF04BFA1FF04AFA4D4B4E4A88
:1026500000934E499A23206820F015FA4C492B46E6
:102660004C4A206820F00FFA284600F029FE4A491B
:10267000206820F008FAFEE701460FF02DFB054622
:1026800008B33E49206820F0FEF93D49206820F05B
:10269000FAF91FF024FA1FF023FA3A4B3A4A009352
:1026A0003A49B023206820F0EEF939492B46394ADF
:1026B000206820F0E8F9284600F002FE364920683C
:1026C00020F0E1F9FEE736480FF02CFB054608B391
:1026D0002A49206820F0D7F92949206820F0D3F949
:1026E0001FF0FDF91FF0FCF9264B274A00932749FC
:1026F000B423206820F0C7F925492B46254A2068D5
:1027000020F0C1F9284600F0DBFD2349206820F0C5
:10271000BAF9FEE701200FF0F3FA0546002841D090
:102720001649206820F0AFF91549206820F0ABF970
:102730001FF0D5F91FF0D4F9124B134A0093134937
:10274000B823206820F09FF911492B46114A2068D0
:1027500020F099F9284600F0B3FD0F49206820F0D9
:1027600092F9FEE7A0000F00A0000F03A0000601F1
:10277000A8120020030D0020EACC030085CC030042
:1027800087CC0300C6CD03008CCC030095CC03009E
:10279000A4CC0300A1CC0300B9CC030067CC030098
:1027A00040E201000FF0E2FA054608B39F492068B5
:1027B00020F069F99E49206820F065F91FF08FF933
:1027C0001FF08EF99B4B9C4A00939C49BC232068C8
:1027D00020F059F99A492B469A4A206820F053F97B
:1027E000284600F06DFD9849206820F04CF9FEE77E
:1027F000032000F01FFD58B19449206820F043F9F0
:102800001FF06DF91FF06CF99149206820F03BF939
:10281000022130780FF0C4F9054608B383492068D7
:1028200020F031F98249206820F02DF91FF057F986
:102830001FF056F97F4B804A00938049C2232068DD
:1028400020F021F97E492B467E4A206820F01BF9B2
:10285000284600F035FD7C49206820F014F9FEE799
:102860007C4B186804B0BDE870401FF0B9B91FF088
:1028700036F91FF035F9784B7849186820F003F9DC
:10288000627B774B1A7031E6022130780FF088F9BD
:10289000054600283FF42AAE6449206820F0F3F88A
:1028A0006349206820F0EFF81FF019F91FF018F9BC
:1028B000604B614A00936149DD23206820F0E3F812
:1028C0005F492B465F4A206820F0DDF8284600F07B
:1028D000F7FC5D49206820F0D6F8FEE7032000F001
:1028E000A9FC00283FF402AE5B4D5849286820F04F
:1028F000CAF81FF0F4F81FF0F3F8D4F8052059498E
:10290000286804B0BDE8704020F0BDB8032000F096
:1029100091FC00283FF4EAAD4F4C4C49206820F070
:10292000B2F81FF0DCF81FF0DBF84F49206804B064
:10293000BDE8704020F0A7B8032000F07BFC70B128
:10294000454D4249286820F09EF81FF0C8F81FF056
:10295000C7F8B4F805204549286820F094F8207994
:102960000FF032F9054610B33B4C3049206820F097
:102970008AF82F49206820F086F81FF0B0F81FF081
:10298000AFF82C4B2C4A00932C49F823206820F0F8
:102990007AF82B492B462B4A206820F074F82846F9
:1029A00000F08EFC2849206820F06DF8FEE72C4EE0
:1029B0003078FF283FF49AAD0FF0C6F9054610B302
:1029C000254C1A49206820F05EF81949206820F04B
:1029D0005AF81FF084F81FF083F8164B164A00933C
:1029E0001649FD23206820F04EF815492B46154A5C
:1029F000206820F048F8284600F062FC1249206860
:102A000020F041F8FEE7032000F014FC00283FF41A
:102A10006DAD114C0D49206820F035F81FF05FF8BE
:102A20001FF05EF83278124920686AE785CC03000F
:102A300087CC0300C6CD03008CCC030095CC0300EB
:102A4000A4CC0300A1CC0300B9CC0300E0CB03006D
:102A5000CACC0300CC0A0020A8120020DECC030060
:102A6000020D0020F9CC030009CD030012CD0300B4
:102A700031CD0300B0F805301B2B7FF437AD0320B8
:102A800000F0D8FB60B1354C354920681FF0FBFFE2
:102A90001FF025F81FF024F8324920681FF0F3FFDB
:102AA0000DF10B030093012200211B2003AB0FF05B
:102AB0009DF898B1012000F0BDFB00283FF416AD51
:102AC000264C294920681FF0DEFF1FF008F81FF090
:102AD00007F8264920681FF0D6FF07E59DF80B3060
:102AE000A3B9234B18681FF00EF9032000F0A2FBD6
:102AF00000283FF4FBAC194C194920681FF0C3FFB4
:102B00001EF0EDFF1EF0ECFF1A49E3E7012B14D194
:102B1000174B18681FF0F4F8032000F08BFB002817
:102B20003FF4E4AC0D4C0E4920681FF0ACFF1EF0E2
:102B3000D6FF1EF0D5FF1049CCE7032000F07AFB4A
:102B400000283FF4D3AC054C054920681FF09BFFDB
:102B50001EF0C5FF1EF0C4FF0849BBE7A812002005
:102B6000E0CB030050CD030024CC03007BCD030059
:102B7000D00A002095CD0300A3CD0300B0CD030003
:102B800030B503687C4A23F47F4323F00703934264
:102B900089B040F0EE80082200211220774B0FF020
:102BA00057F8044610B3764D764928681FF06BFF3E
:102BB000754928681FF067FF1EF091FF1EF090FF17
:102BC000724B734A009373493D2328681FF05BFFE3
:102BD00071492346714A28681FF055FF204600F0CE
:102BE0006FFB6F4928681FF04EFFFEE70146032286
:102BF00014206C4B0FF02CF8044610B3604D614963
:102C000028681FF040FF604928681FF03CFF1EF055
:102C100066FF1EF065FF5D4B5D4A00935D494B23E7
:102C200028681FF030FF5C4923465C4A28681FF083
:102C30002AFF204600F044FB594928681FF023FF73
:102C4000FEE7014605221620574B0FF001F8054616
:102C500010B34B4C4B4920681FF015FF4A492068C0
:102C60001FF011FF1EF03BFF1EF03AFF474B484A92
:102C700000934849592320681FF005FF46492B4619
:102C8000464A20681FF0FFFE284600F019FB444921
:102C900020681FF0F8FEFEE70DF10F0104A80FF009
:102CA00071F8044610B3364D364928681FF0EBFE24
:102CB000354928681FF0E7FE1EF011FF1EF010FFD7
:102CC000324B334A00933349642328681FF0DBFEFC
:102CD00031492346314A28681FF0D5FE204600F0CE
:102CE000EFFA2F4928681FF0CEFEFEE7BDF814303A
:102CF00001465BBAADF818309DF8133008228DF804
:102D00001A30FF238DF81B30FE238DF81C309DF800
:102D1000123018208DF81D30BDF810305BBAADF8B8
:102D20001E3006AB0EF094FF054610B3144C154947
:102D300020681FF0A8FE144920681FF0A4FE1EF0B2
:102D4000CEFE1EF0CDFE114B114A009311497423A3
:102D500020681FF098FE10492B46104A20681FF08B
:102D600092FE284600F0ACFA0D4920681FF08BFE59
:102D7000FEE709B030BD00BFA0000100D5CD0300C3
:102D8000A812002085CC030087CC030010CE0300DE
:102D9000DECD030095CC0300A4CC0300A1CC03003E
:102DA000B9CC030006CE03000ACE030010B5234CB5
:102DB00001F0D8FB01F0F8FD236F23F0070343F087
:102DC000030323671FF0F5F81D4B00209B6A9B0748
:102DD0005EBF01221B4B9A62D4F8203123F003031B
:102DE00043F00203C4F82031D4F8243123F0070360
:102DF00043F00203C4F82431D4F8403123F0030334
:102E000043F00203C4F84031D4F8603123F00303E7
:102E100043F00203C4F86031D4F8403223F00303D6
:102E200043F00203C4F84032D4F8003223F0070321
:102E300043F00203C4F8003210BD00BF0080005010
:102E400000C0005000E0005008B502F0F5F901287C
:102E50000ED1144B04205A6E4FF4802312495203B2
:102E600058BF124A4B6601F51041086258BF5366BD
:102E700004F062F81EF040FE03F0EEFF04F046F8A6
:102E800004F00CF81FF0AEFDFFF790FF03F0F4FF25
:102E90001EF029FE00F030FC01F094F8BDE8084077
:102EA00004F0B6BC008000500090005000A000501C
:102EB00030B5224D95B00DAC0FCD0FC495E807008D
:102EC000032384E807008DF84D3029231C4A1D494F
:102ED000CDE902231C4B0E22CDE904134FF480737D
:102EE00000210DF12600069328F037FF4FF4A020B3
:102EF000164B07A9CDE907030F238DF824301023C3
:102F00008DF82530124B0DAA0A9320230B93012331
:102F10008DF831300F4B1048009302AB04F03AFAB1
:102F200004469DF832304FF4E130002B0CBF0321F2
:102F300000211EF021FE204615B030BDFCD003005C
:102F40000000065000050006000800072400065097
:102F50004C2B0020F011002044120020831E012B76
:102F600010B512D8012922D8114B04221B69052162
:102F70000020C3F3401301F063FF0E4B1B68186879
:102F8000A8B1BDE81040436A18478B1E012B0CD82E
:102F900001280CD8BDE810400022054B05211B6913
:102FA0001046C3F3401301F04BBF0129E5D910BD12
:102FB00000C00350C00A002008B50449044804F0CA
:102FC000EDFCBDE80840FFF773BF00BFC40A002056
:102FD0006812002001481FF0C4BE00BF4412002048
:102FE000014B1A6A186810474412002001481EF06D
:102FF000EDBD00BF18D1030001481EF07EBE00BF2A
:1030000030D10300184B37B583422AD1174B1B78B8
:103010003BB3C8B20EF0D8FD054610B3144C1549A9
:1030200020681FF030FD144920681FF02CFD1EF0B1
:1030300056FD1EF055FD114B114A00931149852391
:1030400020681FF020FD10492B46104A20681FF011
:103050001AFD284600F034F90D4920681FF013FDD1
:10306000FEE703B030BD00BF701200206C2B0020C3
:10307000A812002085CC030087CC03009AD103005E
:1030800048D1030095CC0300A4CC0300A1CC0300DD
:10309000B9CC030030B500250368584A23F47F43B8
:1030A00023F0070385B0934204460295ADF80C5017
:1030B0007ED002F5802293420ED0A2F1827293421A
:1030C00040F09A804E4B1B78002B00F0958005B0A5
:1030D000BDE830401FF078BFB0F80530212B40F03C
:1030E0008B80FF2304A91A4611E903001EF0F0FCAF
:1030F000012814BF41F2FC15414B05F0FC0208BF4A
:103100001870212120790EF0B9FD054610B33D4C11
:103110003D4920681FF0B7FC3C4920681FF0B3FC14
:103120001EF0DDFC1EF0DCFC394B3A4A00933A49B4
:10313000592320681FF0A7FC38492B46384A2068DD
:103140001FF0A1FC284600F0BBF8364920681FF0AC
:103150009AFCFEE7344900902379344A09683448E0
:1031600000F008F90546002846D0264C264920687C
:103170001FF089FC254920681FF085FC1EF0AFFC7C
:103180001EF0AEFC224B234A0093234962232068A1
:103190001FF079FC21492B46214A20681FF073FC5F
:1031A000284600F08DF81F4920681FF06CFCFEE7F0
:1031B000B0F80530B7EE047A07EE903AF8EE677A89
:1031C000B0F8073067EE877A013307EE103AB8EEB1
:1031D000C77A67EE877AB1EE047A67EE877AFAFEED
:1031E000677AFCEEE77A17EE903AB3F57A7F38BF4C
:1031F0004FF47A730C4A136005B030BDA00006028C
:103200006C2B0020A812002085CC030087CC030083
:10321000A9D1030048D1030095CC0300A4CC03003E
:10322000A1CC0300B9CC0300D40A00200530010072
:10323000701200200B4B02461B7883B10A4B1B789F
:10324000834234BF00200120084B1B7833B1084B68
:103250001B78134113F0010F08BF002070470120B5
:10326000F2E700BF090D0020080D00206D2B0020A3
:10327000070D0020012208B5074B1A700022074BEA
:103280001A700422064B1A701F22064B1A7003F0A4
:103290007DFE054B186008BD090D00206D2B002038
:1032A000080D0020070D0020A8120020024B034942
:1032B00018681FF0E8BB00BFA8120020C9D10300A6
:1032C00070B50C4C0C49064620681FF0DCFB03F07F
:1032D0005DFE0546206803F04DFE3046FFF7E6FF31
:1032E000284603F047FE20680449BDE870401FF0FF
:1032F000CABB00BFA8120020CBD10300CDD1030070
:1033000038B505461EF071FE00230B4A14685CB107
:10331000AC4206D1A96A6BB199621EF06CFE012025
:1033200007E02346A46AF2E7002DF3D01EF063FE07
:10333000204638BD1160F0E7AC12002010B50446FD
:1033400098B104F095FF2046FFF7DAFF10B194F82A
:103350002C300BB9002010BD1EF047FE044A136844
:10336000013B13601EF047FEF4E72220F3E700BFA5
:10337000B01200202DE9F04385B0054691469846ED
:103380000E469DF8307009B9002F5CD12846FFF732
:10339000D5FF0446002836D185F82C00686305F077
:1033A00059F8864233D904F0F5FF2146844640F2AD
:1033B000E7304FF47A720023E6FB0C011CF06CFE40
:1033C0004FF0FF3200231CF067FE2B46E8861146C3
:1033D0002846CDE900441D4A1FF083FD044690B9FC
:1033E000C5E9089885F82D702E631EF0FEFD184A79
:1033F000136833B31A469B6A002BFBD195620023F6
:10340000AB621EF0F8FD204605B0BDE8F08347B181
:103410002B4631462846CDE900440C4A04F0DEFF35
:10342000DCE7304603A904F0BBFF04460028EAD1DC
:103430002B462846CDE90077044A03991FF02DFD5D
:10344000CCE71560DBE72124DDE700BF5534010040
:10345000AC12002091F82C3013B50C4683B98B8E3A
:10346000CA8E93420ED243B9CDE9003320460B46B3
:10347000104A4FF0FF311FF0F4FCA38E0133A386F6
:1034800002B010BD52B191F82D307BB101230093F1
:10349000D1E908232046096BFFF76CFF0123064A98
:1034A00084F82C30136801331360E9E7084604F010
:1034B000DFFEF3E755340100B01200202DE9F041A2
:1034C000144E336823B34FF00008134F1EF08DFDE8
:1034D00005463C6824B92846BDE8F0411EF08BBD86
:1034E00094F82C3093B1336884F82C80013B33601E
:1034F00094F82D3013B92046FFF702FF28461EF03E
:103500007AFDD4E9083120469847DFE7A46AE1E76D
:10351000BDE8F081B0120020AC120020034B1B6804
:10352000002B14BF04200120704700BFB012002000
:10353000024B1868B0FA80F040097047B0120020C2
:1035400007B508201EF0C2FB02238DF80030054BA2
:10355000684601931EF0D4FA082003B05DF804EB2E
:103560001EF0BFBB006A18100348044A0449121A2F
:1035700092101EF011BB00BF282004002820040078
:10358000842C002008B500F02FF8FFF7EDFF124B58
:1035900012498B4212D30020114B12498B4218D38F
:1035A000FEF7AEFE186850F82240586840F82240F6
:1035B000013298688242F5D30C33EAE70022F8E73B
:1035C0001C6844F8220001325C68A242F8D3083338
:1035D000E4E70022F8E700BFD41B0400E01B04006E
:1035E000E01B0400E01B04004FF400414FF0FF30EB
:1035F000124B134A10B59A60D3F8882042F4700237
:10360000C3F888200F4A916601F1884101F5005204
:1036100010664FF6DF7050660220C3F8D000BFF38B
:103620004F8FBFF36F8F08244FF440330648C0F824
:103630008041D36004600B6110BD00BF00ED00E06D
:10364000002001000090005000E100E0014B1868EC
:10365000704700BFDC0A0020084B1B6F03F0070314
:10366000022B04D0032B05D0012B05D0FEE7044B21
:1036700018687047034BFBE7034870470080005011
:10368000DC0A0020E40A0020002D310108B5FFF714
:10369000E3FF054B1B6FC3F303330133B0FBF3F0C0
:1036A000024B186008BD00BF00800050D80A0020FF
:1036B0000048704700B4C404014B1868704700BF4D
:1036C000E40A0020054B1860054B1B6F03F007034D
:1036D000032B01D1FFF7DABF704700BFE40A0020D7
:1036E0000080005000487047002D3101014B1868E0
:1036F000704700BFE00A002000239B6A10B5B3F5B5
:10370000903F11D219680A4A91420DD1094C227892
:1037100012F0FD0F01D0002010BDDB699847002892
:10372000FAD101232370F6E74FF48170F4E700BF6C
:1037300007B0CD5E6E2B00204FF00053074A1A6091
:10374000BFF34F8F0649074BCA6802F4E062134388
:10375000CB60BFF34F8F00BFFDE700BF02020FF049
:1037600000ED00E00400FA050346054A054910682B
:1037700003448B428CBF4FF0FF301360704700BF93
:10378000E80A002000800020F7B504680121054602
:103790003A2000F00DFE002301226179207901F02A
:1037A0004FFB14233021227911FB023101F1A0419A
:1037B00001F5703109686379D940C943A37901F0F3
:1037C0000101022B217017D100F044FB164A2B4651
:1037D0006179207900F068FBFF28024660790ED1FC
:1037E0002A46114900F098FB0123024661792079AD
:1037F000CDE9003301F0CAFA002003B0F0BD012684
:103800002779002301460096384601F081FB2A46BD
:103810000549607900F080FB002361790246207938
:10382000009301963346E5E7F11B030008B501213B
:103830003A2000F0BDFD032101230422002001F005
:10384000FFFA00201EF0F2FB0122214B4FF46070C2
:10385000C3F844241EF0E4FA1E4B00F5D520D3F83B
:10386000F02000F2FC4042F00102C3F8F020D3F84F
:10387000FC2042F08072C3F8FC20174AA3F55D4398
:103880001A60164B0222B0FBF3F0154B0138186199
:10389000C3F8F0204FF48072C3F804234FF0604364
:1038A000104A0020C3F8B02F0F4AC3F8802ED3F877
:1038B000002E42F48072C3F8002EFF2283F82020ED
:1038C000D3F8002E22F48072C3F8002E08BD00BF8A
:1038D00000D0035000ED00E0FF030040F8590D0058
:1038E000000004E055CEACC5090001004FF0604374
:1038F000D3F8802E30B5D20715D501240B4D844066
:10390000D5F8FC2042F08072C5F8FC20D3F8002ED8
:103910002243C3F8002E53F82020002AF0D003F8E9
:103920002010002030BD1120FCE700BF00ED00E0BA
:1039300010B5012243780178847830209A40054BF5
:1039400000FB01331CB942F210015A5010BD41F284
:103950001001FAE700C0035010B501224378017846
:10396000847830209A40054B00FB01331CB941F2AA
:1039700010015A5010BD42F21001FAE700C0035086
:103980002DE9F04F9A46564B85B01B7806460F46F8
:103990001546DDF83C909DF844B0DDF85080002BD2
:1039A00000F09780072A00F296800E9B002B00F013
:1039B0009280B9F1000F00F08E80129BB3F5006F7A
:1039C00000F38980012803D1109B002B00F0838035
:1039D000444B03EB05131B7B002B7ED0424C102283
:1039E0000021684628F0B9F904EB45141022A7BB62
:1039F0003946204628F0B1F943F210036380BBF149
:103A0000000F03D1E37843F00303E370364A0E9BC3
:103A100002EB451CCCE90193129B6901581E9DF8ED
:103A20004C30C0F30A0003F003039B0643EA001E78
:103A300053582E48012E00EA03004EEA0003CDF849
:103A400000A0535017D0B8F1000F2ED19CF80230CF
:103A500068F304138CF8023027E00021204628F098
:103A60007CF94FF444736380BBF1000FCED1E3784F
:103A700043F03003C9E713230CF1100ECCF80C30DF
:103A80009CE80F008EE80F006FF00301DCF81C20AB
:103A9000109B61F39F02012FCCF81C20CCF814304E
:103AA00003D1CCF81890CCF8043000270D4A290136
:103AB00002EB051342F80180159A28465A606946C0
:103AC00022469F605E7301F09FFA384605B0BDE85C
:103AD000F08F0748FAE70748F8E70748F6E700BF1E
:103AE0006F2B0020B4130020B41200200F80FFF3CE
:103AF000028000F0018000F0078000F038B5124B22
:103B000005461B78DBB1E0B11EF06FFA0F4A0023C7
:103B10001146147B54B92B6001251A0101EB0313E4
:103B20001D738C501EF067FA204638BD0133082BF8
:103B300002F11002EDD11EF05EFA0548F5E70548E6
:103B4000F3E70548F1E700BF6F2B0020B413002016
:103B5000048000F0028000F0018000F038B51EF013
:103B600044FA002305460B4A147B6CB90133082B39
:103B700002F11002F8D101F0E9F9074B28461C7058
:103B80001EF039FA204603E028461EF034FA0348B6
:103B900038BD00BFB41300206F2B0020058000F05B
:103BA0000D4B10B51B78044693B1072812D81EF0B0
:103BB0001CFA0A4B03EB04131A7B2AB100241C7372
:103BC0001EF019FA204610BD1EF015FA0448FAE757
:103BD0000448F8E70448F6E76F2B0020B4130020F0
:103BE000068000F0028000F0018000F0154B13B554
:103BF0001868002301908DF804301EF0F6F9124B7E
:103C00001C7824B11EF0F7F9104802B010BD012253
:103C10001A701EF0F0F90E4B01A81C731C7783F884
:103C20002C4083F83C4083F84C4083F85C4083F898
:103C30006C4083F87C4008238DF8073001F0B2F91E
:103C40002046E2E720D203006F2B0020038000F023
:103C5000B41300200A4A08B512785AB107280BD8C5
:103C6000084A02EB00131B7B43B1002101F08CF9E1
:103C7000002008BD0448FCE70448FAE70448F8E7D8
:103C80006F2B0020B4130020028000F0018000F0B0
:103C9000078000F00A4A08B512785AB107280BD8F5
:103CA000084A02EB00131B7B43B1012101F06CF9C0
:103CB000002008BD0448FCE70448FAE70448F8E798
:103CC0006F2B0020B4130020028000F0018000F070
:103CD000078000F00A4A08B5127852B107280AD8BE
:103CE000084A02EB00131B7B3BB101F0D9F900201D
:103CF00008BD0548FCE70548FAE70548F8E700BFB6
:103D00006F2B0020B4130020028000F0018000F02F
:103D1000078000F00D4B1B7893B1072812D889B1AA
:103D20000B4B03EB00131B7B73B10A4B1A6D012382
:103D30008340134214BF0123002300200B707047FF
:103D40000548704705487047054870476F2B0020AD
:103D5000B413002000000450028000F0018000F045
:103D6000078000F00B4A10B512780C4662B10728A4
:103D70000CD859B1084A02EB00131B7B43B101F088
:103D8000A1F92070002010BD0448FCE70448FAE7C0
:103D90000448F8E76F2B0020B4130020028000F0E5
:103DA000018000F0078000F0184B2DE9F0411F6DF5
:103DB0005B6D1F4000D5FEE701260025144CDFF89F
:103DC0005880374218D02368C8F85060A3B1A16862
:103DD000284601316268A1609847637B012B0BD1B3
:103DE00050B90C4B03EB45131A7B60F341021A7375
:103DF0001A7F60F341021A770135082D4FEA460613
:103E000004F11004DDD1BDE8F08100BF00000450D2
:103E1000B4130020B41200200020045070B50446F2
:103E200001250B4E04B970BD94FAA4F0B0FA80F0ED
:103E300005FA00F306EB001224EA03045368002B92
:103E4000F0D0117B11B191689847EBE79847E9E70B
:103E50003414002008B5192000F0D2FD28B14FF02D
:103E60000072074BC3F880211A601A2000F0C8FDC9
:103E700028B14FF08062024BC3F880211A6008BD60
:103E800000E100E038B505460C461EF0AEF8002211
:103E9000044B03EB05135C601A73BDE838401EF059
:103EA000AAB800BF34140020F8B504460D461746E2
:103EB0001E461EF09AF81CB9052D18D0FF241FE0ED
:103EC000012C05D1012D1FD0032DF7D104240EE0C4
:103ED000022C07D1052D19D0072D19D0002DEDD1B9
:103EE000062404E0032CE9D1022DE7D10924094975
:103EF00004F1100301EB03110123C1E901760B73F7
:103F00001EF079F82046F8BD0324F0E70724EEE719
:103F10000824ECE734140020F8B505460E46174691
:103F20001EF063F8134B2C46D3F8242405F0FC0153
:103F300022FA05F3DB0712D500230133DBB2042B91
:103F400004D1FF241EF057F82046F8BDEC1804F009
:103F500003040C4422FA04FC1CF0010FEDD1FF2CE9
:103F6000F0D00122044B03EB0413C3E901671A7379
:103F7000E8E700BF00C0035034140020074BD3F81B
:103F80002404D3F8202403F50053104000F05530EA
:103F900020F05020C3F82004FFF740BF00C00350BA
:103FA000074BD3F82404D3F8202403F50053104022
:103FB00000F0AA3020F0A020C3F82004FFF72EBFA5
:103FC00000C00350024B1968024B186814F0F8BE89
:103FD000EC0A00200C0B002070B594002246054628
:103FE0000E4628F0E1FD431C0AD058B9224631465E
:103FF000284627F088FE0028034808BF002070BD2F
:104000000248FCE70248FAE710E000F021E000F087
:1040100024E000F010B5044628F0BEFD431C10D08B
:1040200088B901F011F9234620F00300204498429A
:1040300001D1002010BD53F8042B0132F7D0034802
:10404000F8E70348F6E70348F4E700BF0EE000F0A6
:1040500021E000F024E000F008B51DF0BFFF014BA7
:10406000186008BD241D0020014B18681DF0BABF60
:10407000241D0020044BD3F88420D206FBD4D3F8AF
:104080008400C0F3811070470040005038B5104BD9
:104090000546D3F820310C4603F00303022B0BD066
:1040A000032B0DD0012B0FD1FFF7D0FA052305B15B
:1040B000286004B1236038BDFFF7FEFA0323F6E75A
:1040C000FFF710FB0223F2E701230020EFE700BF18
:1040D0000080005073B50D4600210E4B0191D3F8BE
:1040E0008041064604F00304012C09D0022C0CD0B8
:1040F0000C460EB1019B336005B12C6002B070BD5F
:1041000001A8FFF7C3FF0F24F3E7FFF7EBFA0190D5
:10411000EFE700BF0080005038B5184B0546D3F8D4
:1041200024010C4600F00700062823D8DFE800F041
:10413000040A121A1E0E1600012305B1286004B1EC
:10414000236038BDFFF782FA0523F6E7FFF77EFA12
:104150000623F2E7FFF7B0FA0323EEE7FFF7ACFA26
:104160000423EAE7FFF7BEFA0223E6E71DF01FFD8E
:104170000723E2E700231846DFE700BF0080005076
:1041800038B5104B0546D3F840310C4603F0030315
:10419000022B0BD0032B0DD0012B0FD11DF009FDED
:1041A000092305B1286004B1236038BDFFF79EFAEA
:1041B0000823F6E71DF000FD0B23F2E701230020A2
:1041C000EFE700BF0080005038B5144B0546D3F828
:1041D00000020C4600F0070004281BD8DFE800F0BE
:1041E00003090D111500012305B1286004B12360F6
:1041F00038BD1DF0DEFC0923F6E7FFF777FA082348
:10420000F2E71DF0D9FC0B23EEE7FFF73FFA0E2390
:10421000800AE9E700231846E6E700BF0080005067
:1042200038B5104B0546D3F840320C4603F0030373
:10423000022B0BD0032B0DD0012B0FD11DF0B9FC9D
:10424000092305B1286004B1236038BDFFF74EFA99
:104250000823F6E71DF0B0FC0B23F2E70023184615
:10426000EFE700BF0080005038B5104B0546D3F88B
:1042700060310C4603F00303022B0BD0032B0DD04F
:10428000012B0FD11DF095FC092305B1286004B165
:10429000236038BDFFF72AFA0823F6E71DF08CFCEF
:1042A0000B23F2E701230020EFE700BF008000505E
:1042B00010B40D4C0B46D4F8204204F00304012C3A
:1042C0000AD0022C0CD008B1002101600BB10022F1
:1042D0001A605DF8044B70475DF8044BFFF7D6BEDB
:1042E0005DF8044BFFF74CBF0080005038B50C461A
:1042F00005461DF073FE054B9A6A54402C4054400D
:104300009C62BDE838401DF06DBE00BF00C000508B
:10431000B0F5207F1FD009D8B0F5007F15D003D8A5
:1043200068B1B0F5C07F0AD000200CE0B0F5607F26
:10433000FAD10B4BD3F88000C0F3011003E0084B17
:10434000186FC0F3033001307047054BD3F890006D
:10435000C0F30460F7E7024B186FC0F38020F2E768
:10436000008000504FF400320E4B014610B5002083
:104370009A66FFF7CDFF484341F671320A490B4B6D
:10438000884294BF00200120DC69DA639A6822F435
:10439000401242EA00529A60E20344BF0022DA630C
:1043A00010BD00BF00900050005A62020000035090
:1043B000420910B50FD0012A0FD00A4B0A4C022A2D
:1043C00018BF234600F01F0049B103F580530122B6
:1043D00082401A6010BD1346F4E7044BF2E703F580
:1043E0000053F4E768800050608200506480005001
:1043F00008B580201DF014FD034B98429EBF4FF47A
:104400008032024B1A6708BD005A620200A00050B9
:104410001FB50023B0F5807F019377D028D83828C6
:1044200000F094800BD82438092810D809280ED819
:10443000DFE800F0676767670D0D620D377D522872
:104440005FD008D83D283BD03E2800F084800198FA
:1044500005B05DF804FB8028F9D1414B1B6F03F0D8
:104460000703013B032BF2D8DFE803F044413F6C24
:10447000B0F5D06F5BD019D8B0F5A06F66D00AD870
:10448000B0F5806F3DD0B0F5906FE0D1002001A96C
:10449000FFF742FEDBE7B0F5B06F2DD0B0F5C06F8F
:1044A000D5D1002001A9FFF76BFED0E7B0F5006F72
:1044B000ECD00AD8B0F5E06F4DD0B0F5F06FC6D1B2
:1044C000002001A9FFF7D0FEC1E7B0F5086FBED10B
:1044D000234BD3F8003103F00303022B2CD0032B22
:1044E0002ED0012B30D1FFF7E7F8032300E005239E
:1044F0000193ACE70223FBE7002001A9FFF7EAFDE7
:10450000A5E7002001A9FFF7C1FDA0E702934FF046
:10451000E0231B695B0705D5FFF7B8F80C2303936D
:10452000039BE5E703A902A8FFF72AFEF8E70020AE
:1045300001A9FFF749FE8AE7FFF7D8F80823D7E774
:104540001DF035FB0723D3E70123D1E7002001A9A4
:10455000FFF7AEFE7BE7002001A9FFF761FE76E7DB
:10456000008000504FF40022034B5A66012203F5ED
:1045700080439A62704700BF0090005008B5FFF773
:1045800047FF082811D00938012802D94FF6FF70DB
:1045900008BD4FF40012064B5A6603F5D8335B6A28
:1045A000DB07F3D54FF4FA70F2E7024B1888EFE718
:1045B00000900050F00C0020F8B504468020FFF772
:1045C00027FF032800F087804FF40022424B02218E
:1045D0005A6645F60E03414AC2F88030404B996254
:1045E000012103F580539962936DD903FCD4D4E97A
:1045F00000131B0543EA0163E17B94F820500B4351
:10460000217BE77E43EA0143617B6D0143EA01338D
:10461000A17B43EA811313619169D4E904031B066A
:1046200043EA806301F000410B43A17E94F823002C
:104630000B43217E43EA0143617E43EA01239361F8
:10464000136AE66923F00D0394F8221043EA870306
:10465000002E2DD11362966A94F8213045EA031397
:1046600026F033052B4343F0010393621D4D1B4B92
:104670009A6D35EA0202FBD10222194DAA621A652F
:104680009A6D5200FCD41A69A56822F4700242EABD
:1046900005521A614FF00042114B9A6119B902227A
:1046A00003F580539A6278B901220F4B9A620BE0AE
:1046B000334343F008031362936A23F03303034345
:1046C0002B4343EA4103936294F824301BB1034B1C
:1046D000064AC3F88020F8BD0090005000C000508A
:1046E00000D000500300014000E00050F1A7FFFFA0
:1046F0001E4BFF2870B59E6A35D89A6D12F4803F24
:1047000018BF01211A4A18BF9162022191629B6D64
:10471000DC0303D5154A936D9907FCD50222144B8F
:10472000124D1A65AC6D14F08044FBD1114AAB698F
:1047300092F9002023F47F03024423F47F4382F3A1
:10474000080243EA002343EA0243AB6131460220F8
:10475000FFF7CCFDAB6DDB0303D531460120FFF73E
:10476000C5FD204670BD2124FBE700BF00C00050FE
:1047700000D00050702B0020014B93F900007047CF
:10478000702B002001221548154B816A9A62826DB8
:1047900002F00302032AFAD102229A621A650F4A32
:1047A000936D5B00FCD40F48936D30EA0303FBD19B
:1047B00001220B4B1A65A3F580539A6D9007FCD428
:1047C0009A6D9207FCD50222054B1A65034A936D38
:1047D0009B07FCD50320FFF789BD00BF00C0005038
:1047E00000D0005003000100F0B5D0E901434FF4C0
:1047F00080061A4A4178057856664FF4D15602274A
:1048000002F5B8325662164E4F2977604FF0010715
:1048100028BF4F2106F5805677601669F603FCD451
:1048200041EA052151611B01417B43EA04230B430B
:10483000017B43EA41039360C37B817B1B0143EA15
:104840004113417C0B43017C43EA41035360837C69
:1048500013B16FF4D1535362F0BD00BF009000500C
:1048600000100250014B1880704700BFF00C002070
:10487000014B1880704700BFEE0C00204FF400126F
:1048800008B5184B5A660223174A5360936813F40D
:104890008033FBD1012822D1FEF70EFF134B984243
:1048A00015D003F5122303F5F863984213D0104B8B
:1048B00000EB8002400AB3FBF0F3520A0A49CA62D5
:1048C0000B6301234B620022074B5A6008BD45F67B
:1048D0007A13084AF2E745F61A03074AEEE75362ED
:1048E000F1E700BF009000500040025000F0490284
:1048F00064666666D8B80500BBCF0500B0F5207FBA
:1049000010B50C4642D008D8B0F5007F33D003D89C
:1049100088B1B0F5C07F0ED010BDB0F5607FFBD17F
:104920001F4A4C1ED2F8803023F0300343EA0413B0
:10493000C2F88030F0E71DF06BFA1DF035FB4FF444
:104940008031184B164A1967136F013C23F47043EA
:1049500043EA04331367FEF799FE0446FFF78AFB28
:10496000C0F1020120461DF019FB00F02DF8BDE852
:104970001040FFF73DBD0A4A4C1ED2F8903023F09C
:10498000F85343EA0463C2F89030C5E7044A4C1E6A
:10499000136F23F4806343EA84231367BCE700BFEB
:1049A000008000500090005008B50121022000F066
:1049B000F5F81DF02DFA1DF0F7FA4FF48032014B97
:1049C0001A6708BD0090005008B54FF4C0701DF084
:1049D00027FABDE808400449884294BF012102211A
:1049E0004FF42070FFF78ABF80F0FA02034B58683B
:1049F000C0F30800003818BF0120704700ED00E048
:104A0000054B420953F8223000F01F0023FA00F052
:104A1000C04300F00100704700E100E010B5224BF8
:104A200070B94FF40031214A1860516602F598328E
:104A30005268012A03D11E4AD2F800211A6010BD23
:104A40001B68002BFBD01B4A5268012AF7D0184A7A
:104A50008020C2F80031FFF7DBFC05281FD14FF49E
:104A6000C070FFF755FC0128044604D102214FF421
:104A7000C070FFF743FF07220F4B1A610122A3F515
:104A800080535A600B4A1369DB07FCD5012CD6D141
:104A90002146BDE810404FF4C070FFF72FBF012240
:104AA000064B5A60CBE700BF281D00200090005045
:104AB0000080005000C0015000E0015000D00150C3
:104AC000044A4178536F23F4407343EA0123536748
:104AD000704700BF0040005010B5044610B10020E0
:104AE000FFF79CFF104A136943F00403136103F0BE
:104AF00091F91DF083FA0D4B0D4AC3F820241DF0E7
:104B00006DFA28F04DF81DF06DFA1DF078FA03F0FB
:104B1000A9F91CB9BDE81040FEF7B8BD0120BDE8F9
:104B20001040FFF77BBF00BF00ED00E000E0035046
:104B30000000FF0F10B5044610B10020FFF76EFF14
:104B40000E4A136943F0040313610D4B0D4AC3F879
:104B5000202403F05FF91DF041FA28F021F81DF040
:104B600041FA03F07FF91CB9BDE81040FEF78EBD95
:104B70000120BDE81040FFF751BF00BF00ED00E08D
:104B800000E003500000FF0F034A0179D36E23F0C9
:104B900030030B43D366704700400050F8B504461D
:104BA0001C4BD3F88420D106FBD4D3F88430C3F354
:104BB00081139C422CD0FEF74FFD012C064602D1FA
:104BC00021461DF0EBF91DF009FA4FF00072124B6F
:104BD00007465A6620461DF019FA4FF480630D4DC2
:104BE000621E93402B676B6E9A0103D4D5F8843014
:104BF0009B060AD538461DF0F5F9022C08D130463F
:104C0000BDE8F84000211DF0C9B9D5F88430EAE7C5
:104C1000F8BD00BF004000500060005010B50C46C9
:104C200008B9FEF719FD074B21461B783BB1064B2F
:104C3000984204D80120BDE81040FFF7AFBF022022
:104C4000F9E700BF712B0020005A62020278034B83
:104C5000012100201A70FFF7E1BF00BF712B002077
:104C60004FF0004238B5264B26495A6601224A6069
:104C70004AF6CD3103F50B235D6C1964154030BB4A
:104C80009968C9070BD4002401221F4B5A6015B143
:104C90001E4B1F4A1A6426F0C1FA204638BD1A4935
:104CA0008A601C4AD96ACC0705D4904201D10724F6
:104CB000EAE70130F6E79042E5D1F8E70132DC6A35
:104CC00014F0080406D08A42F8D10724DFE7002256
:104CD0001049F4E78A42F8D020220B4B0B495A6264
:104CE0000122A3F580539A6023460A4A486A800647
:104CF00003D49342E9D00133F8E79342C7D1E4E704
:104D000000900050005009500060095000400950C8
:104D10003254FFFF40420F004FF0004238B5174BAE
:104D2000174C5A66012203F50C235A604AF6CD331C
:104D3000656C2364437893401343124AD363C3786A
:104D40008178A2689B0043EA011322F074021343A6
:104D5000A3600279837943EA022323614279C3790C
:104D600043EA022363610078FFF77AFFEB0744BF51
:104D7000054B236426F052FA012038BD0090005004
:104D800000400950004000503254FFFF072A2DE92F
:104D9000F041154698464FF0030401F003072DD863
:104DA0009600B44000FA06F221461C481DF02FF987
:104DB00021461B4807FA06F21DF029F9194B1A493A
:104DC0009DF81800B8F1000F18BF1946012303FA27
:104DD00005F50D60154B1649002818BF0B461D60E0
:104DE000144B9DF81C00C3F82054103103F22443E7
:104DF000002818BF0B461D60BDE8F081A2F108062F
:104E0000B600B44000FA06F221460B481DF0FFF848
:104E100021460A4807FA06F2CEE700BF00C4035055
:104E200008C4035010D4035010E4035014E403509A
:104E300014D4035000E0035004C403500CC40350C6
:104E4000F8B504460D461F4616464AB101238B406D
:104E50003021184A01FB0022F7B141F210015350F2
:104E600004EB4403072D4FF00F014FEA031316D84C
:104E7000A80006FA00F281400F4818441DF0C7F858
:104E80004EB9012330210B4AAB4001FB042277B11C
:104E900041F210015350F8BD42F21001DFE7A5F1D5
:104EA0000800800006FA00F281400448E5E742F27B
:104EB0001001EFE700C0035004C003500CC00350C2
:104EC000104B0140D3F8302422EA0002C3F830240A
:104ED000D3F830241143C3F83014D3F82C24024300
:104EE000C3F82C24084AD36E03F03003202B1FBFD5
:104EF000D36E23F0300343F01003D366034BC3F8A3
:104F00002004704700C003500040005000E00350F0
:104F100038B514461D46032283F00103FFF790FFC6
:104F2000012004F11001884005FA01F1FFF7C8FFE4
:104F30009DF81010034B044A002918BF134618604F
:104F400038BD00BF24E4035024D403504FF40012B2
:104F50000B4B10B5C3F88020BFF34F8FBFF36F8F9B
:104F60000024FF22074B21465C6520209A625C608A
:104F7000FFF71EFA2146BDE810402120FFF718BABE
:104F800000E100E000000450044A054B002908BF7E
:104F90001346012282401A60704700BF401004503F
:104FA0004020045010B5012104462020FFF700FAEC
:104FB00001212120FFF7FCF90122114B5A602278D0
:104FC00012069A606178A27842EA01429A61FF2251
:104FD0009A6200229A631A644FF000425A654FF0B9
:104FE000FF324FF4001103F500531A65054AC2F869
:104FF0008011E3781B01DBB282F81533116010BD1C
:105000000000045000E100E0F8B50125C3B2DFF86C
:1050100088C0D1F800E09D408F7ACB7A0C46097B9E
:10502000CCF850500CF5005C4CF820E04FF0300EFE
:10503000184E1B050EFB006094F80DC043EA0743B1
:1050400043EA415322F00302C0F860C0C36502671F
:105050001CF0CBFF736D2B437365237A13B1336C54
:105060002B433364637A13B1B36B2B43B36322795D
:10507000A37943EA0243084A93616179E37943EAF9
:10508000014306498B61034B55639D64BDE8F840BD
:105090001CF0B1BF00000450002004500010045068
:1050A00010B50124C0B284401CF09FFF044B5A6D20
:1050B00022EA04025A659C62BDE810401CF09BBFC6
:1050C0000000045010B50124C0B284401CF08DFFD4
:1050D000074BDA6A224208D15B6B9C430CBF012468
:1050E00000241CF088FF204610BD0024F9E700BF13
:1050F000000004504FF40032054B9A6641F67132BD
:1051000003F51C33DA63012203F50053DA607047BC
:105110000090005041F671320121064BDA6303F52D
:105120000052D1600022DA634FF40032A3F5183345
:105130009A66704700000350CB784A7810B55B013F
:105140000C7843EA82030A79234343EA02130C22D0
:10515000424302F1B0421363012C02BF8A78024B32
:1051600043F8202010BD00BFE880035008B54FF081
:10517000B0435A686AB958B15B680BB11CF057FF6D
:1051800001210D4B59601CF052FF4FF0B043D96024
:1051900008BD5B680BB11CF04AFF0028F0D11CF081
:1051A00046FF4FF0B0430222DA601CF040FF0122BC
:1051B000024B5A60ECE700BF001000580020005876
:1051C0004FF0B0414B6810B50BB11CF030FF01221D
:1051D0000B4BC4785A608378934043EA8403447845
:1051E0002343047943EA0413447943EAC4038B60FC
:1051F000044B5A600378C3F10203CB6010BD00BFBB
:1052000000200058001000584FF48032064B5A66B8
:1052100003F5E6235B69C3F38512827003F03F0256
:105220001B0B42700370704700900050014B986C4C
:10523000D96C70470080E00F024B1868C0F307403C
:10524000704700BF0080E00F0120034B9B680A33CA
:1052500003F01F03984070470080E00F70B50546CB
:1052600016461C4621B94FF420701CF0D9FD0146AA
:10527000402C1BD003D8DCB1202C1BD070BD602C7F
:10528000FCD1042303FB06F2530803EB4113B3FBE9
:10529000F2F3094A203B02EAC303AA6822F0600243
:1052A000AA60AA681443AC60EB61E7E70623E9E76C
:1052B0001023E7E70823E5E7F8FF7F00012200F568
:1052C00080535A6040F6AA6341F20502436100230D
:1052D0000B498360C365C26000F500520361C3617E
:1052E000C364916407498365884203D10365002341
:1052F000436502E004498842F8D0012353607047B7
:10530000FFFF010000C005500000065070B50D46BB
:10531000FFF7D4FF012300F580567360AB7C044691
:105320001BB1836843F080438360EB7C5BB1354AFB
:105330002B7D944245D1A2F51032C2F88C31E36D39
:1053400043F08003E3652A8A6B7B20461343EA8996
:105350001343E3602B7BD5E90112FFF77FFF6B7DE1
:105360001BB1A36843F48033A360AB7D1BB1A3687A
:1053700043F40043A360EB7D2A7E1B07120502F471
:10538000E00203F0E0431343A365697E1D4A8B1ED0
:10539000012B1D4B1FD894421BD002F58042944232
:1053A0000CBF01224FF0FF3203EB4213022041F207
:1053B0001C620329985020D10423F3652B78636184
:1053C00070BD124A944204BFA2F52032C2F89C314B
:1053D000B5E70022E8E794420DD00C4A94420CBF96
:1053E00001224FF0FF3203EB4213022042F21C6213
:1053F00001299850DFE70022F5E7042204F5005365
:10540000DA65DBE700C0055000C00350000006501D
:1054100038B50446054D25F026FF0FCC0FC594E89E
:10542000030085E80300002038BD00BF2C1D0020CC
:1054300047F6FF739A42F0B56FD002296FD8394B07
:105440005B5C012B6BD8384DDF0005EBC30415F80E
:105450003330A178012B13D10025E078401AA842FF
:1054600002D80844C0B2F0BD431B6668A0EB5303EA
:1054700036F913609642D4BF1D4603F1FF30EEE7C4
:1054800060680028EFD0B0F90040944204DBB0F926
:1054900002409442B8BF144683883D44FF2B19BF95
:1054A000C8224FF0280CB0F90620B0F908C0A2EBD2
:1054B00004030CBF0126002693FBFCF333446E78F3
:1054C0001BB29E4201DD002B01DA731E1BB24FF4AA
:1054D0007A7C01339BB2071D5D1E2DB24FEAC50ECB
:1054E00000EBC505EA88AD689E4214FB025222EA31
:1054F000E27202F15C02B2FBFCF204DD37F83350D9
:1055000001339542E8D200EB0E039888904228BF01
:105510001046884238BF0846A4E7FF20A3E70020D2
:10552000A1E700BF45D203002C1D00200229F0B5E1
:1055300055D82C4B585C012851D82B4C04EBC0019A
:1055400014F830004B6801280FD1C8788C7890424D
:1055500094BFC4EB0001C4EB0201001BCAB282423B
:10556000C8BF002233F91200F0BD002B37D0887875
:10557000904202D3B3F90200F6E7CC78B3F9000009
:105580009442F1D94C789988013CA1F1FF0671420F
:1055900003F10405E4B2714103F10C07CEB2B44249
:1055A00016D805EBC1014FF47A756A43B1F9024090
:1055B0004968521A04EBD47102EB610292FBF4F2D7
:1055C0009042D1DBB3F902009042CDDC10B2CBE7C0
:1055D00037F831C04E1C9445E3D33146DEE703482B
:1055E000C2E700BF45D203002C1D00200080FFFF52
:1055F00008B50448FFF70CFFBDE80840012025F07E
:1056000036BE00BF44D9030000487047F20C0020AA
:105610007FB50222084B0949CDE901234FF0007301
:10562000CDE90313052301A94FF0FF30059325F0C1
:1056300053FE07B05DF804FB006A18000002040086
:105640001B0603F0706300F00F000902034301F42E
:105650007061120402F470220B431343014A136079
:10566000704700BF0020025C60B5054619B10139E2
:10567000B1F5806F0FD2094EF06810F48030FBD185
:1056800043EA012312072B4302F08052134343F0F5
:105690000043736060BD0120FCE700BF0020025C96
:1056A0000122054B9A60DA68D203FCD4D86820F056
:1056B0000F000004000C70470020025C014B1868CA
:1056C000704700BF0040025C014B5868704700BF44
:1056D0000010025C014B186B704700BF0010025CA9
:1056E000014B1868704700BF0010025C014B9860C6
:1056F000704700BF0010025C014B1864704700BF88
:105700000010025C014B5864704700BF0010025C3F
:10571000014B5863704700BF0010025C0022014B30
:105720001A6070470010025C024A136843F00103DC
:10573000136070470010025C024A136823F00103F3
:10574000136070470010025C43F20402014B1A60C0
:10575000704700BF0010025C024A136843F0300338
:10576000136070470010025C044B1A6842F48072A8
:105770001A601A6822F480721A6070470010025C86
:10578000024A136843F48063136070470010025CA0
:10579000034A136823F4702343EA004313607047FD
:1057A0000010025C044B1A6902605A6942609A69EF
:1057B0008260DB69C36070470010025C0268044BC2
:1057C0001A6142685A6182689A61C268DA617047F8
:1057D0000010025C024B1A6BD207FCD418627047AF
:1057E0000010025C0322024B186019615A63704773
:1057F0000000025C82B01FB507930A9B04AC8B4289
:1058000028BF0B4604E907001048D100079948BF9C
:1058100003330160099948BF23F0030323F0704369
:1058200001F0E041194341F000518160002102F094
:10583000E042019C1A4342F00052C160046182615F
:10584000416304B0BDE8104002B070470000025C44
:105850003F22034B1A631022DA6103229A637047D6
:105860000000025C024AD36B9B07FCD4704700BF68
:105870000000025C044B9B6A13F0240F14BF01204C
:1058800000208000704700BF0000025C08B5FFF7F1
:10589000F1FF064BDB6B23F47F4323F0EF0303435D
:1058A0001EBF0122024BC3F8FC2F08BD0000025CA2
:1058B00000F0FF3F4368182B0AD0202B1DD0102B7F
:1058C0002BD1174BD3F80434DB010AD401207047E5
:1058D000134BD3F804349A01F8D50B6843F008034E
:1058E0000B6003680F4A934210D10B6843F04003EA
:1058F0000B600023436000207047094BD3F8043449
:105900005B01E3D50B6843F00403E9E7064A9342E1
:10591000F1D10B6843F08003EAE70720704700BF2E
:105920000000025C732B0020722B00200B4607B591
:105930000749D1F80414C90708D50021009202468E
:10594000084600F05BF803B05DF804FB0120FAE7BD
:105950000000025C1346064AD2F80424D20504D59E
:105960000A46014600201CF081BD0120704700BF9F
:105970000000025C13B5084CD4F80444E40508D5D3
:10598000009313460A460146002000F061F802B079
:1059900010BD0120FBE700BF0000025C13B5084CFE
:1059A000D4F80444E40508D5009313460A4601469A
:1059B000002000F071F802B010BD0120FBE700BF2D
:1059C0000000025C70B504460D4616468CB00A4ACB
:1059D00009AB07CA83E807001A462146CDE90563EB
:1059E000CDE90333CDE9013300954FF480301CF04D
:1059F00069FC0CB070BD00BF48D20300F0B51C4676
:105A00005B6815468DB01A07129E1AD1CBB1726829
:105A1000934216D10C4B0D4A53F8217009AB07CABB
:105A200083E807001A462946CDE90533CDE903335B
:105A3000CDE90163009447F480701CF043FC0DB085
:105A4000F0BD0720FBE700BF54D2030048D203009B
:105A5000F0B516465A688DB0102A0D46129F15D122
:105A60007A68102A12D10A4A09AC07CA84E80700EA
:105A700022462946CDE90547CDE90344CDE9014455
:105A8000044800961CF01EFC0DB0F0BD0720FBE79B
:105A900048D2030030000100F0B516465A688DB0B8
:105AA000102A0D46129F15D17A68102A12D10A4A7F
:105AB00009AC07CA84E8070022462946CDE90574E7
:105AC000CDE90344CDE90144044800961CF0FAFBFB
:105AD0000DB0F0BD0720FBE748D203001000010025
:105AE00082B070B586B0149D03AE202D86E8070005
:105AF0000B9359D805EB85038B4203D006236B43E8
:105B00008B4253D10C9BAB4250D10F9BB3EB450F53
:105B10004CD1129A934249D1012229462220159B49
:105B2000FFF7A2FD044630BB034606220E210C20DF
:105B3000FFF786FD0123CDE900332B4696E80700E9
:105B40001CF053FB0E230BAA009307CA2B461CF034
:105B500097FA0C23164C00930EAA2B4607CA1CF08A
:105B6000BFFA636823F07F0343F026036360FFF707
:105B700097FD30B10624204606B0BDE8704002B063
:105B80007047636823F07F0343F022036360FFF7ED
:105B900087FD04460028EDD1062311AA009307CA09
:105BA0002B461CF0D0FAE6E70124E4E70724E2E7FD
:105BB0000020025C70B598B0002843D02C4C08AD92
:105BC0000FCC0FC50FCC0FC50FCC0FC594E80F003D
:105BD00085E80F006D4604AE04F1100320340FCBAE
:105BE00085E80F0094E80F0086E80F00FFF7BCFD82
:105BF0000420FFF7CDFDFFF7A7FD3046FFF7DEFDE0
:105C0000002408AE56F8040B0134FFF7E3FD102C16
:105C1000F8D1FFF759FD0328FBD90024FFF77EFDDB
:105C20002646FFF74BFD55F8043B01365840042E3D
:105C300044EA0004F5D12CB1012206200D4B1A7064
:105C400018B070BDFFF790FD0820FFF74FFD002052
:105C5000FFF752FD0720FFF755FD4FF40070FFF7E7
:105C600057FD0820FFF794FDFFF75EFD0020E7E7F2
:105C700030D30300752B002008B5FFF775FD012216
:105C8000014B1A7008BD00BF742B00201FB51CF01B
:105C90006CFD044630B1012206240D4B1A702046DB
:105CA00004B010BDFFF70AFD0090FFF707FD01905B
:105CB000FFF704FD0290FFF701FD03906846FFF730
:105CC0007DFDFFF7D9FFFFF747FDFFF759FDE6E739
:105CD000752B002006289ABF014B185C00207047E6
:105CE00090D3030030B5154B87B00293144B03904B
:105CF000049346F611030D46059300F077F9142836
:105D0000044616D168461CF0DAFD4FF0A843032282
:105D100002A95A6319601D619A63DA6B9207FCD17C
:105D2000142C02D168461CF0D8FD00F093F904460B
:105D300001E00028E9D0204607B030BD441D002016
:105D4000040000202DE9F04FB1B005468C469E4678
:105D5000E8466F4EDDF8EC90409C06F1100A47468D
:105D600030687168083603C75645B846F7D13E9B80
:105D700003EB0208C8F1000A0AF00F0AB9F1000F9C
:105D800000F09D80C9F1000707F00F070121DDF841
:105D9000FCB044F00050C4F11006CDF810B00591ED
:105DA0000690300200F4F85040F021000790B9F15D
:105DB000000F40F08680CDF820D047F00050002D35
:105DC00000F08480099121210A9041EA07210B917A
:105DD00042F00050CDF830C03D9B08A94FEA0A2C94
:105DE0000D910E904CF041000F901093002A75D148
:105DF0003E9B119143F0005312933C9B13901493DC
:105E000010AB1593434B444A169340F61103179376
:105E1000424B0021002D08BF1346189314AB199371
:105E20003F4B10221A9311231B931CAB184625F0ED
:105E300094FF01221D92002246F0804603461E96E2
:105E4000239205B9EB46102CCDF880B024AE4BD18F
:105E500001232246002130462193229425F07DFF24
:105E600020AB002125938F4218BF334647F0804274
:105E700026923A9A2CA828922993B2FA82F35B09C7
:105E800049EA837310222B912A9325F066FFB9F11A
:105E9000000F00D028AED04448F080432CA918A8A9
:105EA0002D962E93FFF71EFF30B92DB90346A3425E
:105EB00025D1002818BF2C2031B0BDE8F08F102765
:105EC00064E7CDF820E049F0005078E7002C3FF47B
:105ED00079AF04A9099101210A9076E73E9B0CAAAB
:105EE00011924120129388E710220021304621931D
:105EF000229425F032FF002CB2D10123B1E703F147
:105F0000C0026A4412F8C02C01331043CFE700BF2F
:105F100097D3030010000020ACD30300B0D30300DC
:105F200004000020F0B5C0299FB0DDE9244557D01A
:105F3000B1F5807F04D0802948D029201FB0F0BD62
:105F400001265CB140F23447029410240396049475
:105F5000212401970594069502AC0AE040F214470B
:105F6000029410240396049421240594012401979B
:105F70000695079401251024089409950A92212278
:105F80000B950C940D92174A0AAD0E92164A0F9576
:105F9000109242F6110211921293139514941592D5
:105FA00001AA1692D3B112AB1793042318931123AD
:105FB000199316AB1A901B9340F61103C9081C9154
:105FC0001AA806A91D93FFF78DFEB7E7012614B99D
:105FD0004FF48267C4E74FF48667B5E70EABE3E79B
:105FE0000F20ABE7A8D303001000001038B5164B04
:105FF0005A6E42F004025A66D3F8802242F001023F
:10600000C3F88022114B5B68C3F3080343B14FF020
:10601000A842D36B13F0430FFBD11424204638BDA4
:106020004FF0A843DC6B14F04304FBD1084D2B6800
:106030001BB90421284602F0B5FD2B68013343F05B
:1060400000432B60EAE700BF0080005000ED00E055
:10605000441D0020014B00205B68704700ED00E00C
:106060004FF40052034B00209A660322C3F86022CB
:10607000704700BF009000504FF40052034B0020C7
:106080009A660322C3F86022704700BF00A0005048
:10609000012300F01F02A0F506200949A0F5506079
:1060A0004009934051F820201A4341F82020054927
:1060B00051F8202022EA030241F82020704700BF57
:1060C0005C1D0020481D00200121A0F506230E4A7A
:1060D000A3F550635B0900F01F00814052F82300D4
:1060E000014342F823100949D1E90030034488688C
:1060F0000344C868096903445B1802BFC2E900335E
:10610000C2E9023313617047481D00205C1D002066
:106110002DE9F04FA9B003921D4604460822339E94
:10612000CDE90401414021FA02F34B40980702F106
:10613000080218BF9B00202A1C44F4D18123B4FB21
:10614000F3F303EBC313E41A734B04F506241B7833
:1061500004F55064002B3ED1FDF734FF074620B113
:106160006FF0910029B0BDE8F08F0146402208A8E9
:1061700025F0F3FD4022394618A825F0EEFDDFF8A2
:10618000B481DFF8B491C3460BF10F0ACDF800A03B
:10619000102208A95B46D9F8000024F0F2FD002285
:1061A000014608F1100808AF914246D1CDF800A091
:1061B0005B461022D9F8000018A924F0EBFD4FF03F
:1061C000000A834618AFD34541D1544B9845DAD1E4
:1061D0000122514B1A704FF0810A4FF00008DFF88E
:1061E0005CB1A4F50627A7F550635B095BF8232093
:1061F00004F01F01CA40D2073DD4494A52F8233067
:10620000CB40DB072AD5B8F1000F08BFA046812399
:10621000A7F6FF47B7FBF3F303EBC313FF1A07F52A
:106220000624BAF1010A04F55064DAD1039BBBB12C
:10623000B8F1000F14D0444619E057F8040BCDE92B
:106240000612FFF725FF079A06990132ACE757F8C7
:10625000040BFFF739FF0AF1010AB4E7039B13B9F6
:106260006FF08B007EE7B8F1000F18BF4446349BF7
:1062700000201C6076E7329B13B10023329A136032
:106280000EB1002333601023DFF8AC9000932A4650
:1062900000232146D9F8000012F004FF60BB3299B8
:1062A0002A68204BC9B99A4206D02146D9F8000085
:1062B00012F090FF0028D3D1D5E90223DDE90410C4
:1062C000834208BF8A42A2D1039B002BCFD06B68C8
:1062D000012BCCD16FF0840044E7102032999A4210
:1062E0000860E2D1002EE7D033462146D9F80000FD
:1062F00018AA12F02BFF48B10B4B9842D5D00B4B8C
:106300009842D2D00A4B9842D6D029E7329A3368C5
:1063100012689B1A3360CFE7762B002000710800CB
:10632000481D0020105D175EFFDF00F011E000F057
:10633000FEDF00F0006D08000C0B00205C1D00204B
:106340002DE9F04F87B08246894698461646DDF81B
:1063500040B02AB1002B4FD040F26C739A424ED815
:10636000BBF1010F4ED8002406F110073946012079
:1063700005941CF044FE0546002846D021463A46C6
:1063800025F0EBFC05ABCDE9014300942B4601223F
:1063900050464946FFF7BCFE044680B110F18C0F11
:1063A00008BF6FF08D043A460021284625F0D5FC41
:1063B00028461CF034FE204607B0BDE8F08F144B91
:1063C000C5E902A92B60C5F804B02EB1324641469A
:1063D00005F1100025F0CCFC059E0E483B462A46F0
:1063E0003146006812F0C6FD18B93046FFF750FE7E
:1063F000D9E76FF09104D6E76FF08604DBE76FF022
:106400009104D8E76FF08504D5E76FF08C04D2E7EC
:10641000105D175E0C0B00202DE9F0438DB0814616
:10642000DDE914780E4615461C469BB1B8F1000F05
:1064300005D16FF0860630460DB0BDE8F083002F21
:10644000F7D0B7F1005FF4D3C3F1005303F5004375
:106450009F42EED81022002108A825F07EFC0022E1
:1064600007AB029305AB019306AB31460093484658
:1064700008ABCDE90522FFF74BFE06460028DAD12E
:10648000059BA4B1AB4215D853EA0504D1D1069BB4
:106490000B48C8F8004000943A46079900682B441E
:1064A00012F000FE002818BF6FF09106C3E7AB4260
:1064B000EDD2BEE75B1B9C4228BF1C46E7E700BF4E
:1064C0000C0B002030B58DB00C4605461022002183
:1064D00008A825F042FC002207AB029305AB01930C
:1064E00006AB21460093284608ABCDE90522FFF70D
:1064F0000FFE0446D8B9099B012B1BD0079D104BFA
:106500002946186812F066FEB8B90122A5F50623DF
:106510000C49A3F550635B0905F01F00824051F858
:1065200023004240284641F82320FFF7CDFD2046B6
:106530000DB030BD6FF08404F9E76FF09104F6E719
:106540000C0B00205C1D00202DE9F04F89B00746A0
:106550000E46FFF7C5F8C00709D4042401201CF03B
:1065600011F980B3013CF9D16FF0920028E01022BC
:1065700000210DEB020025F0F0FB04A8FFF712F953
:10658000049B002BE9D0059B002BE6D0069B002B3B
:10659000E3D0079B002BE0D00025DFF8808008F1D6
:1065A0000409B54219D34FF48A74FFF793F800F049
:1065B0000E03062B2DD1C30501D5FFF7BDF8002032
:1065C00009B0BDE8F08FFFF785F810F00E03FAD0A0
:1065D000022BF8D04105DFD5C4E7FFF775F8A6EB2D
:1065E000050A8400544528BF544699E80300002357
:1065F0008DE80300CDE9054307EB050BCDF810B09E
:10660000029404AAD8F8003007CA1BF0B4FF25444E
:10661000C7E724FA03F3DA07A6D5C6E7BCD303001D
:106620001FB504A800E90E0011460198FFF78CFF82
:1066300070B1FFF721FBBFF34F8F0749074BCA68C3
:1066400002F4E0621343CB60BFF34F8F00BFFDE75E
:1066500005B05DF804FB00BF00ED00E00400FA05A2
:106660002DE9F0438BB01746DDE91545DDE913262A
:106670009C46DDE91738894621B96FF086000BB0DA
:10668000BDE8F083002FF8D00EB9002CF5D1129997
:1066900009B9002AF1D10DB9002BEED1B8F1000FE4
:1066A000EBD0244A944541D10288B2F5105F3DD128
:1066B0004288B7EBD20FE0D322F04001802902D00C
:1066C000B2F5807FD9D16CB3AE421CD2321995425B
:1066D00019D29C42D1D831462246284625F023FBC8
:1066E0002E4614F00F03C8D1CDE90197CDE903364A
:1066F000CDE90543CDE907540993FFF7B1FC38B163
:106700006FF09200BBE79C42EBD96FF08900B6E7CF
:1067100007AA04A901A8FFF709F90546FFF7ACFC91
:106720000543EDD10020C8F80040A8E76FF08500D0
:10673000A5E700BF004440042DE9F04FA9B083460F
:1067400017469A460E46DDF8C890DDF8D88029B97C
:106750006FF08603184629B0BDE8F08F002AF7D005
:10676000B9F1000FF4D0349B002BF1D0B8F1000F39
:10677000EED00024424B0CAD93E8070085E80700FB
:106780003C22214619A8189425F0E7FA338872882C
:1067900003F4E040B0F5804FDAD03A4E3A480BEAC5
:1067A000060646F01066864263D1B2F5807F60D15E
:1067B00047F2121293425CD10620344ABAF11F0FFD
:1067C000D3680E940B931369126800FB03F3CDE9B1
:1067D0000C23BDD9339B402BBAD9359B1F2B4BD9EA
:1067E00009F1010220261292402299F800300F97F9
:1067F000042B18AFCDE91324CDE91572109611942E
:106800001794A5D1FFF72CFC03460028A2D10B9BBF
:1068100015AACDE9086305AB07CA83E8070002ABF8
:1068200012AA07CA83E80700DDE910018DE803001A
:106830000F9B95E80700FFF753F90546FFF71CFC8F
:1068400055EA000384D13D46349A20AE2C4603CC51
:10685000B44210605160254602F10802F6D10022D0
:106860001146B9540132402AFBD12022C8F8002039
:1068700070E76FF085036DE76FF089036AE700BF8B
:1068800048D203000000FFF6000002095CD20300BA
:10689000F0B50E461D468BB0002853D0002951D0CC
:1068A000002A4FD0002B4DD0048804F44F43B3F599
:1068B000824F03D06FF085000BB0F0BDE3B224F03F
:1068C000FF04B4F5E24FB0F802C0F3D1122B01D0AF
:1068D000172BEFD10CF10701B2EBD10F4FEAD10723
:1068E00033D31D4A04ACBCF5807F07CA84E8070097
:1068F000E0D1122B07D1194B1A691B681344CDE95B
:106900000432002306930023CDE907670993FFF7BC
:10691000A7FB0028D0D1124A02AB92E8030083E81B
:1069200003000AAB13E903008DE80300079B94E81A
:1069300007001BF0A5FD0446FFF79EFB204307D18F
:106940002F60B9E76FF08600B6E76FF08900B3E714
:106950006FF09200B0E700BF48D203005CD20300A2
:10696000B4D303002DE9F0438FB01D46DDE916C610
:1069700000285CD000295AD0002A58D0002B56D0CD
:10698000BCF1000F53D0002E51D0038803F44F44C4
:10699000B4F5824F51D1DCB223F0FF03B3F5824F3F
:1069A00040884AD0122C01D0172C46D1C31DB2EB1F
:1069B000D30F4FEAD3083AD34FEA4802571C674532
:1069C00038D8B0F5807F38D1122C18BF4FF00009AD
:1069D0004FF0000308BF1C4CCDE9081805F1010178
:1069E00014BF4C46D4F80C90CDE90B120A930D93CA
:1069F000FFF736FBC0B9CDE9058902AB08AA07CA83
:106A000083E807000EAB13E903008DE803000B9B3E
:106A100094E807001BF053FD0446FFF72DFB2043CD
:106A20000ED104232B7037600FB0BDE8F0836FF0F8
:106A30008600F9E76FF08900F6E76FF08500F3E76D
:106A40006FF09200F0E700BF5CD203002DE9F04345
:106A500089B00E4615461F46DDF8488020B96FF014
:106A6000860009B0BDE8F0830029F8D0002AF6D0EE
:106A7000B8F1000FF3D0038803F44F42B2F5824F10
:106A800002D06FF08500ECE7DAB2122A01D0172AA3
:106A9000F7D123F0FF03B3F5E24F41D14488C8F8A2
:106AA000004044B9EB00B3F5807FC8F80030E8D16E
:106AB000122A0DD108E0E31DB5EBD30FCFD1B4F509
:106AC000807FDED1122A29D1354B1C681B691C44FA
:106AD0000023194670192C4414F801CD10F8012D2B
:106AE0001143B2EB0C020CBF4FF0FF3C4FF0000C17
:106AF00086420CEA030343EA0203EDD10029AED03B
:106B0000002BACDA109B9D4246D82A4631463846C7
:106B100025F02EF9119B00201D60A2E70024D7E785
:106B20003378042B9BD16B1EDB005B08B3F5807FB1
:106B3000C8F80030A5D1122A06F1010318BF4FF0A2
:106B400000094FF0400205934FF000030ABF144CB8
:106B50004C46D4F80C90CDE90623FFF781FA0028C3
:106B60007FF47FAFCDF80C90D8F800300733DB0806
:106B7000029308AB13E903008DE80300059B94E83A
:106B800007001BF049FD0446FFF776FA00287FF462
:106B900068AF002CB6D062E76FF0890061E700BFF4
:106BA0005CD203000388B3F5105F0ED14388DB0885
:106BB000103B102B0CD8084A22FA03F313F0010FF4
:106BC00014BF00206FF0860070476FF0850070479B
:106BD0006FF08600704700BF010101002DE9F04F02
:106BE0008FB01546DDE918A91E46DDF868801C9FA8
:106BF00009B300B3B8F1000F1DD0E7B1BAF1000F2F
:106C000002D1B9F1000F16D1274B26F47E129A4219
:106C1000B0F802B044D1FFF7C5FF0446A8BBB5EBFE
:106C2000DB0F4FEADB0306D316F47C1FC6F30545E2
:106C300004D0102D03D96FF0860426E010251B9A8E
:106C400095422AD8CDE9011300231022CDE90593FE
:106C50000DF12809CDE9033ACDE90823CDF81C90C0
:106C6000FFF7FEF9044680B907AA04A901A8FEF7B8
:106C700071FE0646FFF700FA044656B958B92A468F
:106C80004946404625F074F83D6020460FB0BDE807
:106C9000F08F6FF092040025F6E76FF08904F4E7B7
:106CA0006FF08504F1E700BF0002C0032DE9F04159
:106CB000069F0C461646054610B309B302B9FBB948
:106CC0006288B3EBD20F4FEAD20819D34C220021CD
:106CD000284625F042F80D4B27F47E129A4212D135
:106CE0002046FFF75FFF044638B942463146281D6B
:106CF00025F03EF8C5F824802F602046BDE8F081DD
:106D00006FF08604F9E76FF08504F6E70002C00330
:106D10002DE9F0410E4614460546002840D00029D2
:106D20003ED092B10368214823F47E1383423AD1C6
:106D3000AF6BF7B1C7F1100807F1280042452844AE
:106D400006D2274425F014F8AF630020BDE8F08197
:106D5000424625F00DF81022103C3C19AA63F4D0ED
:106D6000284605F128011BF000FE0028EED146441C
:106D7000A863102C0CD9671E27F00F073A4631463E
:106D800028461BF0F2FD0028E0D1E41BDDD03E4494
:106D90002246314605F1280024F0EAFFAC63D4E72F
:106DA0006FF08600D2E76FF08800CFE70002C003E3
:106DB0002DE9F04388461F4605468BB070B169B196
:106DC00063B10368234923F47E1088423ED113F453
:106DD0007C1FC3F3054604D0102E03D96FF0860440
:106DE0002AE0102696422BD8FFF73AF9044618BB42
:106DF000AB6B05F12802CDE901236B6A2A1DCDE9B1
:106E000004231023CDE9083007AB1A4603900690FF
:106E100005F13C0901A904A8CDF81C90FEF7BEFDC0
:106E20000546FFF729F904466DB928B932464946A7
:106E3000404624F09DFF3E6020460BB0BDE8F08345
:106E40006FF08904F8E76FF09204F5E76FF08504BE
:106E5000F2E700BF0002C00307B56B46054A1068A1
:106E6000516803C36846FDF757FF002003B05DF883
:106E700004FB00BFC8D3030013B50024064A6846CC
:106E8000536F43F00103536700948DF80440FDF7FE
:106E90007BFE204602B010BD0040005030B58BB0E4
:106EA0006C46174D0FCD0FC40FCD0FC495E80300EE
:106EB00084E80300134BD3F84C2112031CD5A3F52F
:106EC000FE431C884FF6FF739C4208BF8C248DF84C
:106ED0001940FDF751FC204480F308008DF818009C
:106EE0000948FCF7EFFB6846FDF766FB3220FDF72B
:106EF000BFFC00200BB030BDD3F85041E4B2E6E750
:106F0000D0D303000080E00F00F0490230B5094DF6
:106F100087B001AC0FCD0FC42B6801A823601923E3
:106F20008DF80530FDF760FC3220FDF79BFC00205A
:106F300007B030BDF8D303006FF00403502110B543
:106F40000A480B4C13F0800F03F1010207D12344D0
:106F5000402A83F800131346F4D1002010BD03F03B
:106F60000F03043B034419761346EBE700ED00E002
:106F700000E100E010B504461BF030F8024B1C6045
:106F80001BF030F8002010BD701D002010B51BF064
:106F900025F8034B1C681BF025F8204610BD00BFE8
:106FA000701D0020034B02221868002380681946D8
:106FB00019F0C6BA100C002030B51446054687B04B
:106FC00010461BF0AAFD6369024683423CBFD4E928
:106FD00003315B181B1A7BB10F4904940391002104
:106FE000CDE90131012300932846D4E900131AF0BA
:106FF000C0FE002007B030BD0122627694F82D203B
:10700000002AF6D084F835301321E36920469847EA
:107010002046636A9847ECE7B96F01002DE9F04715
:1070200088B004460F46164698461AF0DEFF8146A1
:10703000002E7AD0237E03F0FF02002B00F0A28006
:1070400020461BF06AFD6569A84205D1637ED4E93C
:10705000033213445D1B01E0F9D9451BB54228BF3B
:1070600035461AF0C2FF94F82D308246002B6DD1C0
:107070002A463846616924F07BFE63692E462B441C
:10708000636121E0037803F0FD0111295BD1216BDD
:10709000814205D1A3F111014B424B4184F83430B8
:1070A000013E6369216B01328B4203F1010308BF8A
:1070B0002363636195426069E4D1D4E90323216BC2
:1070C0001344994200D122630025D4E90323616966
:1070D0001344994208BF6261207A6576FCF7BAFDD5
:1070E00020461BF01AFD6369834232D1257694F85D
:1070F0002D30E568656103B125632046636A9847D2
:10710000214B049403930023029323692A4601939D
:107110000123009363682168207A1AF02AFE207AFE
:10712000FCF7B8FD50461AF066FF4846C8F8006004
:107130001AF061FFD8F80030002B0CBF1B20002094
:1071400008B0BDE8F08707F8013BAAE72E46002209
:10715000B0E70123207A23760DF11E01FCF702FE31
:107160009DF81E30002BDAD00DF11F01207AFCF7BC
:10717000D1FD9DF81F100029D1D12246207AFFF7BA
:107180001BFFCCE71646D0E7B96F0100002807DBEC
:1071900001234109034A00F01F00834042F82130D7
:1071A000704700BF00E100E0002808DB012243092E
:1071B000034900F01F008240603341F823207047EC
:1071C00000E100E070B504460568FFF7DFFE844289
:1071D00002D10020FFF7CEFE95F936603046FFF76A
:1071E000E3FF002E0CDB01221949730906F01F068C
:1071F000B240203341F82320BFF34F8FBFF36F8F8E
:1072000095F937603046FFF7CFFF002E0CDB0122E7
:107210000F49730906F01F06B240203341F82320BE
:10722000BFF34F8FBFF36F8F287AFCF753FD287A97
:10723000FCF7B6FCFCF792FC00232846C4E90033B7
:10724000C4E90433A360AB6ABDE87040184700BFCF
:1072500000E100E02DE9F0430C461546064687B0F4
:107260004022002120461F4624F077FD95E80300C8
:1072700000232A692376EB6884E80300C4E9042329
:107280002A7DE36084F82C20AA7D2363012384F8FF
:10729000343084F835300E9B84F82D2023620F9B08
:1072A000E7616362109BA3622B7A84F836306B7AB5
:1072B00084F837302D4B346073602D4BB3602D4B09
:1072C00033612D4B73612D4BF360FCF78FFC38B1AC
:1072D0002B4B984204D01024204607B0BDE8F08321
:1072E000002104F10800FCF709FC07460028F2D150
:1072F0004FF00108234B3362234B84F83C80B36189
:10730000224BF3619DF8483084F8390084F83B3013
:107310009DF84430204684F83A30697D84F83880FE
:107320001BF00BFC95F909904846FFF73DFF4846D6
:10733000FFF72CFF164B0494CDE902732369CDE9C6
:1073400000836368E2682168207A1AF012FD04461F
:107350000028C0D195F908502846FFF725FF284698
:10736000FFF714FF3046FFF705FEB5E78B2B030050
:107370001D700100092B03000F2B0300C5710100D4
:10738000038000F0E32A03003B2B0300152B0300CE
:10739000B96F01002DE9F04101271C46584B86B01A
:1073A0000293584B0C9D0193574B904600930A460D
:1073B000CDE903772946554BFFF74CFF06460028D9
:1073C00040F09680236839462B6463683A206B64EA
:1073D000637A85F84930237A85F84830E37A85F86E
:1073E0004B30A37A85F84A30637B85F84D30237B98
:1073F00085F84C30E37B85F84F30A37B85F84E3021
:10740000FCF7D6FF3B460422617A207AFDF718FD8F
:107410003B460222E17AA07AFDF712FD3946606808
:10742000FCF7C6FF88F8006041462068FDF76EFF54
:107430001422637C5B0103F1A04303F57033C3F8AE
:107440001C26617A227A42EA0142C3F83426E17AA4
:10745000A27A42EA0142C3F82C2685F8506098F8D7
:107460001930032B4AD8DFE803F03447021C02230B
:1074700085F8503000230422E17BA07BFDF7E0FC7F
:10748000022741F21C61627C214B03EB4210475002
:10749000E07BA17BB13241EA004103EB42139960EA
:1074A00017E0012785F8503002220023617B207B02
:1074B000FDF7C6FC637B227B617C42EA0342154BED
:1074C00049015A500422236803F58053DA65002FDE
:1074D000D0D1237A2A6C85F84830637A052185F863
:1074E0004930D36C206843F00403D3641AF0A7FD3D
:1074F000304606B0BDE8F0810027D3E72326F7E742
:10750000B92C0300AD2C0300452D0300392D0300D9
:1075100000C0035024D60350BFF35F8F074B5A6A55
:1075200022F480325A62D3F8942022F00102C3F888
:107530009420BFF34F8FBFF36F8F704700ED00E0D3
:1075400070B52948294CFFF7E7FF8442284D2949A7
:1075500019D1D5F8C03023F0FF0343F0A003C5F8DC
:10756000C0304FF080430A68214D234EC5F8982063
:1075700043F0010301328442C5F89C60C5F8A03095
:107580000A601ED00DE0D5F8C02020F01F03203B7C
:1075900022F0FF0242F0A002B3F1005FC5F8C02064
:1075A000E1D2164B0A68124823F01F0343F003038D
:1075B000C0F89820C0F89C30114B0132C0F8A030C0
:1075C0000A60BFF35F8F0522094BC3F894205A6A03
:1075D00042F480325A62BFF34F8FBFF36F8FBFF315
:1075E0004F8FBFF36F8F70BD280D0020000F00205C
:1075F00000ED00E0741D0020030000201F0F00209C
:10760000E1FFFF3FF8B51446FFF786FF1F2C27D98F
:107610000027C2062A4D1CBF20F01F0020302A6818
:10762000CB06284B18BF21F01F01FCB2A2422BD879
:10763000D3F8C04020F01F0024F47F4444F4807449
:1076400021F01F01C3F8C04040F00300C3F89820A8
:1076500041F003010132C3F89C00C3F8A0102A6076
:107660000020BFF35F8F0522164BC3F894205A6A9F
:1076700042F480325A62BFF34F8FBFF36F8FBFF374
:107680004F8FBFF36F8FF8BDC3F89840D3F89C407D
:10769000D3F8A06024F01F04A04226F01F0601D1F9
:1076A000B142DDD0B04201D8A14207D2D3F8984010
:1076B000013724F0FF04C3F89840B6E72820D0E74C
:1076C000741D002000ED00E0BFF34F8F0549064B0D
:1076D000CA6802F4E0621343CB60BFF34F8F00BF70
:1076E000FDE700BF00ED00E00400FA05054B1A7845
:1076F0002AB95B78002B0CBF0320022070470120C1
:10770000704700BF812B00200329F8B598BF124BAA
:1077100005460E468CBF00245C5C032805D8DFE8D4
:1077200000F002080B0E44F002040C4B1F684FB926
:10773000F8BD44F00804F8E744F02004F5E744F00D
:107740008004F2E77B681A68144203D03146284669
:107750005B6898473F68EAE70CD40300A41D00204B
:1077600038B5104D2B78ABB10F4C23781BB100F01E
:10777000B7FB0023237000201BF04DFB0B4C50B1D6
:1077800000F000FC0023012120782B70FFF7BCFFE4
:107790000123237038BD0122054B1A702278054B56
:1077A0001A70F7E77C2B00207A2B0020832B002017
:1077B0007D2B00207E2B002010B51AF00FFC064B0D
:1077C00004461B781BB1BDE810401AF00BBCFFF754
:1077D000C7FF2046F7E700BF792B0020094A13783E
:1077E00030B101331370084B1B78012B03D870475D
:1077F000013B13707047054B1B780BB9FFF7B0BF07
:10780000704700BF812B0020832B00207D2B0020A0
:1078100070B51AF0E3FB124E054633789BB900F0C1
:10782000EDFC044620B128461AF0DCFB204670BD72
:107830000C481AF0C4F900F089FF0B4B1C6000F0F3
:10784000A9FD0A4B186000F02BFA1BF0E6FA084B72
:10785000002418600123284633701AF0C3FBE5E7C3
:10786000842B0020A41D0020781D0020A01D0020D6
:107870007C1D00202DE9F843284A0138135C39B1FA
:10788000274F013339781354012904D8BDE8F88310
:10789000013B1354FAE7FFF729FF0128044635D8C6
:1078A0001AF09CFBDFF88480054698F8003013B38B
:1078B0001C4E33781BB9012232701B4A1370DFF85B
:1078C000709099F8003023B100F00AFB002389F88A
:1078D000003028461AF086FB01201BF09CFA1AF0B3
:1078E0007DFB337805461BB100F04CFB0023337061
:1078F000002388F8003028461AF074FB3878A0423C
:10790000C4D02146FFF700FF3C70BFE70329F5D143
:107910000228F3D11BF085FAF0E700BF812B00208D
:10792000832B0020792B00207D2B00207C2B002036
:107930007A2B002010B504461AF050FB002C0CBF27
:10794000FF210121064A13780B44DBB21370B3FA0E
:1079500083F3BDE81040034A5B0913701AF042BB81
:10796000802B00207F2B002038B51AF037FB094B05
:1079700005461B78012B04D81AF034FB002420465E
:1079800038BD054B1C6800F047FB044428461AF03C
:1079900029FBF4E7832B0020781D002038B54160D7
:1079A00004461AF01BFB0546214604481AF00AF962
:1079B0002846BDE838401AF015BB00BFA41D0020C2
:1079C000054B1B685843054B00F5742000F23F201F
:1079D000B0FBF3F0704700BFA01D002040420F0035
:1079E0002DE9F04F85B0EFF3108772B6AFF300804A
:1079F0001AF030F800286FD0804EDFF82C823378F0
:107A000023B10020FFF7EAFE00233370FFF76EFE7C
:107A10000446002867D0841EE4B2012C6AD9FFF71F
:107A200065FE01280546764CDFF8009200F28C8056
:107A30002078854240F0C680207800F0D7FA99F887
:107A4000003013B16F4B1B782370AFF3008007B980
:107A500062B6EFF3108772B66B4B1A7852B1002200
:107A60001A70684B20781B78984203D1012121704D
:107A7000FFF74AFE654800F0FBFB19F0FAFF0546E8
:107A80000028BCD1624BDFF89481187098F8003060
:107A9000ABB189F80000DFF88C9199F800301BB188
:107AA00000F01EFA89F8005000201BF0B4F90028FD
:107AB00000F09B8000F066FA002388F800303378ED
:107AC00023B10020FFF78AFE0023337000212078C5
:107AD000FFF71AFE00232370AFF3008007B962B6E8
